{"contracts/ValoraCore.sol":{"ValoraCore":{"abi":[{"inputs":[],"name":"InvalidInitialization","type":"error"},{"inputs":[],"name":"NotInitializing","type":"error"},{"inputs":[{"internalType":"address","name":"owner","type":"address"}],"name":"OwnableInvalidOwner","type":"error"},{"inputs":[{"internalType":"address","name":"account","type":"address"}],"name":"OwnableUnauthorizedAccount","type":"error"},{"inputs":[],"name":"ReentrancyGuardReentrantCall","type":"error"},{"anonymous":false,"inputs":[{"indexed":true,"internalType":"address","name":"oldBridge","type":"address"},{"indexed":true,"internalType":"address","name":"newBridge","type":"address"}],"name":"BridgeUpdated","type":"event"},{"anonymous":false,"inputs":[{"indexed":false,"internalType":"uint64","name":"version","type":"uint64"}],"name":"Initialized","type":"event"},{"anonymous":false,"inputs":[{"indexed":true,"internalType":"address","name":"oldOracle","type":"address"},{"indexed":true,"internalType":"address","name":"newOracle","type":"address"}],"name":"OracleUpdated","type":"event"},{"anonymous":false,"inputs":[{"indexed":true,"internalType":"address","name":"previousOwner","type":"address"},{"indexed":true,"internalType":"address","name":"newOwner","type":"address"}],"name":"OwnershipTransferred","type":"event"},{"anonymous":false,"inputs":[],"name":"Paused","type":"event"},{"anonymous":false,"inputs":[{"indexed":false,"internalType":"uint256","name":"totalShares","type":"uint256"},{"indexed":false,"internalType":"uint256","name":"totalAssets","type":"uint256"}],"name":"Rebased","type":"event"},{"anonymous":false,"inputs":[{"indexed":true,"internalType":"address","name":"user","type":"address"},{"indexed":false,"internalType":"uint256","name":"amount","type":"uint256"}],"name":"Staked","type":"event"},{"anonymous":false,"inputs":[{"indexed":true,"internalType":"address","name":"user","type":"address"},{"indexed":false,"internalType":"uint256","name":"amount","type":"uint256"},{"indexed":false,"internalType":"bytes3","name":"destination","type":"bytes3"},{"indexed":false,"internalType":"bytes","name":"validatorAddress","type":"bytes"}],"name":"TokensBridgedToValidator","type":"event"},{"anonymous":false,"inputs":[],"name":"Unpaused","type":"event"},{"anonymous":false,"inputs":[{"indexed":false,"internalType":"bytes3","name":"chainId","type":"bytes3"},{"indexed":false,"internalType":"bytes","name":"validatorAddress","type":"bytes"}],"name":"ValidatorAddressUpdated","type":"event"},{"anonymous":false,"inputs":[{"indexed":true,"internalType":"address","name":"user","type":"address"},{"indexed":false,"internalType":"uint256","name":"amount","type":"uint256"}],"name":"WithdrawCompleted","type":"event"},{"anonymous":false,"inputs":[{"indexed":true,"internalType":"address","name":"user","type":"address"},{"indexed":false,"internalType":"uint256","name":"shares","type":"uint256"},{"indexed":false,"internalType":"uint256","name":"unlockTime","type":"uint256"}],"name":"WithdrawRequested","type":"event"},{"anonymous":false,"inputs":[{"indexed":false,"internalType":"uint256","name":"oldDelay","type":"uint256"},{"indexed":false,"internalType":"uint256","name":"newDelay","type":"uint256"}],"name":"WithdrawalDelayUpdated","type":"event"},{"anonymous":false,"inputs":[],"name":"WithdrawalsEnabled","type":"event"},{"inputs":[],"name":"MIN_DEPOSIT","outputs":[{"internalType":"uint256","name":"","type":"uint256"}],"stateMutability":"view","type":"function"},{"inputs":[],"name":"bridge","outputs":[{"internalType":"contract IBridge","name":"","type":"address"}],"stateMutability":"view","type":"function"},{"inputs":[],"name":"cellToken","outputs":[{"internalType":"contract IERC20","name":"","type":"address"}],"stateMutability":"view","type":"function"},{"inputs":[],"name":"completeWithdrawal","outputs":[],"stateMutability":"nonpayable","type":"function"},{"inputs":[{"internalType":"uint256","name":"amount","type":"uint256"}],"name":"deposit","outputs":[],"stateMutability":"nonpayable","type":"function"},{"inputs":[],"name":"enableWithdrawals","outputs":[],"stateMutability":"nonpayable","type":"function"},{"inputs":[],"name":"exchangeRate","outputs":[{"internalType":"uint256","name":"","type":"uint256"}],"stateMutability":"view","type":"function"},{"inputs":[],"name":"getAdminConfig","outputs":[{"internalType":"address","name":"oracul_","type":"address"},{"internalType":"bool","name":"paused_","type":"bool"},{"internalType":"uint256","name":"withdrawalDelay_","type":"uint256"}],"stateMutability":"view","type":"function"},{"inputs":[],"name":"getBridgeConfig","outputs":[{"internalType":"address","name":"bridge_","type":"address"},{"internalType":"bytes3","name":"nativeChainId_","type":"bytes3"},{"internalType":"bytes","name":"validatorAddress_","type":"bytes"}],"stateMutability":"view","type":"function"},{"inputs":[],"name":"getTotalAssets","outputs":[{"internalType":"uint256","name":"","type":"uint256"}],"stateMutability":"view","type":"function"},{"inputs":[{"internalType":"address","name":"user","type":"address"}],"name":"getWithdrawalRequest","outputs":[{"components":[{"internalType":"uint256","name":"shares","type":"uint256"},{"internalType":"uint256","name":"unlockTime","type":"uint256"}],"internalType":"struct ValoraCore.WithdrawalRequest","name":"","type":"tuple"}],"stateMutability":"view","type":"function"},{"inputs":[{"internalType":"address","name":"_cellToken","type":"address"},{"internalType":"address","name":"_sCellToken","type":"address"},{"internalType":"address","name":"_oracul","type":"address"},{"internalType":"address","name":"_bridge","type":"address"},{"internalType":"bytes3","name":"_nativeChainId","type":"bytes3"},{"internalType":"bytes","name":"_validatorAddress","type":"bytes"}],"name":"initialize","outputs":[],"stateMutability":"nonpayable","type":"function"},{"inputs":[],"name":"isBridgeConfigured","outputs":[{"internalType":"bool","name":"configured","type":"bool"}],"stateMutability":"view","type":"function"},{"inputs":[],"name":"isOperational","outputs":[{"internalType":"bool","name":"operational","type":"bool"}],"stateMutability":"view","type":"function"},{"inputs":[],"name":"nativeChainId","outputs":[{"internalType":"bytes3","name":"","type":"bytes3"}],"stateMutability":"view","type":"function"},{"inputs":[],"name":"oracul","outputs":[{"internalType":"address","name":"","type":"address"}],"stateMutability":"view","type":"function"},{"inputs":[],"name":"owner","outputs":[{"internalType":"address","name":"","type":"address"}],"stateMutability":"view","type":"function"},{"inputs":[],"name":"pause","outputs":[],"stateMutability":"nonpayable","type":"function"},{"inputs":[],"name":"paused","outputs":[{"internalType":"bool","name":"","type":"bool"}],"stateMutability":"view","type":"function"},{"inputs":[{"internalType":"uint256","name":"amount","type":"uint256"}],"name":"rebase","outputs":[],"stateMutability":"nonpayable","type":"function"},{"inputs":[],"name":"renounceOwnership","outputs":[],"stateMutability":"nonpayable","type":"function"},{"inputs":[{"internalType":"uint256","name":"shares","type":"uint256"}],"name":"requestWithdrawal","outputs":[],"stateMutability":"nonpayable","type":"function"},{"inputs":[],"name":"sCellToken","outputs":[{"internalType":"contract ValoraStakedCell","name":"","type":"address"}],"stateMutability":"view","type":"function"},{"inputs":[{"internalType":"address","name":"_bridge","type":"address"}],"name":"setBridge","outputs":[],"stateMutability":"nonpayable","type":"function"},{"inputs":[{"internalType":"address","name":"_oracul","type":"address"}],"name":"setOracul","outputs":[],"stateMutability":"nonpayable","type":"function"},{"inputs":[{"internalType":"bytes3","name":"_chainId","type":"bytes3"},{"internalType":"bytes","name":"_validatorAddress","type":"bytes"}],"name":"setValidatorAddress","outputs":[],"stateMutability":"nonpayable","type":"function"},{"inputs":[{"internalType":"uint256","name":"_delay","type":"uint256"}],"name":"setWithdrawalDelay","outputs":[],"stateMutability":"nonpayable","type":"function"},{"inputs":[{"internalType":"address","name":"newOwner","type":"address"}],"name":"transferOwnership","outputs":[],"stateMutability":"nonpayable","type":"function"},{"inputs":[],"name":"unpause","outputs":[],"stateMutability":"nonpayable","type":"function"},{"inputs":[],"name":"validatorAddress","outputs":[{"internalType":"bytes","name":"","type":"bytes"}],"stateMutability":"view","type":"function"},{"inputs":[],"name":"withdrawalDelay","outputs":[{"internalType":"uint256","name":"","type":"uint256"}],"stateMutability":"view","type":"function"},{"inputs":[{"internalType":"address","name":"","type":"address"}],"name":"withdrawalRequests","outputs":[{"internalType":"uint256","name":"shares","type":"uint256"},{"internalType":"uint256","name":"unlockTime","type":"uint256"}],"stateMutability":"view","type":"function"},{"inputs":[],"name":"withdrawalsEnabled","outputs":[{"internalType":"bool","name":"","type":"bool"}],"stateMutability":"view","type":"function"}],"evm":{"bytecode":{"linkReferences":{},"object":"60806040526000805461ffff60a01b1916905562093a8060015534801561002557600080fd5b5061247e806100356000396000f3fe608060405234801561001057600080fd5b50600436106101fb5760003560e01c8063a7ab69611161011a578063d2c13da5116100ad578063e779e2261161007c578063e779e226146104df578063e78cea92146104f6578063e8bac93b14610509578063f0261af614610511578063f2fde38b1461051957600080fd5b8063d2c13da5146104a5578063dbf1c69d146104b8578063e03ff7cb146104cb578063e1e158a5146104d357600080fd5b8063c534f35b116100e9578063c534f35b14610458578063cd905dff1461046b578063cf5a50f51461047e578063d0dbcd241461049157600080fd5b8063a7ab6961146103fc578063b6b55f2514610405578063bc4f2d6d14610418578063c1a68b381461042b57600080fd5b80635c975abb116101925780638c661b5d116101615780638c661b5d146103365780638da5cb5b146103a65780638dd14802146103d65780639ee679e8146103e957600080fd5b80635c975abb146102fa5780636e07302b1461031e578063715018a6146103265780638456cb591461032e57600080fd5b80633de80302116101ce5780633de80302146102955780633f4ba83a146102a85780633fe4676e146102b257806346e4c41c146102c757600080fd5b80631185718f14610200578063157a093d1461023057806327b380f3146102435780633ba0b9a91461027f575b600080fd5b600054610213906001600160a01b031681565b6040516001600160a01b0390911681526020015b60405180910390f35b600554610213906001600160a01b031681565b61026a610251366004611e7f565b6007602052600090815260409020805460019091015482565b60408051928352602083019190915201610227565b61028761052c565b604051908152602001610227565b600454610213906001600160a01b031681565b6102b06105e6565b005b6102ba610624565b6040516102279190611ee7565b600054600154604080516001600160a01b0384168152600160a01b90930460ff1615156020840152820152606001610227565b60005461030e90600160a01b900460ff1681565b6040519015158152602001610227565b600654610287565b6102b06106b2565b6102b06106c6565b61038b610344366004611e7f565b6040805180820190915260008082526020820152506001600160a01b0316600090815260076020908152604091829020825180840190935280548352600101549082015290565b60408051825181526020928301519281019290925201610227565b7f9016d09d72d40fdae2fd8ceac6b6234c7706214fd39c1cd1e609a0528c199300546001600160a01b0316610213565b6102b06103e4366004611e7f565b61070a565b6102b06103f7366004611efa565b6107b8565b61028760015481565b6102b0610413366004611efa565b610acd565b6102b0610426366004611efa565b610cd6565b60025461043f90600160a01b900460e81b81565b6040516001600160e81b03199091168152602001610227565b6102b0610466366004611f74565b610eeb565b600054600160a01b900460ff161561030e565b6102b061048c366004611e7f565b610fef565b60005461030e90600160a81b900460ff1681565b6102b06104b3366004611efa565b611096565b6102b06104c6366004611fc7565b611120565b6102b061126f565b61028764e8d4a5100081565b6104e7611528565b6040516102279392919061205e565b600254610213906001600160a01b031681565b6102b06115e4565b61030e611682565b6102b0610527366004611e7f565b6116d3565b600080600560009054906101000a90046001600160a01b03166001600160a01b03166318160ddd6040518163ffffffff1660e01b8152600401602060405180830381865afa158015610582573d6000803e3d6000fd5b505050506040513d601f19601f820116820180604052508101906105a6919061209b565b9050806000036105bf57670de0b6b3a764000091505090565b80600654670de0b6b3a76400006105d691906120ca565b6105e091906120e1565b91505090565b6105ee61170e565b6000805460ff60a01b191681556040517fa45f47fdea8a1efdd9029a5691c7f759c32b7c698632b563573e155625d169339190a1565b6003805461063190612103565b80601f016020809104026020016040519081016040528092919081815260200182805461065d90612103565b80156106aa5780601f1061067f576101008083540402835291602001916106aa565b820191906000526020600020905b81548152906001019060200180831161068d57829003601f168201915b505050505081565b6106ba61170e565b6106c46000611769565b565b6106ce61170e565b6000805460ff60a01b1916600160a01b1781556040517f9e87fac88ff661f02d44f95383c817fece4bce600a3dab7a54406878b965e7529190a1565b61071261170e565b6001600160a01b0381166107665760405162461bcd60e51b8152602060048201526016602482015275496e76616c696420627269646765206164647265737360501b60448201526064015b60405180910390fd5b600280546001600160a01b038381166001600160a01b0319831681179093556040519116919082907faae9beddccf584528e87b66c6ff2563825c8a1433305b8a656e9b5f9bf39049990600090a35050565b600054600160a01b900460ff16156107e25760405162461bcd60e51b815260040161075d9061213d565b600054600160a81b900460ff1661083b5760405162461bcd60e51b815260206004820152601b60248201527f5769746864726177616c73206e6f7420656e61626c6564207965740000000000604482015260640161075d565b6108436117da565b600081116108935760405162461bcd60e51b815260206004820152601d60248201527f536861726573206d7573742062652067726561746572207468616e2030000000604482015260640161075d565b6005546040516370a0823160e01b815233600482015282916001600160a01b0316906370a0823190602401602060405180830381865afa1580156108db573d6000803e3d6000fd5b505050506040513d601f19601f820116820180604052508101906108ff919061209b565b10156109435760405162461bcd60e51b8152602060048201526013602482015272496e73756666696369656e742073686172657360681b604482015260640161075d565b6005546040516323b872dd60e01b8152336004820152306024820152604481018390526001600160a01b03909116906323b872dd906064016020604051808303816000875af115801561099a573d6000803e3d6000fd5b505050506040513d601f19601f820116820180604052508101906109be9190612169565b6109da5760405162461bcd60e51b815260040161075d9061218b565b600554604051630852cd8d60e31b8152600481018390526001600160a01b03909116906342966c6890602401600060405180830381600087803b158015610a2057600080fd5b505af1158015610a34573d6000803e3d6000fd5b50505050600060015442610a4891906121b4565b6040805180820182528481526020808201848152336000818152600784528590209351845590516001909301929092558251868152908101849052929350917fd72eb5d043f24a0168ae744d5c44f9596fd673a26bf74d9646bff4b844882d14910160405180910390a250610aca600160008051602061242983398151915255565b50565b600054600160a01b900460ff1615610af75760405162461bcd60e51b815260040161075d9061213d565b610aff6117da565b64e8d4a51000811015610b475760405162461bcd60e51b815260206004820152601060248201526f105b5bdd5b9d081d1bdbc81cdb585b1b60821b604482015260640161075d565b600480546040516323b872dd60e01b81523392810192909252306024830152604482018390526001600160a01b0316906323b872dd906064016020604051808303816000875af1158015610b9f573d6000803e3d6000fd5b505050506040513d601f19601f82011682018060405250810190610bc39190612169565b610bdf5760405162461bcd60e51b815260040161075d9061218b565b6004805460025460405163095ea7b360e01b81526001600160a01b039182169381019390935260248301849052169063095ea7b3906044016020604051808303816000875af1158015610c36573d6000803e3d6000fd5b505050506040513d601f19601f82011682018060405250810190610c5a9190612169565b610c9f5760405162461bcd60e51b8152602060048201526016602482015275109c9a5919d948185c1c1c9bdd985b0819985a5b195960521b604482015260640161075d565b600454610cb6906001600160a01b03168233611826565b610cbf81611a02565b610aca600160008051602061242983398151915255565b6000546001600160a01b03163314610d205760405162461bcd60e51b815260206004820152600d60248201526c1b9bdd08185b881bdc9858dd5b609a1b604482015260640161075d565b60008111610d705760405162461bcd60e51b815260206004820152601d60248201527f416d6f756e74206d7573742062652067726561746572207468616e2030000000604482015260640161075d565b6006548015610e3957610d846002826120e1565b821015610dd35760405162461bcd60e51b815260206004820152601960248201527f52656261736520646563726561736520746f6f206c6172676500000000000000604482015260640161075d565b6002610de08260036120ca565b610dea91906120e1565b821115610e395760405162461bcd60e51b815260206004820152601960248201527f52656261736520696e63726561736520746f6f206c6172676500000000000000604482015260640161075d565b6006829055600554604080516318160ddd60e01b815290517f8d01b778e641f65fc8a5cae34cc83e082ab8b2149b3c1bb3925913116fe4633f926001600160a01b0316916318160ddd9160048083019260209291908290030181865afa158015610ea7573d6000803e3d6000fd5b505050506040513d601f19601f82011682018060405250810190610ecb919061209b565b600654604080519283526020830191909152015b60405180910390a15050565b610ef361170e565b6001600160e81b03198316610f3d5760405162461bcd60e51b815260206004820152601060248201526f125b9d985b1a590818da185a5b88125160821b604482015260640161075d565b80610f865760405162461bcd60e51b8152602060048201526019602482015278496e76616c69642076616c696461746f72206164647265737360381b604482015260640161075d565b6002805462ffffff60a01b1916600160a01b60e886901c021790556003610fae82848361222e565b507ff878121458ba068d742020c1a2b7aa3506c6ca75b5138be1b53cbd88117dc95a838383604051610fe2939291906122ee565b60405180910390a1505050565b610ff761170e565b6001600160a01b0381166110465760405162461bcd60e51b8152602060048201526016602482015275496e76616c6964206f7261636c65206164647265737360501b604482015260640161075d565b600080546001600160a01b038381166001600160a01b0319831681178455604051919092169283917f078c3b417dadf69374a59793b829c52001247130433427049317bde56607b1b79190a35050565b61109e61170e565b62278d008111156110e25760405162461bcd60e51b815260206004820152600e60248201526d44656c617920746f6f206c6f6e6760901b604482015260640161075d565b600180549082905560408051828152602081018490527f9c3f1b54b1487e018f1d0593ff5cf7fb625b2df6332c974a6cc56bb3588798419101610edf565b600061112a611bc0565b805490915060ff600160401b820416159067ffffffffffffffff166000811580156111525750825b905060008267ffffffffffffffff16600114801561116f5750303b155b90508115801561117d575080155b1561119b5760405163f92ee8a960e01b815260040160405180910390fd5b845467ffffffffffffffff1916600117855583156111c557845460ff60401b1916600160401b1785555b6111ce33611beb565b6111d6611bfc565b6111df8a611c0c565b6111eb89898989611c8b565b600480546001600160a01b03808f166001600160a01b03199283161790925560058054928e1692909116919091179055831561126157845460ff60401b19168555604051600181527fc7f505b2f371ae2175ee4913f4499e1f2633a7b5936321eed1cdaeb6115181d29060200160405180910390a15b505050505050505050505050565b600054600160a01b900460ff16156112995760405162461bcd60e51b815260040161075d9061213d565b600054600160a81b900460ff166112f25760405162461bcd60e51b815260206004820152601b60248201527f5769746864726177616c73206e6f7420656e61626c6564207965740000000000604482015260640161075d565b6112fa6117da565b33600090815260076020908152604091829020825180840190935280548084526001909101549183019190915261136b5760405162461bcd60e51b8152602060048201526015602482015274139bc81c195b991a5b99c81dda5d1a191c985dd85b605a1b604482015260640161075d565b80602001514210156113ae5760405162461bcd60e51b815260206004820152600c60248201526b14dd1a5b1b081b1bd8dad95960a21b604482015260640161075d565b6000670de0b6b3a76400006113c161052c565b83516113cd91906120ca565b6113d791906120e1565b9050600081116114295760405162461bcd60e51b815260206004820152601b60248201527f5769746864726177616c20616d6f756e7420746f6f20736d616c6c0000000000604482015260640161075d565b3360009081526007602052604081208181556001015561144881611db2565b6004805460405163a9059cbb60e01b81523392810192909252602482018390526001600160a01b03169063a9059cbb906044016020604051808303816000875af115801561149a573d6000803e3d6000fd5b505050506040513d601f19601f820116820180604052508101906114be9190612169565b6114da5760405162461bcd60e51b815260040161075d9061218b565b60405181815233907f60188009b974c2fa66ee3b916d93f64d6534ea2204e0c466f9784ace689e8e499060200160405180910390a250506106c4600160008051602061242983398151915255565b6002546003805460009283926060926001600160a01b03831692600160a01b900460e81b9190819061155990612103565b80601f016020809104026020016040519081016040528092919081815260200182805461158590612103565b80156115d25780601f106115a7576101008083540402835291602001916115d2565b820191906000526020600020905b8154815290600101906020018083116115b557829003601f168201915b50505050509050925092509250909192565b6115ec61170e565b600054600160a81b900460ff16156116465760405162461bcd60e51b815260206004820152601b60248201527f5769746864726177616c7320616c726561647920656e61626c65640000000000604482015260640161075d565b6000805460ff60a81b1916600160a81b1781556040517fab2bf4ab08d6736c3ec6c77bb2b0eef4a5c46863d8df631be31ea5b59dc618de9190a1565b6002546000906001600160a01b0316158015906116b45750600254600160a01b900460e81b6001600160e81b03191615155b80156116ce57506000600380546116ca90612103565b9050115b905090565b6116db61170e565b6001600160a01b03811661170557604051631e4fbdf760e01b81526000600482015260240161075d565b610aca81611769565b336117407f9016d09d72d40fdae2fd8ceac6b6234c7706214fd39c1cd1e609a0528c199300546001600160a01b031690565b6001600160a01b0316146106c45760405163118cdaa760e01b815233600482015260240161075d565b7f9016d09d72d40fdae2fd8ceac6b6234c7706214fd39c1cd1e609a0528c19930080546001600160a01b031981166001600160a01b03848116918217845560405192169182907f8be0079c531659141344cd1fd0a4f28419497f9722a3daafe3b4186f6b6457e090600090a3505050565b60008051602061242983398151915280546001190161180c57604051633ee5aeb560e01b815260040160405180910390fd5b60029055565b600160008051602061242983398151915255565b6002546001600160a01b03166118765760405162461bcd60e51b8152602060048201526015602482015274109c9a5919d9481b9bdd0818dbdb999a59dd5c9959605a1b604482015260640161075d565b600254600160a01b900460e81b6001600160e81b0319166118d95760405162461bcd60e51b815260206004820152601b60248201527f4e617469766520636861696e206e6f7420636f6e666967757265640000000000604482015260640161075d565b6000600380546118e890612103565b9050116119375760405162461bcd60e51b815260206004820181905260248201527f56616c696461746f722061646472657373206e6f7420636f6e66696775726564604482015260640161075d565b600254604051630f8b653f60e31b81526001600160a01b03821691637c5b29f8916119769187918791600160a01b900460e81b906003906004016123a9565b600060405180830381600087803b15801561199057600080fd5b505af11580156119a4573d6000803e3d6000fd5b50506002546040516001600160a01b03851693507ff53d586108e9b715479241030bdf8c2fc6f28b68221d23c24ac29c8b2084abef92506119f5918691600160a01b90910460e81b906003906123ee565b60405180910390a2505050565b600554604080516318160ddd60e01b815290516000926001600160a01b0316916318160ddd9160048083019260209291908290030181865afa158015611a4c573d6000803e3d6000fd5b505050506040513d601f19601f82011682018060405250810190611a70919061209b565b6006549091506000821580611a83575081155b15611a8f575082611b0a565b81611a9a84866120ca565b611aa491906120e1565b905060008111611b0a5760405162461bcd60e51b815260206004820152602b60248201527f4465706f73697420746f6f20736d616c6c2c20776f756c6420726573756c742060448201526a696e20302073686172657360a81b606482015260840161075d565b6005546040516340c10f1960e01b8152336004820152602481018390526001600160a01b03909116906340c10f1990604401600060405180830381600087803b158015611b5657600080fd5b505af1158015611b6a573d6000803e3d6000fd5b505050508360066000828254611b8091906121b4565b909155505060405184815233907f9e71bc8eea02a63969f509818f2dafb9254532904319f9dbda79b67bd34a5f3d9060200160405180910390a250505050565b6000807ff0c57e16840df040f15088dc2f81fe391c3923bec73e23a9662efc9c229c6a005b92915050565b611bf3611e14565b610aca81611e39565b611c04611e14565b6106c4611e41565b611c14611e14565b6001600160a01b038116611c635760405162461bcd60e51b8152602060048201526016602482015275496e76616c6964206f7261636c65206164647265737360501b604482015260640161075d565b600080546001600160b01b0319166001600160a01b0390921691909117905562093a80600155565b611c93611e14565b6001600160a01b038416611ce25760405162461bcd60e51b8152602060048201526016602482015275496e76616c696420627269646765206164647265737360501b604482015260640161075d565b6001600160e81b03198316611d2c5760405162461bcd60e51b815260206004820152601060248201526f125b9d985b1a590818da185a5b88125160821b604482015260640161075d565b80611d755760405162461bcd60e51b8152602060048201526019602482015278496e76616c69642076616c696461746f72206164647265737360381b604482015260640161075d565b6002805460e885901c600160a01b026001600160b81b03199091166001600160a01b038716171790556003611dab82848361222e565b5050505050565b806006541015611dfa5760405162461bcd60e51b8152602060048201526013602482015272496e73756666696369656e742061737365747360681b604482015260640161075d565b8060066000828254611e0c9190612415565b909155505050565b611e1c611e49565b6106c457604051631afcd79f60e31b815260040160405180910390fd5b6116db611e14565b611812611e14565b6000611e53611bc0565b54600160401b900460ff16919050565b80356001600160a01b0381168114611e7a57600080fd5b919050565b600060208284031215611e9157600080fd5b611e9a82611e63565b9392505050565b6000815180845260005b81811015611ec757602081850181015186830182015201611eab565b506000602082860101526020601f19601f83011685010191505092915050565b602081526000611e9a6020830184611ea1565b600060208284031215611f0c57600080fd5b5035919050565b80356001600160e81b031981168114611e7a57600080fd5b60008083601f840112611f3d57600080fd5b50813567ffffffffffffffff811115611f5557600080fd5b602083019150836020828501011115611f6d57600080fd5b9250929050565b600080600060408486031215611f8957600080fd5b611f9284611f13565b9250602084013567ffffffffffffffff811115611fae57600080fd5b611fba86828701611f2b565b9497909650939450505050565b600080600080600080600060c0888a031215611fe257600080fd5b611feb88611e63565b9650611ff960208901611e63565b955061200760408901611e63565b945061201560608901611e63565b935061202360808901611f13565b925060a088013567ffffffffffffffff81111561203f57600080fd5b61204b8a828b01611f2b565b989b979a50959850939692959293505050565b6001600160a01b03841681526001600160e81b03198316602082015260606040820181905260009061209290830184611ea1565b95945050505050565b6000602082840312156120ad57600080fd5b5051919050565b634e487b7160e01b600052601160045260246000fd5b8082028115828204841417611be557611be56120b4565b6000826120fe57634e487b7160e01b600052601260045260246000fd5b500490565b600181811c9082168061211757607f821691505b60208210810361213757634e487b7160e01b600052602260045260246000fd5b50919050565b60208082526012908201527110dbdb9d1c9858dd081a5cc81c185d5cd95960721b604082015260600190565b60006020828403121561217b57600080fd5b81518015158114611e9a57600080fd5b6020808252600f908201526e151c985b9cd9995c8819985a5b1959608a1b604082015260600190565b80820180821115611be557611be56120b4565b634e487b7160e01b600052604160045260246000fd5b601f821115612229576000816000526020600020601f850160051c810160208610156122065750805b601f850160051c820191505b8181101561222557828155600101612212565b5050505b505050565b67ffffffffffffffff831115612246576122466121c7565b61225a836122548354612103565b836121dd565b6000601f84116001811461228e57600085156122765750838201355b600019600387901b1c1916600186901b178355611dab565b600083815260209020601f19861690835b828110156122bf578685013582556020948501946001909201910161229f565b50868210156122dc5760001960f88860031b161c19848701351681555b505060018560011b0183555050505050565b62ffffff60e81b8416815260406020820152816040820152818360608301376000818301606090810191909152601f909201601f1916010192915050565b6000815461233981612103565b80855260206001838116801561235657600181146123705761239e565b60ff1985168884015283151560051b88018301955061239e565b866000528260002060005b858110156123965781548a820186015290830190840161237b565b890184019650505b505050505092915050565b6001600160a01b0385168152602081018490526001600160e81b0319831660408201526080606082018190526000906123e49083018461232c565b9695505050505050565b83815262ffffff60e81b83166020820152606060408201526000612092606083018461232c565b81810381811115611be557611be56120b456fe9b779b17422d0df92223018b32b4d1fa46e071723d6817e2486d003becc55f00a2646970667358221220428a148478b7f8c40904004df32d8b2b3896ef6f3566ba6010314d9b0ad23fff64736f6c63430008180033","opcodes":"PUSH1 0x80 PUSH1 0x40 MSTORE PUSH1 0x0 DUP1 SLOAD PUSH2 0xFFFF PUSH1 0xA0 SHL NOT AND SWAP1 SSTORE PUSH3 0x93A80 PUSH1 0x1 SSTORE CALLVALUE DUP1 ISZERO PUSH2 0x25 JUMPI PUSH1 0x0 DUP1 REVERT JUMPDEST POP PUSH2 0x247E DUP1 PUSH2 0x35 PUSH1 0x0 CODECOPY PUSH1 0x0 RETURN INVALID PUSH1 0x80 PUSH1 0x40 MSTORE CALLVALUE DUP1 ISZERO PUSH2 0x10 JUMPI PUSH1 0x0 DUP1 REVERT JUMPDEST POP PUSH1 0x4 CALLDATASIZE LT PUSH2 0x1FB JUMPI PUSH1 0x0 CALLDATALOAD PUSH1 0xE0 SHR DUP1 PUSH4 0xA7AB6961 GT PUSH2 0x11A JUMPI DUP1 PUSH4 0xD2C13DA5 GT PUSH2 0xAD JUMPI DUP1 PUSH4 0xE779E226 GT PUSH2 0x7C JUMPI DUP1 PUSH4 0xE779E226 EQ PUSH2 0x4DF JUMPI DUP1 PUSH4 0xE78CEA92 EQ PUSH2 0x4F6 JUMPI DUP1 PUSH4 0xE8BAC93B EQ PUSH2 0x509 JUMPI DUP1 PUSH4 0xF0261AF6 EQ PUSH2 0x511 JUMPI DUP1 PUSH4 0xF2FDE38B EQ PUSH2 0x519 JUMPI PUSH1 0x0 DUP1 REVERT JUMPDEST DUP1 PUSH4 0xD2C13DA5 EQ PUSH2 0x4A5 JUMPI DUP1 PUSH4 0xDBF1C69D EQ PUSH2 0x4B8 JUMPI DUP1 PUSH4 0xE03FF7CB EQ PUSH2 0x4CB JUMPI DUP1 PUSH4 0xE1E158A5 EQ PUSH2 0x4D3 JUMPI PUSH1 0x0 DUP1 REVERT JUMPDEST DUP1 PUSH4 0xC534F35B GT PUSH2 0xE9 JUMPI DUP1 PUSH4 0xC534F35B EQ PUSH2 0x458 JUMPI DUP1 PUSH4 0xCD905DFF EQ PUSH2 0x46B JUMPI DUP1 PUSH4 0xCF5A50F5 EQ PUSH2 0x47E JUMPI DUP1 PUSH4 0xD0DBCD24 EQ PUSH2 0x491 JUMPI PUSH1 0x0 DUP1 REVERT JUMPDEST DUP1 PUSH4 0xA7AB6961 EQ PUSH2 0x3FC JUMPI DUP1 PUSH4 0xB6B55F25 EQ PUSH2 0x405 JUMPI DUP1 PUSH4 0xBC4F2D6D EQ PUSH2 0x418 JUMPI DUP1 PUSH4 0xC1A68B38 EQ PUSH2 0x42B JUMPI PUSH1 0x0 DUP1 REVERT JUMPDEST DUP1 PUSH4 0x5C975ABB GT PUSH2 0x192 JUMPI DUP1 PUSH4 0x8C661B5D GT PUSH2 0x161 JUMPI DUP1 PUSH4 0x8C661B5D EQ PUSH2 0x336 JUMPI DUP1 PUSH4 0x8DA5CB5B EQ PUSH2 0x3A6 JUMPI DUP1 PUSH4 0x8DD14802 EQ PUSH2 0x3D6 JUMPI DUP1 PUSH4 0x9EE679E8 EQ PUSH2 0x3E9 JUMPI PUSH1 0x0 DUP1 REVERT JUMPDEST DUP1 PUSH4 0x5C975ABB EQ PUSH2 0x2FA JUMPI DUP1 PUSH4 0x6E07302B EQ PUSH2 0x31E JUMPI DUP1 PUSH4 0x715018A6 EQ PUSH2 0x326 JUMPI DUP1 PUSH4 0x8456CB59 EQ PUSH2 0x32E JUMPI PUSH1 0x0 DUP1 REVERT JUMPDEST DUP1 PUSH4 0x3DE80302 GT PUSH2 0x1CE JUMPI DUP1 PUSH4 0x3DE80302 EQ PUSH2 0x295 JUMPI DUP1 PUSH4 0x3F4BA83A EQ PUSH2 0x2A8 JUMPI DUP1 PUSH4 0x3FE4676E EQ PUSH2 0x2B2 JUMPI DUP1 PUSH4 0x46E4C41C EQ PUSH2 0x2C7 JUMPI PUSH1 0x0 DUP1 REVERT JUMPDEST DUP1 PUSH4 0x1185718F EQ PUSH2 0x200 JUMPI DUP1 PUSH4 0x157A093D EQ PUSH2 0x230 JUMPI DUP1 PUSH4 0x27B380F3 EQ PUSH2 0x243 JUMPI DUP1 PUSH4 0x3BA0B9A9 EQ PUSH2 0x27F JUMPI JUMPDEST PUSH1 0x0 DUP1 REVERT JUMPDEST PUSH1 0x0 SLOAD PUSH2 0x213 SWAP1 PUSH1 0x1 PUSH1 0x1 PUSH1 0xA0 SHL SUB AND DUP2 JUMP JUMPDEST PUSH1 0x40 MLOAD PUSH1 0x1 PUSH1 0x1 PUSH1 0xA0 SHL SUB SWAP1 SWAP2 AND DUP2 MSTORE PUSH1 0x20 ADD JUMPDEST PUSH1 0x40 MLOAD DUP1 SWAP2 SUB SWAP1 RETURN JUMPDEST PUSH1 0x5 SLOAD PUSH2 0x213 SWAP1 PUSH1 0x1 PUSH1 0x1 PUSH1 0xA0 SHL SUB AND DUP2 JUMP JUMPDEST PUSH2 0x26A PUSH2 0x251 CALLDATASIZE PUSH1 0x4 PUSH2 0x1E7F JUMP JUMPDEST PUSH1 0x7 PUSH1 0x20 MSTORE PUSH1 0x0 SWAP1 DUP2 MSTORE PUSH1 0x40 SWAP1 KECCAK256 DUP1 SLOAD PUSH1 0x1 SWAP1 SWAP2 ADD SLOAD DUP3 JUMP JUMPDEST PUSH1 0x40 DUP1 MLOAD SWAP3 DUP4 MSTORE PUSH1 0x20 DUP4 ADD SWAP2 SWAP1 SWAP2 MSTORE ADD PUSH2 0x227 JUMP JUMPDEST PUSH2 0x287 PUSH2 0x52C JUMP JUMPDEST PUSH1 0x40 MLOAD SWAP1 DUP2 MSTORE PUSH1 0x20 ADD PUSH2 0x227 JUMP JUMPDEST PUSH1 0x4 SLOAD PUSH2 0x213 SWAP1 PUSH1 0x1 PUSH1 0x1 PUSH1 0xA0 SHL SUB AND DUP2 JUMP JUMPDEST PUSH2 0x2B0 PUSH2 0x5E6 JUMP JUMPDEST STOP JUMPDEST PUSH2 0x2BA PUSH2 0x624 JUMP JUMPDEST PUSH1 0x40 MLOAD PUSH2 0x227 SWAP2 SWAP1 PUSH2 0x1EE7 JUMP JUMPDEST PUSH1 0x0 SLOAD PUSH1 0x1 SLOAD PUSH1 0x40 DUP1 MLOAD PUSH1 0x1 PUSH1 0x1 PUSH1 0xA0 SHL SUB DUP5 AND DUP2 MSTORE PUSH1 0x1 PUSH1 0xA0 SHL SWAP1 SWAP4 DIV PUSH1 0xFF AND ISZERO ISZERO PUSH1 0x20 DUP5 ADD MSTORE DUP3 ADD MSTORE PUSH1 0x60 ADD PUSH2 0x227 JUMP JUMPDEST PUSH1 0x0 SLOAD PUSH2 0x30E SWAP1 PUSH1 0x1 PUSH1 0xA0 SHL SWAP1 DIV PUSH1 0xFF AND DUP2 JUMP JUMPDEST PUSH1 0x40 MLOAD SWAP1 ISZERO ISZERO DUP2 MSTORE PUSH1 0x20 ADD PUSH2 0x227 JUMP JUMPDEST PUSH1 0x6 SLOAD PUSH2 0x287 JUMP JUMPDEST PUSH2 0x2B0 PUSH2 0x6B2 JUMP JUMPDEST PUSH2 0x2B0 PUSH2 0x6C6 JUMP JUMPDEST PUSH2 0x38B PUSH2 0x344 CALLDATASIZE PUSH1 0x4 PUSH2 0x1E7F JUMP JUMPDEST PUSH1 0x40 DUP1 MLOAD DUP1 DUP3 ADD SWAP1 SWAP2 MSTORE PUSH1 0x0 DUP1 DUP3 MSTORE PUSH1 0x20 DUP3 ADD MSTORE POP PUSH1 0x1 PUSH1 0x1 PUSH1 0xA0 SHL SUB AND PUSH1 0x0 SWAP1 DUP2 MSTORE PUSH1 0x7 PUSH1 0x20 SWAP1 DUP2 MSTORE PUSH1 0x40 SWAP2 DUP3 SWAP1 KECCAK256 DUP3 MLOAD DUP1 DUP5 ADD SWAP1 SWAP4 MSTORE DUP1 SLOAD DUP4 MSTORE PUSH1 0x1 ADD SLOAD SWAP1 DUP3 ADD MSTORE SWAP1 JUMP JUMPDEST PUSH1 0x40 DUP1 MLOAD DUP3 MLOAD DUP2 MSTORE PUSH1 0x20 SWAP3 DUP4 ADD MLOAD SWAP3 DUP2 ADD SWAP3 SWAP1 SWAP3 MSTORE ADD PUSH2 0x227 JUMP JUMPDEST PUSH32 0x9016D09D72D40FDAE2FD8CEAC6B6234C7706214FD39C1CD1E609A0528C199300 SLOAD PUSH1 0x1 PUSH1 0x1 PUSH1 0xA0 SHL SUB AND PUSH2 0x213 JUMP JUMPDEST PUSH2 0x2B0 PUSH2 0x3E4 CALLDATASIZE PUSH1 0x4 PUSH2 0x1E7F JUMP JUMPDEST PUSH2 0x70A JUMP JUMPDEST PUSH2 0x2B0 PUSH2 0x3F7 CALLDATASIZE PUSH1 0x4 PUSH2 0x1EFA JUMP JUMPDEST PUSH2 0x7B8 JUMP JUMPDEST PUSH2 0x287 PUSH1 0x1 SLOAD DUP2 JUMP JUMPDEST PUSH2 0x2B0 PUSH2 0x413 CALLDATASIZE PUSH1 0x4 PUSH2 0x1EFA JUMP JUMPDEST PUSH2 0xACD JUMP JUMPDEST PUSH2 0x2B0 PUSH2 0x426 CALLDATASIZE PUSH1 0x4 PUSH2 0x1EFA JUMP JUMPDEST PUSH2 0xCD6 JUMP JUMPDEST PUSH1 0x2 SLOAD PUSH2 0x43F SWAP1 PUSH1 0x1 PUSH1 0xA0 SHL SWAP1 DIV PUSH1 0xE8 SHL DUP2 JUMP JUMPDEST PUSH1 0x40 MLOAD PUSH1 0x1 PUSH1 0x1 PUSH1 0xE8 SHL SUB NOT SWAP1 SWAP2 AND DUP2 MSTORE PUSH1 0x20 ADD PUSH2 0x227 JUMP JUMPDEST PUSH2 0x2B0 PUSH2 0x466 CALLDATASIZE PUSH1 0x4 PUSH2 0x1F74 JUMP JUMPDEST PUSH2 0xEEB JUMP JUMPDEST PUSH1 0x0 SLOAD PUSH1 0x1 PUSH1 0xA0 SHL SWAP1 DIV PUSH1 0xFF AND ISZERO PUSH2 0x30E JUMP JUMPDEST PUSH2 0x2B0 PUSH2 0x48C CALLDATASIZE PUSH1 0x4 PUSH2 0x1E7F JUMP JUMPDEST PUSH2 0xFEF JUMP JUMPDEST PUSH1 0x0 SLOAD PUSH2 0x30E SWAP1 PUSH1 0x1 PUSH1 0xA8 SHL SWAP1 DIV PUSH1 0xFF AND DUP2 JUMP JUMPDEST PUSH2 0x2B0 PUSH2 0x4B3 CALLDATASIZE PUSH1 0x4 PUSH2 0x1EFA JUMP JUMPDEST PUSH2 0x1096 JUMP JUMPDEST PUSH2 0x2B0 PUSH2 0x4C6 CALLDATASIZE PUSH1 0x4 PUSH2 0x1FC7 JUMP JUMPDEST PUSH2 0x1120 JUMP JUMPDEST PUSH2 0x2B0 PUSH2 0x126F JUMP JUMPDEST PUSH2 0x287 PUSH5 0xE8D4A51000 DUP2 JUMP JUMPDEST PUSH2 0x4E7 PUSH2 0x1528 JUMP JUMPDEST PUSH1 0x40 MLOAD PUSH2 0x227 SWAP4 SWAP3 SWAP2 SWAP1 PUSH2 0x205E JUMP JUMPDEST PUSH1 0x2 SLOAD PUSH2 0x213 SWAP1 PUSH1 0x1 PUSH1 0x1 PUSH1 0xA0 SHL SUB AND DUP2 JUMP JUMPDEST PUSH2 0x2B0 PUSH2 0x15E4 JUMP JUMPDEST PUSH2 0x30E PUSH2 0x1682 JUMP JUMPDEST PUSH2 0x2B0 PUSH2 0x527 CALLDATASIZE PUSH1 0x4 PUSH2 0x1E7F JUMP JUMPDEST PUSH2 0x16D3 JUMP JUMPDEST PUSH1 0x0 DUP1 PUSH1 0x5 PUSH1 0x0 SWAP1 SLOAD SWAP1 PUSH2 0x100 EXP SWAP1 DIV PUSH1 0x1 PUSH1 0x1 PUSH1 0xA0 SHL SUB AND PUSH1 0x1 PUSH1 0x1 PUSH1 0xA0 SHL SUB AND PUSH4 0x18160DDD PUSH1 0x40 MLOAD DUP2 PUSH4 0xFFFFFFFF AND PUSH1 0xE0 SHL DUP2 MSTORE PUSH1 0x4 ADD PUSH1 0x20 PUSH1 0x40 MLOAD DUP1 DUP4 SUB DUP2 DUP7 GAS STATICCALL ISZERO DUP1 ISZERO PUSH2 0x582 JUMPI RETURNDATASIZE PUSH1 0x0 DUP1 RETURNDATACOPY RETURNDATASIZE PUSH1 0x0 REVERT JUMPDEST POP POP POP POP PUSH1 0x40 MLOAD RETURNDATASIZE PUSH1 0x1F NOT PUSH1 0x1F DUP3 ADD AND DUP3 ADD DUP1 PUSH1 0x40 MSTORE POP DUP2 ADD SWAP1 PUSH2 0x5A6 SWAP2 SWAP1 PUSH2 0x209B JUMP JUMPDEST SWAP1 POP DUP1 PUSH1 0x0 SUB PUSH2 0x5BF JUMPI PUSH8 0xDE0B6B3A7640000 SWAP2 POP POP SWAP1 JUMP JUMPDEST DUP1 PUSH1 0x6 SLOAD PUSH8 0xDE0B6B3A7640000 PUSH2 0x5D6 SWAP2 SWAP1 PUSH2 0x20CA JUMP JUMPDEST PUSH2 0x5E0 SWAP2 SWAP1 PUSH2 0x20E1 JUMP JUMPDEST SWAP2 POP POP SWAP1 JUMP JUMPDEST PUSH2 0x5EE PUSH2 0x170E JUMP JUMPDEST PUSH1 0x0 DUP1 SLOAD PUSH1 0xFF PUSH1 0xA0 SHL NOT AND DUP2 SSTORE PUSH1 0x40 MLOAD PUSH32 0xA45F47FDEA8A1EFDD9029A5691C7F759C32B7C698632B563573E155625D16933 SWAP2 SWAP1 LOG1 JUMP JUMPDEST PUSH1 0x3 DUP1 SLOAD PUSH2 0x631 SWAP1 PUSH2 0x2103 JUMP JUMPDEST DUP1 PUSH1 0x1F ADD PUSH1 0x20 DUP1 SWAP2 DIV MUL PUSH1 0x20 ADD PUSH1 0x40 MLOAD SWAP1 DUP2 ADD PUSH1 0x40 MSTORE DUP1 SWAP3 SWAP2 SWAP1 DUP2 DUP2 MSTORE PUSH1 0x20 ADD DUP3 DUP1 SLOAD PUSH2 0x65D SWAP1 PUSH2 0x2103 JUMP JUMPDEST DUP1 ISZERO PUSH2 0x6AA JUMPI DUP1 PUSH1 0x1F LT PUSH2 0x67F JUMPI PUSH2 0x100 DUP1 DUP4 SLOAD DIV MUL DUP4 MSTORE SWAP2 PUSH1 0x20 ADD SWAP2 PUSH2 0x6AA JUMP JUMPDEST DUP3 ADD SWAP2 SWAP1 PUSH1 0x0 MSTORE PUSH1 0x20 PUSH1 0x0 KECCAK256 SWAP1 JUMPDEST DUP2 SLOAD DUP2 MSTORE SWAP1 PUSH1 0x1 ADD SWAP1 PUSH1 0x20 ADD DUP1 DUP4 GT PUSH2 0x68D JUMPI DUP3 SWAP1 SUB PUSH1 0x1F AND DUP3 ADD SWAP2 JUMPDEST POP POP POP POP POP DUP2 JUMP JUMPDEST PUSH2 0x6BA PUSH2 0x170E JUMP JUMPDEST PUSH2 0x6C4 PUSH1 0x0 PUSH2 0x1769 JUMP JUMPDEST JUMP JUMPDEST PUSH2 0x6CE PUSH2 0x170E JUMP JUMPDEST PUSH1 0x0 DUP1 SLOAD PUSH1 0xFF PUSH1 0xA0 SHL NOT AND PUSH1 0x1 PUSH1 0xA0 SHL OR DUP2 SSTORE PUSH1 0x40 MLOAD PUSH32 0x9E87FAC88FF661F02D44F95383C817FECE4BCE600A3DAB7A54406878B965E752 SWAP2 SWAP1 LOG1 JUMP JUMPDEST PUSH2 0x712 PUSH2 0x170E JUMP JUMPDEST PUSH1 0x1 PUSH1 0x1 PUSH1 0xA0 SHL SUB DUP2 AND PUSH2 0x766 JUMPI PUSH1 0x40 MLOAD PUSH3 0x461BCD PUSH1 0xE5 SHL DUP2 MSTORE PUSH1 0x20 PUSH1 0x4 DUP3 ADD MSTORE PUSH1 0x16 PUSH1 0x24 DUP3 ADD MSTORE PUSH22 0x496E76616C6964206272696467652061646472657373 PUSH1 0x50 SHL PUSH1 0x44 DUP3 ADD MSTORE PUSH1 0x64 ADD JUMPDEST PUSH1 0x40 MLOAD DUP1 SWAP2 SUB SWAP1 REVERT JUMPDEST PUSH1 0x2 DUP1 SLOAD PUSH1 0x1 PUSH1 0x1 PUSH1 0xA0 SHL SUB DUP4 DUP2 AND PUSH1 0x1 PUSH1 0x1 PUSH1 0xA0 SHL SUB NOT DUP4 AND DUP2 OR SWAP1 SWAP4 SSTORE PUSH1 0x40 MLOAD SWAP2 AND SWAP2 SWAP1 DUP3 SWAP1 PUSH32 0xAAE9BEDDCCF584528E87B66C6FF2563825C8A1433305B8A656E9B5F9BF390499 SWAP1 PUSH1 0x0 SWAP1 LOG3 POP POP JUMP JUMPDEST PUSH1 0x0 SLOAD PUSH1 0x1 PUSH1 0xA0 SHL SWAP1 DIV PUSH1 0xFF AND ISZERO PUSH2 0x7E2 JUMPI PUSH1 0x40 MLOAD PUSH3 0x461BCD PUSH1 0xE5 SHL DUP2 MSTORE PUSH1 0x4 ADD PUSH2 0x75D SWAP1 PUSH2 0x213D JUMP JUMPDEST PUSH1 0x0 SLOAD PUSH1 0x1 PUSH1 0xA8 SHL SWAP1 DIV PUSH1 0xFF AND PUSH2 0x83B JUMPI PUSH1 0x40 MLOAD PUSH3 0x461BCD PUSH1 0xE5 SHL DUP2 MSTORE PUSH1 0x20 PUSH1 0x4 DUP3 ADD MSTORE PUSH1 0x1B PUSH1 0x24 DUP3 ADD MSTORE PUSH32 0x5769746864726177616C73206E6F7420656E61626C6564207965740000000000 PUSH1 0x44 DUP3 ADD MSTORE PUSH1 0x64 ADD PUSH2 0x75D JUMP JUMPDEST PUSH2 0x843 PUSH2 0x17DA JUMP JUMPDEST PUSH1 0x0 DUP2 GT PUSH2 0x893 JUMPI PUSH1 0x40 MLOAD PUSH3 0x461BCD PUSH1 0xE5 SHL DUP2 MSTORE PUSH1 0x20 PUSH1 0x4 DUP3 ADD MSTORE PUSH1 0x1D PUSH1 0x24 DUP3 ADD MSTORE PUSH32 0x536861726573206D7573742062652067726561746572207468616E2030000000 PUSH1 0x44 DUP3 ADD MSTORE PUSH1 0x64 ADD PUSH2 0x75D JUMP JUMPDEST PUSH1 0x5 SLOAD PUSH1 0x40 MLOAD PUSH4 0x70A08231 PUSH1 0xE0 SHL DUP2 MSTORE CALLER PUSH1 0x4 DUP3 ADD MSTORE DUP3 SWAP2 PUSH1 0x1 PUSH1 0x1 PUSH1 0xA0 SHL SUB AND SWAP1 PUSH4 0x70A08231 SWAP1 PUSH1 0x24 ADD PUSH1 0x20 PUSH1 0x40 MLOAD DUP1 DUP4 SUB DUP2 DUP7 GAS STATICCALL ISZERO DUP1 ISZERO PUSH2 0x8DB JUMPI RETURNDATASIZE PUSH1 0x0 DUP1 RETURNDATACOPY RETURNDATASIZE PUSH1 0x0 REVERT JUMPDEST POP POP POP POP PUSH1 0x40 MLOAD RETURNDATASIZE PUSH1 0x1F NOT PUSH1 0x1F DUP3 ADD AND DUP3 ADD DUP1 PUSH1 0x40 MSTORE POP DUP2 ADD SWAP1 PUSH2 0x8FF SWAP2 SWAP1 PUSH2 0x209B JUMP JUMPDEST LT ISZERO PUSH2 0x943 JUMPI PUSH1 0x40 MLOAD PUSH3 0x461BCD PUSH1 0xE5 SHL DUP2 MSTORE PUSH1 0x20 PUSH1 0x4 DUP3 ADD MSTORE PUSH1 0x13 PUSH1 0x24 DUP3 ADD MSTORE PUSH19 0x496E73756666696369656E7420736861726573 PUSH1 0x68 SHL PUSH1 0x44 DUP3 ADD MSTORE PUSH1 0x64 ADD PUSH2 0x75D JUMP JUMPDEST PUSH1 0x5 SLOAD PUSH1 0x40 MLOAD PUSH4 0x23B872DD PUSH1 0xE0 SHL DUP2 MSTORE CALLER PUSH1 0x4 DUP3 ADD MSTORE ADDRESS PUSH1 0x24 DUP3 ADD MSTORE PUSH1 0x44 DUP2 ADD DUP4 SWAP1 MSTORE PUSH1 0x1 PUSH1 0x1 PUSH1 0xA0 SHL SUB SWAP1 SWAP2 AND SWAP1 PUSH4 0x23B872DD SWAP1 PUSH1 0x64 ADD PUSH1 0x20 PUSH1 0x40 MLOAD DUP1 DUP4 SUB DUP2 PUSH1 0x0 DUP8 GAS CALL ISZERO DUP1 ISZERO PUSH2 0x99A JUMPI RETURNDATASIZE PUSH1 0x0 DUP1 RETURNDATACOPY RETURNDATASIZE PUSH1 0x0 REVERT JUMPDEST POP POP POP POP PUSH1 0x40 MLOAD RETURNDATASIZE PUSH1 0x1F NOT PUSH1 0x1F DUP3 ADD AND DUP3 ADD DUP1 PUSH1 0x40 MSTORE POP DUP2 ADD SWAP1 PUSH2 0x9BE SWAP2 SWAP1 PUSH2 0x2169 JUMP JUMPDEST PUSH2 0x9DA JUMPI PUSH1 0x40 MLOAD PUSH3 0x461BCD PUSH1 0xE5 SHL DUP2 MSTORE PUSH1 0x4 ADD PUSH2 0x75D SWAP1 PUSH2 0x218B JUMP JUMPDEST PUSH1 0x5 SLOAD PUSH1 0x40 MLOAD PUSH4 0x852CD8D PUSH1 0xE3 SHL DUP2 MSTORE PUSH1 0x4 DUP2 ADD DUP4 SWAP1 MSTORE PUSH1 0x1 PUSH1 0x1 PUSH1 0xA0 SHL SUB SWAP1 SWAP2 AND SWAP1 PUSH4 0x42966C68 SWAP1 PUSH1 0x24 ADD PUSH1 0x0 PUSH1 0x40 MLOAD DUP1 DUP4 SUB DUP2 PUSH1 0x0 DUP8 DUP1 EXTCODESIZE ISZERO DUP1 ISZERO PUSH2 0xA20 JUMPI PUSH1 0x0 DUP1 REVERT JUMPDEST POP GAS CALL ISZERO DUP1 ISZERO PUSH2 0xA34 JUMPI RETURNDATASIZE PUSH1 0x0 DUP1 RETURNDATACOPY RETURNDATASIZE PUSH1 0x0 REVERT JUMPDEST POP POP POP POP PUSH1 0x0 PUSH1 0x1 SLOAD TIMESTAMP PUSH2 0xA48 SWAP2 SWAP1 PUSH2 0x21B4 JUMP JUMPDEST PUSH1 0x40 DUP1 MLOAD DUP1 DUP3 ADD DUP3 MSTORE DUP5 DUP2 MSTORE PUSH1 0x20 DUP1 DUP3 ADD DUP5 DUP2 MSTORE CALLER PUSH1 0x0 DUP2 DUP2 MSTORE PUSH1 0x7 DUP5 MSTORE DUP6 SWAP1 KECCAK256 SWAP4 MLOAD DUP5 SSTORE SWAP1 MLOAD PUSH1 0x1 SWAP1 SWAP4 ADD SWAP3 SWAP1 SWAP3 SSTORE DUP3 MLOAD DUP7 DUP2 MSTORE SWAP1 DUP2 ADD DUP5 SWAP1 MSTORE SWAP3 SWAP4 POP SWAP2 PUSH32 0xD72EB5D043F24A0168AE744D5C44F9596FD673A26BF74D9646BFF4B844882D14 SWAP2 ADD PUSH1 0x40 MLOAD DUP1 SWAP2 SUB SWAP1 LOG2 POP PUSH2 0xACA PUSH1 0x1 PUSH1 0x0 DUP1 MLOAD PUSH1 0x20 PUSH2 0x2429 DUP4 CODECOPY DUP2 MLOAD SWAP2 MSTORE SSTORE JUMP JUMPDEST POP JUMP JUMPDEST PUSH1 0x0 SLOAD PUSH1 0x1 PUSH1 0xA0 SHL SWAP1 DIV PUSH1 0xFF AND ISZERO PUSH2 0xAF7 JUMPI PUSH1 0x40 MLOAD PUSH3 0x461BCD PUSH1 0xE5 SHL DUP2 MSTORE PUSH1 0x4 ADD PUSH2 0x75D SWAP1 PUSH2 0x213D JUMP JUMPDEST PUSH2 0xAFF PUSH2 0x17DA JUMP JUMPDEST PUSH5 0xE8D4A51000 DUP2 LT ISZERO PUSH2 0xB47 JUMPI PUSH1 0x40 MLOAD PUSH3 0x461BCD PUSH1 0xE5 SHL DUP2 MSTORE PUSH1 0x20 PUSH1 0x4 DUP3 ADD MSTORE PUSH1 0x10 PUSH1 0x24 DUP3 ADD MSTORE PUSH16 0x105B5BDD5B9D081D1BDBC81CDB585B1B PUSH1 0x82 SHL PUSH1 0x44 DUP3 ADD MSTORE PUSH1 0x64 ADD PUSH2 0x75D JUMP JUMPDEST PUSH1 0x4 DUP1 SLOAD PUSH1 0x40 MLOAD PUSH4 0x23B872DD PUSH1 0xE0 SHL DUP2 MSTORE CALLER SWAP3 DUP2 ADD SWAP3 SWAP1 SWAP3 MSTORE ADDRESS PUSH1 0x24 DUP4 ADD MSTORE PUSH1 0x44 DUP3 ADD DUP4 SWAP1 MSTORE PUSH1 0x1 PUSH1 0x1 PUSH1 0xA0 SHL SUB AND SWAP1 PUSH4 0x23B872DD SWAP1 PUSH1 0x64 ADD PUSH1 0x20 PUSH1 0x40 MLOAD DUP1 DUP4 SUB DUP2 PUSH1 0x0 DUP8 GAS CALL ISZERO DUP1 ISZERO PUSH2 0xB9F JUMPI RETURNDATASIZE PUSH1 0x0 DUP1 RETURNDATACOPY RETURNDATASIZE PUSH1 0x0 REVERT JUMPDEST POP POP POP POP PUSH1 0x40 MLOAD RETURNDATASIZE PUSH1 0x1F NOT PUSH1 0x1F DUP3 ADD AND DUP3 ADD DUP1 PUSH1 0x40 MSTORE POP DUP2 ADD SWAP1 PUSH2 0xBC3 SWAP2 SWAP1 PUSH2 0x2169 JUMP JUMPDEST PUSH2 0xBDF JUMPI PUSH1 0x40 MLOAD PUSH3 0x461BCD PUSH1 0xE5 SHL DUP2 MSTORE PUSH1 0x4 ADD PUSH2 0x75D SWAP1 PUSH2 0x218B JUMP JUMPDEST PUSH1 0x4 DUP1 SLOAD PUSH1 0x2 SLOAD PUSH1 0x40 MLOAD PUSH4 0x95EA7B3 PUSH1 0xE0 SHL DUP2 MSTORE PUSH1 0x1 PUSH1 0x1 PUSH1 0xA0 SHL SUB SWAP2 DUP3 AND SWAP4 DUP2 ADD SWAP4 SWAP1 SWAP4 MSTORE PUSH1 0x24 DUP4 ADD DUP5 SWAP1 MSTORE AND SWAP1 PUSH4 0x95EA7B3 SWAP1 PUSH1 0x44 ADD PUSH1 0x20 PUSH1 0x40 MLOAD DUP1 DUP4 SUB DUP2 PUSH1 0x0 DUP8 GAS CALL ISZERO DUP1 ISZERO PUSH2 0xC36 JUMPI RETURNDATASIZE PUSH1 0x0 DUP1 RETURNDATACOPY RETURNDATASIZE PUSH1 0x0 REVERT JUMPDEST POP POP POP POP PUSH1 0x40 MLOAD RETURNDATASIZE PUSH1 0x1F NOT PUSH1 0x1F DUP3 ADD AND DUP3 ADD DUP1 PUSH1 0x40 MSTORE POP DUP2 ADD SWAP1 PUSH2 0xC5A SWAP2 SWAP1 PUSH2 0x2169 JUMP JUMPDEST PUSH2 0xC9F JUMPI PUSH1 0x40 MLOAD PUSH3 0x461BCD PUSH1 0xE5 SHL DUP2 MSTORE PUSH1 0x20 PUSH1 0x4 DUP3 ADD MSTORE PUSH1 0x16 PUSH1 0x24 DUP3 ADD MSTORE PUSH22 0x109C9A5919D948185C1C1C9BDD985B0819985A5B1959 PUSH1 0x52 SHL PUSH1 0x44 DUP3 ADD MSTORE PUSH1 0x64 ADD PUSH2 0x75D JUMP JUMPDEST PUSH1 0x4 SLOAD PUSH2 0xCB6 SWAP1 PUSH1 0x1 PUSH1 0x1 PUSH1 0xA0 SHL SUB AND DUP3 CALLER PUSH2 0x1826 JUMP JUMPDEST PUSH2 0xCBF DUP2 PUSH2 0x1A02 JUMP JUMPDEST PUSH2 0xACA PUSH1 0x1 PUSH1 0x0 DUP1 MLOAD PUSH1 0x20 PUSH2 0x2429 DUP4 CODECOPY DUP2 MLOAD SWAP2 MSTORE SSTORE JUMP JUMPDEST PUSH1 0x0 SLOAD PUSH1 0x1 PUSH1 0x1 PUSH1 0xA0 SHL SUB AND CALLER EQ PUSH2 0xD20 JUMPI PUSH1 0x40 MLOAD PUSH3 0x461BCD PUSH1 0xE5 SHL DUP2 MSTORE PUSH1 0x20 PUSH1 0x4 DUP3 ADD MSTORE PUSH1 0xD PUSH1 0x24 DUP3 ADD MSTORE PUSH13 0x1B9BDD08185B881BDC9858DD5B PUSH1 0x9A SHL PUSH1 0x44 DUP3 ADD MSTORE PUSH1 0x64 ADD PUSH2 0x75D JUMP JUMPDEST PUSH1 0x0 DUP2 GT PUSH2 0xD70 JUMPI PUSH1 0x40 MLOAD PUSH3 0x461BCD PUSH1 0xE5 SHL DUP2 MSTORE PUSH1 0x20 PUSH1 0x4 DUP3 ADD MSTORE PUSH1 0x1D PUSH1 0x24 DUP3 ADD MSTORE PUSH32 0x416D6F756E74206D7573742062652067726561746572207468616E2030000000 PUSH1 0x44 DUP3 ADD MSTORE PUSH1 0x64 ADD PUSH2 0x75D JUMP JUMPDEST PUSH1 0x6 SLOAD DUP1 ISZERO PUSH2 0xE39 JUMPI PUSH2 0xD84 PUSH1 0x2 DUP3 PUSH2 0x20E1 JUMP JUMPDEST DUP3 LT ISZERO PUSH2 0xDD3 JUMPI PUSH1 0x40 MLOAD PUSH3 0x461BCD PUSH1 0xE5 SHL DUP2 MSTORE PUSH1 0x20 PUSH1 0x4 DUP3 ADD MSTORE PUSH1 0x19 PUSH1 0x24 DUP3 ADD MSTORE PUSH32 0x52656261736520646563726561736520746F6F206C6172676500000000000000 PUSH1 0x44 DUP3 ADD MSTORE PUSH1 0x64 ADD PUSH2 0x75D JUMP JUMPDEST PUSH1 0x2 PUSH2 0xDE0 DUP3 PUSH1 0x3 PUSH2 0x20CA JUMP JUMPDEST PUSH2 0xDEA SWAP2 SWAP1 PUSH2 0x20E1 JUMP JUMPDEST DUP3 GT ISZERO PUSH2 0xE39 JUMPI PUSH1 0x40 MLOAD PUSH3 0x461BCD PUSH1 0xE5 SHL DUP2 MSTORE PUSH1 0x20 PUSH1 0x4 DUP3 ADD MSTORE PUSH1 0x19 PUSH1 0x24 DUP3 ADD MSTORE PUSH32 0x52656261736520696E63726561736520746F6F206C6172676500000000000000 PUSH1 0x44 DUP3 ADD MSTORE PUSH1 0x64 ADD PUSH2 0x75D JUMP JUMPDEST PUSH1 0x6 DUP3 SWAP1 SSTORE PUSH1 0x5 SLOAD PUSH1 0x40 DUP1 MLOAD PUSH4 0x18160DDD PUSH1 0xE0 SHL DUP2 MSTORE SWAP1 MLOAD PUSH32 0x8D01B778E641F65FC8A5CAE34CC83E082AB8B2149B3C1BB3925913116FE4633F SWAP3 PUSH1 0x1 PUSH1 0x1 PUSH1 0xA0 SHL SUB AND SWAP2 PUSH4 0x18160DDD SWAP2 PUSH1 0x4 DUP1 DUP4 ADD SWAP3 PUSH1 0x20 SWAP3 SWAP2 SWAP1 DUP3 SWAP1 SUB ADD DUP2 DUP7 GAS STATICCALL ISZERO DUP1 ISZERO PUSH2 0xEA7 JUMPI RETURNDATASIZE PUSH1 0x0 DUP1 RETURNDATACOPY RETURNDATASIZE PUSH1 0x0 REVERT JUMPDEST POP POP POP POP PUSH1 0x40 MLOAD RETURNDATASIZE PUSH1 0x1F NOT PUSH1 0x1F DUP3 ADD AND DUP3 ADD DUP1 PUSH1 0x40 MSTORE POP DUP2 ADD SWAP1 PUSH2 0xECB SWAP2 SWAP1 PUSH2 0x209B JUMP JUMPDEST PUSH1 0x6 SLOAD PUSH1 0x40 DUP1 MLOAD SWAP3 DUP4 MSTORE PUSH1 0x20 DUP4 ADD SWAP2 SWAP1 SWAP2 MSTORE ADD JUMPDEST PUSH1 0x40 MLOAD DUP1 SWAP2 SUB SWAP1 LOG1 POP POP JUMP JUMPDEST PUSH2 0xEF3 PUSH2 0x170E JUMP JUMPDEST PUSH1 0x1 PUSH1 0x1 PUSH1 0xE8 SHL SUB NOT DUP4 AND PUSH2 0xF3D JUMPI PUSH1 0x40 MLOAD PUSH3 0x461BCD PUSH1 0xE5 SHL DUP2 MSTORE PUSH1 0x20 PUSH1 0x4 DUP3 ADD MSTORE PUSH1 0x10 PUSH1 0x24 DUP3 ADD MSTORE PUSH16 0x125B9D985B1A590818DA185A5B881251 PUSH1 0x82 SHL PUSH1 0x44 DUP3 ADD MSTORE PUSH1 0x64 ADD PUSH2 0x75D JUMP JUMPDEST DUP1 PUSH2 0xF86 JUMPI PUSH1 0x40 MLOAD PUSH3 0x461BCD PUSH1 0xE5 SHL DUP2 MSTORE PUSH1 0x20 PUSH1 0x4 DUP3 ADD MSTORE PUSH1 0x19 PUSH1 0x24 DUP3 ADD MSTORE PUSH25 0x496E76616C69642076616C696461746F722061646472657373 PUSH1 0x38 SHL PUSH1 0x44 DUP3 ADD MSTORE PUSH1 0x64 ADD PUSH2 0x75D JUMP JUMPDEST PUSH1 0x2 DUP1 SLOAD PUSH3 0xFFFFFF PUSH1 0xA0 SHL NOT AND PUSH1 0x1 PUSH1 0xA0 SHL PUSH1 0xE8 DUP7 SWAP1 SHR MUL OR SWAP1 SSTORE PUSH1 0x3 PUSH2 0xFAE DUP3 DUP5 DUP4 PUSH2 0x222E JUMP JUMPDEST POP PUSH32 0xF878121458BA068D742020C1A2B7AA3506C6CA75B5138BE1B53CBD88117DC95A DUP4 DUP4 DUP4 PUSH1 0x40 MLOAD PUSH2 0xFE2 SWAP4 SWAP3 SWAP2 SWAP1 PUSH2 0x22EE JUMP JUMPDEST PUSH1 0x40 MLOAD DUP1 SWAP2 SUB SWAP1 LOG1 POP POP POP JUMP JUMPDEST PUSH2 0xFF7 PUSH2 0x170E JUMP JUMPDEST PUSH1 0x1 PUSH1 0x1 PUSH1 0xA0 SHL SUB DUP2 AND PUSH2 0x1046 JUMPI PUSH1 0x40 MLOAD PUSH3 0x461BCD PUSH1 0xE5 SHL DUP2 MSTORE PUSH1 0x20 PUSH1 0x4 DUP3 ADD MSTORE PUSH1 0x16 PUSH1 0x24 DUP3 ADD MSTORE PUSH22 0x496E76616C6964206F7261636C652061646472657373 PUSH1 0x50 SHL PUSH1 0x44 DUP3 ADD MSTORE PUSH1 0x64 ADD PUSH2 0x75D JUMP JUMPDEST PUSH1 0x0 DUP1 SLOAD PUSH1 0x1 PUSH1 0x1 PUSH1 0xA0 SHL SUB DUP4 DUP2 AND PUSH1 0x1 PUSH1 0x1 PUSH1 0xA0 SHL SUB NOT DUP4 AND DUP2 OR DUP5 SSTORE PUSH1 0x40 MLOAD SWAP2 SWAP1 SWAP3 AND SWAP3 DUP4 SWAP2 PUSH32 0x78C3B417DADF69374A59793B829C52001247130433427049317BDE56607B1B7 SWAP2 SWAP1 LOG3 POP POP JUMP JUMPDEST PUSH2 0x109E PUSH2 0x170E JUMP JUMPDEST PUSH3 0x278D00 DUP2 GT ISZERO PUSH2 0x10E2 JUMPI PUSH1 0x40 MLOAD PUSH3 0x461BCD PUSH1 0xE5 SHL DUP2 MSTORE PUSH1 0x20 PUSH1 0x4 DUP3 ADD MSTORE PUSH1 0xE PUSH1 0x24 DUP3 ADD MSTORE PUSH14 0x44656C617920746F6F206C6F6E67 PUSH1 0x90 SHL PUSH1 0x44 DUP3 ADD MSTORE PUSH1 0x64 ADD PUSH2 0x75D JUMP JUMPDEST PUSH1 0x1 DUP1 SLOAD SWAP1 DUP3 SWAP1 SSTORE PUSH1 0x40 DUP1 MLOAD DUP3 DUP2 MSTORE PUSH1 0x20 DUP2 ADD DUP5 SWAP1 MSTORE PUSH32 0x9C3F1B54B1487E018F1D0593FF5CF7FB625B2DF6332C974A6CC56BB358879841 SWAP2 ADD PUSH2 0xEDF JUMP JUMPDEST PUSH1 0x0 PUSH2 0x112A PUSH2 0x1BC0 JUMP JUMPDEST DUP1 SLOAD SWAP1 SWAP2 POP PUSH1 0xFF PUSH1 0x1 PUSH1 0x40 SHL DUP3 DIV AND ISZERO SWAP1 PUSH8 0xFFFFFFFFFFFFFFFF AND PUSH1 0x0 DUP2 ISZERO DUP1 ISZERO PUSH2 0x1152 JUMPI POP DUP3 JUMPDEST SWAP1 POP PUSH1 0x0 DUP3 PUSH8 0xFFFFFFFFFFFFFFFF AND PUSH1 0x1 EQ DUP1 ISZERO PUSH2 0x116F JUMPI POP ADDRESS EXTCODESIZE ISZERO JUMPDEST SWAP1 POP DUP2 ISZERO DUP1 ISZERO PUSH2 0x117D JUMPI POP DUP1 ISZERO JUMPDEST ISZERO PUSH2 0x119B JUMPI PUSH1 0x40 MLOAD PUSH4 0xF92EE8A9 PUSH1 0xE0 SHL DUP2 MSTORE PUSH1 0x4 ADD PUSH1 0x40 MLOAD DUP1 SWAP2 SUB SWAP1 REVERT JUMPDEST DUP5 SLOAD PUSH8 0xFFFFFFFFFFFFFFFF NOT AND PUSH1 0x1 OR DUP6 SSTORE DUP4 ISZERO PUSH2 0x11C5 JUMPI DUP5 SLOAD PUSH1 0xFF PUSH1 0x40 SHL NOT AND PUSH1 0x1 PUSH1 0x40 SHL OR DUP6 SSTORE JUMPDEST PUSH2 0x11CE CALLER PUSH2 0x1BEB JUMP JUMPDEST PUSH2 0x11D6 PUSH2 0x1BFC JUMP JUMPDEST PUSH2 0x11DF DUP11 PUSH2 0x1C0C JUMP JUMPDEST PUSH2 0x11EB DUP10 DUP10 DUP10 DUP10 PUSH2 0x1C8B JUMP JUMPDEST PUSH1 0x4 DUP1 SLOAD PUSH1 0x1 PUSH1 0x1 PUSH1 0xA0 SHL SUB DUP1 DUP16 AND PUSH1 0x1 PUSH1 0x1 PUSH1 0xA0 SHL SUB NOT SWAP3 DUP4 AND OR SWAP1 SWAP3 SSTORE PUSH1 0x5 DUP1 SLOAD SWAP3 DUP15 AND SWAP3 SWAP1 SWAP2 AND SWAP2 SWAP1 SWAP2 OR SWAP1 SSTORE DUP4 ISZERO PUSH2 0x1261 JUMPI DUP5 SLOAD PUSH1 0xFF PUSH1 0x40 SHL NOT AND DUP6 SSTORE PUSH1 0x40 MLOAD PUSH1 0x1 DUP2 MSTORE PUSH32 0xC7F505B2F371AE2175EE4913F4499E1F2633A7B5936321EED1CDAEB6115181D2 SWAP1 PUSH1 0x20 ADD PUSH1 0x40 MLOAD DUP1 SWAP2 SUB SWAP1 LOG1 JUMPDEST POP POP POP POP POP POP POP POP POP POP POP POP JUMP JUMPDEST PUSH1 0x0 SLOAD PUSH1 0x1 PUSH1 0xA0 SHL SWAP1 DIV PUSH1 0xFF AND ISZERO PUSH2 0x1299 JUMPI PUSH1 0x40 MLOAD PUSH3 0x461BCD PUSH1 0xE5 SHL DUP2 MSTORE PUSH1 0x4 ADD PUSH2 0x75D SWAP1 PUSH2 0x213D JUMP JUMPDEST PUSH1 0x0 SLOAD PUSH1 0x1 PUSH1 0xA8 SHL SWAP1 DIV PUSH1 0xFF AND PUSH2 0x12F2 JUMPI PUSH1 0x40 MLOAD PUSH3 0x461BCD PUSH1 0xE5 SHL DUP2 MSTORE PUSH1 0x20 PUSH1 0x4 DUP3 ADD MSTORE PUSH1 0x1B PUSH1 0x24 DUP3 ADD MSTORE PUSH32 0x5769746864726177616C73206E6F7420656E61626C6564207965740000000000 PUSH1 0x44 DUP3 ADD MSTORE PUSH1 0x64 ADD PUSH2 0x75D JUMP JUMPDEST PUSH2 0x12FA PUSH2 0x17DA JUMP JUMPDEST CALLER PUSH1 0x0 SWAP1 DUP2 MSTORE PUSH1 0x7 PUSH1 0x20 SWAP1 DUP2 MSTORE PUSH1 0x40 SWAP2 DUP3 SWAP1 KECCAK256 DUP3 MLOAD DUP1 DUP5 ADD SWAP1 SWAP4 MSTORE DUP1 SLOAD DUP1 DUP5 MSTORE PUSH1 0x1 SWAP1 SWAP2 ADD SLOAD SWAP2 DUP4 ADD SWAP2 SWAP1 SWAP2 MSTORE PUSH2 0x136B JUMPI PUSH1 0x40 MLOAD PUSH3 0x461BCD PUSH1 0xE5 SHL DUP2 MSTORE PUSH1 0x20 PUSH1 0x4 DUP3 ADD MSTORE PUSH1 0x15 PUSH1 0x24 DUP3 ADD MSTORE PUSH21 0x139BC81C195B991A5B99C81DDA5D1A191C985DD85B PUSH1 0x5A SHL PUSH1 0x44 DUP3 ADD MSTORE PUSH1 0x64 ADD PUSH2 0x75D JUMP JUMPDEST DUP1 PUSH1 0x20 ADD MLOAD TIMESTAMP LT ISZERO PUSH2 0x13AE JUMPI PUSH1 0x40 MLOAD PUSH3 0x461BCD PUSH1 0xE5 SHL DUP2 MSTORE PUSH1 0x20 PUSH1 0x4 DUP3 ADD MSTORE PUSH1 0xC PUSH1 0x24 DUP3 ADD MSTORE PUSH12 0x14DD1A5B1B081B1BD8DAD959 PUSH1 0xA2 SHL PUSH1 0x44 DUP3 ADD MSTORE PUSH1 0x64 ADD PUSH2 0x75D JUMP JUMPDEST PUSH1 0x0 PUSH8 0xDE0B6B3A7640000 PUSH2 0x13C1 PUSH2 0x52C JUMP JUMPDEST DUP4 MLOAD PUSH2 0x13CD SWAP2 SWAP1 PUSH2 0x20CA JUMP JUMPDEST PUSH2 0x13D7 SWAP2 SWAP1 PUSH2 0x20E1 JUMP JUMPDEST SWAP1 POP PUSH1 0x0 DUP2 GT PUSH2 0x1429 JUMPI PUSH1 0x40 MLOAD PUSH3 0x461BCD PUSH1 0xE5 SHL DUP2 MSTORE PUSH1 0x20 PUSH1 0x4 DUP3 ADD MSTORE PUSH1 0x1B PUSH1 0x24 DUP3 ADD MSTORE PUSH32 0x5769746864726177616C20616D6F756E7420746F6F20736D616C6C0000000000 PUSH1 0x44 DUP3 ADD MSTORE PUSH1 0x64 ADD PUSH2 0x75D JUMP JUMPDEST CALLER PUSH1 0x0 SWAP1 DUP2 MSTORE PUSH1 0x7 PUSH1 0x20 MSTORE PUSH1 0x40 DUP2 KECCAK256 DUP2 DUP2 SSTORE PUSH1 0x1 ADD SSTORE PUSH2 0x1448 DUP2 PUSH2 0x1DB2 JUMP JUMPDEST PUSH1 0x4 DUP1 SLOAD PUSH1 0x40 MLOAD PUSH4 0xA9059CBB PUSH1 0xE0 SHL DUP2 MSTORE CALLER SWAP3 DUP2 ADD SWAP3 SWAP1 SWAP3 MSTORE PUSH1 0x24 DUP3 ADD DUP4 SWAP1 MSTORE PUSH1 0x1 PUSH1 0x1 PUSH1 0xA0 SHL SUB AND SWAP1 PUSH4 0xA9059CBB SWAP1 PUSH1 0x44 ADD PUSH1 0x20 PUSH1 0x40 MLOAD DUP1 DUP4 SUB DUP2 PUSH1 0x0 DUP8 GAS CALL ISZERO DUP1 ISZERO PUSH2 0x149A JUMPI RETURNDATASIZE PUSH1 0x0 DUP1 RETURNDATACOPY RETURNDATASIZE PUSH1 0x0 REVERT JUMPDEST POP POP POP POP PUSH1 0x40 MLOAD RETURNDATASIZE PUSH1 0x1F NOT PUSH1 0x1F DUP3 ADD AND DUP3 ADD DUP1 PUSH1 0x40 MSTORE POP DUP2 ADD SWAP1 PUSH2 0x14BE SWAP2 SWAP1 PUSH2 0x2169 JUMP JUMPDEST PUSH2 0x14DA JUMPI PUSH1 0x40 MLOAD PUSH3 0x461BCD PUSH1 0xE5 SHL DUP2 MSTORE PUSH1 0x4 ADD PUSH2 0x75D SWAP1 PUSH2 0x218B JUMP JUMPDEST PUSH1 0x40 MLOAD DUP2 DUP2 MSTORE CALLER SWAP1 PUSH32 0x60188009B974C2FA66EE3B916D93F64D6534EA2204E0C466F9784ACE689E8E49 SWAP1 PUSH1 0x20 ADD PUSH1 0x40 MLOAD DUP1 SWAP2 SUB SWAP1 LOG2 POP POP PUSH2 0x6C4 PUSH1 0x1 PUSH1 0x0 DUP1 MLOAD PUSH1 0x20 PUSH2 0x2429 DUP4 CODECOPY DUP2 MLOAD SWAP2 MSTORE SSTORE JUMP JUMPDEST PUSH1 0x2 SLOAD PUSH1 0x3 DUP1 SLOAD PUSH1 0x0 SWAP3 DUP4 SWAP3 PUSH1 0x60 SWAP3 PUSH1 0x1 PUSH1 0x1 PUSH1 0xA0 SHL SUB DUP4 AND SWAP3 PUSH1 0x1 PUSH1 0xA0 SHL SWAP1 DIV PUSH1 0xE8 SHL SWAP2 SWAP1 DUP2 SWAP1 PUSH2 0x1559 SWAP1 PUSH2 0x2103 JUMP JUMPDEST DUP1 PUSH1 0x1F ADD PUSH1 0x20 DUP1 SWAP2 DIV MUL PUSH1 0x20 ADD PUSH1 0x40 MLOAD SWAP1 DUP2 ADD PUSH1 0x40 MSTORE DUP1 SWAP3 SWAP2 SWAP1 DUP2 DUP2 MSTORE PUSH1 0x20 ADD DUP3 DUP1 SLOAD PUSH2 0x1585 SWAP1 PUSH2 0x2103 JUMP JUMPDEST DUP1 ISZERO PUSH2 0x15D2 JUMPI DUP1 PUSH1 0x1F LT PUSH2 0x15A7 JUMPI PUSH2 0x100 DUP1 DUP4 SLOAD DIV MUL DUP4 MSTORE SWAP2 PUSH1 0x20 ADD SWAP2 PUSH2 0x15D2 JUMP JUMPDEST DUP3 ADD SWAP2 SWAP1 PUSH1 0x0 MSTORE PUSH1 0x20 PUSH1 0x0 KECCAK256 SWAP1 JUMPDEST DUP2 SLOAD DUP2 MSTORE SWAP1 PUSH1 0x1 ADD SWAP1 PUSH1 0x20 ADD DUP1 DUP4 GT PUSH2 0x15B5 JUMPI DUP3 SWAP1 SUB PUSH1 0x1F AND DUP3 ADD SWAP2 JUMPDEST POP POP POP POP POP SWAP1 POP SWAP3 POP SWAP3 POP SWAP3 POP SWAP1 SWAP2 SWAP3 JUMP JUMPDEST PUSH2 0x15EC PUSH2 0x170E JUMP JUMPDEST PUSH1 0x0 SLOAD PUSH1 0x1 PUSH1 0xA8 SHL SWAP1 DIV PUSH1 0xFF AND ISZERO PUSH2 0x1646 JUMPI PUSH1 0x40 MLOAD PUSH3 0x461BCD PUSH1 0xE5 SHL DUP2 MSTORE PUSH1 0x20 PUSH1 0x4 DUP3 ADD MSTORE PUSH1 0x1B PUSH1 0x24 DUP3 ADD MSTORE PUSH32 0x5769746864726177616C7320616C726561647920656E61626C65640000000000 PUSH1 0x44 DUP3 ADD MSTORE PUSH1 0x64 ADD PUSH2 0x75D JUMP JUMPDEST PUSH1 0x0 DUP1 SLOAD PUSH1 0xFF PUSH1 0xA8 SHL NOT AND PUSH1 0x1 PUSH1 0xA8 SHL OR DUP2 SSTORE PUSH1 0x40 MLOAD PUSH32 0xAB2BF4AB08D6736C3EC6C77BB2B0EEF4A5C46863D8DF631BE31EA5B59DC618DE SWAP2 SWAP1 LOG1 JUMP JUMPDEST PUSH1 0x2 SLOAD PUSH1 0x0 SWAP1 PUSH1 0x1 PUSH1 0x1 PUSH1 0xA0 SHL SUB AND ISZERO DUP1 ISZERO SWAP1 PUSH2 0x16B4 JUMPI POP PUSH1 0x2 SLOAD PUSH1 0x1 PUSH1 0xA0 SHL SWAP1 DIV PUSH1 0xE8 SHL PUSH1 0x1 PUSH1 0x1 PUSH1 0xE8 SHL SUB NOT AND ISZERO ISZERO JUMPDEST DUP1 ISZERO PUSH2 0x16CE JUMPI POP PUSH1 0x0 PUSH1 0x3 DUP1 SLOAD PUSH2 0x16CA SWAP1 PUSH2 0x2103 JUMP JUMPDEST SWAP1 POP GT JUMPDEST SWAP1 POP SWAP1 JUMP JUMPDEST PUSH2 0x16DB PUSH2 0x170E JUMP JUMPDEST PUSH1 0x1 PUSH1 0x1 PUSH1 0xA0 SHL SUB DUP2 AND PUSH2 0x1705 JUMPI PUSH1 0x40 MLOAD PUSH4 0x1E4FBDF7 PUSH1 0xE0 SHL DUP2 MSTORE PUSH1 0x0 PUSH1 0x4 DUP3 ADD MSTORE PUSH1 0x24 ADD PUSH2 0x75D JUMP JUMPDEST PUSH2 0xACA DUP2 PUSH2 0x1769 JUMP JUMPDEST CALLER PUSH2 0x1740 PUSH32 0x9016D09D72D40FDAE2FD8CEAC6B6234C7706214FD39C1CD1E609A0528C199300 SLOAD PUSH1 0x1 PUSH1 0x1 PUSH1 0xA0 SHL SUB AND SWAP1 JUMP JUMPDEST PUSH1 0x1 PUSH1 0x1 PUSH1 0xA0 SHL SUB AND EQ PUSH2 0x6C4 JUMPI PUSH1 0x40 MLOAD PUSH4 0x118CDAA7 PUSH1 0xE0 SHL DUP2 MSTORE CALLER PUSH1 0x4 DUP3 ADD MSTORE PUSH1 0x24 ADD PUSH2 0x75D JUMP JUMPDEST PUSH32 0x9016D09D72D40FDAE2FD8CEAC6B6234C7706214FD39C1CD1E609A0528C199300 DUP1 SLOAD PUSH1 0x1 PUSH1 0x1 PUSH1 0xA0 SHL SUB NOT DUP2 AND PUSH1 0x1 PUSH1 0x1 PUSH1 0xA0 SHL SUB DUP5 DUP2 AND SWAP2 DUP3 OR DUP5 SSTORE PUSH1 0x40 MLOAD SWAP3 AND SWAP2 DUP3 SWAP1 PUSH32 0x8BE0079C531659141344CD1FD0A4F28419497F9722A3DAAFE3B4186F6B6457E0 SWAP1 PUSH1 0x0 SWAP1 LOG3 POP POP POP JUMP JUMPDEST PUSH1 0x0 DUP1 MLOAD PUSH1 0x20 PUSH2 0x2429 DUP4 CODECOPY DUP2 MLOAD SWAP2 MSTORE DUP1 SLOAD PUSH1 0x1 NOT ADD PUSH2 0x180C JUMPI PUSH1 0x40 MLOAD PUSH4 0x3EE5AEB5 PUSH1 0xE0 SHL DUP2 MSTORE PUSH1 0x4 ADD PUSH1 0x40 MLOAD DUP1 SWAP2 SUB SWAP1 REVERT JUMPDEST PUSH1 0x2 SWAP1 SSTORE JUMP JUMPDEST PUSH1 0x1 PUSH1 0x0 DUP1 MLOAD PUSH1 0x20 PUSH2 0x2429 DUP4 CODECOPY DUP2 MLOAD SWAP2 MSTORE SSTORE JUMP JUMPDEST PUSH1 0x2 SLOAD PUSH1 0x1 PUSH1 0x1 PUSH1 0xA0 SHL SUB AND PUSH2 0x1876 JUMPI PUSH1 0x40 MLOAD PUSH3 0x461BCD PUSH1 0xE5 SHL DUP2 MSTORE PUSH1 0x20 PUSH1 0x4 DUP3 ADD MSTORE PUSH1 0x15 PUSH1 0x24 DUP3 ADD MSTORE PUSH21 0x109C9A5919D9481B9BDD0818DBDB999A59DD5C9959 PUSH1 0x5A SHL PUSH1 0x44 DUP3 ADD MSTORE PUSH1 0x64 ADD PUSH2 0x75D JUMP JUMPDEST PUSH1 0x2 SLOAD PUSH1 0x1 PUSH1 0xA0 SHL SWAP1 DIV PUSH1 0xE8 SHL PUSH1 0x1 PUSH1 0x1 PUSH1 0xE8 SHL SUB NOT AND PUSH2 0x18D9 JUMPI PUSH1 0x40 MLOAD PUSH3 0x461BCD PUSH1 0xE5 SHL DUP2 MSTORE PUSH1 0x20 PUSH1 0x4 DUP3 ADD MSTORE PUSH1 0x1B PUSH1 0x24 DUP3 ADD MSTORE PUSH32 0x4E617469766520636861696E206E6F7420636F6E666967757265640000000000 PUSH1 0x44 DUP3 ADD MSTORE PUSH1 0x64 ADD PUSH2 0x75D JUMP JUMPDEST PUSH1 0x0 PUSH1 0x3 DUP1 SLOAD PUSH2 0x18E8 SWAP1 PUSH2 0x2103 JUMP JUMPDEST SWAP1 POP GT PUSH2 0x1937 JUMPI PUSH1 0x40 MLOAD PUSH3 0x461BCD PUSH1 0xE5 SHL DUP2 MSTORE PUSH1 0x20 PUSH1 0x4 DUP3 ADD DUP2 SWAP1 MSTORE PUSH1 0x24 DUP3 ADD MSTORE PUSH32 0x56616C696461746F722061646472657373206E6F7420636F6E66696775726564 PUSH1 0x44 DUP3 ADD MSTORE PUSH1 0x64 ADD PUSH2 0x75D JUMP JUMPDEST PUSH1 0x2 SLOAD PUSH1 0x40 MLOAD PUSH4 0xF8B653F PUSH1 0xE3 SHL DUP2 MSTORE PUSH1 0x1 PUSH1 0x1 PUSH1 0xA0 SHL SUB DUP3 AND SWAP2 PUSH4 0x7C5B29F8 SWAP2 PUSH2 0x1976 SWAP2 DUP8 SWAP2 DUP8 SWAP2 PUSH1 0x1 PUSH1 0xA0 SHL SWAP1 DIV PUSH1 0xE8 SHL SWAP1 PUSH1 0x3 SWAP1 PUSH1 0x4 ADD PUSH2 0x23A9 JUMP JUMPDEST PUSH1 0x0 PUSH1 0x40 MLOAD DUP1 DUP4 SUB DUP2 PUSH1 0x0 DUP8 DUP1 EXTCODESIZE ISZERO DUP1 ISZERO PUSH2 0x1990 JUMPI PUSH1 0x0 DUP1 REVERT JUMPDEST POP GAS CALL ISZERO DUP1 ISZERO PUSH2 0x19A4 JUMPI RETURNDATASIZE PUSH1 0x0 DUP1 RETURNDATACOPY RETURNDATASIZE PUSH1 0x0 REVERT JUMPDEST POP POP PUSH1 0x2 SLOAD PUSH1 0x40 MLOAD PUSH1 0x1 PUSH1 0x1 PUSH1 0xA0 SHL SUB DUP6 AND SWAP4 POP PUSH32 0xF53D586108E9B715479241030BDF8C2FC6F28B68221D23C24AC29C8B2084ABEF SWAP3 POP PUSH2 0x19F5 SWAP2 DUP7 SWAP2 PUSH1 0x1 PUSH1 0xA0 SHL SWAP1 SWAP2 DIV PUSH1 0xE8 SHL SWAP1 PUSH1 0x3 SWAP1 PUSH2 0x23EE JUMP JUMPDEST PUSH1 0x40 MLOAD DUP1 SWAP2 SUB SWAP1 LOG2 POP POP POP JUMP JUMPDEST PUSH1 0x5 SLOAD PUSH1 0x40 DUP1 MLOAD PUSH4 0x18160DDD PUSH1 0xE0 SHL DUP2 MSTORE SWAP1 MLOAD PUSH1 0x0 SWAP3 PUSH1 0x1 PUSH1 0x1 PUSH1 0xA0 SHL SUB AND SWAP2 PUSH4 0x18160DDD SWAP2 PUSH1 0x4 DUP1 DUP4 ADD SWAP3 PUSH1 0x20 SWAP3 SWAP2 SWAP1 DUP3 SWAP1 SUB ADD DUP2 DUP7 GAS STATICCALL ISZERO DUP1 ISZERO PUSH2 0x1A4C JUMPI RETURNDATASIZE PUSH1 0x0 DUP1 RETURNDATACOPY RETURNDATASIZE PUSH1 0x0 REVERT JUMPDEST POP POP POP POP PUSH1 0x40 MLOAD RETURNDATASIZE PUSH1 0x1F NOT PUSH1 0x1F DUP3 ADD AND DUP3 ADD DUP1 PUSH1 0x40 MSTORE POP DUP2 ADD SWAP1 PUSH2 0x1A70 SWAP2 SWAP1 PUSH2 0x209B JUMP JUMPDEST PUSH1 0x6 SLOAD SWAP1 SWAP2 POP PUSH1 0x0 DUP3 ISZERO DUP1 PUSH2 0x1A83 JUMPI POP DUP2 ISZERO JUMPDEST ISZERO PUSH2 0x1A8F JUMPI POP DUP3 PUSH2 0x1B0A JUMP JUMPDEST DUP2 PUSH2 0x1A9A DUP5 DUP7 PUSH2 0x20CA JUMP JUMPDEST PUSH2 0x1AA4 SWAP2 SWAP1 PUSH2 0x20E1 JUMP JUMPDEST SWAP1 POP PUSH1 0x0 DUP2 GT PUSH2 0x1B0A JUMPI PUSH1 0x40 MLOAD PUSH3 0x461BCD PUSH1 0xE5 SHL DUP2 MSTORE PUSH1 0x20 PUSH1 0x4 DUP3 ADD MSTORE PUSH1 0x2B PUSH1 0x24 DUP3 ADD MSTORE PUSH32 0x4465706F73697420746F6F20736D616C6C2C20776F756C6420726573756C7420 PUSH1 0x44 DUP3 ADD MSTORE PUSH11 0x696E203020736861726573 PUSH1 0xA8 SHL PUSH1 0x64 DUP3 ADD MSTORE PUSH1 0x84 ADD PUSH2 0x75D JUMP JUMPDEST PUSH1 0x5 SLOAD PUSH1 0x40 MLOAD PUSH4 0x40C10F19 PUSH1 0xE0 SHL DUP2 MSTORE CALLER PUSH1 0x4 DUP3 ADD MSTORE PUSH1 0x24 DUP2 ADD DUP4 SWAP1 MSTORE PUSH1 0x1 PUSH1 0x1 PUSH1 0xA0 SHL SUB SWAP1 SWAP2 AND SWAP1 PUSH4 0x40C10F19 SWAP1 PUSH1 0x44 ADD PUSH1 0x0 PUSH1 0x40 MLOAD DUP1 DUP4 SUB DUP2 PUSH1 0x0 DUP8 DUP1 EXTCODESIZE ISZERO DUP1 ISZERO PUSH2 0x1B56 JUMPI PUSH1 0x0 DUP1 REVERT JUMPDEST POP GAS CALL ISZERO DUP1 ISZERO PUSH2 0x1B6A JUMPI RETURNDATASIZE PUSH1 0x0 DUP1 RETURNDATACOPY RETURNDATASIZE PUSH1 0x0 REVERT JUMPDEST POP POP POP POP DUP4 PUSH1 0x6 PUSH1 0x0 DUP3 DUP3 SLOAD PUSH2 0x1B80 SWAP2 SWAP1 PUSH2 0x21B4 JUMP JUMPDEST SWAP1 SWAP2 SSTORE POP POP PUSH1 0x40 MLOAD DUP5 DUP2 MSTORE CALLER SWAP1 PUSH32 0x9E71BC8EEA02A63969F509818F2DAFB9254532904319F9DBDA79B67BD34A5F3D SWAP1 PUSH1 0x20 ADD PUSH1 0x40 MLOAD DUP1 SWAP2 SUB SWAP1 LOG2 POP POP POP POP JUMP JUMPDEST PUSH1 0x0 DUP1 PUSH32 0xF0C57E16840DF040F15088DC2F81FE391C3923BEC73E23A9662EFC9C229C6A00 JUMPDEST SWAP3 SWAP2 POP POP JUMP JUMPDEST PUSH2 0x1BF3 PUSH2 0x1E14 JUMP JUMPDEST PUSH2 0xACA DUP2 PUSH2 0x1E39 JUMP JUMPDEST PUSH2 0x1C04 PUSH2 0x1E14 JUMP JUMPDEST PUSH2 0x6C4 PUSH2 0x1E41 JUMP JUMPDEST PUSH2 0x1C14 PUSH2 0x1E14 JUMP JUMPDEST PUSH1 0x1 PUSH1 0x1 PUSH1 0xA0 SHL SUB DUP2 AND PUSH2 0x1C63 JUMPI PUSH1 0x40 MLOAD PUSH3 0x461BCD PUSH1 0xE5 SHL DUP2 MSTORE PUSH1 0x20 PUSH1 0x4 DUP3 ADD MSTORE PUSH1 0x16 PUSH1 0x24 DUP3 ADD MSTORE PUSH22 0x496E76616C6964206F7261636C652061646472657373 PUSH1 0x50 SHL PUSH1 0x44 DUP3 ADD MSTORE PUSH1 0x64 ADD PUSH2 0x75D JUMP JUMPDEST PUSH1 0x0 DUP1 SLOAD PUSH1 0x1 PUSH1 0x1 PUSH1 0xB0 SHL SUB NOT AND PUSH1 0x1 PUSH1 0x1 PUSH1 0xA0 SHL SUB SWAP1 SWAP3 AND SWAP2 SWAP1 SWAP2 OR SWAP1 SSTORE PUSH3 0x93A80 PUSH1 0x1 SSTORE JUMP JUMPDEST PUSH2 0x1C93 PUSH2 0x1E14 JUMP JUMPDEST PUSH1 0x1 PUSH1 0x1 PUSH1 0xA0 SHL SUB DUP5 AND PUSH2 0x1CE2 JUMPI PUSH1 0x40 MLOAD PUSH3 0x461BCD PUSH1 0xE5 SHL DUP2 MSTORE PUSH1 0x20 PUSH1 0x4 DUP3 ADD MSTORE PUSH1 0x16 PUSH1 0x24 DUP3 ADD MSTORE PUSH22 0x496E76616C6964206272696467652061646472657373 PUSH1 0x50 SHL PUSH1 0x44 DUP3 ADD MSTORE PUSH1 0x64 ADD PUSH2 0x75D JUMP JUMPDEST PUSH1 0x1 PUSH1 0x1 PUSH1 0xE8 SHL SUB NOT DUP4 AND PUSH2 0x1D2C JUMPI PUSH1 0x40 MLOAD PUSH3 0x461BCD PUSH1 0xE5 SHL DUP2 MSTORE PUSH1 0x20 PUSH1 0x4 DUP3 ADD MSTORE PUSH1 0x10 PUSH1 0x24 DUP3 ADD MSTORE PUSH16 0x125B9D985B1A590818DA185A5B881251 PUSH1 0x82 SHL PUSH1 0x44 DUP3 ADD MSTORE PUSH1 0x64 ADD PUSH2 0x75D JUMP JUMPDEST DUP1 PUSH2 0x1D75 JUMPI PUSH1 0x40 MLOAD PUSH3 0x461BCD PUSH1 0xE5 SHL DUP2 MSTORE PUSH1 0x20 PUSH1 0x4 DUP3 ADD MSTORE PUSH1 0x19 PUSH1 0x24 DUP3 ADD MSTORE PUSH25 0x496E76616C69642076616C696461746F722061646472657373 PUSH1 0x38 SHL PUSH1 0x44 DUP3 ADD MSTORE PUSH1 0x64 ADD PUSH2 0x75D JUMP JUMPDEST PUSH1 0x2 DUP1 SLOAD PUSH1 0xE8 DUP6 SWAP1 SHR PUSH1 0x1 PUSH1 0xA0 SHL MUL PUSH1 0x1 PUSH1 0x1 PUSH1 0xB8 SHL SUB NOT SWAP1 SWAP2 AND PUSH1 0x1 PUSH1 0x1 PUSH1 0xA0 SHL SUB DUP8 AND OR OR SWAP1 SSTORE PUSH1 0x3 PUSH2 0x1DAB DUP3 DUP5 DUP4 PUSH2 0x222E JUMP JUMPDEST POP POP POP POP POP JUMP JUMPDEST DUP1 PUSH1 0x6 SLOAD LT ISZERO PUSH2 0x1DFA JUMPI PUSH1 0x40 MLOAD PUSH3 0x461BCD PUSH1 0xE5 SHL DUP2 MSTORE PUSH1 0x20 PUSH1 0x4 DUP3 ADD MSTORE PUSH1 0x13 PUSH1 0x24 DUP3 ADD MSTORE PUSH19 0x496E73756666696369656E7420617373657473 PUSH1 0x68 SHL PUSH1 0x44 DUP3 ADD MSTORE PUSH1 0x64 ADD PUSH2 0x75D JUMP JUMPDEST DUP1 PUSH1 0x6 PUSH1 0x0 DUP3 DUP3 SLOAD PUSH2 0x1E0C SWAP2 SWAP1 PUSH2 0x2415 JUMP JUMPDEST SWAP1 SWAP2 SSTORE POP POP POP JUMP JUMPDEST PUSH2 0x1E1C PUSH2 0x1E49 JUMP JUMPDEST PUSH2 0x6C4 JUMPI PUSH1 0x40 MLOAD PUSH4 0x1AFCD79F PUSH1 0xE3 SHL DUP2 MSTORE PUSH1 0x4 ADD PUSH1 0x40 MLOAD DUP1 SWAP2 SUB SWAP1 REVERT JUMPDEST PUSH2 0x16DB PUSH2 0x1E14 JUMP JUMPDEST PUSH2 0x1812 PUSH2 0x1E14 JUMP JUMPDEST PUSH1 0x0 PUSH2 0x1E53 PUSH2 0x1BC0 JUMP JUMPDEST SLOAD PUSH1 0x1 PUSH1 0x40 SHL SWAP1 DIV PUSH1 0xFF AND SWAP2 SWAP1 POP JUMP JUMPDEST DUP1 CALLDATALOAD PUSH1 0x1 PUSH1 0x1 PUSH1 0xA0 SHL SUB DUP2 AND DUP2 EQ PUSH2 0x1E7A JUMPI PUSH1 0x0 DUP1 REVERT JUMPDEST SWAP2 SWAP1 POP JUMP JUMPDEST PUSH1 0x0 PUSH1 0x20 DUP3 DUP5 SUB SLT ISZERO PUSH2 0x1E91 JUMPI PUSH1 0x0 DUP1 REVERT JUMPDEST PUSH2 0x1E9A DUP3 PUSH2 0x1E63 JUMP JUMPDEST SWAP4 SWAP3 POP POP POP JUMP JUMPDEST PUSH1 0x0 DUP2 MLOAD DUP1 DUP5 MSTORE PUSH1 0x0 JUMPDEST DUP2 DUP2 LT ISZERO PUSH2 0x1EC7 JUMPI PUSH1 0x20 DUP2 DUP6 ADD DUP2 ADD MLOAD DUP7 DUP4 ADD DUP3 ADD MSTORE ADD PUSH2 0x1EAB JUMP JUMPDEST POP PUSH1 0x0 PUSH1 0x20 DUP3 DUP7 ADD ADD MSTORE PUSH1 0x20 PUSH1 0x1F NOT PUSH1 0x1F DUP4 ADD AND DUP6 ADD ADD SWAP2 POP POP SWAP3 SWAP2 POP POP JUMP JUMPDEST PUSH1 0x20 DUP2 MSTORE PUSH1 0x0 PUSH2 0x1E9A PUSH1 0x20 DUP4 ADD DUP5 PUSH2 0x1EA1 JUMP JUMPDEST PUSH1 0x0 PUSH1 0x20 DUP3 DUP5 SUB SLT ISZERO PUSH2 0x1F0C JUMPI PUSH1 0x0 DUP1 REVERT JUMPDEST POP CALLDATALOAD SWAP2 SWAP1 POP JUMP JUMPDEST DUP1 CALLDATALOAD PUSH1 0x1 PUSH1 0x1 PUSH1 0xE8 SHL SUB NOT DUP2 AND DUP2 EQ PUSH2 0x1E7A JUMPI PUSH1 0x0 DUP1 REVERT JUMPDEST PUSH1 0x0 DUP1 DUP4 PUSH1 0x1F DUP5 ADD SLT PUSH2 0x1F3D JUMPI PUSH1 0x0 DUP1 REVERT JUMPDEST POP DUP2 CALLDATALOAD PUSH8 0xFFFFFFFFFFFFFFFF DUP2 GT ISZERO PUSH2 0x1F55 JUMPI PUSH1 0x0 DUP1 REVERT JUMPDEST PUSH1 0x20 DUP4 ADD SWAP2 POP DUP4 PUSH1 0x20 DUP3 DUP6 ADD ADD GT ISZERO PUSH2 0x1F6D JUMPI PUSH1 0x0 DUP1 REVERT JUMPDEST SWAP3 POP SWAP3 SWAP1 POP JUMP JUMPDEST PUSH1 0x0 DUP1 PUSH1 0x0 PUSH1 0x40 DUP5 DUP7 SUB SLT ISZERO PUSH2 0x1F89 JUMPI PUSH1 0x0 DUP1 REVERT JUMPDEST PUSH2 0x1F92 DUP5 PUSH2 0x1F13 JUMP JUMPDEST SWAP3 POP PUSH1 0x20 DUP5 ADD CALLDATALOAD PUSH8 0xFFFFFFFFFFFFFFFF DUP2 GT ISZERO PUSH2 0x1FAE JUMPI PUSH1 0x0 DUP1 REVERT JUMPDEST PUSH2 0x1FBA DUP7 DUP3 DUP8 ADD PUSH2 0x1F2B JUMP JUMPDEST SWAP5 SWAP8 SWAP1 SWAP7 POP SWAP4 SWAP5 POP POP POP POP JUMP JUMPDEST PUSH1 0x0 DUP1 PUSH1 0x0 DUP1 PUSH1 0x0 DUP1 PUSH1 0x0 PUSH1 0xC0 DUP9 DUP11 SUB SLT ISZERO PUSH2 0x1FE2 JUMPI PUSH1 0x0 DUP1 REVERT JUMPDEST PUSH2 0x1FEB DUP9 PUSH2 0x1E63 JUMP JUMPDEST SWAP7 POP PUSH2 0x1FF9 PUSH1 0x20 DUP10 ADD PUSH2 0x1E63 JUMP JUMPDEST SWAP6 POP PUSH2 0x2007 PUSH1 0x40 DUP10 ADD PUSH2 0x1E63 JUMP JUMPDEST SWAP5 POP PUSH2 0x2015 PUSH1 0x60 DUP10 ADD PUSH2 0x1E63 JUMP JUMPDEST SWAP4 POP PUSH2 0x2023 PUSH1 0x80 DUP10 ADD PUSH2 0x1F13 JUMP JUMPDEST SWAP3 POP PUSH1 0xA0 DUP9 ADD CALLDATALOAD PUSH8 0xFFFFFFFFFFFFFFFF DUP2 GT ISZERO PUSH2 0x203F JUMPI PUSH1 0x0 DUP1 REVERT JUMPDEST PUSH2 0x204B DUP11 DUP3 DUP12 ADD PUSH2 0x1F2B JUMP JUMPDEST SWAP9 SWAP12 SWAP8 SWAP11 POP SWAP6 SWAP9 POP SWAP4 SWAP7 SWAP3 SWAP6 SWAP3 SWAP4 POP POP POP JUMP JUMPDEST PUSH1 0x1 PUSH1 0x1 PUSH1 0xA0 SHL SUB DUP5 AND DUP2 MSTORE PUSH1 0x1 PUSH1 0x1 PUSH1 0xE8 SHL SUB NOT DUP4 AND PUSH1 0x20 DUP3 ADD MSTORE PUSH1 0x60 PUSH1 0x40 DUP3 ADD DUP2 SWAP1 MSTORE PUSH1 0x0 SWAP1 PUSH2 0x2092 SWAP1 DUP4 ADD DUP5 PUSH2 0x1EA1 JUMP JUMPDEST SWAP6 SWAP5 POP POP POP POP POP JUMP JUMPDEST PUSH1 0x0 PUSH1 0x20 DUP3 DUP5 SUB SLT ISZERO PUSH2 0x20AD JUMPI PUSH1 0x0 DUP1 REVERT JUMPDEST POP MLOAD SWAP2 SWAP1 POP JUMP JUMPDEST PUSH4 0x4E487B71 PUSH1 0xE0 SHL PUSH1 0x0 MSTORE PUSH1 0x11 PUSH1 0x4 MSTORE PUSH1 0x24 PUSH1 0x0 REVERT JUMPDEST DUP1 DUP3 MUL DUP2 ISZERO DUP3 DUP3 DIV DUP5 EQ OR PUSH2 0x1BE5 JUMPI PUSH2 0x1BE5 PUSH2 0x20B4 JUMP JUMPDEST PUSH1 0x0 DUP3 PUSH2 0x20FE JUMPI PUSH4 0x4E487B71 PUSH1 0xE0 SHL PUSH1 0x0 MSTORE PUSH1 0x12 PUSH1 0x4 MSTORE PUSH1 0x24 PUSH1 0x0 REVERT JUMPDEST POP DIV SWAP1 JUMP JUMPDEST PUSH1 0x1 DUP2 DUP2 SHR SWAP1 DUP3 AND DUP1 PUSH2 0x2117 JUMPI PUSH1 0x7F DUP3 AND SWAP2 POP JUMPDEST PUSH1 0x20 DUP3 LT DUP2 SUB PUSH2 0x2137 JUMPI PUSH4 0x4E487B71 PUSH1 0xE0 SHL PUSH1 0x0 MSTORE PUSH1 0x22 PUSH1 0x4 MSTORE PUSH1 0x24 PUSH1 0x0 REVERT JUMPDEST POP SWAP2 SWAP1 POP JUMP JUMPDEST PUSH1 0x20 DUP1 DUP3 MSTORE PUSH1 0x12 SWAP1 DUP3 ADD MSTORE PUSH18 0x10DBDB9D1C9858DD081A5CC81C185D5CD959 PUSH1 0x72 SHL PUSH1 0x40 DUP3 ADD MSTORE PUSH1 0x60 ADD SWAP1 JUMP JUMPDEST PUSH1 0x0 PUSH1 0x20 DUP3 DUP5 SUB SLT ISZERO PUSH2 0x217B JUMPI PUSH1 0x0 DUP1 REVERT JUMPDEST DUP2 MLOAD DUP1 ISZERO ISZERO DUP2 EQ PUSH2 0x1E9A JUMPI PUSH1 0x0 DUP1 REVERT JUMPDEST PUSH1 0x20 DUP1 DUP3 MSTORE PUSH1 0xF SWAP1 DUP3 ADD MSTORE PUSH15 0x151C985B9CD9995C8819985A5B1959 PUSH1 0x8A SHL PUSH1 0x40 DUP3 ADD MSTORE PUSH1 0x60 ADD SWAP1 JUMP JUMPDEST DUP1 DUP3 ADD DUP1 DUP3 GT ISZERO PUSH2 0x1BE5 JUMPI PUSH2 0x1BE5 PUSH2 0x20B4 JUMP JUMPDEST PUSH4 0x4E487B71 PUSH1 0xE0 SHL PUSH1 0x0 MSTORE PUSH1 0x41 PUSH1 0x4 MSTORE PUSH1 0x24 PUSH1 0x0 REVERT JUMPDEST PUSH1 0x1F DUP3 GT ISZERO PUSH2 0x2229 JUMPI PUSH1 0x0 DUP2 PUSH1 0x0 MSTORE PUSH1 0x20 PUSH1 0x0 KECCAK256 PUSH1 0x1F DUP6 ADD PUSH1 0x5 SHR DUP2 ADD PUSH1 0x20 DUP7 LT ISZERO PUSH2 0x2206 JUMPI POP DUP1 JUMPDEST PUSH1 0x1F DUP6 ADD PUSH1 0x5 SHR DUP3 ADD SWAP2 POP JUMPDEST DUP2 DUP2 LT ISZERO PUSH2 0x2225 JUMPI DUP3 DUP2 SSTORE PUSH1 0x1 ADD PUSH2 0x2212 JUMP JUMPDEST POP POP POP JUMPDEST POP POP POP JUMP JUMPDEST PUSH8 0xFFFFFFFFFFFFFFFF DUP4 GT ISZERO PUSH2 0x2246 JUMPI PUSH2 0x2246 PUSH2 0x21C7 JUMP JUMPDEST PUSH2 0x225A DUP4 PUSH2 0x2254 DUP4 SLOAD PUSH2 0x2103 JUMP JUMPDEST DUP4 PUSH2 0x21DD JUMP JUMPDEST PUSH1 0x0 PUSH1 0x1F DUP5 GT PUSH1 0x1 DUP2 EQ PUSH2 0x228E JUMPI PUSH1 0x0 DUP6 ISZERO PUSH2 0x2276 JUMPI POP DUP4 DUP3 ADD CALLDATALOAD JUMPDEST PUSH1 0x0 NOT PUSH1 0x3 DUP8 SWAP1 SHL SHR NOT AND PUSH1 0x1 DUP7 SWAP1 SHL OR DUP4 SSTORE PUSH2 0x1DAB JUMP JUMPDEST PUSH1 0x0 DUP4 DUP2 MSTORE PUSH1 0x20 SWAP1 KECCAK256 PUSH1 0x1F NOT DUP7 AND SWAP1 DUP4 JUMPDEST DUP3 DUP2 LT ISZERO PUSH2 0x22BF JUMPI DUP7 DUP6 ADD CALLDATALOAD DUP3 SSTORE PUSH1 0x20 SWAP5 DUP6 ADD SWAP5 PUSH1 0x1 SWAP1 SWAP3 ADD SWAP2 ADD PUSH2 0x229F JUMP JUMPDEST POP DUP7 DUP3 LT ISZERO PUSH2 0x22DC JUMPI PUSH1 0x0 NOT PUSH1 0xF8 DUP9 PUSH1 0x3 SHL AND SHR NOT DUP5 DUP8 ADD CALLDATALOAD AND DUP2 SSTORE JUMPDEST POP POP PUSH1 0x1 DUP6 PUSH1 0x1 SHL ADD DUP4 SSTORE POP POP POP POP POP JUMP JUMPDEST PUSH3 0xFFFFFF PUSH1 0xE8 SHL DUP5 AND DUP2 MSTORE PUSH1 0x40 PUSH1 0x20 DUP3 ADD MSTORE DUP2 PUSH1 0x40 DUP3 ADD MSTORE DUP2 DUP4 PUSH1 0x60 DUP4 ADD CALLDATACOPY PUSH1 0x0 DUP2 DUP4 ADD PUSH1 0x60 SWAP1 DUP2 ADD SWAP2 SWAP1 SWAP2 MSTORE PUSH1 0x1F SWAP1 SWAP3 ADD PUSH1 0x1F NOT AND ADD ADD SWAP3 SWAP2 POP POP JUMP JUMPDEST PUSH1 0x0 DUP2 SLOAD PUSH2 0x2339 DUP2 PUSH2 0x2103 JUMP JUMPDEST DUP1 DUP6 MSTORE PUSH1 0x20 PUSH1 0x1 DUP4 DUP2 AND DUP1 ISZERO PUSH2 0x2356 JUMPI PUSH1 0x1 DUP2 EQ PUSH2 0x2370 JUMPI PUSH2 0x239E JUMP JUMPDEST PUSH1 0xFF NOT DUP6 AND DUP9 DUP5 ADD MSTORE DUP4 ISZERO ISZERO PUSH1 0x5 SHL DUP9 ADD DUP4 ADD SWAP6 POP PUSH2 0x239E JUMP JUMPDEST DUP7 PUSH1 0x0 MSTORE DUP3 PUSH1 0x0 KECCAK256 PUSH1 0x0 JUMPDEST DUP6 DUP2 LT ISZERO PUSH2 0x2396 JUMPI DUP2 SLOAD DUP11 DUP3 ADD DUP7 ADD MSTORE SWAP1 DUP4 ADD SWAP1 DUP5 ADD PUSH2 0x237B JUMP JUMPDEST DUP10 ADD DUP5 ADD SWAP7 POP POP JUMPDEST POP POP POP POP POP SWAP3 SWAP2 POP POP JUMP JUMPDEST PUSH1 0x1 PUSH1 0x1 PUSH1 0xA0 SHL SUB DUP6 AND DUP2 MSTORE PUSH1 0x20 DUP2 ADD DUP5 SWAP1 MSTORE PUSH1 0x1 PUSH1 0x1 PUSH1 0xE8 SHL SUB NOT DUP4 AND PUSH1 0x40 DUP3 ADD MSTORE PUSH1 0x80 PUSH1 0x60 DUP3 ADD DUP2 SWAP1 MSTORE PUSH1 0x0 SWAP1 PUSH2 0x23E4 SWAP1 DUP4 ADD DUP5 PUSH2 0x232C JUMP JUMPDEST SWAP7 SWAP6 POP POP POP POP POP POP JUMP JUMPDEST DUP4 DUP2 MSTORE PUSH3 0xFFFFFF PUSH1 0xE8 SHL DUP4 AND PUSH1 0x20 DUP3 ADD MSTORE PUSH1 0x60 PUSH1 0x40 DUP3 ADD MSTORE PUSH1 0x0 PUSH2 0x2092 PUSH1 0x60 DUP4 ADD DUP5 PUSH2 0x232C JUMP JUMPDEST DUP2 DUP2 SUB DUP2 DUP2 GT ISZERO PUSH2 0x1BE5 JUMPI PUSH2 0x1BE5 PUSH2 0x20B4 JUMP INVALID SWAP12 PUSH24 0x9B17422D0DF92223018B32B4D1FA46E071723D6817E2486D STOP EXTCODESIZE 0xEC 0xC5 PUSH0 STOP LOG2 PUSH5 0x6970667358 0x22 SLT KECCAK256 TIMESTAMP DUP11 EQ DUP5 PUSH25 0xB7F8C40904004DF32D8B2B3896EF6F3566BA6010314D9B0AD2 EXTCODEHASH SELFDESTRUCT PUSH5 0x736F6C6343 STOP ADDMOD XOR STOP CALLER "},"methodIdentifiers":{"MIN_DEPOSIT()":"e1e158a5","bridge()":"e78cea92","cellToken()":"3de80302","completeWithdrawal()":"e03ff7cb","deposit(uint256)":"b6b55f25","enableWithdrawals()":"e8bac93b","exchangeRate()":"3ba0b9a9","getAdminConfig()":"46e4c41c","getBridgeConfig()":"e779e226","getTotalAssets()":"6e07302b","getWithdrawalRequest(address)":"8c661b5d","initialize(address,address,address,address,bytes3,bytes)":"dbf1c69d","isBridgeConfigured()":"f0261af6","isOperational()":"cd905dff","nativeChainId()":"c1a68b38","oracul()":"1185718f","owner()":"8da5cb5b","pause()":"8456cb59","paused()":"5c975abb","rebase(uint256)":"bc4f2d6d","renounceOwnership()":"715018a6","requestWithdrawal(uint256)":"9ee679e8","sCellToken()":"157a093d","setBridge(address)":"8dd14802","setOracul(address)":"cf5a50f5","setValidatorAddress(bytes3,bytes)":"c534f35b","setWithdrawalDelay(uint256)":"d2c13da5","transferOwnership(address)":"f2fde38b","unpause()":"3f4ba83a","validatorAddress()":"3fe4676e","withdrawalDelay()":"a7ab6961","withdrawalRequests(address)":"27b380f3","withdrawalsEnabled()":"d0dbcd24"}},"storageLayout":{"storage":[{"astId":1579,"contract":"contracts/ValoraCore.sol:ValoraCore","label":"oracul","offset":0,"slot":"0","type":"t_address"},{"astId":1582,"contract":"contracts/ValoraCore.sol:ValoraCore","label":"paused","offset":20,"slot":"0","type":"t_bool"},{"astId":1585,"contract":"contracts/ValoraCore.sol:ValoraCore","label":"withdrawalsEnabled","offset":21,"slot":"0","type":"t_bool"},{"astId":1588,"contract":"contracts/ValoraCore.sol:ValoraCore","label":"withdrawalDelay","offset":0,"slot":"1","type":"t_uint256"},{"astId":1858,"contract":"contracts/ValoraCore.sol:ValoraCore","label":"bridge","offset":0,"slot":"2","type":"t_contract(IBridge)1852"},{"astId":1860,"contract":"contracts/ValoraCore.sol:ValoraCore","label":"nativeChainId","offset":20,"slot":"2","type":"t_bytes3"},{"astId":1862,"contract":"contracts/ValoraCore.sol:ValoraCore","label":"validatorAddress","offset":0,"slot":"3","type":"t_bytes_storage"},{"astId":2141,"contract":"contracts/ValoraCore.sol:ValoraCore","label":"cellToken","offset":0,"slot":"4","type":"t_contract(IERC20)1515"},{"astId":2144,"contract":"contracts/ValoraCore.sol:ValoraCore","label":"sCellToken","offset":0,"slot":"5","type":"t_contract(ValoraStakedCell)2756"},{"astId":2146,"contract":"contracts/ValoraCore.sol:ValoraCore","label":"totalAssets","offset":0,"slot":"6","type":"t_uint256"},{"astId":2154,"contract":"contracts/ValoraCore.sol:ValoraCore","label":"withdrawalRequests","offset":0,"slot":"7","type":"t_mapping(t_address,t_struct(WithdrawalRequest)2159_storage)"}],"types":{"t_address":{"encoding":"inplace","label":"address","numberOfBytes":"20"},"t_bool":{"encoding":"inplace","label":"bool","numberOfBytes":"1"},"t_bytes3":{"encoding":"inplace","label":"bytes3","numberOfBytes":"3"},"t_bytes_storage":{"encoding":"bytes","label":"bytes","numberOfBytes":"32"},"t_contract(IBridge)1852":{"encoding":"inplace","label":"contract IBridge","numberOfBytes":"20"},"t_contract(IERC20)1515":{"encoding":"inplace","label":"contract IERC20","numberOfBytes":"20"},"t_contract(ValoraStakedCell)2756":{"encoding":"inplace","label":"contract ValoraStakedCell","numberOfBytes":"20"},"t_mapping(t_address,t_struct(WithdrawalRequest)2159_storage)":{"encoding":"mapping","key":"t_address","label":"mapping(address => struct ValoraCore.WithdrawalRequest)","numberOfBytes":"32","value":"t_struct(WithdrawalRequest)2159_storage"},"t_struct(WithdrawalRequest)2159_storage":{"encoding":"inplace","label":"struct ValoraCore.WithdrawalRequest","members":[{"astId":2156,"contract":"contracts/ValoraCore.sol:ValoraCore","label":"shares","offset":0,"slot":"0","type":"t_uint256"},{"astId":2158,"contract":"contracts/ValoraCore.sol:ValoraCore","label":"unlockTime","offset":0,"slot":"1","type":"t_uint256"}],"numberOfBytes":"64"},"t_uint256":{"encoding":"inplace","label":"uint256","numberOfBytes":"32"}}}}}}