{
	"contracts/ValoraPoints.sol": {
		"ValoraPoints": {
			"abi": [
				{
					"inputs": [],
					"name": "InvalidInitialization",
					"type": "error"
				},
				{
					"inputs": [],
					"name": "NotInitializing",
					"type": "error"
				},
				{
					"inputs": [
						{
							"internalType": "address",
							"name": "owner",
							"type": "address"
						}
					],
					"name": "OwnableInvalidOwner",
					"type": "error"
				},
				{
					"inputs": [
						{
							"internalType": "address",
							"name": "account",
							"type": "address"
						}
					],
					"name": "OwnableUnauthorizedAccount",
					"type": "error"
				},
				{
					"anonymous": false,
					"inputs": [
						{
							"components": [
								{
									"internalType": "uint256",
									"name": "stakingMultiplier",
									"type": "uint256"
								},
								{
									"internalType": "uint256",
									"name": "lendingMultiplier",
									"type": "uint256"
								},
								{
									"internalType": "uint256",
									"name": "borrowingMultiplier",
									"type": "uint256"
								},
								{
									"internalType": "uint256",
									"name": "loyaltyBonusRate",
									"type": "uint256"
								},
								{
									"internalType": "uint256",
									"name": "maxLoyaltyDays",
									"type": "uint256"
								}
							],
							"indexed": false,
							"internalType": "struct ValoraPoints.PointsConfig",
							"name": "newConfig",
							"type": "tuple"
						}
					],
					"name": "ConfigUpdated",
					"type": "event"
				},
				{
					"anonymous": false,
					"inputs": [
						{
							"indexed": true,
							"internalType": "address",
							"name": "contractAddr",
							"type": "address"
						},
						{
							"indexed": false,
							"internalType": "bool",
							"name": "authorized",
							"type": "bool"
						}
					],
					"name": "ContractAuthorized",
					"type": "event"
				},
				{
					"anonymous": false,
					"inputs": [
						{
							"indexed": false,
							"internalType": "uint64",
							"name": "version",
							"type": "uint64"
						}
					],
					"name": "Initialized",
					"type": "event"
				},
				{
					"anonymous": false,
					"inputs": [
						{
							"indexed": true,
							"internalType": "address",
							"name": "previousOwner",
							"type": "address"
						},
						{
							"indexed": true,
							"internalType": "address",
							"name": "newOwner",
							"type": "address"
						}
					],
					"name": "OwnershipTransferred",
					"type": "event"
				},
				{
					"anonymous": false,
					"inputs": [
						{
							"indexed": true,
							"internalType": "address",
							"name": "user",
							"type": "address"
						},
						{
							"indexed": true,
							"internalType": "string",
							"name": "category",
							"type": "string"
						},
						{
							"indexed": false,
							"internalType": "uint256",
							"name": "amount",
							"type": "uint256"
						}
					],
					"name": "PointsAwarded",
					"type": "event"
				},
				{
					"anonymous": false,
					"inputs": [
						{
							"indexed": true,
							"internalType": "address",
							"name": "user",
							"type": "address"
						},
						{
							"indexed": false,
							"internalType": "uint256",
							"name": "amount",
							"type": "uint256"
						},
						{
							"indexed": false,
							"internalType": "string",
							"name": "purpose",
							"type": "string"
						}
					],
					"name": "PointsRedeemed",
					"type": "event"
				},
				{
					"anonymous": false,
					"inputs": [
						{
							"indexed": true,
							"internalType": "address",
							"name": "user",
							"type": "address"
						},
						{
							"indexed": false,
							"internalType": "uint256",
							"name": "newTotal",
							"type": "uint256"
						}
					],
					"name": "PointsUpdated",
					"type": "event"
				},
				{
					"inputs": [
						{
							"internalType": "address",
							"name": "",
							"type": "address"
						}
					],
					"name": "authorizedContracts",
					"outputs": [
						{
							"internalType": "bool",
							"name": "",
							"type": "bool"
						}
					],
					"stateMutability": "view",
					"type": "function"
				},
				{
					"inputs": [
						{
							"internalType": "address[]",
							"name": "users",
							"type": "address[]"
						},
						{
							"internalType": "uint256[]",
							"name": "amounts",
							"type": "uint256[]"
						},
						{
							"internalType": "string[]",
							"name": "categories",
							"type": "string[]"
						}
					],
					"name": "batchUpdatePoints",
					"outputs": [],
					"stateMutability": "nonpayable",
					"type": "function"
				},
				{
					"inputs": [
						{
							"internalType": "address",
							"name": "user",
							"type": "address"
						}
					],
					"name": "calculatePendingLoyaltyPoints",
					"outputs": [
						{
							"internalType": "uint256",
							"name": "",
							"type": "uint256"
						}
					],
					"stateMutability": "view",
					"type": "function"
				},
				{
					"inputs": [],
					"name": "config",
					"outputs": [
						{
							"internalType": "uint256",
							"name": "stakingMultiplier",
							"type": "uint256"
						},
						{
							"internalType": "uint256",
							"name": "lendingMultiplier",
							"type": "uint256"
						},
						{
							"internalType": "uint256",
							"name": "borrowingMultiplier",
							"type": "uint256"
						},
						{
							"internalType": "uint256",
							"name": "loyaltyBonusRate",
							"type": "uint256"
						},
						{
							"internalType": "uint256",
							"name": "maxLoyaltyDays",
							"type": "uint256"
						}
					],
					"stateMutability": "view",
					"type": "function"
				},
				{
					"inputs": [
						{
							"internalType": "address",
							"name": "user",
							"type": "address"
						}
					],
					"name": "getPointsBreakdown",
					"outputs": [
						{
							"internalType": "uint256",
							"name": "staking",
							"type": "uint256"
						},
						{
							"internalType": "uint256",
							"name": "lending",
							"type": "uint256"
						},
						{
							"internalType": "uint256",
							"name": "borrowing",
							"type": "uint256"
						},
						{
							"internalType": "uint256",
							"name": "loyalty",
							"type": "uint256"
						},
						{
							"internalType": "uint256",
							"name": "total",
							"type": "uint256"
						}
					],
					"stateMutability": "view",
					"type": "function"
				},
				{
					"inputs": [
						{
							"internalType": "address",
							"name": "user",
							"type": "address"
						}
					],
					"name": "getUserPoints",
					"outputs": [
						{
							"components": [
								{
									"internalType": "uint256",
									"name": "stakingPoints",
									"type": "uint256"
								},
								{
									"internalType": "uint256",
									"name": "lendingPoints",
									"type": "uint256"
								},
								{
									"internalType": "uint256",
									"name": "borrowingPoints",
									"type": "uint256"
								},
								{
									"internalType": "uint256",
									"name": "loyaltyPoints",
									"type": "uint256"
								},
								{
									"internalType": "uint256",
									"name": "totalPoints",
									"type": "uint256"
								},
								{
									"internalType": "uint256",
									"name": "lastUpdate",
									"type": "uint256"
								}
							],
							"internalType": "struct ValoraPoints.UserPoints",
							"name": "",
							"type": "tuple"
						}
					],
					"stateMutability": "view",
					"type": "function"
				},
				{
					"inputs": [],
					"name": "initialize",
					"outputs": [],
					"stateMutability": "nonpayable",
					"type": "function"
				},
				{
					"inputs": [],
					"name": "owner",
					"outputs": [
						{
							"internalType": "address",
							"name": "",
							"type": "address"
						}
					],
					"stateMutability": "view",
					"type": "function"
				},
				{
					"inputs": [
						{
							"internalType": "address",
							"name": "user",
							"type": "address"
						},
						{
							"internalType": "uint256",
							"name": "amount",
							"type": "uint256"
						},
						{
							"internalType": "string",
							"name": "purpose",
							"type": "string"
						}
					],
					"name": "redeemPoints",
					"outputs": [],
					"stateMutability": "nonpayable",
					"type": "function"
				},
				{
					"inputs": [],
					"name": "renounceOwnership",
					"outputs": [],
					"stateMutability": "nonpayable",
					"type": "function"
				},
				{
					"inputs": [
						{
							"internalType": "address",
							"name": "contractAddr",
							"type": "address"
						},
						{
							"internalType": "bool",
							"name": "authorized",
							"type": "bool"
						}
					],
					"name": "setContractAuthorization",
					"outputs": [],
					"stateMutability": "nonpayable",
					"type": "function"
				},
				{
					"inputs": [],
					"name": "totalPointsDistributed",
					"outputs": [
						{
							"internalType": "uint256",
							"name": "",
							"type": "uint256"
						}
					],
					"stateMutability": "view",
					"type": "function"
				},
				{
					"inputs": [
						{
							"internalType": "address",
							"name": "newOwner",
							"type": "address"
						}
					],
					"name": "transferOwnership",
					"outputs": [],
					"stateMutability": "nonpayable",
					"type": "function"
				},
				{
					"inputs": [
						{
							"internalType": "address",
							"name": "user",
							"type": "address"
						},
						{
							"internalType": "uint256",
							"name": "amount",
							"type": "uint256"
						},
						{
							"internalType": "uint256",
							"name": "duration",
							"type": "uint256"
						}
					],
					"name": "updateBorrowingPoints",
					"outputs": [],
					"stateMutability": "nonpayable",
					"type": "function"
				},
				{
					"inputs": [
						{
							"components": [
								{
									"internalType": "uint256",
									"name": "stakingMultiplier",
									"type": "uint256"
								},
								{
									"internalType": "uint256",
									"name": "lendingMultiplier",
									"type": "uint256"
								},
								{
									"internalType": "uint256",
									"name": "borrowingMultiplier",
									"type": "uint256"
								},
								{
									"internalType": "uint256",
									"name": "loyaltyBonusRate",
									"type": "uint256"
								},
								{
									"internalType": "uint256",
									"name": "maxLoyaltyDays",
									"type": "uint256"
								}
							],
							"internalType": "struct ValoraPoints.PointsConfig",
							"name": "newConfig",
							"type": "tuple"
						}
					],
					"name": "updateConfig",
					"outputs": [],
					"stateMutability": "nonpayable",
					"type": "function"
				},
				{
					"inputs": [
						{
							"internalType": "address",
							"name": "user",
							"type": "address"
						},
						{
							"internalType": "uint256",
							"name": "amount",
							"type": "uint256"
						},
						{
							"internalType": "uint256",
							"name": "duration",
							"type": "uint256"
						}
					],
					"name": "updateLendingPoints",
					"outputs": [],
					"stateMutability": "nonpayable",
					"type": "function"
				},
				{
					"inputs": [
						{
							"internalType": "address",
							"name": "user",
							"type": "address"
						}
					],
					"name": "updateLoyaltyPoints",
					"outputs": [],
					"stateMutability": "nonpayable",
					"type": "function"
				},
				{
					"inputs": [
						{
							"internalType": "address",
							"name": "user",
							"type": "address"
						},
						{
							"internalType": "uint256",
							"name": "amount",
							"type": "uint256"
						},
						{
							"internalType": "uint256",
							"name": "duration",
							"type": "uint256"
						}
					],
					"name": "updateStakingPoints",
					"outputs": [],
					"stateMutability": "nonpayable",
					"type": "function"
				},
				{
					"inputs": [
						{
							"internalType": "address",
							"name": "",
							"type": "address"
						}
					],
					"name": "userPoints",
					"outputs": [
						{
							"internalType": "uint256",
							"name": "stakingPoints",
							"type": "uint256"
						},
						{
							"internalType": "uint256",
							"name": "lendingPoints",
							"type": "uint256"
						},
						{
							"internalType": "uint256",
							"name": "borrowingPoints",
							"type": "uint256"
						},
						{
							"internalType": "uint256",
							"name": "loyaltyPoints",
							"type": "uint256"
						},
						{
							"internalType": "uint256",
							"name": "totalPoints",
							"type": "uint256"
						},
						{
							"internalType": "uint256",
							"name": "lastUpdate",
							"type": "uint256"
						}
					],
					"stateMutability": "view",
					"type": "function"
				}
			],
			"devdoc": {
				"errors": {
					"InvalidInitialization()": [
						{
							"details": "The contract is already initialized."
						}
					],
					"NotInitializing()": [
						{
							"details": "The contract is not initializing."
						}
					],
					"OwnableInvalidOwner(address)": [
						{
							"details": "The owner is not a valid owner account. (eg. `address(0)`)"
						}
					],
					"OwnableUnauthorizedAccount(address)": [
						{
							"details": "The caller account is not authorized to perform an operation."
						}
					]
				},
				"events": {
					"Initialized(uint64)": {
						"details": "Triggered when the contract has been initialized or reinitialized."
					}
				},
				"kind": "dev",
				"methods": {
					"owner()": {
						"details": "Returns the address of the current owner."
					},
					"renounceOwnership()": {
						"details": "Leaves the contract without owner. It will not be possible to call `onlyOwner` functions. Can only be called by the current owner. NOTE: Renouncing ownership will leave the contract without an owner, thereby disabling any functionality that is only available to the owner."
					},
					"transferOwnership(address)": {
						"details": "Transfers ownership of the contract to a new account (`newOwner`). Can only be called by the current owner."
					}
				},
				"version": 1
			},
			"evm": {
				"assembly": "    /* \"contracts/ValoraPoints.sol\":221:6890  contract ValoraPoints is OwnableUpgradeable, ReentrancyGuardUpgradeable {... */\n  mstore(0x40, 0x80)\n  callvalue\n  dup1\n  iszero\n  tag_1\n  jumpi\n  revert(0x00, 0x00)\ntag_1:\n  pop\n  dataSize(sub_0)\n  dup1\n  dataOffset(sub_0)\n  0x00\n  codecopy\n  0x00\n  return\nstop\n\nsub_0: assembly {\n        /* \"contracts/ValoraPoints.sol\":221:6890  contract ValoraPoints is OwnableUpgradeable, ReentrancyGuardUpgradeable {... */\n      mstore(0x40, 0x80)\n      callvalue\n      dup1\n      iszero\n      tag_1\n      jumpi\n      revert(0x00, 0x00)\n    tag_1:\n      pop\n      jumpi(tag_2, lt(calldatasize, 0x04))\n      shr(0xe0, calldataload(0x00))\n      dup1\n      0x7bc94d98\n      gt\n      tag_22\n      jumpi\n      dup1\n      0xc5696398\n      gt\n      tag_23\n      jumpi\n      dup1\n      0xc5696398\n      eq\n      tag_17\n      jumpi\n      dup1\n      0xd5b9221b\n      eq\n      tag_18\n      jumpi\n      dup1\n      0xf2fde38b\n      eq\n      tag_19\n      jumpi\n      dup1\n      0xf50ddbc7\n      eq\n      tag_20\n      jumpi\n      dup1\n      0xf60ccc86\n      eq\n      tag_21\n      jumpi\n      jump(tag_2)\n    tag_23:\n      dup1\n      0x7bc94d98\n      eq\n      tag_12\n      jumpi\n      dup1\n      0x8129fc1c\n      eq\n      tag_13\n      jumpi\n      dup1\n      0x8da5cb5b\n      eq\n      tag_14\n      jumpi\n      dup1\n      0x8e65eb11\n      eq\n      tag_15\n      jumpi\n      dup1\n      0xaeefe31f\n      eq\n      tag_16\n      jumpi\n      jump(tag_2)\n    tag_22:\n      dup1\n      0x53a64671\n      gt\n      tag_24\n      jumpi\n      dup1\n      0x53a64671\n      eq\n      tag_7\n      jumpi\n      dup1\n      0x55517f56\n      eq\n      tag_8\n      jumpi\n      dup1\n      0x715018a6\n      eq\n      tag_9\n      jumpi\n      dup1\n      0x794809de\n      eq\n      tag_10\n      jumpi\n      dup1\n      0x79502c55\n      eq\n      tag_11\n      jumpi\n      jump(tag_2)\n    tag_24:\n      dup1\n      0x2a42a564\n      eq\n      tag_3\n      jumpi\n      dup1\n      0x2c805602\n      eq\n      tag_4\n      jumpi\n      dup1\n      0x2ede8bf5\n      eq\n      tag_5\n      jumpi\n      dup1\n      0x53571396\n      eq\n      tag_6\n      jumpi\n    tag_2:\n      revert(0x00, 0x00)\n        /* \"contracts/ValoraPoints.sol\":4890:5302  function redeemPoints(address user, uint256 amount, string calldata purpose) external onlyAuthorized {... */\n    tag_3:\n      tag_25\n      0x04\n      dup1\n      calldatasize\n      sub\n      dup2\n      add\n      swap1\n      tag_26\n      swap2\n      swap1\n      tag_27\n      jump\t// in\n    tag_26:\n      tag_28\n      jump\t// in\n    tag_25:\n      stop\n        /* \"contracts/ValoraPoints.sol\":3216:3501  function updateLendingPoints(address user, uint256 amount, uint256 duration) external onlyAuthorized {... */\n    tag_4:\n      tag_29\n      0x04\n      dup1\n      calldatasize\n      sub\n      dup2\n      add\n      swap1\n      tag_30\n      swap2\n      swap1\n      tag_31\n      jump\t// in\n    tag_30:\n      tag_32\n      jump\t// in\n    tag_29:\n      stop\n        /* \"contracts/ValoraPoints.sol\":5935:6432  function calculatePendingLoyaltyPoints(address user) external view returns (uint256) {... */\n    tag_5:\n      tag_33\n      0x04\n      dup1\n      calldatasize\n      sub\n      dup2\n      add\n      swap1\n      tag_34\n      swap2\n      swap1\n      tag_35\n      jump\t// in\n    tag_34:\n      tag_36\n      jump\t// in\n    tag_33:\n      mload(0x40)\n      tag_37\n      swap2\n      swap1\n      tag_38\n      jump\t// in\n    tag_37:\n      mload(0x40)\n      dup1\n      swap2\n      sub\n      swap1\n      return\n        /* \"contracts/ValoraPoints.sol\":5463:5929  function getPointsBreakdown(address user) external view returns (... */\n    tag_6:\n      tag_39\n      0x04\n      dup1\n      calldatasize\n      sub\n      dup2\n      add\n      swap1\n      tag_40\n      swap2\n      swap1\n      tag_35\n      jump\t// in\n    tag_40:\n      tag_41\n      jump\t// in\n    tag_39:\n      mload(0x40)\n      tag_42\n      swap6\n      swap5\n      swap4\n      swap3\n      swap2\n      swap1\n      tag_43\n      jump\t// in\n    tag_42:\n      mload(0x40)\n      dup1\n      swap2\n      sub\n      swap1\n      return\n        /* \"contracts/ValoraPoints.sol\":2925:3210  function updateStakingPoints(address user, uint256 amount, uint256 duration) external onlyAuthorized {... */\n    tag_7:\n      tag_44\n      0x04\n      dup1\n      calldatasize\n      sub\n      dup2\n      add\n      swap1\n      tag_45\n      swap2\n      swap1\n      tag_31\n      jump\t// in\n    tag_45:\n      tag_46\n      jump\t// in\n    tag_44:\n      stop\n        /* \"contracts/ValoraPoints.sol\":2740:2888  function updateConfig(PointsConfig calldata newConfig) external onlyOwner {... */\n    tag_8:\n      tag_47\n      0x04\n      dup1\n      calldatasize\n      sub\n      dup2\n      add\n      swap1\n      tag_48\n      swap2\n      swap1\n      tag_49\n      jump\t// in\n    tag_48:\n      tag_50\n      jump\t// in\n    tag_47:\n      stop\n        /* \"@openzeppelin/contracts-upgradeable/access/OwnableUpgradeable.sol\":3155:3256  function renounceOwnership() public virtual onlyOwner {... */\n    tag_9:\n      tag_51\n      tag_52\n      jump\t// in\n    tag_51:\n      stop\n        /* \"contracts/ValoraPoints.sol\":6470:6888  function batchUpdatePoints(... */\n    tag_10:\n      tag_53\n      0x04\n      dup1\n      calldatasize\n      sub\n      dup2\n      add\n      swap1\n      tag_54\n      swap2\n      swap1\n      tag_55\n      jump\t// in\n    tag_54:\n      tag_56\n      jump\t// in\n    tag_53:\n      stop\n        /* \"contracts/ValoraPoints.sol\":1256:1282  PointsConfig public config */\n    tag_11:\n      tag_57\n      tag_58\n      jump\t// in\n    tag_57:\n      mload(0x40)\n      tag_59\n      swap6\n      swap5\n      swap4\n      swap3\n      swap2\n      swap1\n      tag_43\n      jump\t// in\n    tag_59:\n      mload(0x40)\n      dup1\n      swap2\n      sub\n      swap1\n      return\n        /* \"contracts/ValoraPoints.sol\":1288:1325  uint256 public totalPointsDistributed */\n    tag_12:\n      tag_60\n      tag_61\n      jump\t// in\n    tag_60:\n      mload(0x40)\n      tag_62\n      swap2\n      swap1\n      tag_38\n      jump\t// in\n    tag_62:\n      mload(0x40)\n      dup1\n      swap2\n      sub\n      swap1\n      return\n        /* \"contracts/ValoraPoints.sol\":1853:2438  function initialize() external initializer {... */\n    tag_13:\n      tag_63\n      tag_64\n      jump\t// in\n    tag_63:\n      stop\n        /* \"@openzeppelin/contracts-upgradeable/access/OwnableUpgradeable.sol\":2441:2585  function owner() public view virtual returns (address) {... */\n    tag_14:\n      tag_65\n      tag_66\n      jump\t// in\n    tag_65:\n      mload(0x40)\n      tag_67\n      swap2\n      swap1\n      tag_68\n      jump\t// in\n    tag_67:\n      mload(0x40)\n      dup1\n      swap2\n      sub\n      swap1\n      return\n        /* \"contracts/ValoraPoints.sol\":3507:3800  function updateBorrowingPoints(address user, uint256 amount, uint256 duration) external onlyAuthorized {... */\n    tag_15:\n      tag_69\n      0x04\n      dup1\n      calldatasize\n      sub\n      dup2\n      add\n      swap1\n      tag_70\n      swap2\n      swap1\n      tag_31\n      jump\t// in\n    tag_70:\n      tag_71\n      jump\t// in\n    tag_69:\n      stop\n        /* \"contracts/ValoraPoints.sol\":5338:5457  function getUserPoints(address user) external view returns (UserPoints memory) {... */\n    tag_16:\n      tag_72\n      0x04\n      dup1\n      calldatasize\n      sub\n      dup2\n      add\n      swap1\n      tag_73\n      swap2\n      swap1\n      tag_35\n      jump\t// in\n    tag_73:\n      tag_74\n      jump\t// in\n    tag_72:\n      mload(0x40)\n      tag_75\n      swap2\n      swap1\n      tag_76\n      jump\t// in\n    tag_75:\n      mload(0x40)\n      dup1\n      swap2\n      sub\n      swap1\n      return\n        /* \"contracts/ValoraPoints.sol\":3806:4541  function updateLoyaltyPoints(address user) external onlyAuthorized {... */\n    tag_17:\n      tag_77\n      0x04\n      dup1\n      calldatasize\n      sub\n      dup2\n      add\n      swap1\n      tag_78\n      swap2\n      swap1\n      tag_35\n      jump\t// in\n    tag_78:\n      tag_79\n      jump\t// in\n    tag_77:\n      stop\n        /* \"contracts/ValoraPoints.sol\":1159:1210  mapping(address => bool) public authorizedContracts */\n    tag_18:\n      tag_80\n      0x04\n      dup1\n      calldatasize\n      sub\n      dup2\n      add\n      swap1\n      tag_81\n      swap2\n      swap1\n      tag_35\n      jump\t// in\n    tag_81:\n      tag_82\n      jump\t// in\n    tag_80:\n      mload(0x40)\n      tag_83\n      swap2\n      swap1\n      tag_84\n      jump\t// in\n    tag_83:\n      mload(0x40)\n      dup1\n      swap2\n      sub\n      swap1\n      return\n        /* \"@openzeppelin/contracts-upgradeable/access/OwnableUpgradeable.sol\":3405:3620  function transferOwnership(address newOwner) public virtual onlyOwner {... */\n    tag_19:\n      tag_85\n      0x04\n      dup1\n      calldatasize\n      sub\n      dup2\n      add\n      swap1\n      tag_86\n      swap2\n      swap1\n      tag_35\n      jump\t// in\n    tag_86:\n      tag_87\n      jump\t// in\n    tag_85:\n      stop\n        /* \"contracts/ValoraPoints.sol\":1105:1153  mapping(address => UserPoints) public userPoints */\n    tag_20:\n      tag_88\n      0x04\n      dup1\n      calldatasize\n      sub\n      dup2\n      add\n      swap1\n      tag_89\n      swap2\n      swap1\n      tag_35\n      jump\t// in\n    tag_89:\n      tag_90\n      jump\t// in\n    tag_88:\n      mload(0x40)\n      tag_91\n      swap7\n      swap6\n      swap5\n      swap4\n      swap3\n      swap2\n      swap1\n      tag_92\n      jump\t// in\n    tag_91:\n      mload(0x40)\n      dup1\n      swap2\n      sub\n      swap1\n      return\n        /* \"contracts/ValoraPoints.sol\":2484:2698  function setContractAuthorization(address contractAddr, bool authorized) external onlyOwner {... */\n    tag_21:\n      tag_93\n      0x04\n      dup1\n      calldatasize\n      sub\n      dup2\n      add\n      swap1\n      tag_94\n      swap2\n      swap1\n      tag_95\n      jump\t// in\n    tag_94:\n      tag_96\n      jump\t// in\n    tag_93:\n      stop\n        /* \"contracts/ValoraPoints.sol\":4890:5302  function redeemPoints(address user, uint256 amount, string calldata purpose) external onlyAuthorized {... */\n    tag_28:\n        /* \"contracts/ValoraPoints.sol\":1754:1773  authorizedContracts */\n      0x33\n        /* \"contracts/ValoraPoints.sol\":1754:1785  authorizedContracts[msg.sender] */\n      0x00\n        /* \"contracts/ValoraPoints.sol\":1774:1784  msg.sender */\n      caller\n        /* \"contracts/ValoraPoints.sol\":1754:1785  authorizedContracts[msg.sender] */\n      0xffffffffffffffffffffffffffffffffffffffff\n      and\n      0xffffffffffffffffffffffffffffffffffffffff\n      and\n      dup2\n      mstore\n      0x20\n      add\n      swap1\n      dup2\n      mstore\n      0x20\n      add\n      0x00\n      keccak256\n      0x00\n      swap1\n      sload\n      swap1\n      0x0100\n      exp\n      swap1\n      div\n      0xff\n      and\n        /* \"contracts/ValoraPoints.sol\":1754:1810  authorizedContracts[msg.sender] || msg.sender == owner() */\n      dup1\n      tag_98\n      jumpi\n      pop\n        /* \"contracts/ValoraPoints.sol\":1803:1810  owner() */\n      tag_99\n        /* \"contracts/ValoraPoints.sol\":1803:1808  owner */\n      tag_66\n        /* \"contracts/ValoraPoints.sol\":1803:1810  owner() */\n      jump\t// in\n    tag_99:\n        /* \"contracts/ValoraPoints.sol\":1789:1810  msg.sender == owner() */\n      0xffffffffffffffffffffffffffffffffffffffff\n      and\n        /* \"contracts/ValoraPoints.sol\":1789:1799  msg.sender */\n      caller\n        /* \"contracts/ValoraPoints.sol\":1789:1810  msg.sender == owner() */\n      0xffffffffffffffffffffffffffffffffffffffff\n      and\n      eq\n        /* \"contracts/ValoraPoints.sol\":1754:1810  authorizedContracts[msg.sender] || msg.sender == owner() */\n    tag_98:\n        /* \"contracts/ValoraPoints.sol\":1746:1829  require(authorizedContracts[msg.sender] || msg.sender == owner(), \"Not authorized\") */\n      tag_100\n      jumpi\n      mload(0x40)\n      0x08c379a000000000000000000000000000000000000000000000000000000000\n      dup2\n      mstore\n      0x04\n      add\n      tag_101\n      swap1\n      tag_102\n      jump\t// in\n    tag_101:\n      mload(0x40)\n      dup1\n      swap2\n      sub\n      swap1\n      revert\n    tag_100:\n        /* \"contracts/ValoraPoints.sol\":5041:5047  amount */\n      dup3\n        /* \"contracts/ValoraPoints.sol\":5009:5019  userPoints */\n      0x32\n        /* \"contracts/ValoraPoints.sol\":5009:5025  userPoints[user] */\n      0x00\n        /* \"contracts/ValoraPoints.sol\":5020:5024  user */\n      dup7\n        /* \"contracts/ValoraPoints.sol\":5009:5025  userPoints[user] */\n      0xffffffffffffffffffffffffffffffffffffffff\n      and\n      0xffffffffffffffffffffffffffffffffffffffff\n      and\n      dup2\n      mstore\n      0x20\n      add\n      swap1\n      dup2\n      mstore\n      0x20\n      add\n      0x00\n      keccak256\n        /* \"contracts/ValoraPoints.sol\":5009:5037  userPoints[user].totalPoints */\n      0x04\n      add\n      sload\n        /* \"contracts/ValoraPoints.sol\":5009:5047  userPoints[user].totalPoints >= amount */\n      lt\n      iszero\n        /* \"contracts/ValoraPoints.sol\":5001:5071  require(userPoints[user].totalPoints >= amount, \"Insufficient points\") */\n      tag_104\n      jumpi\n      mload(0x40)\n      0x08c379a000000000000000000000000000000000000000000000000000000000\n      dup2\n      mstore\n      0x04\n      add\n      tag_105\n      swap1\n      tag_106\n      jump\t// in\n    tag_105:\n      mload(0x40)\n      dup1\n      swap2\n      sub\n      swap1\n      revert\n    tag_104:\n        /* \"contracts/ValoraPoints.sol\":5122:5128  amount */\n      dup3\n        /* \"contracts/ValoraPoints.sol\":5090:5100  userPoints */\n      0x32\n        /* \"contracts/ValoraPoints.sol\":5090:5106  userPoints[user] */\n      0x00\n        /* \"contracts/ValoraPoints.sol\":5101:5105  user */\n      dup7\n        /* \"contracts/ValoraPoints.sol\":5090:5106  userPoints[user] */\n      0xffffffffffffffffffffffffffffffffffffffff\n      and\n      0xffffffffffffffffffffffffffffffffffffffff\n      and\n      dup2\n      mstore\n      0x20\n      add\n      swap1\n      dup2\n      mstore\n      0x20\n      add\n      0x00\n      keccak256\n        /* \"contracts/ValoraPoints.sol\":5090:5118  userPoints[user].totalPoints */\n      0x04\n      add\n      0x00\n        /* \"contracts/ValoraPoints.sol\":5090:5128  userPoints[user].totalPoints -= amount */\n      dup3\n      dup3\n      sload\n      tag_107\n      swap2\n      swap1\n      tag_108\n      jump\t// in\n    tag_107:\n      swap3\n      pop\n      pop\n      dup2\n      swap1\n      sstore\n      pop\n        /* \"contracts/ValoraPoints.sol\":5164:5170  amount */\n      dup3\n        /* \"contracts/ValoraPoints.sol\":5138:5160  totalPointsDistributed */\n      0x39\n      0x00\n        /* \"contracts/ValoraPoints.sol\":5138:5170  totalPointsDistributed -= amount */\n      dup3\n      dup3\n      sload\n      tag_109\n      swap2\n      swap1\n      tag_108\n      jump\t// in\n    tag_109:\n      swap3\n      pop\n      pop\n      dup2\n      swap1\n      sstore\n      pop\n        /* \"contracts/ValoraPoints.sol\":5209:5213  user */\n      dup4\n        /* \"contracts/ValoraPoints.sol\":5194:5231  PointsRedeemed(user, amount, purpose) */\n      0xffffffffffffffffffffffffffffffffffffffff\n      and\n      0xda49bb5bf412718988a26709b7c8c5385b0af3ae2570f06613f372c2d401faf2\n        /* \"contracts/ValoraPoints.sol\":5215:5221  amount */\n      dup5\n        /* \"contracts/ValoraPoints.sol\":5223:5230  purpose */\n      dup5\n      dup5\n        /* \"contracts/ValoraPoints.sol\":5194:5231  PointsRedeemed(user, amount, purpose) */\n      mload(0x40)\n      tag_110\n      swap4\n      swap3\n      swap2\n      swap1\n      tag_111\n      jump\t// in\n    tag_110:\n      mload(0x40)\n      dup1\n      swap2\n      sub\n      swap1\n      log2\n        /* \"contracts/ValoraPoints.sol\":5260:5264  user */\n      dup4\n        /* \"contracts/ValoraPoints.sol\":5246:5295  PointsUpdated(user, userPoints[user].totalPoints) */\n      0xffffffffffffffffffffffffffffffffffffffff\n      and\n      0xa05f39e6d8d4e060324edb900f0f5909de621fd93f19ccf65ba74e5965c98c36\n        /* \"contracts/ValoraPoints.sol\":5266:5276  userPoints */\n      0x32\n        /* \"contracts/ValoraPoints.sol\":5266:5282  userPoints[user] */\n      0x00\n        /* \"contracts/ValoraPoints.sol\":5277:5281  user */\n      dup8\n        /* \"contracts/ValoraPoints.sol\":5266:5282  userPoints[user] */\n      0xffffffffffffffffffffffffffffffffffffffff\n      and\n      0xffffffffffffffffffffffffffffffffffffffff\n      and\n      dup2\n      mstore\n      0x20\n      add\n      swap1\n      dup2\n      mstore\n      0x20\n      add\n      0x00\n      keccak256\n        /* \"contracts/ValoraPoints.sol\":5266:5294  userPoints[user].totalPoints */\n      0x04\n      add\n      sload\n        /* \"contracts/ValoraPoints.sol\":5246:5295  PointsUpdated(user, userPoints[user].totalPoints) */\n      mload(0x40)\n      tag_112\n      swap2\n      swap1\n      tag_38\n      jump\t// in\n    tag_112:\n      mload(0x40)\n      dup1\n      swap2\n      sub\n      swap1\n      log2\n        /* \"contracts/ValoraPoints.sol\":4890:5302  function redeemPoints(address user, uint256 amount, string calldata purpose) external onlyAuthorized {... */\n      pop\n      pop\n      pop\n      pop\n      jump\t// out\n        /* \"contracts/ValoraPoints.sol\":3216:3501  function updateLendingPoints(address user, uint256 amount, uint256 duration) external onlyAuthorized {... */\n    tag_32:\n        /* \"contracts/ValoraPoints.sol\":1754:1773  authorizedContracts */\n      0x33\n        /* \"contracts/ValoraPoints.sol\":1754:1785  authorizedContracts[msg.sender] */\n      0x00\n        /* \"contracts/ValoraPoints.sol\":1774:1784  msg.sender */\n      caller\n        /* \"contracts/ValoraPoints.sol\":1754:1785  authorizedContracts[msg.sender] */\n      0xffffffffffffffffffffffffffffffffffffffff\n      and\n      0xffffffffffffffffffffffffffffffffffffffff\n      and\n      dup2\n      mstore\n      0x20\n      add\n      swap1\n      dup2\n      mstore\n      0x20\n      add\n      0x00\n      keccak256\n      0x00\n      swap1\n      sload\n      swap1\n      0x0100\n      exp\n      swap1\n      div\n      0xff\n      and\n        /* \"contracts/ValoraPoints.sol\":1754:1810  authorizedContracts[msg.sender] || msg.sender == owner() */\n      dup1\n      tag_114\n      jumpi\n      pop\n        /* \"contracts/ValoraPoints.sol\":1803:1810  owner() */\n      tag_115\n        /* \"contracts/ValoraPoints.sol\":1803:1808  owner */\n      tag_66\n        /* \"contracts/ValoraPoints.sol\":1803:1810  owner() */\n      jump\t// in\n    tag_115:\n        /* \"contracts/ValoraPoints.sol\":1789:1810  msg.sender == owner() */\n      0xffffffffffffffffffffffffffffffffffffffff\n      and\n        /* \"contracts/ValoraPoints.sol\":1789:1799  msg.sender */\n      caller\n        /* \"contracts/ValoraPoints.sol\":1789:1810  msg.sender == owner() */\n      0xffffffffffffffffffffffffffffffffffffffff\n      and\n      eq\n        /* \"contracts/ValoraPoints.sol\":1754:1810  authorizedContracts[msg.sender] || msg.sender == owner() */\n    tag_114:\n        /* \"contracts/ValoraPoints.sol\":1746:1829  require(authorizedContracts[msg.sender] || msg.sender == owner(), \"Not authorized\") */\n      tag_116\n      jumpi\n      mload(0x40)\n      0x08c379a000000000000000000000000000000000000000000000000000000000\n      dup2\n      mstore\n      0x04\n      add\n      tag_117\n      swap1\n      tag_102\n      jump\t// in\n    tag_117:\n      mload(0x40)\n      dup1\n      swap2\n      sub\n      swap1\n      revert\n    tag_116:\n        /* \"contracts/ValoraPoints.sol\":3327:3341  uint256 points */\n      0x00\n        /* \"contracts/ValoraPoints.sol\":3393:3399  1 days */\n      0x015180\n        /* \"contracts/ValoraPoints.sol\":3381:3389  duration */\n      dup3\n        /* \"contracts/ValoraPoints.sol\":3354:3360  config */\n      0x34\n        /* \"contracts/ValoraPoints.sol\":3354:3378  config.lendingMultiplier */\n      0x01\n      add\n      sload\n        /* \"contracts/ValoraPoints.sol\":3345:3351  amount */\n      dup6\n        /* \"contracts/ValoraPoints.sol\":3345:3378  amount * config.lendingMultiplier */\n      tag_119\n      swap2\n      swap1\n      tag_120\n      jump\t// in\n    tag_119:\n        /* \"contracts/ValoraPoints.sol\":3345:3389  amount * config.lendingMultiplier * duration */\n      tag_121\n      swap2\n      swap1\n      tag_120\n      jump\t// in\n    tag_121:\n        /* \"contracts/ValoraPoints.sol\":3344:3399  (amount * config.lendingMultiplier * duration) / 1 days */\n      tag_122\n      swap2\n      swap1\n      tag_123\n      jump\t// in\n    tag_122:\n        /* \"contracts/ValoraPoints.sol\":3327:3399  uint256 points = (amount * config.lendingMultiplier * duration) / 1 days */\n      swap1\n      pop\n        /* \"contracts/ValoraPoints.sol\":3409:3444  _addPoints(user, points, \"lending\") */\n      tag_124\n        /* \"contracts/ValoraPoints.sol\":3420:3424  user */\n      dup5\n        /* \"contracts/ValoraPoints.sol\":3426:3432  points */\n      dup3\n        /* \"contracts/ValoraPoints.sol\":3409:3444  _addPoints(user, points, \"lending\") */\n      mload(0x40)\n      dup1\n      0x40\n      add\n      0x40\n      mstore\n      dup1\n      0x07\n      dup2\n      mstore\n      0x20\n      add\n      0x6c656e64696e6700000000000000000000000000000000000000000000000000\n      dup2\n      mstore\n      pop\n        /* \"contracts/ValoraPoints.sol\":3409:3419  _addPoints */\n      tag_125\n        /* \"contracts/ValoraPoints.sol\":3409:3444  _addPoints(user, points, \"lending\") */\n      jump\t// in\n    tag_124:\n        /* \"contracts/ValoraPoints.sol\":3488:3494  points */\n      dup1\n        /* \"contracts/ValoraPoints.sol\":3454:3464  userPoints */\n      0x32\n        /* \"contracts/ValoraPoints.sol\":3454:3470  userPoints[user] */\n      0x00\n        /* \"contracts/ValoraPoints.sol\":3465:3469  user */\n      dup7\n        /* \"contracts/ValoraPoints.sol\":3454:3470  userPoints[user] */\n      0xffffffffffffffffffffffffffffffffffffffff\n      and\n      0xffffffffffffffffffffffffffffffffffffffff\n      and\n      dup2\n      mstore\n      0x20\n      add\n      swap1\n      dup2\n      mstore\n      0x20\n      add\n      0x00\n      keccak256\n        /* \"contracts/ValoraPoints.sol\":3454:3484  userPoints[user].lendingPoints */\n      0x01\n      add\n      0x00\n        /* \"contracts/ValoraPoints.sol\":3454:3494  userPoints[user].lendingPoints += points */\n      dup3\n      dup3\n      sload\n      tag_126\n      swap2\n      swap1\n      tag_127\n      jump\t// in\n    tag_126:\n      swap3\n      pop\n      pop\n      dup2\n      swap1\n      sstore\n      pop\n        /* \"contracts/ValoraPoints.sol\":3317:3501  {... */\n      pop\n        /* \"contracts/ValoraPoints.sol\":3216:3501  function updateLendingPoints(address user, uint256 amount, uint256 duration) external onlyAuthorized {... */\n      pop\n      pop\n      pop\n      jump\t// out\n        /* \"contracts/ValoraPoints.sol\":5935:6432  function calculatePendingLoyaltyPoints(address user) external view returns (uint256) {... */\n    tag_36:\n        /* \"contracts/ValoraPoints.sol\":6011:6018  uint256 */\n      0x00\n        /* \"contracts/ValoraPoints.sol\":6030:6056  UserPoints memory userData */\n      0x00\n        /* \"contracts/ValoraPoints.sol\":6059:6069  userPoints */\n      0x32\n        /* \"contracts/ValoraPoints.sol\":6059:6075  userPoints[user] */\n      0x00\n        /* \"contracts/ValoraPoints.sol\":6070:6074  user */\n      dup5\n        /* \"contracts/ValoraPoints.sol\":6059:6075  userPoints[user] */\n      0xffffffffffffffffffffffffffffffffffffffff\n      and\n      0xffffffffffffffffffffffffffffffffffffffff\n      and\n      dup2\n      mstore\n      0x20\n      add\n      swap1\n      dup2\n      mstore\n      0x20\n      add\n      0x00\n      keccak256\n        /* \"contracts/ValoraPoints.sol\":6030:6075  UserPoints memory userData = userPoints[user] */\n      mload(0x40)\n      dup1\n      0xc0\n      add\n      0x40\n      mstore\n      swap1\n      dup2\n      0x00\n      dup3\n      add\n      sload\n      dup2\n      mstore\n      0x20\n      add\n      0x01\n      dup3\n      add\n      sload\n      dup2\n      mstore\n      0x20\n      add\n      0x02\n      dup3\n      add\n      sload\n      dup2\n      mstore\n      0x20\n      add\n      0x03\n      dup3\n      add\n      sload\n      dup2\n      mstore\n      0x20\n      add\n      0x04\n      dup3\n      add\n      sload\n      dup2\n      mstore\n      0x20\n      add\n      0x05\n      dup3\n      add\n      sload\n      dup2\n      mstore\n      pop\n      pop\n      swap1\n      pop\n        /* \"contracts/ValoraPoints.sol\":6121:6122  0 */\n      0x00\n        /* \"contracts/ValoraPoints.sol\":6098:6106  userData */\n      dup2\n        /* \"contracts/ValoraPoints.sol\":6098:6117  userData.lastUpdate */\n      0xa0\n      add\n      mload\n        /* \"contracts/ValoraPoints.sol\":6098:6122  userData.lastUpdate == 0 */\n      sub\n        /* \"contracts/ValoraPoints.sol\":6094:6132  if (userData.lastUpdate == 0) return 0 */\n      tag_129\n      jumpi\n        /* \"contracts/ValoraPoints.sol\":6131:6132  0 */\n      0x00\n        /* \"contracts/ValoraPoints.sol\":6124:6132  return 0 */\n      swap2\n      pop\n      pop\n      jump(tag_128)\n        /* \"contracts/ValoraPoints.sol\":6094:6132  if (userData.lastUpdate == 0) return 0 */\n    tag_129:\n        /* \"contracts/ValoraPoints.sol\":6151:6169  uint256 daysPassed */\n      0x00\n        /* \"contracts/ValoraPoints.sol\":6214:6220  1 days */\n      0x015180\n        /* \"contracts/ValoraPoints.sol\":6191:6199  userData */\n      dup3\n        /* \"contracts/ValoraPoints.sol\":6191:6210  userData.lastUpdate */\n      0xa0\n      add\n      mload\n        /* \"contracts/ValoraPoints.sol\":6173:6188  block.timestamp */\n      timestamp\n        /* \"contracts/ValoraPoints.sol\":6173:6210  block.timestamp - userData.lastUpdate */\n      tag_130\n      swap2\n      swap1\n      tag_108\n      jump\t// in\n    tag_130:\n        /* \"contracts/ValoraPoints.sol\":6172:6220  (block.timestamp - userData.lastUpdate) / 1 days */\n      tag_131\n      swap2\n      swap1\n      tag_123\n      jump\t// in\n    tag_131:\n        /* \"contracts/ValoraPoints.sol\":6151:6220  uint256 daysPassed = (block.timestamp - userData.lastUpdate) / 1 days */\n      swap1\n      pop\n        /* \"contracts/ValoraPoints.sol\":6248:6249  0 */\n      0x00\n        /* \"contracts/ValoraPoints.sol\":6234:6244  daysPassed */\n      dup2\n        /* \"contracts/ValoraPoints.sol\":6234:6249  daysPassed == 0 */\n      sub\n        /* \"contracts/ValoraPoints.sol\":6230:6259  if (daysPassed == 0) return 0 */\n      tag_132\n      jumpi\n        /* \"contracts/ValoraPoints.sol\":6258:6259  0 */\n      0x00\n        /* \"contracts/ValoraPoints.sol\":6251:6259  return 0 */\n      swap3\n      pop\n      pop\n      pop\n      jump(tag_128)\n        /* \"contracts/ValoraPoints.sol\":6230:6259  if (daysPassed == 0) return 0 */\n    tag_132:\n        /* \"contracts/ValoraPoints.sol\":6278:6297  uint256 loyaltyDays */\n      0x00\n        /* \"contracts/ValoraPoints.sol\":6313:6319  config */\n      0x34\n        /* \"contracts/ValoraPoints.sol\":6313:6334  config.maxLoyaltyDays */\n      0x04\n      add\n      sload\n        /* \"contracts/ValoraPoints.sol\":6300:6310  daysPassed */\n      dup3\n        /* \"contracts/ValoraPoints.sol\":6300:6334  daysPassed > config.maxLoyaltyDays */\n      gt\n        /* \"contracts/ValoraPoints.sol\":6300:6371  daysPassed > config.maxLoyaltyDays ? config.maxLoyaltyDays : daysPassed */\n      tag_133\n      jumpi\n        /* \"contracts/ValoraPoints.sol\":6361:6371  daysPassed */\n      dup2\n        /* \"contracts/ValoraPoints.sol\":6300:6371  daysPassed > config.maxLoyaltyDays ? config.maxLoyaltyDays : daysPassed */\n      jump(tag_134)\n    tag_133:\n        /* \"contracts/ValoraPoints.sol\":6337:6343  config */\n      0x34\n        /* \"contracts/ValoraPoints.sol\":6337:6358  config.maxLoyaltyDays */\n      0x04\n      add\n      sload\n        /* \"contracts/ValoraPoints.sol\":6300:6371  daysPassed > config.maxLoyaltyDays ? config.maxLoyaltyDays : daysPassed */\n    tag_134:\n        /* \"contracts/ValoraPoints.sol\":6278:6371  uint256 loyaltyDays = daysPassed > config.maxLoyaltyDays ? config.maxLoyaltyDays : daysPassed */\n      swap1\n      pop\n        /* \"contracts/ValoraPoints.sol\":6402:6408  config */\n      0x34\n        /* \"contracts/ValoraPoints.sol\":6402:6425  config.loyaltyBonusRate */\n      0x03\n      add\n      sload\n        /* \"contracts/ValoraPoints.sol\":6388:6399  loyaltyDays */\n      dup2\n        /* \"contracts/ValoraPoints.sol\":6388:6425  loyaltyDays * config.loyaltyBonusRate */\n      tag_135\n      swap2\n      swap1\n      tag_120\n      jump\t// in\n    tag_135:\n        /* \"contracts/ValoraPoints.sol\":6381:6425  return loyaltyDays * config.loyaltyBonusRate */\n      swap4\n      pop\n      pop\n      pop\n      pop\n        /* \"contracts/ValoraPoints.sol\":5935:6432  function calculatePendingLoyaltyPoints(address user) external view returns (uint256) {... */\n    tag_128:\n      swap2\n      swap1\n      pop\n      jump\t// out\n        /* \"contracts/ValoraPoints.sol\":5463:5929  function getPointsBreakdown(address user) external view returns (... */\n    tag_41:\n        /* \"contracts/ValoraPoints.sol\":5537:5552  uint256 staking */\n      0x00\n        /* \"contracts/ValoraPoints.sol\":5562:5577  uint256 lending */\n      0x00\n        /* \"contracts/ValoraPoints.sol\":5588:5605  uint256 borrowing */\n      0x00\n        /* \"contracts/ValoraPoints.sol\":5615:5630  uint256 loyalty */\n      0x00\n        /* \"contracts/ValoraPoints.sol\":5640:5653  uint256 total */\n      0x00\n        /* \"contracts/ValoraPoints.sol\":5670:5696  UserPoints memory userData */\n      0x00\n        /* \"contracts/ValoraPoints.sol\":5699:5709  userPoints */\n      0x32\n        /* \"contracts/ValoraPoints.sol\":5699:5715  userPoints[user] */\n      0x00\n        /* \"contracts/ValoraPoints.sol\":5710:5714  user */\n      dup9\n        /* \"contracts/ValoraPoints.sol\":5699:5715  userPoints[user] */\n      0xffffffffffffffffffffffffffffffffffffffff\n      and\n      0xffffffffffffffffffffffffffffffffffffffff\n      and\n      dup2\n      mstore\n      0x20\n      add\n      swap1\n      dup2\n      mstore\n      0x20\n      add\n      0x00\n      keccak256\n        /* \"contracts/ValoraPoints.sol\":5670:5715  UserPoints memory userData = userPoints[user] */\n      mload(0x40)\n      dup1\n      0xc0\n      add\n      0x40\n      mstore\n      swap1\n      dup2\n      0x00\n      dup3\n      add\n      sload\n      dup2\n      mstore\n      0x20\n      add\n      0x01\n      dup3\n      add\n      sload\n      dup2\n      mstore\n      0x20\n      add\n      0x02\n      dup3\n      add\n      sload\n      dup2\n      mstore\n      0x20\n      add\n      0x03\n      dup3\n      add\n      sload\n      dup2\n      mstore\n      0x20\n      add\n      0x04\n      dup3\n      add\n      sload\n      dup2\n      mstore\n      0x20\n      add\n      0x05\n      dup3\n      add\n      sload\n      dup2\n      mstore\n      pop\n      pop\n      swap1\n      pop\n        /* \"contracts/ValoraPoints.sol\":5746:5754  userData */\n      dup1\n        /* \"contracts/ValoraPoints.sol\":5746:5768  userData.stakingPoints */\n      0x00\n      add\n      mload\n        /* \"contracts/ValoraPoints.sol\":5782:5790  userData */\n      dup2\n        /* \"contracts/ValoraPoints.sol\":5782:5804  userData.lendingPoints */\n      0x20\n      add\n      mload\n        /* \"contracts/ValoraPoints.sol\":5818:5826  userData */\n      dup3\n        /* \"contracts/ValoraPoints.sol\":5818:5842  userData.borrowingPoints */\n      0x40\n      add\n      mload\n        /* \"contracts/ValoraPoints.sol\":5856:5864  userData */\n      dup4\n        /* \"contracts/ValoraPoints.sol\":5856:5878  userData.loyaltyPoints */\n      0x60\n      add\n      mload\n        /* \"contracts/ValoraPoints.sol\":5892:5900  userData */\n      dup5\n        /* \"contracts/ValoraPoints.sol\":5892:5912  userData.totalPoints */\n      0x80\n      add\n      mload\n        /* \"contracts/ValoraPoints.sol\":5725:5922  return (... */\n      swap6\n      pop\n      swap6\n      pop\n      swap6\n      pop\n      swap6\n      pop\n      swap6\n      pop\n      pop\n        /* \"contracts/ValoraPoints.sol\":5463:5929  function getPointsBreakdown(address user) external view returns (... */\n      swap2\n      swap4\n      swap6\n      swap1\n      swap3\n      swap5\n      pop\n      jump\t// out\n        /* \"contracts/ValoraPoints.sol\":2925:3210  function updateStakingPoints(address user, uint256 amount, uint256 duration) external onlyAuthorized {... */\n    tag_46:\n        /* \"contracts/ValoraPoints.sol\":1754:1773  authorizedContracts */\n      0x33\n        /* \"contracts/ValoraPoints.sol\":1754:1785  authorizedContracts[msg.sender] */\n      0x00\n        /* \"contracts/ValoraPoints.sol\":1774:1784  msg.sender */\n      caller\n        /* \"contracts/ValoraPoints.sol\":1754:1785  authorizedContracts[msg.sender] */\n      0xffffffffffffffffffffffffffffffffffffffff\n      and\n      0xffffffffffffffffffffffffffffffffffffffff\n      and\n      dup2\n      mstore\n      0x20\n      add\n      swap1\n      dup2\n      mstore\n      0x20\n      add\n      0x00\n      keccak256\n      0x00\n      swap1\n      sload\n      swap1\n      0x0100\n      exp\n      swap1\n      div\n      0xff\n      and\n        /* \"contracts/ValoraPoints.sol\":1754:1810  authorizedContracts[msg.sender] || msg.sender == owner() */\n      dup1\n      tag_138\n      jumpi\n      pop\n        /* \"contracts/ValoraPoints.sol\":1803:1810  owner() */\n      tag_139\n        /* \"contracts/ValoraPoints.sol\":1803:1808  owner */\n      tag_66\n        /* \"contracts/ValoraPoints.sol\":1803:1810  owner() */\n      jump\t// in\n    tag_139:\n        /* \"contracts/ValoraPoints.sol\":1789:1810  msg.sender == owner() */\n      0xffffffffffffffffffffffffffffffffffffffff\n      and\n        /* \"contracts/ValoraPoints.sol\":1789:1799  msg.sender */\n      caller\n        /* \"contracts/ValoraPoints.sol\":1789:1810  msg.sender == owner() */\n      0xffffffffffffffffffffffffffffffffffffffff\n      and\n      eq\n        /* \"contracts/ValoraPoints.sol\":1754:1810  authorizedContracts[msg.sender] || msg.sender == owner() */\n    tag_138:\n        /* \"contracts/ValoraPoints.sol\":1746:1829  require(authorizedContracts[msg.sender] || msg.sender == owner(), \"Not authorized\") */\n      tag_140\n      jumpi\n      mload(0x40)\n      0x08c379a000000000000000000000000000000000000000000000000000000000\n      dup2\n      mstore\n      0x04\n      add\n      tag_141\n      swap1\n      tag_102\n      jump\t// in\n    tag_141:\n      mload(0x40)\n      dup1\n      swap2\n      sub\n      swap1\n      revert\n    tag_140:\n        /* \"contracts/ValoraPoints.sol\":3036:3050  uint256 points */\n      0x00\n        /* \"contracts/ValoraPoints.sol\":3102:3108  1 days */\n      0x015180\n        /* \"contracts/ValoraPoints.sol\":3090:3098  duration */\n      dup3\n        /* \"contracts/ValoraPoints.sol\":3063:3069  config */\n      0x34\n        /* \"contracts/ValoraPoints.sol\":3063:3087  config.stakingMultiplier */\n      0x00\n      add\n      sload\n        /* \"contracts/ValoraPoints.sol\":3054:3060  amount */\n      dup6\n        /* \"contracts/ValoraPoints.sol\":3054:3087  amount * config.stakingMultiplier */\n      tag_143\n      swap2\n      swap1\n      tag_120\n      jump\t// in\n    tag_143:\n        /* \"contracts/ValoraPoints.sol\":3054:3098  amount * config.stakingMultiplier * duration */\n      tag_144\n      swap2\n      swap1\n      tag_120\n      jump\t// in\n    tag_144:\n        /* \"contracts/ValoraPoints.sol\":3053:3108  (amount * config.stakingMultiplier * duration) / 1 days */\n      tag_145\n      swap2\n      swap1\n      tag_123\n      jump\t// in\n    tag_145:\n        /* \"contracts/ValoraPoints.sol\":3036:3108  uint256 points = (amount * config.stakingMultiplier * duration) / 1 days */\n      swap1\n      pop\n        /* \"contracts/ValoraPoints.sol\":3118:3153  _addPoints(user, points, \"staking\") */\n      tag_146\n        /* \"contracts/ValoraPoints.sol\":3129:3133  user */\n      dup5\n        /* \"contracts/ValoraPoints.sol\":3135:3141  points */\n      dup3\n        /* \"contracts/ValoraPoints.sol\":3118:3153  _addPoints(user, points, \"staking\") */\n      mload(0x40)\n      dup1\n      0x40\n      add\n      0x40\n      mstore\n      dup1\n      0x07\n      dup2\n      mstore\n      0x20\n      add\n      0x7374616b696e6700000000000000000000000000000000000000000000000000\n      dup2\n      mstore\n      pop\n        /* \"contracts/ValoraPoints.sol\":3118:3128  _addPoints */\n      tag_125\n        /* \"contracts/ValoraPoints.sol\":3118:3153  _addPoints(user, points, \"staking\") */\n      jump\t// in\n    tag_146:\n        /* \"contracts/ValoraPoints.sol\":3197:3203  points */\n      dup1\n        /* \"contracts/ValoraPoints.sol\":3163:3173  userPoints */\n      0x32\n        /* \"contracts/ValoraPoints.sol\":3163:3179  userPoints[user] */\n      0x00\n        /* \"contracts/ValoraPoints.sol\":3174:3178  user */\n      dup7\n        /* \"contracts/ValoraPoints.sol\":3163:3179  userPoints[user] */\n      0xffffffffffffffffffffffffffffffffffffffff\n      and\n      0xffffffffffffffffffffffffffffffffffffffff\n      and\n      dup2\n      mstore\n      0x20\n      add\n      swap1\n      dup2\n      mstore\n      0x20\n      add\n      0x00\n      keccak256\n        /* \"contracts/ValoraPoints.sol\":3163:3193  userPoints[user].stakingPoints */\n      0x00\n      add\n      0x00\n        /* \"contracts/ValoraPoints.sol\":3163:3203  userPoints[user].stakingPoints += points */\n      dup3\n      dup3\n      sload\n      tag_147\n      swap2\n      swap1\n      tag_127\n      jump\t// in\n    tag_147:\n      swap3\n      pop\n      pop\n      dup2\n      swap1\n      sstore\n      pop\n        /* \"contracts/ValoraPoints.sol\":3026:3210  {... */\n      pop\n        /* \"contracts/ValoraPoints.sol\":2925:3210  function updateStakingPoints(address user, uint256 amount, uint256 duration) external onlyAuthorized {... */\n      pop\n      pop\n      pop\n      jump\t// out\n        /* \"contracts/ValoraPoints.sol\":2740:2888  function updateConfig(PointsConfig calldata newConfig) external onlyOwner {... */\n    tag_50:\n        /* \"@openzeppelin/contracts-upgradeable/access/OwnableUpgradeable.sol\":2334:2347  _checkOwner() */\n      tag_149\n        /* \"@openzeppelin/contracts-upgradeable/access/OwnableUpgradeable.sol\":2334:2345  _checkOwner */\n      tag_150\n        /* \"@openzeppelin/contracts-upgradeable/access/OwnableUpgradeable.sol\":2334:2347  _checkOwner() */\n      jump\t// in\n    tag_149:\n        /* \"contracts/ValoraPoints.sol\":2833:2842  newConfig */\n      dup1\n        /* \"contracts/ValoraPoints.sol\":2824:2830  config */\n      0x34\n        /* \"contracts/ValoraPoints.sol\":2824:2842  config = newConfig */\n      dup2\n      dup2\n      tag_152\n      swap2\n      swap1\n      tag_153\n      jump\t// in\n    tag_152:\n      swap1\n      pop\n      pop\n        /* \"contracts/ValoraPoints.sol\":2857:2881  ConfigUpdated(newConfig) */\n      0x88258486e342f2cd0e19b64e0505c355505bea7d2e2bd3258aa5061fda88a268\n        /* \"contracts/ValoraPoints.sol\":2871:2880  newConfig */\n      dup2\n        /* \"contracts/ValoraPoints.sol\":2857:2881  ConfigUpdated(newConfig) */\n      mload(0x40)\n      tag_154\n      swap2\n      swap1\n      tag_155\n      jump\t// in\n    tag_154:\n      mload(0x40)\n      dup1\n      swap2\n      sub\n      swap1\n      log1\n        /* \"contracts/ValoraPoints.sol\":2740:2888  function updateConfig(PointsConfig calldata newConfig) external onlyOwner {... */\n      pop\n      jump\t// out\n        /* \"@openzeppelin/contracts-upgradeable/access/OwnableUpgradeable.sol\":3155:3256  function renounceOwnership() public virtual onlyOwner {... */\n    tag_52:\n        /* \"@openzeppelin/contracts-upgradeable/access/OwnableUpgradeable.sol\":2334:2347  _checkOwner() */\n      tag_157\n        /* \"@openzeppelin/contracts-upgradeable/access/OwnableUpgradeable.sol\":2334:2345  _checkOwner */\n      tag_150\n        /* \"@openzeppelin/contracts-upgradeable/access/OwnableUpgradeable.sol\":2334:2347  _checkOwner() */\n      jump\t// in\n    tag_157:\n        /* \"@openzeppelin/contracts-upgradeable/access/OwnableUpgradeable.sol\":3219:3249  _transferOwnership(address(0)) */\n      tag_159\n        /* \"@openzeppelin/contracts-upgradeable/access/OwnableUpgradeable.sol\":3246:3247  0 */\n      0x00\n        /* \"@openzeppelin/contracts-upgradeable/access/OwnableUpgradeable.sol\":3219:3237  _transferOwnership */\n      tag_160\n        /* \"@openzeppelin/contracts-upgradeable/access/OwnableUpgradeable.sol\":3219:3249  _transferOwnership(address(0)) */\n      jump\t// in\n    tag_159:\n        /* \"@openzeppelin/contracts-upgradeable/access/OwnableUpgradeable.sol\":3155:3256  function renounceOwnership() public virtual onlyOwner {... */\n      jump\t// out\n        /* \"contracts/ValoraPoints.sol\":6470:6888  function batchUpdatePoints(... */\n    tag_56:\n        /* \"contracts/ValoraPoints.sol\":1754:1773  authorizedContracts */\n      0x33\n        /* \"contracts/ValoraPoints.sol\":1754:1785  authorizedContracts[msg.sender] */\n      0x00\n        /* \"contracts/ValoraPoints.sol\":1774:1784  msg.sender */\n      caller\n        /* \"contracts/ValoraPoints.sol\":1754:1785  authorizedContracts[msg.sender] */\n      0xffffffffffffffffffffffffffffffffffffffff\n      and\n      0xffffffffffffffffffffffffffffffffffffffff\n      and\n      dup2\n      mstore\n      0x20\n      add\n      swap1\n      dup2\n      mstore\n      0x20\n      add\n      0x00\n      keccak256\n      0x00\n      swap1\n      sload\n      swap1\n      0x0100\n      exp\n      swap1\n      div\n      0xff\n      and\n        /* \"contracts/ValoraPoints.sol\":1754:1810  authorizedContracts[msg.sender] || msg.sender == owner() */\n      dup1\n      tag_162\n      jumpi\n      pop\n        /* \"contracts/ValoraPoints.sol\":1803:1810  owner() */\n      tag_163\n        /* \"contracts/ValoraPoints.sol\":1803:1808  owner */\n      tag_66\n        /* \"contracts/ValoraPoints.sol\":1803:1810  owner() */\n      jump\t// in\n    tag_163:\n        /* \"contracts/ValoraPoints.sol\":1789:1810  msg.sender == owner() */\n      0xffffffffffffffffffffffffffffffffffffffff\n      and\n        /* \"contracts/ValoraPoints.sol\":1789:1799  msg.sender */\n      caller\n        /* \"contracts/ValoraPoints.sol\":1789:1810  msg.sender == owner() */\n      0xffffffffffffffffffffffffffffffffffffffff\n      and\n      eq\n        /* \"contracts/ValoraPoints.sol\":1754:1810  authorizedContracts[msg.sender] || msg.sender == owner() */\n    tag_162:\n        /* \"contracts/ValoraPoints.sol\":1746:1829  require(authorizedContracts[msg.sender] || msg.sender == owner(), \"Not authorized\") */\n      tag_164\n      jumpi\n      mload(0x40)\n      0x08c379a000000000000000000000000000000000000000000000000000000000\n      dup2\n      mstore\n      0x04\n      add\n      tag_165\n      swap1\n      tag_102\n      jump\t// in\n    tag_165:\n      mload(0x40)\n      dup1\n      swap2\n      sub\n      swap1\n      revert\n    tag_164:\n        /* \"contracts/ValoraPoints.sol\":6669:6676  amounts */\n      dup4\n      dup4\n        /* \"contracts/ValoraPoints.sol\":6669:6683  amounts.length */\n      swap1\n      pop\n        /* \"contracts/ValoraPoints.sol\":6653:6658  users */\n      dup7\n      dup7\n        /* \"contracts/ValoraPoints.sol\":6653:6665  users.length */\n      swap1\n      pop\n        /* \"contracts/ValoraPoints.sol\":6653:6683  users.length == amounts.length */\n      eq\n        /* \"contracts/ValoraPoints.sol\":6653:6722  users.length == amounts.length && amounts.length == categories.length */\n      dup1\n      iszero\n      tag_167\n      jumpi\n      pop\n        /* \"contracts/ValoraPoints.sol\":6705:6715  categories */\n      dup2\n      dup2\n        /* \"contracts/ValoraPoints.sol\":6705:6722  categories.length */\n      swap1\n      pop\n        /* \"contracts/ValoraPoints.sol\":6687:6694  amounts */\n      dup5\n      dup5\n        /* \"contracts/ValoraPoints.sol\":6687:6701  amounts.length */\n      swap1\n      pop\n        /* \"contracts/ValoraPoints.sol\":6687:6722  amounts.length == categories.length */\n      eq\n        /* \"contracts/ValoraPoints.sol\":6653:6722  users.length == amounts.length && amounts.length == categories.length */\n    tag_167:\n        /* \"contracts/ValoraPoints.sol\":6645:6748  require(users.length == amounts.length && amounts.length == categories.length, \"Array length mismatch\") */\n      tag_168\n      jumpi\n      mload(0x40)\n      0x08c379a000000000000000000000000000000000000000000000000000000000\n      dup2\n      mstore\n      0x04\n      add\n      tag_169\n      swap1\n      tag_170\n      jump\t// in\n    tag_169:\n      mload(0x40)\n      dup1\n      swap2\n      sub\n      swap1\n      revert\n    tag_168:\n        /* \"contracts/ValoraPoints.sol\":6772:6781  uint256 i */\n      0x00\n        /* \"contracts/ValoraPoints.sol\":6784:6785  0 */\n      0x00\n        /* \"contracts/ValoraPoints.sol\":6772:6785  uint256 i = 0 */\n      swap1\n      pop\n        /* \"contracts/ValoraPoints.sol\":6767:6882  for (uint256 i = 0; i < users.length; i++) {... */\n    tag_171:\n        /* \"contracts/ValoraPoints.sol\":6791:6796  users */\n      dup7\n      dup7\n        /* \"contracts/ValoraPoints.sol\":6791:6803  users.length */\n      swap1\n      pop\n        /* \"contracts/ValoraPoints.sol\":6787:6788  i */\n      dup2\n        /* \"contracts/ValoraPoints.sol\":6787:6803  i < users.length */\n      lt\n        /* \"contracts/ValoraPoints.sol\":6767:6882  for (uint256 i = 0; i < users.length; i++) {... */\n      iszero\n      tag_172\n      jumpi\n        /* \"contracts/ValoraPoints.sol\":6824:6871  _addPoints(users[i], amounts[i], categories[i]) */\n      tag_174\n        /* \"contracts/ValoraPoints.sol\":6835:6840  users */\n      dup8\n      dup8\n        /* \"contracts/ValoraPoints.sol\":6841:6842  i */\n      dup4\n        /* \"contracts/ValoraPoints.sol\":6835:6843  users[i] */\n      dup2\n      dup2\n      lt\n      tag_175\n      jumpi\n      tag_176\n      tag_177\n      jump\t// in\n    tag_176:\n    tag_175:\n      swap1\n      pop\n      0x20\n      mul\n      add\n      0x20\n      dup2\n      add\n      swap1\n      tag_178\n      swap2\n      swap1\n      tag_35\n      jump\t// in\n    tag_178:\n        /* \"contracts/ValoraPoints.sol\":6845:6852  amounts */\n      dup7\n      dup7\n        /* \"contracts/ValoraPoints.sol\":6853:6854  i */\n      dup5\n        /* \"contracts/ValoraPoints.sol\":6845:6855  amounts[i] */\n      dup2\n      dup2\n      lt\n      tag_179\n      jumpi\n      tag_180\n      tag_177\n      jump\t// in\n    tag_180:\n    tag_179:\n      swap1\n      pop\n      0x20\n      mul\n      add\n      calldataload\n        /* \"contracts/ValoraPoints.sol\":6857:6867  categories */\n      dup6\n      dup6\n        /* \"contracts/ValoraPoints.sol\":6868:6869  i */\n      dup6\n        /* \"contracts/ValoraPoints.sol\":6857:6870  categories[i] */\n      dup2\n      dup2\n      lt\n      tag_181\n      jumpi\n      tag_182\n      tag_177\n      jump\t// in\n    tag_182:\n    tag_181:\n      swap1\n      pop\n      0x20\n      mul\n      dup2\n      add\n      swap1\n      tag_183\n      swap2\n      swap1\n      tag_184\n      jump\t// in\n    tag_183:\n        /* \"contracts/ValoraPoints.sol\":6824:6871  _addPoints(users[i], amounts[i], categories[i]) */\n      dup1\n      dup1\n      0x1f\n      add\n      0x20\n      dup1\n      swap2\n      div\n      mul\n      0x20\n      add\n      mload(0x40)\n      swap1\n      dup2\n      add\n      0x40\n      mstore\n      dup1\n      swap4\n      swap3\n      swap2\n      swap1\n      dup2\n      dup2\n      mstore\n      0x20\n      add\n      dup4\n      dup4\n      dup1\n      dup3\n      dup5\n      calldatacopy\n      0x00\n      dup2\n      dup5\n      add\n      mstore\n      not(0x1f)\n      0x1f\n      dup3\n      add\n      and\n      swap1\n      pop\n      dup1\n      dup4\n      add\n      swap3\n      pop\n      pop\n      pop\n      pop\n      pop\n      pop\n      pop\n        /* \"contracts/ValoraPoints.sol\":6824:6834  _addPoints */\n      tag_125\n        /* \"contracts/ValoraPoints.sol\":6824:6871  _addPoints(users[i], amounts[i], categories[i]) */\n      jump\t// in\n    tag_174:\n        /* \"contracts/ValoraPoints.sol\":6805:6808  i++ */\n      dup1\n      dup1\n      0x01\n      add\n      swap2\n      pop\n      pop\n        /* \"contracts/ValoraPoints.sol\":6767:6882  for (uint256 i = 0; i < users.length; i++) {... */\n      jump(tag_171)\n    tag_172:\n      pop\n        /* \"contracts/ValoraPoints.sol\":6470:6888  function batchUpdatePoints(... */\n      pop\n      pop\n      pop\n      pop\n      pop\n      pop\n      jump\t// out\n        /* \"contracts/ValoraPoints.sol\":1256:1282  PointsConfig public config */\n    tag_58:\n      0x34\n      dup1\n      0x00\n      add\n      sload\n      swap1\n      dup1\n      0x01\n      add\n      sload\n      swap1\n      dup1\n      0x02\n      add\n      sload\n      swap1\n      dup1\n      0x03\n      add\n      sload\n      swap1\n      dup1\n      0x04\n      add\n      sload\n      swap1\n      pop\n      dup6\n      jump\t// out\n        /* \"contracts/ValoraPoints.sol\":1288:1325  uint256 public totalPointsDistributed */\n    tag_61:\n      sload(0x39)\n      dup2\n      jump\t// out\n        /* \"contracts/ValoraPoints.sol\":1853:2438  function initialize() external initializer {... */\n    tag_64:\n        /* \"@openzeppelin/contracts-upgradeable/proxy/utils/Initializable.sol\":4158:4188  InitializableStorage storage $ */\n      0x00\n        /* \"@openzeppelin/contracts-upgradeable/proxy/utils/Initializable.sol\":4191:4217  _getInitializableStorage() */\n      tag_186\n        /* \"@openzeppelin/contracts-upgradeable/proxy/utils/Initializable.sol\":4191:4215  _getInitializableStorage */\n      tag_187\n        /* \"@openzeppelin/contracts-upgradeable/proxy/utils/Initializable.sol\":4191:4217  _getInitializableStorage() */\n      jump\t// in\n    tag_186:\n        /* \"@openzeppelin/contracts-upgradeable/proxy/utils/Initializable.sol\":4158:4217  InitializableStorage storage $ = _getInitializableStorage() */\n      swap1\n      pop\n        /* \"@openzeppelin/contracts-upgradeable/proxy/utils/Initializable.sol\":4279:4298  bool isTopLevelCall */\n      0x00\n        /* \"@openzeppelin/contracts-upgradeable/proxy/utils/Initializable.sol\":4302:4303  $ */\n      dup2\n        /* \"@openzeppelin/contracts-upgradeable/proxy/utils/Initializable.sol\":4302:4317  $._initializing */\n      0x00\n      add\n      0x08\n      swap1\n      sload\n      swap1\n      0x0100\n      exp\n      swap1\n      div\n      0xff\n      and\n        /* \"@openzeppelin/contracts-upgradeable/proxy/utils/Initializable.sol\":4301:4317  !$._initializing */\n      iszero\n        /* \"@openzeppelin/contracts-upgradeable/proxy/utils/Initializable.sol\":4279:4317  bool isTopLevelCall = !$._initializing */\n      swap1\n      pop\n        /* \"@openzeppelin/contracts-upgradeable/proxy/utils/Initializable.sol\":4327:4345  uint64 initialized */\n      0x00\n        /* \"@openzeppelin/contracts-upgradeable/proxy/utils/Initializable.sol\":4348:4349  $ */\n      dup3\n        /* \"@openzeppelin/contracts-upgradeable/proxy/utils/Initializable.sol\":4348:4362  $._initialized */\n      0x00\n      add\n      0x00\n      swap1\n      sload\n      swap1\n      0x0100\n      exp\n      swap1\n      div\n      0xffffffffffffffff\n      and\n        /* \"@openzeppelin/contracts-upgradeable/proxy/utils/Initializable.sol\":4327:4362  uint64 initialized = $._initialized */\n      swap1\n      pop\n        /* \"@openzeppelin/contracts-upgradeable/proxy/utils/Initializable.sol\":4704:4721  bool initialSetup */\n      0x00\n        /* \"@openzeppelin/contracts-upgradeable/proxy/utils/Initializable.sol\":4739:4740  0 */\n      0x00\n        /* \"@openzeppelin/contracts-upgradeable/proxy/utils/Initializable.sol\":4724:4735  initialized */\n      dup3\n        /* \"@openzeppelin/contracts-upgradeable/proxy/utils/Initializable.sol\":4724:4740  initialized == 0 */\n      0xffffffffffffffff\n      and\n      eq\n        /* \"@openzeppelin/contracts-upgradeable/proxy/utils/Initializable.sol\":4724:4758  initialized == 0 && isTopLevelCall */\n      dup1\n      iszero\n      tag_188\n      jumpi\n      pop\n        /* \"@openzeppelin/contracts-upgradeable/proxy/utils/Initializable.sol\":4744:4758  isTopLevelCall */\n      dup3\n        /* \"@openzeppelin/contracts-upgradeable/proxy/utils/Initializable.sol\":4724:4758  initialized == 0 && isTopLevelCall */\n    tag_188:\n        /* \"@openzeppelin/contracts-upgradeable/proxy/utils/Initializable.sol\":4704:4758  bool initialSetup = initialized == 0 && isTopLevelCall */\n      swap1\n      pop\n        /* \"@openzeppelin/contracts-upgradeable/proxy/utils/Initializable.sol\":4768:4785  bool construction */\n      0x00\n        /* \"@openzeppelin/contracts-upgradeable/proxy/utils/Initializable.sol\":4803:4804  1 */\n      0x01\n        /* \"@openzeppelin/contracts-upgradeable/proxy/utils/Initializable.sol\":4788:4799  initialized */\n      dup4\n        /* \"@openzeppelin/contracts-upgradeable/proxy/utils/Initializable.sol\":4788:4804  initialized == 1 */\n      0xffffffffffffffff\n      and\n      eq\n        /* \"@openzeppelin/contracts-upgradeable/proxy/utils/Initializable.sol\":4788:4838  initialized == 1 && address(this).code.length == 0 */\n      dup1\n      iszero\n      tag_189\n      jumpi\n      pop\n        /* \"@openzeppelin/contracts-upgradeable/proxy/utils/Initializable.sol\":4837:4838  0 */\n      0x00\n        /* \"@openzeppelin/contracts-upgradeable/proxy/utils/Initializable.sol\":4816:4820  this */\n      address\n        /* \"@openzeppelin/contracts-upgradeable/proxy/utils/Initializable.sol\":4808:4833  address(this).code.length */\n      0xffffffffffffffffffffffffffffffffffffffff\n      and\n      extcodesize\n        /* \"@openzeppelin/contracts-upgradeable/proxy/utils/Initializable.sol\":4808:4838  address(this).code.length == 0 */\n      eq\n        /* \"@openzeppelin/contracts-upgradeable/proxy/utils/Initializable.sol\":4788:4838  initialized == 1 && address(this).code.length == 0 */\n    tag_189:\n        /* \"@openzeppelin/contracts-upgradeable/proxy/utils/Initializable.sol\":4768:4838  bool construction = initialized == 1 && address(this).code.length == 0 */\n      swap1\n      pop\n        /* \"@openzeppelin/contracts-upgradeable/proxy/utils/Initializable.sol\":4854:4866  initialSetup */\n      dup2\n        /* \"@openzeppelin/contracts-upgradeable/proxy/utils/Initializable.sol\":4853:4866  !initialSetup */\n      iszero\n        /* \"@openzeppelin/contracts-upgradeable/proxy/utils/Initializable.sol\":4853:4883  !initialSetup && !construction */\n      dup1\n      iszero\n      tag_190\n      jumpi\n      pop\n        /* \"@openzeppelin/contracts-upgradeable/proxy/utils/Initializable.sol\":4871:4883  construction */\n      dup1\n        /* \"@openzeppelin/contracts-upgradeable/proxy/utils/Initializable.sol\":4870:4883  !construction */\n      iszero\n        /* \"@openzeppelin/contracts-upgradeable/proxy/utils/Initializable.sol\":4853:4883  !initialSetup && !construction */\n    tag_190:\n        /* \"@openzeppelin/contracts-upgradeable/proxy/utils/Initializable.sol\":4849:4940  if (!initialSetup && !construction) {... */\n      iszero\n      tag_191\n      jumpi\n        /* \"@openzeppelin/contracts-upgradeable/proxy/utils/Initializable.sol\":4906:4929  InvalidInitialization() */\n      mload(0x40)\n      0xf92ee8a900000000000000000000000000000000000000000000000000000000\n      dup2\n      mstore\n      0x04\n      add\n      mload(0x40)\n      dup1\n      swap2\n      sub\n      swap1\n      revert\n        /* \"@openzeppelin/contracts-upgradeable/proxy/utils/Initializable.sol\":4849:4940  if (!initialSetup && !construction) {... */\n    tag_191:\n        /* \"@openzeppelin/contracts-upgradeable/proxy/utils/Initializable.sol\":4966:4967  1 */\n      0x01\n        /* \"@openzeppelin/contracts-upgradeable/proxy/utils/Initializable.sol\":4949:4950  $ */\n      dup6\n        /* \"@openzeppelin/contracts-upgradeable/proxy/utils/Initializable.sol\":4949:4963  $._initialized */\n      0x00\n      add\n      0x00\n        /* \"@openzeppelin/contracts-upgradeable/proxy/utils/Initializable.sol\":4949:4967  $._initialized = 1 */\n      0x0100\n      exp\n      dup2\n      sload\n      dup2\n      0xffffffffffffffff\n      mul\n      not\n      and\n      swap1\n      dup4\n      0xffffffffffffffff\n      and\n      mul\n      or\n      swap1\n      sstore\n      pop\n        /* \"@openzeppelin/contracts-upgradeable/proxy/utils/Initializable.sol\":4981:4995  isTopLevelCall */\n      dup4\n        /* \"@openzeppelin/contracts-upgradeable/proxy/utils/Initializable.sol\":4977:5044  if (isTopLevelCall) {... */\n      iszero\n      tag_192\n      jumpi\n        /* \"@openzeppelin/contracts-upgradeable/proxy/utils/Initializable.sol\":5029:5033  true */\n      0x01\n        /* \"@openzeppelin/contracts-upgradeable/proxy/utils/Initializable.sol\":5011:5012  $ */\n      dup6\n        /* \"@openzeppelin/contracts-upgradeable/proxy/utils/Initializable.sol\":5011:5026  $._initializing */\n      0x00\n      add\n      0x08\n        /* \"@openzeppelin/contracts-upgradeable/proxy/utils/Initializable.sol\":5011:5033  $._initializing = true */\n      0x0100\n      exp\n      dup2\n      sload\n      dup2\n      0xff\n      mul\n      not\n      and\n      swap1\n      dup4\n      iszero\n      iszero\n      mul\n      or\n      swap1\n      sstore\n      pop\n        /* \"@openzeppelin/contracts-upgradeable/proxy/utils/Initializable.sol\":4977:5044  if (isTopLevelCall) {... */\n    tag_192:\n        /* \"contracts/ValoraPoints.sol\":1906:1932  __Ownable_init(msg.sender) */\n      tag_194\n        /* \"contracts/ValoraPoints.sol\":1921:1931  msg.sender */\n      caller\n        /* \"contracts/ValoraPoints.sol\":1906:1920  __Ownable_init */\n      tag_195\n        /* \"contracts/ValoraPoints.sol\":1906:1932  __Ownable_init(msg.sender) */\n      jump\t// in\n    tag_194:\n        /* \"contracts/ValoraPoints.sol\":1942:1966  __ReentrancyGuard_init() */\n      tag_196\n        /* \"contracts/ValoraPoints.sol\":1942:1964  __ReentrancyGuard_init */\n      tag_197\n        /* \"contracts/ValoraPoints.sol\":1942:1966  __ReentrancyGuard_init() */\n      jump\t// in\n    tag_196:\n        /* \"contracts/ValoraPoints.sol\":2027:2431  PointsConfig({... */\n      mload(0x40)\n      dup1\n      0xa0\n      add\n      0x40\n      mstore\n      dup1\n        /* \"contracts/ValoraPoints.sol\":2073:2076  100 */\n      0x64\n        /* \"contracts/ValoraPoints.sol\":2027:2431  PointsConfig({... */\n      dup2\n      mstore\n      0x20\n      add\n        /* \"contracts/ValoraPoints.sol\":2144:2146  50 */\n      0x32\n        /* \"contracts/ValoraPoints.sol\":2027:2431  PointsConfig({... */\n      dup2\n      mstore\n      0x20\n      add\n        /* \"contracts/ValoraPoints.sol\":2217:2219  25 */\n      0x19\n        /* \"contracts/ValoraPoints.sol\":2027:2431  PointsConfig({... */\n      dup2\n      mstore\n      0x20\n      add\n        /* \"contracts/ValoraPoints.sol\":2305:2307  10 */\n      0x0a\n        /* \"contracts/ValoraPoints.sol\":2027:2431  PointsConfig({... */\n      dup2\n      mstore\n      0x20\n      add\n        /* \"contracts/ValoraPoints.sol\":2378:2381  365 */\n      0x016d\n        /* \"contracts/ValoraPoints.sol\":2027:2431  PointsConfig({... */\n      dup2\n      mstore\n      pop\n        /* \"contracts/ValoraPoints.sol\":2018:2024  config */\n      0x34\n        /* \"contracts/ValoraPoints.sol\":2018:2431  config = PointsConfig({... */\n      0x00\n      dup3\n      add\n      mload\n      dup2\n      0x00\n      add\n      sstore\n      0x20\n      dup3\n      add\n      mload\n      dup2\n      0x01\n      add\n      sstore\n      0x40\n      dup3\n      add\n      mload\n      dup2\n      0x02\n      add\n      sstore\n      0x60\n      dup3\n      add\n      mload\n      dup2\n      0x03\n      add\n      sstore\n      0x80\n      dup3\n      add\n      mload\n      dup2\n      0x04\n      add\n      sstore\n      swap1\n      pop\n      pop\n        /* \"@openzeppelin/contracts-upgradeable/proxy/utils/Initializable.sol\":5068:5082  isTopLevelCall */\n      dup4\n        /* \"@openzeppelin/contracts-upgradeable/proxy/utils/Initializable.sol\":5064:5165  if (isTopLevelCall) {... */\n      iszero\n      tag_198\n      jumpi\n        /* \"@openzeppelin/contracts-upgradeable/proxy/utils/Initializable.sol\":5116:5121  false */\n      0x00\n        /* \"@openzeppelin/contracts-upgradeable/proxy/utils/Initializable.sol\":5098:5099  $ */\n      dup6\n        /* \"@openzeppelin/contracts-upgradeable/proxy/utils/Initializable.sol\":5098:5113  $._initializing */\n      0x00\n      add\n      0x08\n        /* \"@openzeppelin/contracts-upgradeable/proxy/utils/Initializable.sol\":5098:5121  $._initializing = false */\n      0x0100\n      exp\n      dup2\n      sload\n      dup2\n      0xff\n      mul\n      not\n      and\n      swap1\n      dup4\n      iszero\n      iszero\n      mul\n      or\n      swap1\n      sstore\n      pop\n        /* \"@openzeppelin/contracts-upgradeable/proxy/utils/Initializable.sol\":5140:5154  Initialized(1) */\n      0xc7f505b2f371ae2175ee4913f4499e1f2633a7b5936321eed1cdaeb6115181d2\n        /* \"@openzeppelin/contracts-upgradeable/proxy/utils/Initializable.sol\":5152:5153  1 */\n      0x01\n        /* \"@openzeppelin/contracts-upgradeable/proxy/utils/Initializable.sol\":5140:5154  Initialized(1) */\n      mload(0x40)\n      tag_199\n      swap2\n      swap1\n      tag_200\n      jump\t// in\n    tag_199:\n      mload(0x40)\n      dup1\n      swap2\n      sub\n      swap1\n      log1\n        /* \"@openzeppelin/contracts-upgradeable/proxy/utils/Initializable.sol\":5064:5165  if (isTopLevelCall) {... */\n    tag_198:\n        /* \"@openzeppelin/contracts-upgradeable/proxy/utils/Initializable.sol\":4092:5171  {... */\n      pop\n      pop\n      pop\n      pop\n      pop\n        /* \"contracts/ValoraPoints.sol\":1853:2438  function initialize() external initializer {... */\n      jump\t// out\n        /* \"@openzeppelin/contracts-upgradeable/access/OwnableUpgradeable.sol\":2441:2585  function owner() public view virtual returns (address) {... */\n    tag_66:\n        /* \"@openzeppelin/contracts-upgradeable/access/OwnableUpgradeable.sol\":2487:2494  address */\n      0x00\n        /* \"@openzeppelin/contracts-upgradeable/access/OwnableUpgradeable.sol\":2506:2530  OwnableStorage storage $ */\n      0x00\n        /* \"@openzeppelin/contracts-upgradeable/access/OwnableUpgradeable.sol\":2533:2553  _getOwnableStorage() */\n      tag_202\n        /* \"@openzeppelin/contracts-upgradeable/access/OwnableUpgradeable.sol\":2533:2551  _getOwnableStorage */\n      tag_203\n        /* \"@openzeppelin/contracts-upgradeable/access/OwnableUpgradeable.sol\":2533:2553  _getOwnableStorage() */\n      jump\t// in\n    tag_202:\n        /* \"@openzeppelin/contracts-upgradeable/access/OwnableUpgradeable.sol\":2506:2553  OwnableStorage storage $ = _getOwnableStorage() */\n      swap1\n      pop\n        /* \"@openzeppelin/contracts-upgradeable/access/OwnableUpgradeable.sol\":2570:2571  $ */\n      dup1\n        /* \"@openzeppelin/contracts-upgradeable/access/OwnableUpgradeable.sol\":2570:2578  $._owner */\n      0x00\n      add\n      0x00\n      swap1\n      sload\n      swap1\n      0x0100\n      exp\n      swap1\n      div\n      0xffffffffffffffffffffffffffffffffffffffff\n      and\n        /* \"@openzeppelin/contracts-upgradeable/access/OwnableUpgradeable.sol\":2563:2578  return $._owner */\n      swap2\n      pop\n      pop\n        /* \"@openzeppelin/contracts-upgradeable/access/OwnableUpgradeable.sol\":2441:2585  function owner() public view virtual returns (address) {... */\n      swap1\n      jump\t// out\n        /* \"contracts/ValoraPoints.sol\":3507:3800  function updateBorrowingPoints(address user, uint256 amount, uint256 duration) external onlyAuthorized {... */\n    tag_71:\n        /* \"contracts/ValoraPoints.sol\":1754:1773  authorizedContracts */\n      0x33\n        /* \"contracts/ValoraPoints.sol\":1754:1785  authorizedContracts[msg.sender] */\n      0x00\n        /* \"contracts/ValoraPoints.sol\":1774:1784  msg.sender */\n      caller\n        /* \"contracts/ValoraPoints.sol\":1754:1785  authorizedContracts[msg.sender] */\n      0xffffffffffffffffffffffffffffffffffffffff\n      and\n      0xffffffffffffffffffffffffffffffffffffffff\n      and\n      dup2\n      mstore\n      0x20\n      add\n      swap1\n      dup2\n      mstore\n      0x20\n      add\n      0x00\n      keccak256\n      0x00\n      swap1\n      sload\n      swap1\n      0x0100\n      exp\n      swap1\n      div\n      0xff\n      and\n        /* \"contracts/ValoraPoints.sol\":1754:1810  authorizedContracts[msg.sender] || msg.sender == owner() */\n      dup1\n      tag_205\n      jumpi\n      pop\n        /* \"contracts/ValoraPoints.sol\":1803:1810  owner() */\n      tag_206\n        /* \"contracts/ValoraPoints.sol\":1803:1808  owner */\n      tag_66\n        /* \"contracts/ValoraPoints.sol\":1803:1810  owner() */\n      jump\t// in\n    tag_206:\n        /* \"contracts/ValoraPoints.sol\":1789:1810  msg.sender == owner() */\n      0xffffffffffffffffffffffffffffffffffffffff\n      and\n        /* \"contracts/ValoraPoints.sol\":1789:1799  msg.sender */\n      caller\n        /* \"contracts/ValoraPoints.sol\":1789:1810  msg.sender == owner() */\n      0xffffffffffffffffffffffffffffffffffffffff\n      and\n      eq\n        /* \"contracts/ValoraPoints.sol\":1754:1810  authorizedContracts[msg.sender] || msg.sender == owner() */\n    tag_205:\n        /* \"contracts/ValoraPoints.sol\":1746:1829  require(authorizedContracts[msg.sender] || msg.sender == owner(), \"Not authorized\") */\n      tag_207\n      jumpi\n      mload(0x40)\n      0x08c379a000000000000000000000000000000000000000000000000000000000\n      dup2\n      mstore\n      0x04\n      add\n      tag_208\n      swap1\n      tag_102\n      jump\t// in\n    tag_208:\n      mload(0x40)\n      dup1\n      swap2\n      sub\n      swap1\n      revert\n    tag_207:\n        /* \"contracts/ValoraPoints.sol\":3620:3634  uint256 points */\n      0x00\n        /* \"contracts/ValoraPoints.sol\":3688:3694  1 days */\n      0x015180\n        /* \"contracts/ValoraPoints.sol\":3676:3684  duration */\n      dup3\n        /* \"contracts/ValoraPoints.sol\":3647:3653  config */\n      0x34\n        /* \"contracts/ValoraPoints.sol\":3647:3673  config.borrowingMultiplier */\n      0x02\n      add\n      sload\n        /* \"contracts/ValoraPoints.sol\":3638:3644  amount */\n      dup6\n        /* \"contracts/ValoraPoints.sol\":3638:3673  amount * config.borrowingMultiplier */\n      tag_210\n      swap2\n      swap1\n      tag_120\n      jump\t// in\n    tag_210:\n        /* \"contracts/ValoraPoints.sol\":3638:3684  amount * config.borrowingMultiplier * duration */\n      tag_211\n      swap2\n      swap1\n      tag_120\n      jump\t// in\n    tag_211:\n        /* \"contracts/ValoraPoints.sol\":3637:3694  (amount * config.borrowingMultiplier * duration) / 1 days */\n      tag_212\n      swap2\n      swap1\n      tag_123\n      jump\t// in\n    tag_212:\n        /* \"contracts/ValoraPoints.sol\":3620:3694  uint256 points = (amount * config.borrowingMultiplier * duration) / 1 days */\n      swap1\n      pop\n        /* \"contracts/ValoraPoints.sol\":3704:3741  _addPoints(user, points, \"borrowing\") */\n      tag_213\n        /* \"contracts/ValoraPoints.sol\":3715:3719  user */\n      dup5\n        /* \"contracts/ValoraPoints.sol\":3721:3727  points */\n      dup3\n        /* \"contracts/ValoraPoints.sol\":3704:3741  _addPoints(user, points, \"borrowing\") */\n      mload(0x40)\n      dup1\n      0x40\n      add\n      0x40\n      mstore\n      dup1\n      0x09\n      dup2\n      mstore\n      0x20\n      add\n      0x626f72726f77696e670000000000000000000000000000000000000000000000\n      dup2\n      mstore\n      pop\n        /* \"contracts/ValoraPoints.sol\":3704:3714  _addPoints */\n      tag_125\n        /* \"contracts/ValoraPoints.sol\":3704:3741  _addPoints(user, points, \"borrowing\") */\n      jump\t// in\n    tag_213:\n        /* \"contracts/ValoraPoints.sol\":3787:3793  points */\n      dup1\n        /* \"contracts/ValoraPoints.sol\":3751:3761  userPoints */\n      0x32\n        /* \"contracts/ValoraPoints.sol\":3751:3767  userPoints[user] */\n      0x00\n        /* \"contracts/ValoraPoints.sol\":3762:3766  user */\n      dup7\n        /* \"contracts/ValoraPoints.sol\":3751:3767  userPoints[user] */\n      0xffffffffffffffffffffffffffffffffffffffff\n      and\n      0xffffffffffffffffffffffffffffffffffffffff\n      and\n      dup2\n      mstore\n      0x20\n      add\n      swap1\n      dup2\n      mstore\n      0x20\n      add\n      0x00\n      keccak256\n        /* \"contracts/ValoraPoints.sol\":3751:3783  userPoints[user].borrowingPoints */\n      0x02\n      add\n      0x00\n        /* \"contracts/ValoraPoints.sol\":3751:3793  userPoints[user].borrowingPoints += points */\n      dup3\n      dup3\n      sload\n      tag_214\n      swap2\n      swap1\n      tag_127\n      jump\t// in\n    tag_214:\n      swap3\n      pop\n      pop\n      dup2\n      swap1\n      sstore\n      pop\n        /* \"contracts/ValoraPoints.sol\":3610:3800  {... */\n      pop\n        /* \"contracts/ValoraPoints.sol\":3507:3800  function updateBorrowingPoints(address user, uint256 amount, uint256 duration) external onlyAuthorized {... */\n      pop\n      pop\n      pop\n      jump\t// out\n        /* \"contracts/ValoraPoints.sol\":5338:5457  function getUserPoints(address user) external view returns (UserPoints memory) {... */\n    tag_74:\n        /* \"contracts/ValoraPoints.sol\":5398:5415  UserPoints memory */\n      tag_215\n      tag_216\n      jump\t// in\n    tag_215:\n        /* \"contracts/ValoraPoints.sol\":5434:5444  userPoints */\n      0x32\n        /* \"contracts/ValoraPoints.sol\":5434:5450  userPoints[user] */\n      0x00\n        /* \"contracts/ValoraPoints.sol\":5445:5449  user */\n      dup4\n        /* \"contracts/ValoraPoints.sol\":5434:5450  userPoints[user] */\n      0xffffffffffffffffffffffffffffffffffffffff\n      and\n      0xffffffffffffffffffffffffffffffffffffffff\n      and\n      dup2\n      mstore\n      0x20\n      add\n      swap1\n      dup2\n      mstore\n      0x20\n      add\n      0x00\n      keccak256\n        /* \"contracts/ValoraPoints.sol\":5427:5450  return userPoints[user] */\n      mload(0x40)\n      dup1\n      0xc0\n      add\n      0x40\n      mstore\n      swap1\n      dup2\n      0x00\n      dup3\n      add\n      sload\n      dup2\n      mstore\n      0x20\n      add\n      0x01\n      dup3\n      add\n      sload\n      dup2\n      mstore\n      0x20\n      add\n      0x02\n      dup3\n      add\n      sload\n      dup2\n      mstore\n      0x20\n      add\n      0x03\n      dup3\n      add\n      sload\n      dup2\n      mstore\n      0x20\n      add\n      0x04\n      dup3\n      add\n      sload\n      dup2\n      mstore\n      0x20\n      add\n      0x05\n      dup3\n      add\n      sload\n      dup2\n      mstore\n      pop\n      pop\n      swap1\n      pop\n        /* \"contracts/ValoraPoints.sol\":5338:5457  function getUserPoints(address user) external view returns (UserPoints memory) {... */\n      swap2\n      swap1\n      pop\n      jump\t// out\n        /* \"contracts/ValoraPoints.sol\":3806:4541  function updateLoyaltyPoints(address user) external onlyAuthorized {... */\n    tag_79:\n        /* \"contracts/ValoraPoints.sol\":1754:1773  authorizedContracts */\n      0x33\n        /* \"contracts/ValoraPoints.sol\":1754:1785  authorizedContracts[msg.sender] */\n      0x00\n        /* \"contracts/ValoraPoints.sol\":1774:1784  msg.sender */\n      caller\n        /* \"contracts/ValoraPoints.sol\":1754:1785  authorizedContracts[msg.sender] */\n      0xffffffffffffffffffffffffffffffffffffffff\n      and\n      0xffffffffffffffffffffffffffffffffffffffff\n      and\n      dup2\n      mstore\n      0x20\n      add\n      swap1\n      dup2\n      mstore\n      0x20\n      add\n      0x00\n      keccak256\n      0x00\n      swap1\n      sload\n      swap1\n      0x0100\n      exp\n      swap1\n      div\n      0xff\n      and\n        /* \"contracts/ValoraPoints.sol\":1754:1810  authorizedContracts[msg.sender] || msg.sender == owner() */\n      dup1\n      tag_219\n      jumpi\n      pop\n        /* \"contracts/ValoraPoints.sol\":1803:1810  owner() */\n      tag_220\n        /* \"contracts/ValoraPoints.sol\":1803:1808  owner */\n      tag_66\n        /* \"contracts/ValoraPoints.sol\":1803:1810  owner() */\n      jump\t// in\n    tag_220:\n        /* \"contracts/ValoraPoints.sol\":1789:1810  msg.sender == owner() */\n      0xffffffffffffffffffffffffffffffffffffffff\n      and\n        /* \"contracts/ValoraPoints.sol\":1789:1799  msg.sender */\n      caller\n        /* \"contracts/ValoraPoints.sol\":1789:1810  msg.sender == owner() */\n      0xffffffffffffffffffffffffffffffffffffffff\n      and\n      eq\n        /* \"contracts/ValoraPoints.sol\":1754:1810  authorizedContracts[msg.sender] || msg.sender == owner() */\n    tag_219:\n        /* \"contracts/ValoraPoints.sol\":1746:1829  require(authorizedContracts[msg.sender] || msg.sender == owner(), \"Not authorized\") */\n      tag_221\n      jumpi\n      mload(0x40)\n      0x08c379a000000000000000000000000000000000000000000000000000000000\n      dup2\n      mstore\n      0x04\n      add\n      tag_222\n      swap1\n      tag_102\n      jump\t// in\n    tag_222:\n      mload(0x40)\n      dup1\n      swap2\n      sub\n      swap1\n      revert\n    tag_221:\n        /* \"contracts/ValoraPoints.sol\":3883:3910  UserPoints storage userData */\n      0x00\n        /* \"contracts/ValoraPoints.sol\":3913:3923  userPoints */\n      0x32\n        /* \"contracts/ValoraPoints.sol\":3913:3929  userPoints[user] */\n      0x00\n        /* \"contracts/ValoraPoints.sol\":3924:3928  user */\n      dup4\n        /* \"contracts/ValoraPoints.sol\":3913:3929  userPoints[user] */\n      0xffffffffffffffffffffffffffffffffffffffff\n      and\n      0xffffffffffffffffffffffffffffffffffffffff\n      and\n      dup2\n      mstore\n      0x20\n      add\n      swap1\n      dup2\n      mstore\n      0x20\n      add\n      0x00\n      keccak256\n        /* \"contracts/ValoraPoints.sol\":3883:3929  UserPoints storage userData = userPoints[user] */\n      swap1\n      pop\n        /* \"contracts/ValoraPoints.sol\":3975:3976  0 */\n      0x00\n        /* \"contracts/ValoraPoints.sol\":3952:3960  userData */\n      dup2\n        /* \"contracts/ValoraPoints.sol\":3952:3971  userData.lastUpdate */\n      0x05\n      add\n      sload\n        /* \"contracts/ValoraPoints.sol\":3952:3976  userData.lastUpdate == 0 */\n      sub\n        /* \"contracts/ValoraPoints.sol\":3948:4060  if (userData.lastUpdate == 0) {... */\n      tag_224\n      jumpi\n        /* \"contracts/ValoraPoints.sol\":4014:4029  block.timestamp */\n      timestamp\n        /* \"contracts/ValoraPoints.sol\":3992:4000  userData */\n      dup2\n        /* \"contracts/ValoraPoints.sol\":3992:4011  userData.lastUpdate */\n      0x05\n      add\n        /* \"contracts/ValoraPoints.sol\":3992:4029  userData.lastUpdate = block.timestamp */\n      dup2\n      swap1\n      sstore\n      pop\n        /* \"contracts/ValoraPoints.sol\":4043:4050  return; */\n      pop\n      jump(tag_223)\n        /* \"contracts/ValoraPoints.sol\":3948:4060  if (userData.lastUpdate == 0) {... */\n    tag_224:\n        /* \"contracts/ValoraPoints.sol\":4070:4088  uint256 daysPassed */\n      0x00\n        /* \"contracts/ValoraPoints.sol\":4133:4139  1 days */\n      0x015180\n        /* \"contracts/ValoraPoints.sol\":4110:4118  userData */\n      dup3\n        /* \"contracts/ValoraPoints.sol\":4110:4129  userData.lastUpdate */\n      0x05\n      add\n      sload\n        /* \"contracts/ValoraPoints.sol\":4092:4107  block.timestamp */\n      timestamp\n        /* \"contracts/ValoraPoints.sol\":4092:4129  block.timestamp - userData.lastUpdate */\n      tag_225\n      swap2\n      swap1\n      tag_108\n      jump\t// in\n    tag_225:\n        /* \"contracts/ValoraPoints.sol\":4091:4139  (block.timestamp - userData.lastUpdate) / 1 days */\n      tag_226\n      swap2\n      swap1\n      tag_123\n      jump\t// in\n    tag_226:\n        /* \"contracts/ValoraPoints.sol\":4070:4139  uint256 daysPassed = (block.timestamp - userData.lastUpdate) / 1 days */\n      swap1\n      pop\n        /* \"contracts/ValoraPoints.sol\":4166:4167  0 */\n      0x00\n        /* \"contracts/ValoraPoints.sol\":4153:4163  daysPassed */\n      dup2\n        /* \"contracts/ValoraPoints.sol\":4153:4167  daysPassed > 0 */\n      gt\n        /* \"contracts/ValoraPoints.sol\":4149:4535  if (daysPassed > 0) {... */\n      iszero\n      tag_227\n      jumpi\n        /* \"contracts/ValoraPoints.sol\":4183:4202  uint256 loyaltyDays */\n      0x00\n        /* \"contracts/ValoraPoints.sol\":4218:4224  config */\n      0x34\n        /* \"contracts/ValoraPoints.sol\":4218:4239  config.maxLoyaltyDays */\n      0x04\n      add\n      sload\n        /* \"contracts/ValoraPoints.sol\":4205:4215  daysPassed */\n      dup3\n        /* \"contracts/ValoraPoints.sol\":4205:4239  daysPassed > config.maxLoyaltyDays */\n      gt\n        /* \"contracts/ValoraPoints.sol\":4205:4276  daysPassed > config.maxLoyaltyDays ? config.maxLoyaltyDays : daysPassed */\n      tag_228\n      jumpi\n        /* \"contracts/ValoraPoints.sol\":4266:4276  daysPassed */\n      dup2\n        /* \"contracts/ValoraPoints.sol\":4205:4276  daysPassed > config.maxLoyaltyDays ? config.maxLoyaltyDays : daysPassed */\n      jump(tag_229)\n    tag_228:\n        /* \"contracts/ValoraPoints.sol\":4242:4248  config */\n      0x34\n        /* \"contracts/ValoraPoints.sol\":4242:4263  config.maxLoyaltyDays */\n      0x04\n      add\n      sload\n        /* \"contracts/ValoraPoints.sol\":4205:4276  daysPassed > config.maxLoyaltyDays ? config.maxLoyaltyDays : daysPassed */\n    tag_229:\n        /* \"contracts/ValoraPoints.sol\":4183:4276  uint256 loyaltyDays = daysPassed > config.maxLoyaltyDays ? config.maxLoyaltyDays : daysPassed */\n      swap1\n      pop\n        /* \"contracts/ValoraPoints.sol\":4290:4311  uint256 loyaltyPoints */\n      0x00\n        /* \"contracts/ValoraPoints.sol\":4328:4334  config */\n      0x34\n        /* \"contracts/ValoraPoints.sol\":4328:4351  config.loyaltyBonusRate */\n      0x03\n      add\n      sload\n        /* \"contracts/ValoraPoints.sol\":4314:4325  loyaltyDays */\n      dup3\n        /* \"contracts/ValoraPoints.sol\":4314:4351  loyaltyDays * config.loyaltyBonusRate */\n      tag_230\n      swap2\n      swap1\n      tag_120\n      jump\t// in\n    tag_230:\n        /* \"contracts/ValoraPoints.sol\":4290:4351  uint256 loyaltyPoints = loyaltyDays * config.loyaltyBonusRate */\n      swap1\n      pop\n        /* \"contracts/ValoraPoints.sol\":4378:4420  _addPoints(user, loyaltyPoints, \"loyalty\") */\n      tag_231\n        /* \"contracts/ValoraPoints.sol\":4389:4393  user */\n      dup6\n        /* \"contracts/ValoraPoints.sol\":4395:4408  loyaltyPoints */\n      dup3\n        /* \"contracts/ValoraPoints.sol\":4378:4420  _addPoints(user, loyaltyPoints, \"loyalty\") */\n      mload(0x40)\n      dup1\n      0x40\n      add\n      0x40\n      mstore\n      dup1\n      0x07\n      dup2\n      mstore\n      0x20\n      add\n      0x6c6f79616c747900000000000000000000000000000000000000000000000000\n      dup2\n      mstore\n      pop\n        /* \"contracts/ValoraPoints.sol\":4378:4388  _addPoints */\n      tag_125\n        /* \"contracts/ValoraPoints.sol\":4378:4420  _addPoints(user, loyaltyPoints, \"loyalty\") */\n      jump\t// in\n    tag_231:\n        /* \"contracts/ValoraPoints.sol\":4460:4473  loyaltyPoints */\n      dup1\n        /* \"contracts/ValoraPoints.sol\":4434:4442  userData */\n      dup5\n        /* \"contracts/ValoraPoints.sol\":4434:4456  userData.loyaltyPoints */\n      0x03\n      add\n      0x00\n        /* \"contracts/ValoraPoints.sol\":4434:4473  userData.loyaltyPoints += loyaltyPoints */\n      dup3\n      dup3\n      sload\n      tag_232\n      swap2\n      swap1\n      tag_127\n      jump\t// in\n    tag_232:\n      swap3\n      pop\n      pop\n      dup2\n      swap1\n      sstore\n      pop\n        /* \"contracts/ValoraPoints.sol\":4509:4524  block.timestamp */\n      timestamp\n        /* \"contracts/ValoraPoints.sol\":4487:4495  userData */\n      dup5\n        /* \"contracts/ValoraPoints.sol\":4487:4506  userData.lastUpdate */\n      0x05\n      add\n        /* \"contracts/ValoraPoints.sol\":4487:4524  userData.lastUpdate = block.timestamp */\n      dup2\n      swap1\n      sstore\n      pop\n        /* \"contracts/ValoraPoints.sol\":4169:4535  {... */\n      pop\n      pop\n        /* \"contracts/ValoraPoints.sol\":4149:4535  if (daysPassed > 0) {... */\n    tag_227:\n        /* \"contracts/ValoraPoints.sol\":3873:4541  {... */\n      pop\n      pop\n        /* \"contracts/ValoraPoints.sol\":1839:1840  _ */\n    tag_223:\n        /* \"contracts/ValoraPoints.sol\":3806:4541  function updateLoyaltyPoints(address user) external onlyAuthorized {... */\n      pop\n      jump\t// out\n        /* \"contracts/ValoraPoints.sol\":1159:1210  mapping(address => bool) public authorizedContracts */\n    tag_82:\n      mstore(0x20, 0x33)\n      dup1\n      0x00\n      mstore\n      keccak256(0x00, 0x40)\n      0x00\n      swap2\n      pop\n      sload\n      swap1\n      0x0100\n      exp\n      swap1\n      div\n      0xff\n      and\n      dup2\n      jump\t// out\n        /* \"@openzeppelin/contracts-upgradeable/access/OwnableUpgradeable.sol\":3405:3620  function transferOwnership(address newOwner) public virtual onlyOwner {... */\n    tag_87:\n        /* \"@openzeppelin/contracts-upgradeable/access/OwnableUpgradeable.sol\":2334:2347  _checkOwner() */\n      tag_234\n        /* \"@openzeppelin/contracts-upgradeable/access/OwnableUpgradeable.sol\":2334:2345  _checkOwner */\n      tag_150\n        /* \"@openzeppelin/contracts-upgradeable/access/OwnableUpgradeable.sol\":2334:2347  _checkOwner() */\n      jump\t// in\n    tag_234:\n        /* \"@openzeppelin/contracts-upgradeable/access/OwnableUpgradeable.sol\":3509:3510  0 */\n      0x00\n        /* \"@openzeppelin/contracts-upgradeable/access/OwnableUpgradeable.sol\":3489:3511  newOwner == address(0) */\n      0xffffffffffffffffffffffffffffffffffffffff\n      and\n        /* \"@openzeppelin/contracts-upgradeable/access/OwnableUpgradeable.sol\":3489:3497  newOwner */\n      dup2\n        /* \"@openzeppelin/contracts-upgradeable/access/OwnableUpgradeable.sol\":3489:3511  newOwner == address(0) */\n      0xffffffffffffffffffffffffffffffffffffffff\n      and\n      sub\n        /* \"@openzeppelin/contracts-upgradeable/access/OwnableUpgradeable.sol\":3485:3576  if (newOwner == address(0)) {... */\n      tag_236\n      jumpi\n        /* \"@openzeppelin/contracts-upgradeable/access/OwnableUpgradeable.sol\":3562:3563  0 */\n      0x00\n        /* \"@openzeppelin/contracts-upgradeable/access/OwnableUpgradeable.sol\":3534:3565  OwnableInvalidOwner(address(0)) */\n      mload(0x40)\n      0x1e4fbdf700000000000000000000000000000000000000000000000000000000\n      dup2\n      mstore\n      0x04\n      add\n      tag_237\n      swap2\n      swap1\n      tag_68\n      jump\t// in\n    tag_237:\n      mload(0x40)\n      dup1\n      swap2\n      sub\n      swap1\n      revert\n        /* \"@openzeppelin/contracts-upgradeable/access/OwnableUpgradeable.sol\":3485:3576  if (newOwner == address(0)) {... */\n    tag_236:\n        /* \"@openzeppelin/contracts-upgradeable/access/OwnableUpgradeable.sol\":3585:3613  _transferOwnership(newOwner) */\n      tag_238\n        /* \"@openzeppelin/contracts-upgradeable/access/OwnableUpgradeable.sol\":3604:3612  newOwner */\n      dup2\n        /* \"@openzeppelin/contracts-upgradeable/access/OwnableUpgradeable.sol\":3585:3603  _transferOwnership */\n      tag_160\n        /* \"@openzeppelin/contracts-upgradeable/access/OwnableUpgradeable.sol\":3585:3613  _transferOwnership(newOwner) */\n      jump\t// in\n    tag_238:\n        /* \"@openzeppelin/contracts-upgradeable/access/OwnableUpgradeable.sol\":3405:3620  function transferOwnership(address newOwner) public virtual onlyOwner {... */\n      pop\n      jump\t// out\n        /* \"contracts/ValoraPoints.sol\":1105:1153  mapping(address => UserPoints) public userPoints */\n    tag_90:\n      mstore(0x20, 0x32)\n      dup1\n      0x00\n      mstore\n      keccak256(0x00, 0x40)\n      0x00\n      swap2\n      pop\n      swap1\n      pop\n      dup1\n      0x00\n      add\n      sload\n      swap1\n      dup1\n      0x01\n      add\n      sload\n      swap1\n      dup1\n      0x02\n      add\n      sload\n      swap1\n      dup1\n      0x03\n      add\n      sload\n      swap1\n      dup1\n      0x04\n      add\n      sload\n      swap1\n      dup1\n      0x05\n      add\n      sload\n      swap1\n      pop\n      dup7\n      jump\t// out\n        /* \"contracts/ValoraPoints.sol\":2484:2698  function setContractAuthorization(address contractAddr, bool authorized) external onlyOwner {... */\n    tag_96:\n        /* \"@openzeppelin/contracts-upgradeable/access/OwnableUpgradeable.sol\":2334:2347  _checkOwner() */\n      tag_240\n        /* \"@openzeppelin/contracts-upgradeable/access/OwnableUpgradeable.sol\":2334:2345  _checkOwner */\n      tag_150\n        /* \"@openzeppelin/contracts-upgradeable/access/OwnableUpgradeable.sol\":2334:2347  _checkOwner() */\n      jump\t// in\n    tag_240:\n        /* \"contracts/ValoraPoints.sol\":2622:2632  authorized */\n      dup1\n        /* \"contracts/ValoraPoints.sol\":2586:2605  authorizedContracts */\n      0x33\n        /* \"contracts/ValoraPoints.sol\":2586:2619  authorizedContracts[contractAddr] */\n      0x00\n        /* \"contracts/ValoraPoints.sol\":2606:2618  contractAddr */\n      dup5\n        /* \"contracts/ValoraPoints.sol\":2586:2619  authorizedContracts[contractAddr] */\n      0xffffffffffffffffffffffffffffffffffffffff\n      and\n      0xffffffffffffffffffffffffffffffffffffffff\n      and\n      dup2\n      mstore\n      0x20\n      add\n      swap1\n      dup2\n      mstore\n      0x20\n      add\n      0x00\n      keccak256\n      0x00\n        /* \"contracts/ValoraPoints.sol\":2586:2632  authorizedContracts[contractAddr] = authorized */\n      0x0100\n      exp\n      dup2\n      sload\n      dup2\n      0xff\n      mul\n      not\n      and\n      swap1\n      dup4\n      iszero\n      iszero\n      mul\n      or\n      swap1\n      sstore\n      pop\n        /* \"contracts/ValoraPoints.sol\":2666:2678  contractAddr */\n      dup2\n        /* \"contracts/ValoraPoints.sol\":2647:2691  ContractAuthorized(contractAddr, authorized) */\n      0xffffffffffffffffffffffffffffffffffffffff\n      and\n      0x3213ab8ec2ed122402f038736b41878b69ae9f61f49a7edd0666bce891d29fc9\n        /* \"contracts/ValoraPoints.sol\":2680:2690  authorized */\n      dup3\n        /* \"contracts/ValoraPoints.sol\":2647:2691  ContractAuthorized(contractAddr, authorized) */\n      mload(0x40)\n      tag_242\n      swap2\n      swap1\n      tag_84\n      jump\t// in\n    tag_242:\n      mload(0x40)\n      dup1\n      swap2\n      sub\n      swap1\n      log2\n        /* \"contracts/ValoraPoints.sol\":2484:2698  function setContractAuthorization(address contractAddr, bool authorized) external onlyOwner {... */\n      pop\n      pop\n      jump\t// out\n        /* \"contracts/ValoraPoints.sol\":4547:4851  function _addPoints(address user, uint256 amount, string memory category) private {... */\n    tag_125:\n        /* \"contracts/ValoraPoints.sol\":4671:4677  amount */\n      dup2\n        /* \"contracts/ValoraPoints.sol\":4639:4649  userPoints */\n      0x32\n        /* \"contracts/ValoraPoints.sol\":4639:4655  userPoints[user] */\n      0x00\n        /* \"contracts/ValoraPoints.sol\":4650:4654  user */\n      dup6\n        /* \"contracts/ValoraPoints.sol\":4639:4655  userPoints[user] */\n      0xffffffffffffffffffffffffffffffffffffffff\n      and\n      0xffffffffffffffffffffffffffffffffffffffff\n      and\n      dup2\n      mstore\n      0x20\n      add\n      swap1\n      dup2\n      mstore\n      0x20\n      add\n      0x00\n      keccak256\n        /* \"contracts/ValoraPoints.sol\":4639:4667  userPoints[user].totalPoints */\n      0x04\n      add\n      0x00\n        /* \"contracts/ValoraPoints.sol\":4639:4677  userPoints[user].totalPoints += amount */\n      dup3\n      dup3\n      sload\n      tag_244\n      swap2\n      swap1\n      tag_127\n      jump\t// in\n    tag_244:\n      swap3\n      pop\n      pop\n      dup2\n      swap1\n      sstore\n      pop\n        /* \"contracts/ValoraPoints.sol\":4713:4719  amount */\n      dup2\n        /* \"contracts/ValoraPoints.sol\":4687:4709  totalPointsDistributed */\n      0x39\n      0x00\n        /* \"contracts/ValoraPoints.sol\":4687:4719  totalPointsDistributed += amount */\n      dup3\n      dup3\n      sload\n      tag_245\n      swap2\n      swap1\n      tag_127\n      jump\t// in\n    tag_245:\n      swap3\n      pop\n      pop\n      dup2\n      swap1\n      sstore\n      pop\n        /* \"contracts/ValoraPoints.sol\":4763:4771  category */\n      dup1\n        /* \"contracts/ValoraPoints.sol\":4743:4780  PointsAwarded(user, category, amount) */\n      mload(0x40)\n      tag_246\n      swap2\n      swap1\n      tag_247\n      jump\t// in\n    tag_246:\n      mload(0x40)\n      dup1\n      swap2\n      sub\n      swap1\n      keccak256\n        /* \"contracts/ValoraPoints.sol\":4757:4761  user */\n      dup4\n        /* \"contracts/ValoraPoints.sol\":4743:4780  PointsAwarded(user, category, amount) */\n      0xffffffffffffffffffffffffffffffffffffffff\n      and\n      0xc8f1a243d5ba826edbefb066c3161d90b1f93b4e2d74d705e8b784caffcb5d37\n        /* \"contracts/ValoraPoints.sol\":4773:4779  amount */\n      dup5\n        /* \"contracts/ValoraPoints.sol\":4743:4780  PointsAwarded(user, category, amount) */\n      mload(0x40)\n      tag_248\n      swap2\n      swap1\n      tag_38\n      jump\t// in\n    tag_248:\n      mload(0x40)\n      dup1\n      swap2\n      sub\n      swap1\n      log3\n        /* \"contracts/ValoraPoints.sol\":4809:4813  user */\n      dup3\n        /* \"contracts/ValoraPoints.sol\":4795:4844  PointsUpdated(user, userPoints[user].totalPoints) */\n      0xffffffffffffffffffffffffffffffffffffffff\n      and\n      0xa05f39e6d8d4e060324edb900f0f5909de621fd93f19ccf65ba74e5965c98c36\n        /* \"contracts/ValoraPoints.sol\":4815:4825  userPoints */\n      0x32\n        /* \"contracts/ValoraPoints.sol\":4815:4831  userPoints[user] */\n      0x00\n        /* \"contracts/ValoraPoints.sol\":4826:4830  user */\n      dup7\n        /* \"contracts/ValoraPoints.sol\":4815:4831  userPoints[user] */\n      0xffffffffffffffffffffffffffffffffffffffff\n      and\n      0xffffffffffffffffffffffffffffffffffffffff\n      and\n      dup2\n      mstore\n      0x20\n      add\n      swap1\n      dup2\n      mstore\n      0x20\n      add\n      0x00\n      keccak256\n        /* \"contracts/ValoraPoints.sol\":4815:4843  userPoints[user].totalPoints */\n      0x04\n      add\n      sload\n        /* \"contracts/ValoraPoints.sol\":4795:4844  PointsUpdated(user, userPoints[user].totalPoints) */\n      mload(0x40)\n      tag_249\n      swap2\n      swap1\n      tag_38\n      jump\t// in\n    tag_249:\n      mload(0x40)\n      dup1\n      swap2\n      sub\n      swap1\n      log2\n        /* \"contracts/ValoraPoints.sol\":4547:4851  function _addPoints(address user, uint256 amount, string memory category) private {... */\n      pop\n      pop\n      pop\n      jump\t// out\n        /* \"@openzeppelin/contracts-upgradeable/access/OwnableUpgradeable.sol\":2658:2820  function _checkOwner() internal view virtual {... */\n    tag_150:\n        /* \"@openzeppelin/contracts-upgradeable/access/OwnableUpgradeable.sol\":2728:2740  _msgSender() */\n      tag_251\n        /* \"@openzeppelin/contracts-upgradeable/access/OwnableUpgradeable.sol\":2728:2738  _msgSender */\n      tag_252\n        /* \"@openzeppelin/contracts-upgradeable/access/OwnableUpgradeable.sol\":2728:2740  _msgSender() */\n      jump\t// in\n    tag_251:\n        /* \"@openzeppelin/contracts-upgradeable/access/OwnableUpgradeable.sol\":2717:2740  owner() != _msgSender() */\n      0xffffffffffffffffffffffffffffffffffffffff\n      and\n        /* \"@openzeppelin/contracts-upgradeable/access/OwnableUpgradeable.sol\":2717:2724  owner() */\n      tag_253\n        /* \"@openzeppelin/contracts-upgradeable/access/OwnableUpgradeable.sol\":2717:2722  owner */\n      tag_66\n        /* \"@openzeppelin/contracts-upgradeable/access/OwnableUpgradeable.sol\":2717:2724  owner() */\n      jump\t// in\n    tag_253:\n        /* \"@openzeppelin/contracts-upgradeable/access/OwnableUpgradeable.sol\":2717:2740  owner() != _msgSender() */\n      0xffffffffffffffffffffffffffffffffffffffff\n      and\n      eq\n        /* \"@openzeppelin/contracts-upgradeable/access/OwnableUpgradeable.sol\":2713:2814  if (owner() != _msgSender()) {... */\n      tag_254\n      jumpi\n        /* \"@openzeppelin/contracts-upgradeable/access/OwnableUpgradeable.sol\":2790:2802  _msgSender() */\n      tag_255\n        /* \"@openzeppelin/contracts-upgradeable/access/OwnableUpgradeable.sol\":2790:2800  _msgSender */\n      tag_252\n        /* \"@openzeppelin/contracts-upgradeable/access/OwnableUpgradeable.sol\":2790:2802  _msgSender() */\n      jump\t// in\n    tag_255:\n        /* \"@openzeppelin/contracts-upgradeable/access/OwnableUpgradeable.sol\":2763:2803  OwnableUnauthorizedAccount(_msgSender()) */\n      mload(0x40)\n      0x118cdaa700000000000000000000000000000000000000000000000000000000\n      dup2\n      mstore\n      0x04\n      add\n      tag_256\n      swap2\n      swap1\n      tag_68\n      jump\t// in\n    tag_256:\n      mload(0x40)\n      dup1\n      swap2\n      sub\n      swap1\n      revert\n        /* \"@openzeppelin/contracts-upgradeable/access/OwnableUpgradeable.sol\":2713:2814  if (owner() != _msgSender()) {... */\n    tag_254:\n        /* \"@openzeppelin/contracts-upgradeable/access/OwnableUpgradeable.sol\":2658:2820  function _checkOwner() internal view virtual {... */\n      jump\t// out\n        /* \"@openzeppelin/contracts-upgradeable/access/OwnableUpgradeable.sol\":3774:4022  function _transferOwnership(address newOwner) internal virtual {... */\n    tag_160:\n        /* \"@openzeppelin/contracts-upgradeable/access/OwnableUpgradeable.sol\":3847:3871  OwnableStorage storage $ */\n      0x00\n        /* \"@openzeppelin/contracts-upgradeable/access/OwnableUpgradeable.sol\":3874:3894  _getOwnableStorage() */\n      tag_258\n        /* \"@openzeppelin/contracts-upgradeable/access/OwnableUpgradeable.sol\":3874:3892  _getOwnableStorage */\n      tag_203\n        /* \"@openzeppelin/contracts-upgradeable/access/OwnableUpgradeable.sol\":3874:3894  _getOwnableStorage() */\n      jump\t// in\n    tag_258:\n        /* \"@openzeppelin/contracts-upgradeable/access/OwnableUpgradeable.sol\":3847:3894  OwnableStorage storage $ = _getOwnableStorage() */\n      swap1\n      pop\n        /* \"@openzeppelin/contracts-upgradeable/access/OwnableUpgradeable.sol\":3904:3920  address oldOwner */\n      0x00\n        /* \"@openzeppelin/contracts-upgradeable/access/OwnableUpgradeable.sol\":3923:3924  $ */\n      dup2\n        /* \"@openzeppelin/contracts-upgradeable/access/OwnableUpgradeable.sol\":3923:3931  $._owner */\n      0x00\n      add\n      0x00\n      swap1\n      sload\n      swap1\n      0x0100\n      exp\n      swap1\n      div\n      0xffffffffffffffffffffffffffffffffffffffff\n      and\n        /* \"@openzeppelin/contracts-upgradeable/access/OwnableUpgradeable.sol\":3904:3931  address oldOwner = $._owner */\n      swap1\n      pop\n        /* \"@openzeppelin/contracts-upgradeable/access/OwnableUpgradeable.sol\":3952:3960  newOwner */\n      dup3\n        /* \"@openzeppelin/contracts-upgradeable/access/OwnableUpgradeable.sol\":3941:3942  $ */\n      dup3\n        /* \"@openzeppelin/contracts-upgradeable/access/OwnableUpgradeable.sol\":3941:3949  $._owner */\n      0x00\n      add\n      0x00\n        /* \"@openzeppelin/contracts-upgradeable/access/OwnableUpgradeable.sol\":3941:3960  $._owner = newOwner */\n      0x0100\n      exp\n      dup2\n      sload\n      dup2\n      0xffffffffffffffffffffffffffffffffffffffff\n      mul\n      not\n      and\n      swap1\n      dup4\n      0xffffffffffffffffffffffffffffffffffffffff\n      and\n      mul\n      or\n      swap1\n      sstore\n      pop\n        /* \"@openzeppelin/contracts-upgradeable/access/OwnableUpgradeable.sol\":4006:4014  newOwner */\n      dup3\n        /* \"@openzeppelin/contracts-upgradeable/access/OwnableUpgradeable.sol\":3975:4015  OwnershipTransferred(oldOwner, newOwner) */\n      0xffffffffffffffffffffffffffffffffffffffff\n      and\n        /* \"@openzeppelin/contracts-upgradeable/access/OwnableUpgradeable.sol\":3996:4004  oldOwner */\n      dup2\n        /* \"@openzeppelin/contracts-upgradeable/access/OwnableUpgradeable.sol\":3975:4015  OwnershipTransferred(oldOwner, newOwner) */\n      0xffffffffffffffffffffffffffffffffffffffff\n      and\n      0x8be0079c531659141344cd1fd0a4f28419497f9722a3daafe3b4186f6b6457e0\n      mload(0x40)\n      mload(0x40)\n      dup1\n      swap2\n      sub\n      swap1\n      log3\n        /* \"@openzeppelin/contracts-upgradeable/access/OwnableUpgradeable.sol\":3837:4022  {... */\n      pop\n      pop\n        /* \"@openzeppelin/contracts-upgradeable/access/OwnableUpgradeable.sol\":3774:4022  function _transferOwnership(address newOwner) internal virtual {... */\n      pop\n      jump\t// out\n        /* \"@openzeppelin/contracts-upgradeable/proxy/utils/Initializable.sol\":9071:9276  function _getInitializableStorage() private pure returns (InitializableStorage storage $) {... */\n    tag_187:\n        /* \"@openzeppelin/contracts-upgradeable/proxy/utils/Initializable.sol\":9129:9159  InitializableStorage storage $ */\n      0x00\n        /* \"@openzeppelin/contracts-upgradeable/proxy/utils/Initializable.sol\":9171:9183  bytes32 slot */\n      0x00\n        /* \"@openzeppelin/contracts-upgradeable/proxy/utils/Initializable.sol\":9186:9213  _initializableStorageSlot() */\n      tag_260\n        /* \"@openzeppelin/contracts-upgradeable/proxy/utils/Initializable.sol\":9186:9211  _initializableStorageSlot */\n      tag_261\n        /* \"@openzeppelin/contracts-upgradeable/proxy/utils/Initializable.sol\":9186:9213  _initializableStorageSlot() */\n      jump\t// in\n    tag_260:\n        /* \"@openzeppelin/contracts-upgradeable/proxy/utils/Initializable.sol\":9171:9213  bytes32 slot = _initializableStorageSlot() */\n      swap1\n      pop\n        /* \"@openzeppelin/contracts-upgradeable/proxy/utils/Initializable.sol\":9256:9260  slot */\n      dup1\n        /* \"@openzeppelin/contracts-upgradeable/proxy/utils/Initializable.sol\":9246:9260  $.slot := slot */\n      swap2\n      pop\n        /* \"@openzeppelin/contracts-upgradeable/proxy/utils/Initializable.sol\":9232:9270  {... */\n      pop\n        /* \"@openzeppelin/contracts-upgradeable/proxy/utils/Initializable.sol\":9071:9276  function _getInitializableStorage() private pure returns (InitializableStorage storage $) {... */\n      swap1\n      jump\t// out\n        /* \"@openzeppelin/contracts-upgradeable/access/OwnableUpgradeable.sol\":1847:1974  function __Ownable_init(address initialOwner) internal onlyInitializing {... */\n    tag_195:\n        /* \"@openzeppelin/contracts-upgradeable/proxy/utils/Initializable.sol\":6929:6949  _checkInitializing() */\n      tag_263\n        /* \"@openzeppelin/contracts-upgradeable/proxy/utils/Initializable.sol\":6929:6947  _checkInitializing */\n      tag_264\n        /* \"@openzeppelin/contracts-upgradeable/proxy/utils/Initializable.sol\":6929:6949  _checkInitializing() */\n      jump\t// in\n    tag_263:\n        /* \"@openzeppelin/contracts-upgradeable/access/OwnableUpgradeable.sol\":1929:1967  __Ownable_init_unchained(initialOwner) */\n      tag_266\n        /* \"@openzeppelin/contracts-upgradeable/access/OwnableUpgradeable.sol\":1954:1966  initialOwner */\n      dup2\n        /* \"@openzeppelin/contracts-upgradeable/access/OwnableUpgradeable.sol\":1929:1953  __Ownable_init_unchained */\n      tag_267\n        /* \"@openzeppelin/contracts-upgradeable/access/OwnableUpgradeable.sol\":1929:1967  __Ownable_init_unchained(initialOwner) */\n      jump\t// in\n    tag_266:\n        /* \"@openzeppelin/contracts-upgradeable/access/OwnableUpgradeable.sol\":1847:1974  function __Ownable_init(address initialOwner) internal onlyInitializing {... */\n      pop\n      jump\t// out\n        /* \"@openzeppelin/contracts-upgradeable/security/ReentrancyGuardUpgradeable.sol\":1889:2000  function __ReentrancyGuard_init() internal onlyInitializing {... */\n    tag_197:\n        /* \"@openzeppelin/contracts-upgradeable/proxy/utils/Initializable.sol\":6929:6949  _checkInitializing() */\n      tag_269\n        /* \"@openzeppelin/contracts-upgradeable/proxy/utils/Initializable.sol\":6929:6947  _checkInitializing */\n      tag_264\n        /* \"@openzeppelin/contracts-upgradeable/proxy/utils/Initializable.sol\":6929:6949  _checkInitializing() */\n      jump\t// in\n    tag_269:\n        /* \"@openzeppelin/contracts-upgradeable/security/ReentrancyGuardUpgradeable.sol\":1959:1993  __ReentrancyGuard_init_unchained() */\n      tag_271\n        /* \"@openzeppelin/contracts-upgradeable/security/ReentrancyGuardUpgradeable.sol\":1959:1991  __ReentrancyGuard_init_unchained */\n      tag_272\n        /* \"@openzeppelin/contracts-upgradeable/security/ReentrancyGuardUpgradeable.sol\":1959:1993  __ReentrancyGuard_init_unchained() */\n      jump\t// in\n    tag_271:\n        /* \"@openzeppelin/contracts-upgradeable/security/ReentrancyGuardUpgradeable.sol\":1889:2000  function __ReentrancyGuard_init() internal onlyInitializing {... */\n      jump\t// out\n        /* \"@openzeppelin/contracts-upgradeable/access/OwnableUpgradeable.sol\":1192:1351  function _getOwnableStorage() private pure returns (OwnableStorage storage $) {... */\n    tag_203:\n        /* \"@openzeppelin/contracts-upgradeable/access/OwnableUpgradeable.sol\":1244:1268  OwnableStorage storage $ */\n      0x00\n        /* \"@openzeppelin/contracts-upgradeable/access/OwnableUpgradeable.sol\":1313:1335  OwnableStorageLocation */\n      0x9016d09d72d40fdae2fd8ceac6b6234c7706214fd39c1cd1e609a0528c199300\n        /* \"@openzeppelin/contracts-upgradeable/access/OwnableUpgradeable.sol\":1303:1335  $.slot := OwnableStorageLocation */\n      swap1\n      pop\n        /* \"@openzeppelin/contracts-upgradeable/access/OwnableUpgradeable.sol\":1192:1351  function _getOwnableStorage() private pure returns (OwnableStorage storage $) {... */\n      swap1\n      jump\t// out\n        /* \"@openzeppelin/contracts-upgradeable/utils/ContextUpgradeable.sol\":887:983  function _msgSender() internal view virtual returns (address) {... */\n    tag_252:\n        /* \"@openzeppelin/contracts-upgradeable/utils/ContextUpgradeable.sol\":940:947  address */\n      0x00\n        /* \"@openzeppelin/contracts-upgradeable/utils/ContextUpgradeable.sol\":966:976  msg.sender */\n      caller\n        /* \"@openzeppelin/contracts-upgradeable/utils/ContextUpgradeable.sol\":959:976  return msg.sender */\n      swap1\n      pop\n        /* \"@openzeppelin/contracts-upgradeable/utils/ContextUpgradeable.sol\":887:983  function _msgSender() internal view virtual returns (address) {... */\n      swap1\n      jump\t// out\n        /* \"@openzeppelin/contracts-upgradeable/proxy/utils/Initializable.sol\":8819:8941  function _initializableStorageSlot() internal pure virtual returns (bytes32) {... */\n    tag_261:\n        /* \"@openzeppelin/contracts-upgradeable/proxy/utils/Initializable.sol\":8887:8894  bytes32 */\n      0x00\n        /* \"@openzeppelin/contracts-upgradeable/proxy/utils/Initializable.sol\":3147:3213  0xf0c57e16840df040f15088dc2f81fe391c3923bec73e23a9662efc9c229c6a00 */\n      0xf0c57e16840df040f15088dc2f81fe391c3923bec73e23a9662efc9c229c6a00\n        /* \"@openzeppelin/contracts-upgradeable/proxy/utils/Initializable.sol\":8913:8934  INITIALIZABLE_STORAGE */\n      0x00\n      shl\n        /* \"@openzeppelin/contracts-upgradeable/proxy/utils/Initializable.sol\":8906:8934  return INITIALIZABLE_STORAGE */\n      swap1\n      pop\n        /* \"@openzeppelin/contracts-upgradeable/proxy/utils/Initializable.sol\":8819:8941  function _initializableStorageSlot() internal pure virtual returns (bytes32) {... */\n      swap1\n      jump\t// out\n        /* \"@openzeppelin/contracts-upgradeable/proxy/utils/Initializable.sol\":7082:7223  function _checkInitializing() internal view virtual {... */\n    tag_264:\n        /* \"@openzeppelin/contracts-upgradeable/proxy/utils/Initializable.sol\":7149:7166  _isInitializing() */\n      tag_277\n        /* \"@openzeppelin/contracts-upgradeable/proxy/utils/Initializable.sol\":7149:7164  _isInitializing */\n      tag_278\n        /* \"@openzeppelin/contracts-upgradeable/proxy/utils/Initializable.sol\":7149:7166  _isInitializing() */\n      jump\t// in\n    tag_277:\n        /* \"@openzeppelin/contracts-upgradeable/proxy/utils/Initializable.sol\":7144:7217  if (!_isInitializing()) {... */\n      tag_279\n      jumpi\n        /* \"@openzeppelin/contracts-upgradeable/proxy/utils/Initializable.sol\":7189:7206  NotInitializing() */\n      mload(0x40)\n      0xd7e6bcf800000000000000000000000000000000000000000000000000000000\n      dup2\n      mstore\n      0x04\n      add\n      mload(0x40)\n      dup1\n      swap2\n      sub\n      swap1\n      revert\n        /* \"@openzeppelin/contracts-upgradeable/proxy/utils/Initializable.sol\":7144:7217  if (!_isInitializing()) {... */\n    tag_279:\n        /* \"@openzeppelin/contracts-upgradeable/proxy/utils/Initializable.sol\":7082:7223  function _checkInitializing() internal view virtual {... */\n      jump\t// out\n        /* \"@openzeppelin/contracts-upgradeable/access/OwnableUpgradeable.sol\":1980:2215  function __Ownable_init_unchained(address initialOwner) internal onlyInitializing {... */\n    tag_267:\n        /* \"@openzeppelin/contracts-upgradeable/proxy/utils/Initializable.sol\":6929:6949  _checkInitializing() */\n      tag_281\n        /* \"@openzeppelin/contracts-upgradeable/proxy/utils/Initializable.sol\":6929:6947  _checkInitializing */\n      tag_264\n        /* \"@openzeppelin/contracts-upgradeable/proxy/utils/Initializable.sol\":6929:6949  _checkInitializing() */\n      jump\t// in\n    tag_281:\n        /* \"@openzeppelin/contracts-upgradeable/access/OwnableUpgradeable.sol\":2100:2101  0 */\n      0x00\n        /* \"@openzeppelin/contracts-upgradeable/access/OwnableUpgradeable.sol\":2076:2102  initialOwner == address(0) */\n      0xffffffffffffffffffffffffffffffffffffffff\n      and\n        /* \"@openzeppelin/contracts-upgradeable/access/OwnableUpgradeable.sol\":2076:2088  initialOwner */\n      dup2\n        /* \"@openzeppelin/contracts-upgradeable/access/OwnableUpgradeable.sol\":2076:2102  initialOwner == address(0) */\n      0xffffffffffffffffffffffffffffffffffffffff\n      and\n      sub\n        /* \"@openzeppelin/contracts-upgradeable/access/OwnableUpgradeable.sol\":2072:2167  if (initialOwner == address(0)) {... */\n      tag_283\n      jumpi\n        /* \"@openzeppelin/contracts-upgradeable/access/OwnableUpgradeable.sol\":2153:2154  0 */\n      0x00\n        /* \"@openzeppelin/contracts-upgradeable/access/OwnableUpgradeable.sol\":2125:2156  OwnableInvalidOwner(address(0)) */\n      mload(0x40)\n      0x1e4fbdf700000000000000000000000000000000000000000000000000000000\n      dup2\n      mstore\n      0x04\n      add\n      tag_284\n      swap2\n      swap1\n      tag_68\n      jump\t// in\n    tag_284:\n      mload(0x40)\n      dup1\n      swap2\n      sub\n      swap1\n      revert\n        /* \"@openzeppelin/contracts-upgradeable/access/OwnableUpgradeable.sol\":2072:2167  if (initialOwner == address(0)) {... */\n    tag_283:\n        /* \"@openzeppelin/contracts-upgradeable/access/OwnableUpgradeable.sol\":2176:2208  _transferOwnership(initialOwner) */\n      tag_285\n        /* \"@openzeppelin/contracts-upgradeable/access/OwnableUpgradeable.sol\":2195:2207  initialOwner */\n      dup2\n        /* \"@openzeppelin/contracts-upgradeable/access/OwnableUpgradeable.sol\":2176:2194  _transferOwnership */\n      tag_160\n        /* \"@openzeppelin/contracts-upgradeable/access/OwnableUpgradeable.sol\":2176:2208  _transferOwnership(initialOwner) */\n      jump\t// in\n    tag_285:\n        /* \"@openzeppelin/contracts-upgradeable/access/OwnableUpgradeable.sol\":1980:2215  function __Ownable_init_unchained(address initialOwner) internal onlyInitializing {... */\n      pop\n      jump\t// out\n        /* \"@openzeppelin/contracts-upgradeable/security/ReentrancyGuardUpgradeable.sol\":2006:2115  function __ReentrancyGuard_init_unchained() internal onlyInitializing {... */\n    tag_272:\n        /* \"@openzeppelin/contracts-upgradeable/proxy/utils/Initializable.sol\":6929:6949  _checkInitializing() */\n      tag_287\n        /* \"@openzeppelin/contracts-upgradeable/proxy/utils/Initializable.sol\":6929:6947  _checkInitializing */\n      tag_264\n        /* \"@openzeppelin/contracts-upgradeable/proxy/utils/Initializable.sol\":6929:6949  _checkInitializing() */\n      jump\t// in\n    tag_287:\n        /* \"@openzeppelin/contracts-upgradeable/security/ReentrancyGuardUpgradeable.sol\":1808:1809  1 */\n      0x01\n        /* \"@openzeppelin/contracts-upgradeable/security/ReentrancyGuardUpgradeable.sol\":2086:2093  _status */\n      0x00\n        /* \"@openzeppelin/contracts-upgradeable/security/ReentrancyGuardUpgradeable.sol\":2086:2108  _status = _NOT_ENTERED */\n      dup2\n      swap1\n      sstore\n      pop\n        /* \"@openzeppelin/contracts-upgradeable/security/ReentrancyGuardUpgradeable.sol\":2006:2115  function __ReentrancyGuard_init_unchained() internal onlyInitializing {... */\n      jump\t// out\n        /* \"@openzeppelin/contracts-upgradeable/proxy/utils/Initializable.sol\":8485:8605  function _isInitializing() internal view returns (bool) {... */\n    tag_278:\n        /* \"@openzeppelin/contracts-upgradeable/proxy/utils/Initializable.sol\":8535:8539  bool */\n      0x00\n        /* \"@openzeppelin/contracts-upgradeable/proxy/utils/Initializable.sol\":8558:8584  _getInitializableStorage() */\n      tag_290\n        /* \"@openzeppelin/contracts-upgradeable/proxy/utils/Initializable.sol\":8558:8582  _getInitializableStorage */\n      tag_187\n        /* \"@openzeppelin/contracts-upgradeable/proxy/utils/Initializable.sol\":8558:8584  _getInitializableStorage() */\n      jump\t// in\n    tag_290:\n        /* \"@openzeppelin/contracts-upgradeable/proxy/utils/Initializable.sol\":8558:8598  _getInitializableStorage()._initializing */\n      0x00\n      add\n      0x08\n      swap1\n      sload\n      swap1\n      0x0100\n      exp\n      swap1\n      div\n      0xff\n      and\n        /* \"@openzeppelin/contracts-upgradeable/proxy/utils/Initializable.sol\":8551:8598  return _getInitializableStorage()._initializing */\n      swap1\n      pop\n        /* \"@openzeppelin/contracts-upgradeable/proxy/utils/Initializable.sol\":8485:8605  function _isInitializing() internal view returns (bool) {... */\n      swap1\n      jump\t// out\n    tag_216:\n      mload(0x40)\n      dup1\n      0xc0\n      add\n      0x40\n      mstore\n      dup1\n      0x00\n      dup2\n      mstore\n      0x20\n      add\n      0x00\n      dup2\n      mstore\n      0x20\n      add\n      0x00\n      dup2\n      mstore\n      0x20\n      add\n      0x00\n      dup2\n      mstore\n      0x20\n      add\n      0x00\n      dup2\n      mstore\n      0x20\n      add\n      0x00\n      dup2\n      mstore\n      pop\n      swap1\n      jump\t// out\n        /* \"#utility.yul\":88:205   */\n    tag_292:\n        /* \"#utility.yul\":197:198   */\n      0x00\n        /* \"#utility.yul\":194:195   */\n      0x00\n        /* \"#utility.yul\":187:199   */\n      revert\n        /* \"#utility.yul\":211:328   */\n    tag_293:\n        /* \"#utility.yul\":320:321   */\n      0x00\n        /* \"#utility.yul\":317:318   */\n      0x00\n        /* \"#utility.yul\":310:322   */\n      revert\n        /* \"#utility.yul\":334:460   */\n    tag_294:\n        /* \"#utility.yul\":371:378   */\n      0x00\n        /* \"#utility.yul\":411:453   */\n      0xffffffffffffffffffffffffffffffffffffffff\n        /* \"#utility.yul\":404:409   */\n      dup3\n        /* \"#utility.yul\":400:454   */\n      and\n        /* \"#utility.yul\":389:454   */\n      swap1\n      pop\n        /* \"#utility.yul\":334:460   */\n      swap2\n      swap1\n      pop\n      jump\t// out\n        /* \"#utility.yul\":466:562   */\n    tag_295:\n        /* \"#utility.yul\":503:510   */\n      0x00\n        /* \"#utility.yul\":532:556   */\n      tag_358\n        /* \"#utility.yul\":550:555   */\n      dup3\n        /* \"#utility.yul\":532:556   */\n      tag_294\n      jump\t// in\n    tag_358:\n        /* \"#utility.yul\":521:556   */\n      swap1\n      pop\n        /* \"#utility.yul\":466:562   */\n      swap2\n      swap1\n      pop\n      jump\t// out\n        /* \"#utility.yul\":568:690   */\n    tag_296:\n        /* \"#utility.yul\":641:665   */\n      tag_360\n        /* \"#utility.yul\":659:664   */\n      dup2\n        /* \"#utility.yul\":641:665   */\n      tag_295\n      jump\t// in\n    tag_360:\n        /* \"#utility.yul\":634:639   */\n      dup2\n        /* \"#utility.yul\":631:666   */\n      eq\n        /* \"#utility.yul\":621:684   */\n      tag_361\n      jumpi\n        /* \"#utility.yul\":680:681   */\n      0x00\n        /* \"#utility.yul\":677:678   */\n      0x00\n        /* \"#utility.yul\":670:682   */\n      revert\n        /* \"#utility.yul\":621:684   */\n    tag_361:\n        /* \"#utility.yul\":568:690   */\n      pop\n      jump\t// out\n        /* \"#utility.yul\":696:835   */\n    tag_297:\n        /* \"#utility.yul\":742:747   */\n      0x00\n        /* \"#utility.yul\":780:786   */\n      dup2\n        /* \"#utility.yul\":767:787   */\n      calldataload\n        /* \"#utility.yul\":758:787   */\n      swap1\n      pop\n        /* \"#utility.yul\":796:829   */\n      tag_363\n        /* \"#utility.yul\":823:828   */\n      dup2\n        /* \"#utility.yul\":796:829   */\n      tag_296\n      jump\t// in\n    tag_363:\n        /* \"#utility.yul\":696:835   */\n      swap3\n      swap2\n      pop\n      pop\n      jump\t// out\n        /* \"#utility.yul\":841:918   */\n    tag_298:\n        /* \"#utility.yul\":878:885   */\n      0x00\n        /* \"#utility.yul\":907:912   */\n      dup2\n        /* \"#utility.yul\":896:912   */\n      swap1\n      pop\n        /* \"#utility.yul\":841:918   */\n      swap2\n      swap1\n      pop\n      jump\t// out\n        /* \"#utility.yul\":924:1046   */\n    tag_299:\n        /* \"#utility.yul\":997:1021   */\n      tag_366\n        /* \"#utility.yul\":1015:1020   */\n      dup2\n        /* \"#utility.yul\":997:1021   */\n      tag_298\n      jump\t// in\n    tag_366:\n        /* \"#utility.yul\":990:995   */\n      dup2\n        /* \"#utility.yul\":987:1022   */\n      eq\n        /* \"#utility.yul\":977:1040   */\n      tag_367\n      jumpi\n        /* \"#utility.yul\":1036:1037   */\n      0x00\n        /* \"#utility.yul\":1033:1034   */\n      0x00\n        /* \"#utility.yul\":1026:1038   */\n      revert\n        /* \"#utility.yul\":977:1040   */\n    tag_367:\n        /* \"#utility.yul\":924:1046   */\n      pop\n      jump\t// out\n        /* \"#utility.yul\":1052:1191   */\n    tag_300:\n        /* \"#utility.yul\":1098:1103   */\n      0x00\n        /* \"#utility.yul\":1136:1142   */\n      dup2\n        /* \"#utility.yul\":1123:1143   */\n      calldataload\n        /* \"#utility.yul\":1114:1143   */\n      swap1\n      pop\n        /* \"#utility.yul\":1152:1185   */\n      tag_369\n        /* \"#utility.yul\":1179:1184   */\n      dup2\n        /* \"#utility.yul\":1152:1185   */\n      tag_299\n      jump\t// in\n    tag_369:\n        /* \"#utility.yul\":1052:1191   */\n      swap3\n      swap2\n      pop\n      pop\n      jump\t// out\n        /* \"#utility.yul\":1197:1314   */\n    tag_301:\n        /* \"#utility.yul\":1306:1307   */\n      0x00\n        /* \"#utility.yul\":1303:1304   */\n      0x00\n        /* \"#utility.yul\":1296:1308   */\n      revert\n        /* \"#utility.yul\":1320:1437   */\n    tag_302:\n        /* \"#utility.yul\":1429:1430   */\n      0x00\n        /* \"#utility.yul\":1426:1427   */\n      0x00\n        /* \"#utility.yul\":1419:1431   */\n      revert\n        /* \"#utility.yul\":1443:1560   */\n    tag_303:\n        /* \"#utility.yul\":1552:1553   */\n      0x00\n        /* \"#utility.yul\":1549:1550   */\n      0x00\n        /* \"#utility.yul\":1542:1554   */\n      revert\n        /* \"#utility.yul\":1580:2133   */\n    tag_304:\n        /* \"#utility.yul\":1638:1646   */\n      0x00\n        /* \"#utility.yul\":1648:1654   */\n      0x00\n        /* \"#utility.yul\":1698:1701   */\n      dup4\n        /* \"#utility.yul\":1691:1695   */\n      0x1f\n        /* \"#utility.yul\":1683:1689   */\n      dup5\n        /* \"#utility.yul\":1679:1696   */\n      add\n        /* \"#utility.yul\":1675:1702   */\n      slt\n        /* \"#utility.yul\":1665:1787   */\n      tag_374\n      jumpi\n        /* \"#utility.yul\":1706:1785   */\n      tag_375\n      tag_301\n      jump\t// in\n    tag_375:\n        /* \"#utility.yul\":1665:1787   */\n    tag_374:\n        /* \"#utility.yul\":1819:1825   */\n      dup3\n        /* \"#utility.yul\":1806:1826   */\n      calldataload\n        /* \"#utility.yul\":1796:1826   */\n      swap1\n      pop\n        /* \"#utility.yul\":1849:1867   */\n      0xffffffffffffffff\n        /* \"#utility.yul\":1841:1847   */\n      dup2\n        /* \"#utility.yul\":1838:1868   */\n      gt\n        /* \"#utility.yul\":1835:1952   */\n      iszero\n      tag_376\n      jumpi\n        /* \"#utility.yul\":1871:1950   */\n      tag_377\n      tag_302\n      jump\t// in\n    tag_377:\n        /* \"#utility.yul\":1835:1952   */\n    tag_376:\n        /* \"#utility.yul\":1985:1989   */\n      0x20\n        /* \"#utility.yul\":1977:1983   */\n      dup4\n        /* \"#utility.yul\":1973:1990   */\n      add\n        /* \"#utility.yul\":1961:1990   */\n      swap2\n      pop\n        /* \"#utility.yul\":2039:2042   */\n      dup4\n        /* \"#utility.yul\":2031:2035   */\n      0x01\n        /* \"#utility.yul\":2023:2029   */\n      dup3\n        /* \"#utility.yul\":2019:2036   */\n      mul\n        /* \"#utility.yul\":2009:2017   */\n      dup4\n        /* \"#utility.yul\":2005:2037   */\n      add\n        /* \"#utility.yul\":2002:2043   */\n      gt\n        /* \"#utility.yul\":1999:2127   */\n      iszero\n      tag_378\n      jumpi\n        /* \"#utility.yul\":2046:2125   */\n      tag_379\n      tag_303\n      jump\t// in\n    tag_379:\n        /* \"#utility.yul\":1999:2127   */\n    tag_378:\n        /* \"#utility.yul\":1580:2133   */\n      swap3\n      pop\n      swap3\n      swap1\n      pop\n      jump\t// out\n        /* \"#utility.yul\":2139:2958   */\n    tag_27:\n        /* \"#utility.yul\":2228:2234   */\n      0x00\n        /* \"#utility.yul\":2236:2242   */\n      0x00\n        /* \"#utility.yul\":2244:2250   */\n      0x00\n        /* \"#utility.yul\":2252:2258   */\n      0x00\n        /* \"#utility.yul\":2301:2303   */\n      0x60\n        /* \"#utility.yul\":2289:2298   */\n      dup6\n        /* \"#utility.yul\":2280:2287   */\n      dup8\n        /* \"#utility.yul\":2276:2299   */\n      sub\n        /* \"#utility.yul\":2272:2304   */\n      slt\n        /* \"#utility.yul\":2269:2388   */\n      iszero\n      tag_381\n      jumpi\n        /* \"#utility.yul\":2307:2386   */\n      tag_382\n      tag_292\n      jump\t// in\n    tag_382:\n        /* \"#utility.yul\":2269:2388   */\n    tag_381:\n        /* \"#utility.yul\":2427:2428   */\n      0x00\n        /* \"#utility.yul\":2452:2505   */\n      tag_383\n        /* \"#utility.yul\":2497:2504   */\n      dup8\n        /* \"#utility.yul\":2488:2494   */\n      dup3\n        /* \"#utility.yul\":2477:2486   */\n      dup9\n        /* \"#utility.yul\":2473:2495   */\n      add\n        /* \"#utility.yul\":2452:2505   */\n      tag_297\n      jump\t// in\n    tag_383:\n        /* \"#utility.yul\":2442:2505   */\n      swap5\n      pop\n        /* \"#utility.yul\":2398:2515   */\n      pop\n        /* \"#utility.yul\":2554:2556   */\n      0x20\n        /* \"#utility.yul\":2580:2633   */\n      tag_384\n        /* \"#utility.yul\":2625:2632   */\n      dup8\n        /* \"#utility.yul\":2616:2622   */\n      dup3\n        /* \"#utility.yul\":2605:2614   */\n      dup9\n        /* \"#utility.yul\":2601:2623   */\n      add\n        /* \"#utility.yul\":2580:2633   */\n      tag_300\n      jump\t// in\n    tag_384:\n        /* \"#utility.yul\":2570:2633   */\n      swap4\n      pop\n        /* \"#utility.yul\":2525:2643   */\n      pop\n        /* \"#utility.yul\":2710:2712   */\n      0x40\n        /* \"#utility.yul\":2699:2708   */\n      dup6\n        /* \"#utility.yul\":2695:2713   */\n      add\n        /* \"#utility.yul\":2682:2714   */\n      calldataload\n        /* \"#utility.yul\":2741:2759   */\n      0xffffffffffffffff\n        /* \"#utility.yul\":2733:2739   */\n      dup2\n        /* \"#utility.yul\":2730:2760   */\n      gt\n        /* \"#utility.yul\":2727:2844   */\n      iszero\n      tag_385\n      jumpi\n        /* \"#utility.yul\":2763:2842   */\n      tag_386\n      tag_293\n      jump\t// in\n    tag_386:\n        /* \"#utility.yul\":2727:2844   */\n    tag_385:\n        /* \"#utility.yul\":2876:2941   */\n      tag_387\n        /* \"#utility.yul\":2933:2940   */\n      dup8\n        /* \"#utility.yul\":2924:2930   */\n      dup3\n        /* \"#utility.yul\":2913:2922   */\n      dup9\n        /* \"#utility.yul\":2909:2931   */\n      add\n        /* \"#utility.yul\":2876:2941   */\n      tag_304\n      jump\t// in\n    tag_387:\n        /* \"#utility.yul\":2858:2941   */\n      swap3\n      pop\n      swap3\n      pop\n        /* \"#utility.yul\":2653:2951   */\n      pop\n        /* \"#utility.yul\":2139:2958   */\n      swap3\n      swap6\n      swap2\n      swap5\n      pop\n      swap3\n      pop\n      jump\t// out\n        /* \"#utility.yul\":2964:3583   */\n    tag_31:\n        /* \"#utility.yul\":3041:3047   */\n      0x00\n        /* \"#utility.yul\":3049:3055   */\n      0x00\n        /* \"#utility.yul\":3057:3063   */\n      0x00\n        /* \"#utility.yul\":3106:3108   */\n      0x60\n        /* \"#utility.yul\":3094:3103   */\n      dup5\n        /* \"#utility.yul\":3085:3092   */\n      dup7\n        /* \"#utility.yul\":3081:3104   */\n      sub\n        /* \"#utility.yul\":3077:3109   */\n      slt\n        /* \"#utility.yul\":3074:3193   */\n      iszero\n      tag_389\n      jumpi\n        /* \"#utility.yul\":3112:3191   */\n      tag_390\n      tag_292\n      jump\t// in\n    tag_390:\n        /* \"#utility.yul\":3074:3193   */\n    tag_389:\n        /* \"#utility.yul\":3232:3233   */\n      0x00\n        /* \"#utility.yul\":3257:3310   */\n      tag_391\n        /* \"#utility.yul\":3302:3309   */\n      dup7\n        /* \"#utility.yul\":3293:3299   */\n      dup3\n        /* \"#utility.yul\":3282:3291   */\n      dup8\n        /* \"#utility.yul\":3278:3300   */\n      add\n        /* \"#utility.yul\":3257:3310   */\n      tag_297\n      jump\t// in\n    tag_391:\n        /* \"#utility.yul\":3247:3310   */\n      swap4\n      pop\n        /* \"#utility.yul\":3203:3320   */\n      pop\n        /* \"#utility.yul\":3359:3361   */\n      0x20\n        /* \"#utility.yul\":3385:3438   */\n      tag_392\n        /* \"#utility.yul\":3430:3437   */\n      dup7\n        /* \"#utility.yul\":3421:3427   */\n      dup3\n        /* \"#utility.yul\":3410:3419   */\n      dup8\n        /* \"#utility.yul\":3406:3428   */\n      add\n        /* \"#utility.yul\":3385:3438   */\n      tag_300\n      jump\t// in\n    tag_392:\n        /* \"#utility.yul\":3375:3438   */\n      swap3\n      pop\n        /* \"#utility.yul\":3330:3448   */\n      pop\n        /* \"#utility.yul\":3487:3489   */\n      0x40\n        /* \"#utility.yul\":3513:3566   */\n      tag_393\n        /* \"#utility.yul\":3558:3565   */\n      dup7\n        /* \"#utility.yul\":3549:3555   */\n      dup3\n        /* \"#utility.yul\":3538:3547   */\n      dup8\n        /* \"#utility.yul\":3534:3556   */\n      add\n        /* \"#utility.yul\":3513:3566   */\n      tag_300\n      jump\t// in\n    tag_393:\n        /* \"#utility.yul\":3503:3566   */\n      swap2\n      pop\n        /* \"#utility.yul\":3458:3576   */\n      pop\n        /* \"#utility.yul\":2964:3583   */\n      swap3\n      pop\n      swap3\n      pop\n      swap3\n      jump\t// out\n        /* \"#utility.yul\":3589:3918   */\n    tag_35:\n        /* \"#utility.yul\":3648:3654   */\n      0x00\n        /* \"#utility.yul\":3697:3699   */\n      0x20\n        /* \"#utility.yul\":3685:3694   */\n      dup3\n        /* \"#utility.yul\":3676:3683   */\n      dup5\n        /* \"#utility.yul\":3672:3695   */\n      sub\n        /* \"#utility.yul\":3668:3700   */\n      slt\n        /* \"#utility.yul\":3665:3784   */\n      iszero\n      tag_395\n      jumpi\n        /* \"#utility.yul\":3703:3782   */\n      tag_396\n      tag_292\n      jump\t// in\n    tag_396:\n        /* \"#utility.yul\":3665:3784   */\n    tag_395:\n        /* \"#utility.yul\":3823:3824   */\n      0x00\n        /* \"#utility.yul\":3848:3901   */\n      tag_397\n        /* \"#utility.yul\":3893:3900   */\n      dup5\n        /* \"#utility.yul\":3884:3890   */\n      dup3\n        /* \"#utility.yul\":3873:3882   */\n      dup6\n        /* \"#utility.yul\":3869:3891   */\n      add\n        /* \"#utility.yul\":3848:3901   */\n      tag_297\n      jump\t// in\n    tag_397:\n        /* \"#utility.yul\":3838:3901   */\n      swap2\n      pop\n        /* \"#utility.yul\":3794:3911   */\n      pop\n        /* \"#utility.yul\":3589:3918   */\n      swap3\n      swap2\n      pop\n      pop\n      jump\t// out\n        /* \"#utility.yul\":3924:4042   */\n    tag_305:\n        /* \"#utility.yul\":4011:4035   */\n      tag_399\n        /* \"#utility.yul\":4029:4034   */\n      dup2\n        /* \"#utility.yul\":4011:4035   */\n      tag_298\n      jump\t// in\n    tag_399:\n        /* \"#utility.yul\":4006:4009   */\n      dup3\n        /* \"#utility.yul\":3999:4036   */\n      mstore\n        /* \"#utility.yul\":3924:4042   */\n      pop\n      pop\n      jump\t// out\n        /* \"#utility.yul\":4048:4270   */\n    tag_38:\n        /* \"#utility.yul\":4141:4145   */\n      0x00\n        /* \"#utility.yul\":4179:4181   */\n      0x20\n        /* \"#utility.yul\":4168:4177   */\n      dup3\n        /* \"#utility.yul\":4164:4182   */\n      add\n        /* \"#utility.yul\":4156:4182   */\n      swap1\n      pop\n        /* \"#utility.yul\":4192:4263   */\n      tag_401\n        /* \"#utility.yul\":4260:4261   */\n      0x00\n        /* \"#utility.yul\":4249:4258   */\n      dup4\n        /* \"#utility.yul\":4245:4262   */\n      add\n        /* \"#utility.yul\":4236:4242   */\n      dup5\n        /* \"#utility.yul\":4192:4263   */\n      tag_305\n      jump\t// in\n    tag_401:\n        /* \"#utility.yul\":4048:4270   */\n      swap3\n      swap2\n      pop\n      pop\n      jump\t// out\n        /* \"#utility.yul\":4276:4940   */\n    tag_43:\n        /* \"#utility.yul\":4481:4485   */\n      0x00\n        /* \"#utility.yul\":4519:4522   */\n      0xa0\n        /* \"#utility.yul\":4508:4517   */\n      dup3\n        /* \"#utility.yul\":4504:4523   */\n      add\n        /* \"#utility.yul\":4496:4523   */\n      swap1\n      pop\n        /* \"#utility.yul\":4533:4604   */\n      tag_403\n        /* \"#utility.yul\":4601:4602   */\n      0x00\n        /* \"#utility.yul\":4590:4599   */\n      dup4\n        /* \"#utility.yul\":4586:4603   */\n      add\n        /* \"#utility.yul\":4577:4583   */\n      dup9\n        /* \"#utility.yul\":4533:4604   */\n      tag_305\n      jump\t// in\n    tag_403:\n        /* \"#utility.yul\":4614:4686   */\n      tag_404\n        /* \"#utility.yul\":4682:4684   */\n      0x20\n        /* \"#utility.yul\":4671:4680   */\n      dup4\n        /* \"#utility.yul\":4667:4685   */\n      add\n        /* \"#utility.yul\":4658:4664   */\n      dup8\n        /* \"#utility.yul\":4614:4686   */\n      tag_305\n      jump\t// in\n    tag_404:\n        /* \"#utility.yul\":4696:4768   */\n      tag_405\n        /* \"#utility.yul\":4764:4766   */\n      0x40\n        /* \"#utility.yul\":4753:4762   */\n      dup4\n        /* \"#utility.yul\":4749:4767   */\n      add\n        /* \"#utility.yul\":4740:4746   */\n      dup7\n        /* \"#utility.yul\":4696:4768   */\n      tag_305\n      jump\t// in\n    tag_405:\n        /* \"#utility.yul\":4778:4850   */\n      tag_406\n        /* \"#utility.yul\":4846:4848   */\n      0x60\n        /* \"#utility.yul\":4835:4844   */\n      dup4\n        /* \"#utility.yul\":4831:4849   */\n      add\n        /* \"#utility.yul\":4822:4828   */\n      dup6\n        /* \"#utility.yul\":4778:4850   */\n      tag_305\n      jump\t// in\n    tag_406:\n        /* \"#utility.yul\":4860:4933   */\n      tag_407\n        /* \"#utility.yul\":4928:4931   */\n      0x80\n        /* \"#utility.yul\":4917:4926   */\n      dup4\n        /* \"#utility.yul\":4913:4932   */\n      add\n        /* \"#utility.yul\":4904:4910   */\n      dup5\n        /* \"#utility.yul\":4860:4933   */\n      tag_305\n      jump\t// in\n    tag_407:\n        /* \"#utility.yul\":4276:4940   */\n      swap7\n      swap6\n      pop\n      pop\n      pop\n      pop\n      pop\n      pop\n      jump\t// out\n        /* \"#utility.yul\":4946:5063   */\n    tag_306:\n        /* \"#utility.yul\":5055:5056   */\n      0x00\n        /* \"#utility.yul\":5052:5053   */\n      0x00\n        /* \"#utility.yul\":5045:5057   */\n      revert\n        /* \"#utility.yul\":5109:5345   */\n    tag_307:\n        /* \"#utility.yul\":5186:5191   */\n      0x00\n        /* \"#utility.yul\":5227:5230   */\n      0xa0\n        /* \"#utility.yul\":5218:5224   */\n      dup3\n        /* \"#utility.yul\":5213:5216   */\n      dup5\n        /* \"#utility.yul\":5209:5225   */\n      sub\n        /* \"#utility.yul\":5205:5231   */\n      slt\n        /* \"#utility.yul\":5202:5315   */\n      iszero\n      tag_410\n      jumpi\n        /* \"#utility.yul\":5234:5313   */\n      tag_411\n      tag_306\n      jump\t// in\n    tag_411:\n        /* \"#utility.yul\":5202:5315   */\n    tag_410:\n        /* \"#utility.yul\":5333:5339   */\n      dup2\n        /* \"#utility.yul\":5324:5339   */\n      swap1\n      pop\n        /* \"#utility.yul\":5109:5345   */\n      swap3\n      swap2\n      pop\n      pop\n      jump\t// out\n        /* \"#utility.yul\":5351:5743   */\n    tag_49:\n        /* \"#utility.yul\":5441:5447   */\n      0x00\n        /* \"#utility.yul\":5490:5493   */\n      0xa0\n        /* \"#utility.yul\":5478:5487   */\n      dup3\n        /* \"#utility.yul\":5469:5476   */\n      dup5\n        /* \"#utility.yul\":5465:5488   */\n      sub\n        /* \"#utility.yul\":5461:5494   */\n      slt\n        /* \"#utility.yul\":5458:5578   */\n      iszero\n      tag_413\n      jumpi\n        /* \"#utility.yul\":5497:5576   */\n      tag_414\n      tag_292\n      jump\t// in\n    tag_414:\n        /* \"#utility.yul\":5458:5578   */\n    tag_413:\n        /* \"#utility.yul\":5617:5618   */\n      0x00\n        /* \"#utility.yul\":5642:5726   */\n      tag_415\n        /* \"#utility.yul\":5718:5725   */\n      dup5\n        /* \"#utility.yul\":5709:5715   */\n      dup3\n        /* \"#utility.yul\":5698:5707   */\n      dup6\n        /* \"#utility.yul\":5694:5716   */\n      add\n        /* \"#utility.yul\":5642:5726   */\n      tag_307\n      jump\t// in\n    tag_415:\n        /* \"#utility.yul\":5632:5726   */\n      swap2\n      pop\n        /* \"#utility.yul\":5588:5736   */\n      pop\n        /* \"#utility.yul\":5351:5743   */\n      swap3\n      swap2\n      pop\n      pop\n      jump\t// out\n        /* \"#utility.yul\":5766:6334   */\n    tag_308:\n        /* \"#utility.yul\":5839:5847   */\n      0x00\n        /* \"#utility.yul\":5849:5855   */\n      0x00\n        /* \"#utility.yul\":5899:5902   */\n      dup4\n        /* \"#utility.yul\":5892:5896   */\n      0x1f\n        /* \"#utility.yul\":5884:5890   */\n      dup5\n        /* \"#utility.yul\":5880:5897   */\n      add\n        /* \"#utility.yul\":5876:5903   */\n      slt\n        /* \"#utility.yul\":5866:5988   */\n      tag_417\n      jumpi\n        /* \"#utility.yul\":5907:5986   */\n      tag_418\n      tag_301\n      jump\t// in\n    tag_418:\n        /* \"#utility.yul\":5866:5988   */\n    tag_417:\n        /* \"#utility.yul\":6020:6026   */\n      dup3\n        /* \"#utility.yul\":6007:6027   */\n      calldataload\n        /* \"#utility.yul\":5997:6027   */\n      swap1\n      pop\n        /* \"#utility.yul\":6050:6068   */\n      0xffffffffffffffff\n        /* \"#utility.yul\":6042:6048   */\n      dup2\n        /* \"#utility.yul\":6039:6069   */\n      gt\n        /* \"#utility.yul\":6036:6153   */\n      iszero\n      tag_419\n      jumpi\n        /* \"#utility.yul\":6072:6151   */\n      tag_420\n      tag_302\n      jump\t// in\n    tag_420:\n        /* \"#utility.yul\":6036:6153   */\n    tag_419:\n        /* \"#utility.yul\":6186:6190   */\n      0x20\n        /* \"#utility.yul\":6178:6184   */\n      dup4\n        /* \"#utility.yul\":6174:6191   */\n      add\n        /* \"#utility.yul\":6162:6191   */\n      swap2\n      pop\n        /* \"#utility.yul\":6240:6243   */\n      dup4\n        /* \"#utility.yul\":6232:6236   */\n      0x20\n        /* \"#utility.yul\":6224:6230   */\n      dup3\n        /* \"#utility.yul\":6220:6237   */\n      mul\n        /* \"#utility.yul\":6210:6218   */\n      dup4\n        /* \"#utility.yul\":6206:6238   */\n      add\n        /* \"#utility.yul\":6203:6244   */\n      gt\n        /* \"#utility.yul\":6200:6328   */\n      iszero\n      tag_421\n      jumpi\n        /* \"#utility.yul\":6247:6326   */\n      tag_422\n      tag_303\n      jump\t// in\n    tag_422:\n        /* \"#utility.yul\":6200:6328   */\n    tag_421:\n        /* \"#utility.yul\":5766:6334   */\n      swap3\n      pop\n      swap3\n      swap1\n      pop\n      jump\t// out\n        /* \"#utility.yul\":6357:6925   */\n    tag_309:\n        /* \"#utility.yul\":6430:6438   */\n      0x00\n        /* \"#utility.yul\":6440:6446   */\n      0x00\n        /* \"#utility.yul\":6490:6493   */\n      dup4\n        /* \"#utility.yul\":6483:6487   */\n      0x1f\n        /* \"#utility.yul\":6475:6481   */\n      dup5\n        /* \"#utility.yul\":6471:6488   */\n      add\n        /* \"#utility.yul\":6467:6494   */\n      slt\n        /* \"#utility.yul\":6457:6579   */\n      tag_424\n      jumpi\n        /* \"#utility.yul\":6498:6577   */\n      tag_425\n      tag_301\n      jump\t// in\n    tag_425:\n        /* \"#utility.yul\":6457:6579   */\n    tag_424:\n        /* \"#utility.yul\":6611:6617   */\n      dup3\n        /* \"#utility.yul\":6598:6618   */\n      calldataload\n        /* \"#utility.yul\":6588:6618   */\n      swap1\n      pop\n        /* \"#utility.yul\":6641:6659   */\n      0xffffffffffffffff\n        /* \"#utility.yul\":6633:6639   */\n      dup2\n        /* \"#utility.yul\":6630:6660   */\n      gt\n        /* \"#utility.yul\":6627:6744   */\n      iszero\n      tag_426\n      jumpi\n        /* \"#utility.yul\":6663:6742   */\n      tag_427\n      tag_302\n      jump\t// in\n    tag_427:\n        /* \"#utility.yul\":6627:6744   */\n    tag_426:\n        /* \"#utility.yul\":6777:6781   */\n      0x20\n        /* \"#utility.yul\":6769:6775   */\n      dup4\n        /* \"#utility.yul\":6765:6782   */\n      add\n        /* \"#utility.yul\":6753:6782   */\n      swap2\n      pop\n        /* \"#utility.yul\":6831:6834   */\n      dup4\n        /* \"#utility.yul\":6823:6827   */\n      0x20\n        /* \"#utility.yul\":6815:6821   */\n      dup3\n        /* \"#utility.yul\":6811:6828   */\n      mul\n        /* \"#utility.yul\":6801:6809   */\n      dup4\n        /* \"#utility.yul\":6797:6829   */\n      add\n        /* \"#utility.yul\":6794:6835   */\n      gt\n        /* \"#utility.yul\":6791:6919   */\n      iszero\n      tag_428\n      jumpi\n        /* \"#utility.yul\":6838:6917   */\n      tag_429\n      tag_303\n      jump\t// in\n    tag_429:\n        /* \"#utility.yul\":6791:6919   */\n    tag_428:\n        /* \"#utility.yul\":6357:6925   */\n      swap3\n      pop\n      swap3\n      swap1\n      pop\n      jump\t// out\n        /* \"#utility.yul\":6947:7527   */\n    tag_310:\n        /* \"#utility.yul\":7032:7040   */\n      0x00\n        /* \"#utility.yul\":7042:7048   */\n      0x00\n        /* \"#utility.yul\":7092:7095   */\n      dup4\n        /* \"#utility.yul\":7085:7089   */\n      0x1f\n        /* \"#utility.yul\":7077:7083   */\n      dup5\n        /* \"#utility.yul\":7073:7090   */\n      add\n        /* \"#utility.yul\":7069:7096   */\n      slt\n        /* \"#utility.yul\":7059:7181   */\n      tag_431\n      jumpi\n        /* \"#utility.yul\":7100:7179   */\n      tag_432\n      tag_301\n      jump\t// in\n    tag_432:\n        /* \"#utility.yul\":7059:7181   */\n    tag_431:\n        /* \"#utility.yul\":7213:7219   */\n      dup3\n        /* \"#utility.yul\":7200:7220   */\n      calldataload\n        /* \"#utility.yul\":7190:7220   */\n      swap1\n      pop\n        /* \"#utility.yul\":7243:7261   */\n      0xffffffffffffffff\n        /* \"#utility.yul\":7235:7241   */\n      dup2\n        /* \"#utility.yul\":7232:7262   */\n      gt\n        /* \"#utility.yul\":7229:7346   */\n      iszero\n      tag_433\n      jumpi\n        /* \"#utility.yul\":7265:7344   */\n      tag_434\n      tag_302\n      jump\t// in\n    tag_434:\n        /* \"#utility.yul\":7229:7346   */\n    tag_433:\n        /* \"#utility.yul\":7379:7383   */\n      0x20\n        /* \"#utility.yul\":7371:7377   */\n      dup4\n        /* \"#utility.yul\":7367:7384   */\n      add\n        /* \"#utility.yul\":7355:7384   */\n      swap2\n      pop\n        /* \"#utility.yul\":7433:7436   */\n      dup4\n        /* \"#utility.yul\":7425:7429   */\n      0x20\n        /* \"#utility.yul\":7417:7423   */\n      dup3\n        /* \"#utility.yul\":7413:7430   */\n      mul\n        /* \"#utility.yul\":7403:7411   */\n      dup4\n        /* \"#utility.yul\":7399:7431   */\n      add\n        /* \"#utility.yul\":7396:7437   */\n      gt\n        /* \"#utility.yul\":7393:7521   */\n      iszero\n      tag_435\n      jumpi\n        /* \"#utility.yul\":7440:7519   */\n      tag_436\n      tag_303\n      jump\t// in\n    tag_436:\n        /* \"#utility.yul\":7393:7521   */\n    tag_435:\n        /* \"#utility.yul\":6947:7527   */\n      swap3\n      pop\n      swap3\n      swap1\n      pop\n      jump\t// out\n        /* \"#utility.yul\":7533:8866   */\n    tag_55:\n        /* \"#utility.yul\":7703:7709   */\n      0x00\n        /* \"#utility.yul\":7711:7717   */\n      0x00\n        /* \"#utility.yul\":7719:7725   */\n      0x00\n        /* \"#utility.yul\":7727:7733   */\n      0x00\n        /* \"#utility.yul\":7735:7741   */\n      0x00\n        /* \"#utility.yul\":7743:7749   */\n      0x00\n        /* \"#utility.yul\":7792:7794   */\n      0x60\n        /* \"#utility.yul\":7780:7789   */\n      dup8\n        /* \"#utility.yul\":7771:7778   */\n      dup10\n        /* \"#utility.yul\":7767:7790   */\n      sub\n        /* \"#utility.yul\":7763:7795   */\n      slt\n        /* \"#utility.yul\":7760:7879   */\n      iszero\n      tag_438\n      jumpi\n        /* \"#utility.yul\":7798:7877   */\n      tag_439\n      tag_292\n      jump\t// in\n    tag_439:\n        /* \"#utility.yul\":7760:7879   */\n    tag_438:\n        /* \"#utility.yul\":7946:7947   */\n      0x00\n        /* \"#utility.yul\":7935:7944   */\n      dup8\n        /* \"#utility.yul\":7931:7948   */\n      add\n        /* \"#utility.yul\":7918:7949   */\n      calldataload\n        /* \"#utility.yul\":7976:7994   */\n      0xffffffffffffffff\n        /* \"#utility.yul\":7968:7974   */\n      dup2\n        /* \"#utility.yul\":7965:7995   */\n      gt\n        /* \"#utility.yul\":7962:8079   */\n      iszero\n      tag_440\n      jumpi\n        /* \"#utility.yul\":7998:8077   */\n      tag_441\n      tag_293\n      jump\t// in\n    tag_441:\n        /* \"#utility.yul\":7962:8079   */\n    tag_440:\n        /* \"#utility.yul\":8111:8191   */\n      tag_442\n        /* \"#utility.yul\":8183:8190   */\n      dup10\n        /* \"#utility.yul\":8174:8180   */\n      dup3\n        /* \"#utility.yul\":8163:8172   */\n      dup11\n        /* \"#utility.yul\":8159:8181   */\n      add\n        /* \"#utility.yul\":8111:8191   */\n      tag_308\n      jump\t// in\n    tag_442:\n        /* \"#utility.yul\":8093:8191   */\n      swap7\n      pop\n      swap7\n      pop\n        /* \"#utility.yul\":7889:8201   */\n      pop\n        /* \"#utility.yul\":8268:8270   */\n      0x20\n        /* \"#utility.yul\":8257:8266   */\n      dup8\n        /* \"#utility.yul\":8253:8271   */\n      add\n        /* \"#utility.yul\":8240:8272   */\n      calldataload\n        /* \"#utility.yul\":8299:8317   */\n      0xffffffffffffffff\n        /* \"#utility.yul\":8291:8297   */\n      dup2\n        /* \"#utility.yul\":8288:8318   */\n      gt\n        /* \"#utility.yul\":8285:8402   */\n      iszero\n      tag_443\n      jumpi\n        /* \"#utility.yul\":8321:8400   */\n      tag_444\n      tag_293\n      jump\t// in\n    tag_444:\n        /* \"#utility.yul\":8285:8402   */\n    tag_443:\n        /* \"#utility.yul\":8434:8514   */\n      tag_445\n        /* \"#utility.yul\":8506:8513   */\n      dup10\n        /* \"#utility.yul\":8497:8503   */\n      dup3\n        /* \"#utility.yul\":8486:8495   */\n      dup11\n        /* \"#utility.yul\":8482:8504   */\n      add\n        /* \"#utility.yul\":8434:8514   */\n      tag_309\n      jump\t// in\n    tag_445:\n        /* \"#utility.yul\":8416:8514   */\n      swap5\n      pop\n      swap5\n      pop\n        /* \"#utility.yul\":8211:8524   */\n      pop\n        /* \"#utility.yul\":8591:8593   */\n      0x40\n        /* \"#utility.yul\":8580:8589   */\n      dup8\n        /* \"#utility.yul\":8576:8594   */\n      add\n        /* \"#utility.yul\":8563:8595   */\n      calldataload\n        /* \"#utility.yul\":8622:8640   */\n      0xffffffffffffffff\n        /* \"#utility.yul\":8614:8620   */\n      dup2\n        /* \"#utility.yul\":8611:8641   */\n      gt\n        /* \"#utility.yul\":8608:8725   */\n      iszero\n      tag_446\n      jumpi\n        /* \"#utility.yul\":8644:8723   */\n      tag_447\n      tag_293\n      jump\t// in\n    tag_447:\n        /* \"#utility.yul\":8608:8725   */\n    tag_446:\n        /* \"#utility.yul\":8757:8849   */\n      tag_448\n        /* \"#utility.yul\":8841:8848   */\n      dup10\n        /* \"#utility.yul\":8832:8838   */\n      dup3\n        /* \"#utility.yul\":8821:8830   */\n      dup11\n        /* \"#utility.yul\":8817:8839   */\n      add\n        /* \"#utility.yul\":8757:8849   */\n      tag_310\n      jump\t// in\n    tag_448:\n        /* \"#utility.yul\":8739:8849   */\n      swap3\n      pop\n      swap3\n      pop\n        /* \"#utility.yul\":8534:8859   */\n      pop\n        /* \"#utility.yul\":7533:8866   */\n      swap3\n      swap6\n      pop\n      swap3\n      swap6\n      pop\n      swap3\n      swap6\n      jump\t// out\n        /* \"#utility.yul\":8872:8990   */\n    tag_311:\n        /* \"#utility.yul\":8959:8983   */\n      tag_450\n        /* \"#utility.yul\":8977:8982   */\n      dup2\n        /* \"#utility.yul\":8959:8983   */\n      tag_295\n      jump\t// in\n    tag_450:\n        /* \"#utility.yul\":8954:8957   */\n      dup3\n        /* \"#utility.yul\":8947:8984   */\n      mstore\n        /* \"#utility.yul\":8872:8990   */\n      pop\n      pop\n      jump\t// out\n        /* \"#utility.yul\":8996:9218   */\n    tag_68:\n        /* \"#utility.yul\":9089:9093   */\n      0x00\n        /* \"#utility.yul\":9127:9129   */\n      0x20\n        /* \"#utility.yul\":9116:9125   */\n      dup3\n        /* \"#utility.yul\":9112:9130   */\n      add\n        /* \"#utility.yul\":9104:9130   */\n      swap1\n      pop\n        /* \"#utility.yul\":9140:9211   */\n      tag_452\n        /* \"#utility.yul\":9208:9209   */\n      0x00\n        /* \"#utility.yul\":9197:9206   */\n      dup4\n        /* \"#utility.yul\":9193:9210   */\n      add\n        /* \"#utility.yul\":9184:9190   */\n      dup5\n        /* \"#utility.yul\":9140:9211   */\n      tag_311\n      jump\t// in\n    tag_452:\n        /* \"#utility.yul\":8996:9218   */\n      swap3\n      swap2\n      pop\n      pop\n      jump\t// out\n        /* \"#utility.yul\":9224:9332   */\n    tag_312:\n        /* \"#utility.yul\":9301:9325   */\n      tag_454\n        /* \"#utility.yul\":9319:9324   */\n      dup2\n        /* \"#utility.yul\":9301:9325   */\n      tag_298\n      jump\t// in\n    tag_454:\n        /* \"#utility.yul\":9296:9299   */\n      dup3\n        /* \"#utility.yul\":9289:9326   */\n      mstore\n        /* \"#utility.yul\":9224:9332   */\n      pop\n      pop\n      jump\t// out\n        /* \"#utility.yul\":9410:10668   */\n    tag_313:\n        /* \"#utility.yul\":9561:9565   */\n      0xc0\n        /* \"#utility.yul\":9556:9559   */\n      dup3\n        /* \"#utility.yul\":9552:9566   */\n      add\n        /* \"#utility.yul\":9657:9661   */\n      0x00\n        /* \"#utility.yul\":9650:9655   */\n      dup3\n        /* \"#utility.yul\":9646:9662   */\n      add\n        /* \"#utility.yul\":9640:9663   */\n      mload\n        /* \"#utility.yul\":9676:9739   */\n      tag_456\n        /* \"#utility.yul\":9733:9737   */\n      0x00\n        /* \"#utility.yul\":9728:9731   */\n      dup6\n        /* \"#utility.yul\":9724:9738   */\n      add\n        /* \"#utility.yul\":9710:9722   */\n      dup3\n        /* \"#utility.yul\":9676:9739   */\n      tag_312\n      jump\t// in\n    tag_456:\n        /* \"#utility.yul\":9576:9749   */\n      pop\n        /* \"#utility.yul\":9840:9844   */\n      0x20\n        /* \"#utility.yul\":9833:9838   */\n      dup3\n        /* \"#utility.yul\":9829:9845   */\n      add\n        /* \"#utility.yul\":9823:9846   */\n      mload\n        /* \"#utility.yul\":9859:9922   */\n      tag_457\n        /* \"#utility.yul\":9916:9920   */\n      0x20\n        /* \"#utility.yul\":9911:9914   */\n      dup6\n        /* \"#utility.yul\":9907:9921   */\n      add\n        /* \"#utility.yul\":9893:9905   */\n      dup3\n        /* \"#utility.yul\":9859:9922   */\n      tag_312\n      jump\t// in\n    tag_457:\n        /* \"#utility.yul\":9759:9932   */\n      pop\n        /* \"#utility.yul\":10025:10029   */\n      0x40\n        /* \"#utility.yul\":10018:10023   */\n      dup3\n        /* \"#utility.yul\":10014:10030   */\n      add\n        /* \"#utility.yul\":10008:10031   */\n      mload\n        /* \"#utility.yul\":10044:10107   */\n      tag_458\n        /* \"#utility.yul\":10101:10105   */\n      0x40\n        /* \"#utility.yul\":10096:10099   */\n      dup6\n        /* \"#utility.yul\":10092:10106   */\n      add\n        /* \"#utility.yul\":10078:10090   */\n      dup3\n        /* \"#utility.yul\":10044:10107   */\n      tag_312\n      jump\t// in\n    tag_458:\n        /* \"#utility.yul\":9942:10117   */\n      pop\n        /* \"#utility.yul\":10208:10212   */\n      0x60\n        /* \"#utility.yul\":10201:10206   */\n      dup3\n        /* \"#utility.yul\":10197:10213   */\n      add\n        /* \"#utility.yul\":10191:10214   */\n      mload\n        /* \"#utility.yul\":10227:10290   */\n      tag_459\n        /* \"#utility.yul\":10284:10288   */\n      0x60\n        /* \"#utility.yul\":10279:10282   */\n      dup6\n        /* \"#utility.yul\":10275:10289   */\n      add\n        /* \"#utility.yul\":10261:10273   */\n      dup3\n        /* \"#utility.yul\":10227:10290   */\n      tag_312\n      jump\t// in\n    tag_459:\n        /* \"#utility.yul\":10127:10300   */\n      pop\n        /* \"#utility.yul\":10389:10393   */\n      0x80\n        /* \"#utility.yul\":10382:10387   */\n      dup3\n        /* \"#utility.yul\":10378:10394   */\n      add\n        /* \"#utility.yul\":10372:10395   */\n      mload\n        /* \"#utility.yul\":10408:10471   */\n      tag_460\n        /* \"#utility.yul\":10465:10469   */\n      0x80\n        /* \"#utility.yul\":10460:10463   */\n      dup6\n        /* \"#utility.yul\":10456:10470   */\n      add\n        /* \"#utility.yul\":10442:10454   */\n      dup3\n        /* \"#utility.yul\":10408:10471   */\n      tag_312\n      jump\t// in\n    tag_460:\n        /* \"#utility.yul\":10310:10481   */\n      pop\n        /* \"#utility.yul\":10569:10573   */\n      0xa0\n        /* \"#utility.yul\":10562:10567   */\n      dup3\n        /* \"#utility.yul\":10558:10574   */\n      add\n        /* \"#utility.yul\":10552:10575   */\n      mload\n        /* \"#utility.yul\":10588:10651   */\n      tag_461\n        /* \"#utility.yul\":10645:10649   */\n      0xa0\n        /* \"#utility.yul\":10640:10643   */\n      dup6\n        /* \"#utility.yul\":10636:10650   */\n      add\n        /* \"#utility.yul\":10622:10634   */\n      dup3\n        /* \"#utility.yul\":10588:10651   */\n      tag_312\n      jump\t// in\n    tag_461:\n        /* \"#utility.yul\":10491:10661   */\n      pop\n        /* \"#utility.yul\":9530:10668   */\n      pop\n        /* \"#utility.yul\":9410:10668   */\n      pop\n      pop\n      jump\t// out\n        /* \"#utility.yul\":10674:11005   */\n    tag_76:\n        /* \"#utility.yul\":10821:10825   */\n      0x00\n        /* \"#utility.yul\":10859:10862   */\n      0xc0\n        /* \"#utility.yul\":10848:10857   */\n      dup3\n        /* \"#utility.yul\":10844:10863   */\n      add\n        /* \"#utility.yul\":10836:10863   */\n      swap1\n      pop\n        /* \"#utility.yul\":10873:10998   */\n      tag_463\n        /* \"#utility.yul\":10995:10996   */\n      0x00\n        /* \"#utility.yul\":10984:10993   */\n      dup4\n        /* \"#utility.yul\":10980:10997   */\n      add\n        /* \"#utility.yul\":10971:10977   */\n      dup5\n        /* \"#utility.yul\":10873:10998   */\n      tag_313\n      jump\t// in\n    tag_463:\n        /* \"#utility.yul\":10674:11005   */\n      swap3\n      swap2\n      pop\n      pop\n      jump\t// out\n        /* \"#utility.yul\":11011:11101   */\n    tag_314:\n        /* \"#utility.yul\":11045:11052   */\n      0x00\n        /* \"#utility.yul\":11088:11093   */\n      dup2\n        /* \"#utility.yul\":11081:11094   */\n      iszero\n        /* \"#utility.yul\":11074:11095   */\n      iszero\n        /* \"#utility.yul\":11063:11095   */\n      swap1\n      pop\n        /* \"#utility.yul\":11011:11101   */\n      swap2\n      swap1\n      pop\n      jump\t// out\n        /* \"#utility.yul\":11107:11216   */\n    tag_315:\n        /* \"#utility.yul\":11188:11209   */\n      tag_466\n        /* \"#utility.yul\":11203:11208   */\n      dup2\n        /* \"#utility.yul\":11188:11209   */\n      tag_314\n      jump\t// in\n    tag_466:\n        /* \"#utility.yul\":11183:11186   */\n      dup3\n        /* \"#utility.yul\":11176:11210   */\n      mstore\n        /* \"#utility.yul\":11107:11216   */\n      pop\n      pop\n      jump\t// out\n        /* \"#utility.yul\":11222:11432   */\n    tag_84:\n        /* \"#utility.yul\":11309:11313   */\n      0x00\n        /* \"#utility.yul\":11347:11349   */\n      0x20\n        /* \"#utility.yul\":11336:11345   */\n      dup3\n        /* \"#utility.yul\":11332:11350   */\n      add\n        /* \"#utility.yul\":11324:11350   */\n      swap1\n      pop\n        /* \"#utility.yul\":11360:11425   */\n      tag_468\n        /* \"#utility.yul\":11422:11423   */\n      0x00\n        /* \"#utility.yul\":11411:11420   */\n      dup4\n        /* \"#utility.yul\":11407:11424   */\n      add\n        /* \"#utility.yul\":11398:11404   */\n      dup5\n        /* \"#utility.yul\":11360:11425   */\n      tag_315\n      jump\t// in\n    tag_468:\n        /* \"#utility.yul\":11222:11432   */\n      swap3\n      swap2\n      pop\n      pop\n      jump\t// out\n        /* \"#utility.yul\":11438:12213   */\n    tag_92:\n        /* \"#utility.yul\":11671:11675   */\n      0x00\n        /* \"#utility.yul\":11709:11712   */\n      0xc0\n        /* \"#utility.yul\":11698:11707   */\n      dup3\n        /* \"#utility.yul\":11694:11713   */\n      add\n        /* \"#utility.yul\":11686:11713   */\n      swap1\n      pop\n        /* \"#utility.yul\":11723:11794   */\n      tag_470\n        /* \"#utility.yul\":11791:11792   */\n      0x00\n        /* \"#utility.yul\":11780:11789   */\n      dup4\n        /* \"#utility.yul\":11776:11793   */\n      add\n        /* \"#utility.yul\":11767:11773   */\n      dup10\n        /* \"#utility.yul\":11723:11794   */\n      tag_305\n      jump\t// in\n    tag_470:\n        /* \"#utility.yul\":11804:11876   */\n      tag_471\n        /* \"#utility.yul\":11872:11874   */\n      0x20\n        /* \"#utility.yul\":11861:11870   */\n      dup4\n        /* \"#utility.yul\":11857:11875   */\n      add\n        /* \"#utility.yul\":11848:11854   */\n      dup9\n        /* \"#utility.yul\":11804:11876   */\n      tag_305\n      jump\t// in\n    tag_471:\n        /* \"#utility.yul\":11886:11958   */\n      tag_472\n        /* \"#utility.yul\":11954:11956   */\n      0x40\n        /* \"#utility.yul\":11943:11952   */\n      dup4\n        /* \"#utility.yul\":11939:11957   */\n      add\n        /* \"#utility.yul\":11930:11936   */\n      dup8\n        /* \"#utility.yul\":11886:11958   */\n      tag_305\n      jump\t// in\n    tag_472:\n        /* \"#utility.yul\":11968:12040   */\n      tag_473\n        /* \"#utility.yul\":12036:12038   */\n      0x60\n        /* \"#utility.yul\":12025:12034   */\n      dup4\n        /* \"#utility.yul\":12021:12039   */\n      add\n        /* \"#utility.yul\":12012:12018   */\n      dup7\n        /* \"#utility.yul\":11968:12040   */\n      tag_305\n      jump\t// in\n    tag_473:\n        /* \"#utility.yul\":12050:12123   */\n      tag_474\n        /* \"#utility.yul\":12118:12121   */\n      0x80\n        /* \"#utility.yul\":12107:12116   */\n      dup4\n        /* \"#utility.yul\":12103:12122   */\n      add\n        /* \"#utility.yul\":12094:12100   */\n      dup6\n        /* \"#utility.yul\":12050:12123   */\n      tag_305\n      jump\t// in\n    tag_474:\n        /* \"#utility.yul\":12133:12206   */\n      tag_475\n        /* \"#utility.yul\":12201:12204   */\n      0xa0\n        /* \"#utility.yul\":12190:12199   */\n      dup4\n        /* \"#utility.yul\":12186:12205   */\n      add\n        /* \"#utility.yul\":12177:12183   */\n      dup5\n        /* \"#utility.yul\":12133:12206   */\n      tag_305\n      jump\t// in\n    tag_475:\n        /* \"#utility.yul\":11438:12213   */\n      swap8\n      swap7\n      pop\n      pop\n      pop\n      pop\n      pop\n      pop\n      pop\n      jump\t// out\n        /* \"#utility.yul\":12219:12335   */\n    tag_316:\n        /* \"#utility.yul\":12289:12310   */\n      tag_477\n        /* \"#utility.yul\":12304:12309   */\n      dup2\n        /* \"#utility.yul\":12289:12310   */\n      tag_314\n      jump\t// in\n    tag_477:\n        /* \"#utility.yul\":12282:12287   */\n      dup2\n        /* \"#utility.yul\":12279:12311   */\n      eq\n        /* \"#utility.yul\":12269:12329   */\n      tag_478\n      jumpi\n        /* \"#utility.yul\":12325:12326   */\n      0x00\n        /* \"#utility.yul\":12322:12323   */\n      0x00\n        /* \"#utility.yul\":12315:12327   */\n      revert\n        /* \"#utility.yul\":12269:12329   */\n    tag_478:\n        /* \"#utility.yul\":12219:12335   */\n      pop\n      jump\t// out\n        /* \"#utility.yul\":12341:12474   */\n    tag_317:\n        /* \"#utility.yul\":12384:12389   */\n      0x00\n        /* \"#utility.yul\":12422:12428   */\n      dup2\n        /* \"#utility.yul\":12409:12429   */\n      calldataload\n        /* \"#utility.yul\":12400:12429   */\n      swap1\n      pop\n        /* \"#utility.yul\":12438:12468   */\n      tag_480\n        /* \"#utility.yul\":12462:12467   */\n      dup2\n        /* \"#utility.yul\":12438:12468   */\n      tag_316\n      jump\t// in\n    tag_480:\n        /* \"#utility.yul\":12341:12474   */\n      swap3\n      swap2\n      pop\n      pop\n      jump\t// out\n        /* \"#utility.yul\":12480:12948   */\n    tag_95:\n        /* \"#utility.yul\":12545:12551   */\n      0x00\n        /* \"#utility.yul\":12553:12559   */\n      0x00\n        /* \"#utility.yul\":12602:12604   */\n      0x40\n        /* \"#utility.yul\":12590:12599   */\n      dup4\n        /* \"#utility.yul\":12581:12588   */\n      dup6\n        /* \"#utility.yul\":12577:12600   */\n      sub\n        /* \"#utility.yul\":12573:12605   */\n      slt\n        /* \"#utility.yul\":12570:12689   */\n      iszero\n      tag_482\n      jumpi\n        /* \"#utility.yul\":12608:12687   */\n      tag_483\n      tag_292\n      jump\t// in\n    tag_483:\n        /* \"#utility.yul\":12570:12689   */\n    tag_482:\n        /* \"#utility.yul\":12728:12729   */\n      0x00\n        /* \"#utility.yul\":12753:12806   */\n      tag_484\n        /* \"#utility.yul\":12798:12805   */\n      dup6\n        /* \"#utility.yul\":12789:12795   */\n      dup3\n        /* \"#utility.yul\":12778:12787   */\n      dup7\n        /* \"#utility.yul\":12774:12796   */\n      add\n        /* \"#utility.yul\":12753:12806   */\n      tag_297\n      jump\t// in\n    tag_484:\n        /* \"#utility.yul\":12743:12806   */\n      swap3\n      pop\n        /* \"#utility.yul\":12699:12816   */\n      pop\n        /* \"#utility.yul\":12855:12857   */\n      0x20\n        /* \"#utility.yul\":12881:12931   */\n      tag_485\n        /* \"#utility.yul\":12923:12930   */\n      dup6\n        /* \"#utility.yul\":12914:12920   */\n      dup3\n        /* \"#utility.yul\":12903:12912   */\n      dup7\n        /* \"#utility.yul\":12899:12921   */\n      add\n        /* \"#utility.yul\":12881:12931   */\n      tag_317\n      jump\t// in\n    tag_485:\n        /* \"#utility.yul\":12871:12931   */\n      swap2\n      pop\n        /* \"#utility.yul\":12826:12941   */\n      pop\n        /* \"#utility.yul\":12480:12948   */\n      swap3\n      pop\n      swap3\n      swap1\n      pop\n      jump\t// out\n        /* \"#utility.yul\":12954:13123   */\n    tag_318:\n        /* \"#utility.yul\":13038:13049   */\n      0x00\n        /* \"#utility.yul\":13072:13078   */\n      dup3\n        /* \"#utility.yul\":13067:13070   */\n      dup3\n        /* \"#utility.yul\":13060:13079   */\n      mstore\n        /* \"#utility.yul\":13112:13116   */\n      0x20\n        /* \"#utility.yul\":13107:13110   */\n      dup3\n        /* \"#utility.yul\":13103:13117   */\n      add\n        /* \"#utility.yul\":13088:13117   */\n      swap1\n      pop\n        /* \"#utility.yul\":12954:13123   */\n      swap3\n      swap2\n      pop\n      pop\n      jump\t// out\n        /* \"#utility.yul\":13129:13293   */\n    tag_319:\n        /* \"#utility.yul\":13269:13285   */\n      0x4e6f7420617574686f72697a6564000000000000000000000000000000000000\n        /* \"#utility.yul\":13265:13266   */\n      0x00\n        /* \"#utility.yul\":13257:13263   */\n      dup3\n        /* \"#utility.yul\":13253:13267   */\n      add\n        /* \"#utility.yul\":13246:13286   */\n      mstore\n        /* \"#utility.yul\":13129:13293   */\n      pop\n      jump\t// out\n        /* \"#utility.yul\":13299:13665   */\n    tag_320:\n        /* \"#utility.yul\":13441:13444   */\n      0x00\n        /* \"#utility.yul\":13462:13529   */\n      tag_489\n        /* \"#utility.yul\":13526:13528   */\n      0x0e\n        /* \"#utility.yul\":13521:13524   */\n      dup4\n        /* \"#utility.yul\":13462:13529   */\n      tag_318\n      jump\t// in\n    tag_489:\n        /* \"#utility.yul\":13455:13529   */\n      swap2\n      pop\n        /* \"#utility.yul\":13538:13631   */\n      tag_490\n        /* \"#utility.yul\":13627:13630   */\n      dup3\n        /* \"#utility.yul\":13538:13631   */\n      tag_319\n      jump\t// in\n    tag_490:\n        /* \"#utility.yul\":13656:13658   */\n      0x20\n        /* \"#utility.yul\":13651:13654   */\n      dup3\n        /* \"#utility.yul\":13647:13659   */\n      add\n        /* \"#utility.yul\":13640:13659   */\n      swap1\n      pop\n        /* \"#utility.yul\":13299:13665   */\n      swap2\n      swap1\n      pop\n      jump\t// out\n        /* \"#utility.yul\":13671:14090   */\n    tag_102:\n        /* \"#utility.yul\":13837:13841   */\n      0x00\n        /* \"#utility.yul\":13875:13877   */\n      0x20\n        /* \"#utility.yul\":13864:13873   */\n      dup3\n        /* \"#utility.yul\":13860:13878   */\n      add\n        /* \"#utility.yul\":13852:13878   */\n      swap1\n      pop\n        /* \"#utility.yul\":13924:13933   */\n      dup2\n        /* \"#utility.yul\":13918:13922   */\n      dup2\n        /* \"#utility.yul\":13914:13934   */\n      sub\n        /* \"#utility.yul\":13910:13911   */\n      0x00\n        /* \"#utility.yul\":13899:13908   */\n      dup4\n        /* \"#utility.yul\":13895:13912   */\n      add\n        /* \"#utility.yul\":13888:13935   */\n      mstore\n        /* \"#utility.yul\":13952:14083   */\n      tag_492\n        /* \"#utility.yul\":14078:14082   */\n      dup2\n        /* \"#utility.yul\":13952:14083   */\n      tag_320\n      jump\t// in\n    tag_492:\n        /* \"#utility.yul\":13944:14083   */\n      swap1\n      pop\n        /* \"#utility.yul\":13671:14090   */\n      swap2\n      swap1\n      pop\n      jump\t// out\n        /* \"#utility.yul\":14096:14265   */\n    tag_321:\n        /* \"#utility.yul\":14236:14257   */\n      0x496e73756666696369656e7420706f696e747300000000000000000000000000\n        /* \"#utility.yul\":14232:14233   */\n      0x00\n        /* \"#utility.yul\":14224:14230   */\n      dup3\n        /* \"#utility.yul\":14220:14234   */\n      add\n        /* \"#utility.yul\":14213:14258   */\n      mstore\n        /* \"#utility.yul\":14096:14265   */\n      pop\n      jump\t// out\n        /* \"#utility.yul\":14271:14637   */\n    tag_322:\n        /* \"#utility.yul\":14413:14416   */\n      0x00\n        /* \"#utility.yul\":14434:14501   */\n      tag_495\n        /* \"#utility.yul\":14498:14500   */\n      0x13\n        /* \"#utility.yul\":14493:14496   */\n      dup4\n        /* \"#utility.yul\":14434:14501   */\n      tag_318\n      jump\t// in\n    tag_495:\n        /* \"#utility.yul\":14427:14501   */\n      swap2\n      pop\n        /* \"#utility.yul\":14510:14603   */\n      tag_496\n        /* \"#utility.yul\":14599:14602   */\n      dup3\n        /* \"#utility.yul\":14510:14603   */\n      tag_321\n      jump\t// in\n    tag_496:\n        /* \"#utility.yul\":14628:14630   */\n      0x20\n        /* \"#utility.yul\":14623:14626   */\n      dup3\n        /* \"#utility.yul\":14619:14631   */\n      add\n        /* \"#utility.yul\":14612:14631   */\n      swap1\n      pop\n        /* \"#utility.yul\":14271:14637   */\n      swap2\n      swap1\n      pop\n      jump\t// out\n        /* \"#utility.yul\":14643:15062   */\n    tag_106:\n        /* \"#utility.yul\":14809:14813   */\n      0x00\n        /* \"#utility.yul\":14847:14849   */\n      0x20\n        /* \"#utility.yul\":14836:14845   */\n      dup3\n        /* \"#utility.yul\":14832:14850   */\n      add\n        /* \"#utility.yul\":14824:14850   */\n      swap1\n      pop\n        /* \"#utility.yul\":14896:14905   */\n      dup2\n        /* \"#utility.yul\":14890:14894   */\n      dup2\n        /* \"#utility.yul\":14886:14906   */\n      sub\n        /* \"#utility.yul\":14882:14883   */\n      0x00\n        /* \"#utility.yul\":14871:14880   */\n      dup4\n        /* \"#utility.yul\":14867:14884   */\n      add\n        /* \"#utility.yul\":14860:14907   */\n      mstore\n        /* \"#utility.yul\":14924:15055   */\n      tag_498\n        /* \"#utility.yul\":15050:15054   */\n      dup2\n        /* \"#utility.yul\":14924:15055   */\n      tag_322\n      jump\t// in\n    tag_498:\n        /* \"#utility.yul\":14916:15055   */\n      swap1\n      pop\n        /* \"#utility.yul\":14643:15062   */\n      swap2\n      swap1\n      pop\n      jump\t// out\n        /* \"#utility.yul\":15068:15248   */\n    tag_323:\n        /* \"#utility.yul\":15116:15193   */\n      0x4e487b7100000000000000000000000000000000000000000000000000000000\n        /* \"#utility.yul\":15113:15114   */\n      0x00\n        /* \"#utility.yul\":15106:15194   */\n      mstore\n        /* \"#utility.yul\":15213:15217   */\n      0x11\n        /* \"#utility.yul\":15210:15211   */\n      0x04\n        /* \"#utility.yul\":15203:15218   */\n      mstore\n        /* \"#utility.yul\":15237:15241   */\n      0x24\n        /* \"#utility.yul\":15234:15235   */\n      0x00\n        /* \"#utility.yul\":15227:15242   */\n      revert\n        /* \"#utility.yul\":15254:15448   */\n    tag_108:\n        /* \"#utility.yul\":15294:15298   */\n      0x00\n        /* \"#utility.yul\":15314:15334   */\n      tag_501\n        /* \"#utility.yul\":15332:15333   */\n      dup3\n        /* \"#utility.yul\":15314:15334   */\n      tag_298\n      jump\t// in\n    tag_501:\n        /* \"#utility.yul\":15309:15334   */\n      swap2\n      pop\n        /* \"#utility.yul\":15348:15368   */\n      tag_502\n        /* \"#utility.yul\":15366:15367   */\n      dup4\n        /* \"#utility.yul\":15348:15368   */\n      tag_298\n      jump\t// in\n    tag_502:\n        /* \"#utility.yul\":15343:15368   */\n      swap3\n      pop\n        /* \"#utility.yul\":15392:15393   */\n      dup3\n        /* \"#utility.yul\":15389:15390   */\n      dup3\n        /* \"#utility.yul\":15385:15394   */\n      sub\n        /* \"#utility.yul\":15377:15394   */\n      swap1\n      pop\n        /* \"#utility.yul\":15416:15417   */\n      dup2\n        /* \"#utility.yul\":15410:15414   */\n      dup2\n        /* \"#utility.yul\":15407:15418   */\n      gt\n        /* \"#utility.yul\":15404:15441   */\n      iszero\n      tag_503\n      jumpi\n        /* \"#utility.yul\":15421:15439   */\n      tag_504\n      tag_323\n      jump\t// in\n    tag_504:\n        /* \"#utility.yul\":15404:15441   */\n    tag_503:\n        /* \"#utility.yul\":15254:15448   */\n      swap3\n      swap2\n      pop\n      pop\n      jump\t// out\n        /* \"#utility.yul\":15454:15602   */\n    tag_324:\n        /* \"#utility.yul\":15552:15558   */\n      dup3\n        /* \"#utility.yul\":15547:15550   */\n      dup2\n        /* \"#utility.yul\":15542:15545   */\n      dup4\n        /* \"#utility.yul\":15529:15559   */\n      calldatacopy\n        /* \"#utility.yul\":15593:15594   */\n      0x00\n        /* \"#utility.yul\":15584:15590   */\n      dup4\n        /* \"#utility.yul\":15579:15582   */\n      dup4\n        /* \"#utility.yul\":15575:15591   */\n      add\n        /* \"#utility.yul\":15568:15595   */\n      mstore\n        /* \"#utility.yul\":15454:15602   */\n      pop\n      pop\n      pop\n      jump\t// out\n        /* \"#utility.yul\":15608:15710   */\n    tag_325:\n        /* \"#utility.yul\":15649:15655   */\n      0x00\n        /* \"#utility.yul\":15700:15702   */\n      0x1f\n        /* \"#utility.yul\":15696:15703   */\n      not\n        /* \"#utility.yul\":15691:15693   */\n      0x1f\n        /* \"#utility.yul\":15684:15689   */\n      dup4\n        /* \"#utility.yul\":15680:15694   */\n      add\n        /* \"#utility.yul\":15676:15704   */\n      and\n        /* \"#utility.yul\":15666:15704   */\n      swap1\n      pop\n        /* \"#utility.yul\":15608:15710   */\n      swap2\n      swap1\n      pop\n      jump\t// out\n        /* \"#utility.yul\":15740:16057   */\n    tag_326:\n        /* \"#utility.yul\":15838:15841   */\n      0x00\n        /* \"#utility.yul\":15859:15930   */\n      tag_508\n        /* \"#utility.yul\":15923:15929   */\n      dup4\n        /* \"#utility.yul\":15918:15921   */\n      dup6\n        /* \"#utility.yul\":15859:15930   */\n      tag_318\n      jump\t// in\n    tag_508:\n        /* \"#utility.yul\":15852:15930   */\n      swap4\n      pop\n        /* \"#utility.yul\":15940:15996   */\n      tag_509\n        /* \"#utility.yul\":15989:15995   */\n      dup4\n        /* \"#utility.yul\":15984:15987   */\n      dup6\n        /* \"#utility.yul\":15977:15982   */\n      dup5\n        /* \"#utility.yul\":15940:15996   */\n      tag_324\n      jump\t// in\n    tag_509:\n        /* \"#utility.yul\":16021:16050   */\n      tag_510\n        /* \"#utility.yul\":16043:16049   */\n      dup4\n        /* \"#utility.yul\":16021:16050   */\n      tag_325\n      jump\t// in\n    tag_510:\n        /* \"#utility.yul\":16016:16019   */\n      dup5\n        /* \"#utility.yul\":16012:16051   */\n      add\n        /* \"#utility.yul\":16005:16051   */\n      swap1\n      pop\n        /* \"#utility.yul\":15740:16057   */\n      swap4\n      swap3\n      pop\n      pop\n      pop\n      jump\t// out\n        /* \"#utility.yul\":16063:16506   */\n    tag_111:\n        /* \"#utility.yul\":16214:16218   */\n      0x00\n        /* \"#utility.yul\":16252:16254   */\n      0x40\n        /* \"#utility.yul\":16241:16250   */\n      dup3\n        /* \"#utility.yul\":16237:16255   */\n      add\n        /* \"#utility.yul\":16229:16255   */\n      swap1\n      pop\n        /* \"#utility.yul\":16265:16336   */\n      tag_512\n        /* \"#utility.yul\":16333:16334   */\n      0x00\n        /* \"#utility.yul\":16322:16331   */\n      dup4\n        /* \"#utility.yul\":16318:16335   */\n      add\n        /* \"#utility.yul\":16309:16315   */\n      dup7\n        /* \"#utility.yul\":16265:16336   */\n      tag_305\n      jump\t// in\n    tag_512:\n        /* \"#utility.yul\":16383:16392   */\n      dup2\n        /* \"#utility.yul\":16377:16381   */\n      dup2\n        /* \"#utility.yul\":16373:16393   */\n      sub\n        /* \"#utility.yul\":16368:16370   */\n      0x20\n        /* \"#utility.yul\":16357:16366   */\n      dup4\n        /* \"#utility.yul\":16353:16371   */\n      add\n        /* \"#utility.yul\":16346:16394   */\n      mstore\n        /* \"#utility.yul\":16411:16499   */\n      tag_513\n        /* \"#utility.yul\":16494:16498   */\n      dup2\n        /* \"#utility.yul\":16485:16491   */\n      dup5\n        /* \"#utility.yul\":16477:16483   */\n      dup7\n        /* \"#utility.yul\":16411:16499   */\n      tag_326\n      jump\t// in\n    tag_513:\n        /* \"#utility.yul\":16403:16499   */\n      swap1\n      pop\n        /* \"#utility.yul\":16063:16506   */\n      swap5\n      swap4\n      pop\n      pop\n      pop\n      pop\n      jump\t// out\n        /* \"#utility.yul\":16512:16922   */\n    tag_120:\n        /* \"#utility.yul\":16552:16559   */\n      0x00\n        /* \"#utility.yul\":16575:16595   */\n      tag_515\n        /* \"#utility.yul\":16593:16594   */\n      dup3\n        /* \"#utility.yul\":16575:16595   */\n      tag_298\n      jump\t// in\n    tag_515:\n        /* \"#utility.yul\":16570:16595   */\n      swap2\n      pop\n        /* \"#utility.yul\":16609:16629   */\n      tag_516\n        /* \"#utility.yul\":16627:16628   */\n      dup4\n        /* \"#utility.yul\":16609:16629   */\n      tag_298\n      jump\t// in\n    tag_516:\n        /* \"#utility.yul\":16604:16629   */\n      swap3\n      pop\n        /* \"#utility.yul\":16664:16665   */\n      dup3\n        /* \"#utility.yul\":16661:16662   */\n      dup3\n        /* \"#utility.yul\":16657:16666   */\n      mul\n        /* \"#utility.yul\":16686:16716   */\n      tag_517\n        /* \"#utility.yul\":16704:16715   */\n      dup2\n        /* \"#utility.yul\":16686:16716   */\n      tag_298\n      jump\t// in\n    tag_517:\n        /* \"#utility.yul\":16675:16716   */\n      swap2\n      pop\n        /* \"#utility.yul\":16865:16866   */\n      dup3\n        /* \"#utility.yul\":16856:16863   */\n      dup3\n        /* \"#utility.yul\":16852:16867   */\n      div\n        /* \"#utility.yul\":16849:16850   */\n      dup5\n        /* \"#utility.yul\":16846:16868   */\n      eq\n        /* \"#utility.yul\":16826:16827   */\n      dup4\n        /* \"#utility.yul\":16819:16828   */\n      iszero\n        /* \"#utility.yul\":16799:16882   */\n      or\n        /* \"#utility.yul\":16776:16915   */\n      tag_518\n      jumpi\n        /* \"#utility.yul\":16895:16913   */\n      tag_519\n      tag_323\n      jump\t// in\n    tag_519:\n        /* \"#utility.yul\":16776:16915   */\n    tag_518:\n        /* \"#utility.yul\":16560:16922   */\n      pop\n        /* \"#utility.yul\":16512:16922   */\n      swap3\n      swap2\n      pop\n      pop\n      jump\t// out\n        /* \"#utility.yul\":16928:17108   */\n    tag_327:\n        /* \"#utility.yul\":16976:17053   */\n      0x4e487b7100000000000000000000000000000000000000000000000000000000\n        /* \"#utility.yul\":16973:16974   */\n      0x00\n        /* \"#utility.yul\":16966:17054   */\n      mstore\n        /* \"#utility.yul\":17073:17077   */\n      0x12\n        /* \"#utility.yul\":17070:17071   */\n      0x04\n        /* \"#utility.yul\":17063:17078   */\n      mstore\n        /* \"#utility.yul\":17097:17101   */\n      0x24\n        /* \"#utility.yul\":17094:17095   */\n      0x00\n        /* \"#utility.yul\":17087:17102   */\n      revert\n        /* \"#utility.yul\":17114:17299   */\n    tag_123:\n        /* \"#utility.yul\":17154:17155   */\n      0x00\n        /* \"#utility.yul\":17171:17191   */\n      tag_522\n        /* \"#utility.yul\":17189:17190   */\n      dup3\n        /* \"#utility.yul\":17171:17191   */\n      tag_298\n      jump\t// in\n    tag_522:\n        /* \"#utility.yul\":17166:17191   */\n      swap2\n      pop\n        /* \"#utility.yul\":17205:17225   */\n      tag_523\n        /* \"#utility.yul\":17223:17224   */\n      dup4\n        /* \"#utility.yul\":17205:17225   */\n      tag_298\n      jump\t// in\n    tag_523:\n        /* \"#utility.yul\":17200:17225   */\n      swap3\n      pop\n        /* \"#utility.yul\":17244:17245   */\n      dup3\n        /* \"#utility.yul\":17234:17269   */\n      tag_524\n      jumpi\n        /* \"#utility.yul\":17249:17267   */\n      tag_525\n      tag_327\n      jump\t// in\n    tag_525:\n        /* \"#utility.yul\":17234:17269   */\n    tag_524:\n        /* \"#utility.yul\":17291:17292   */\n      dup3\n        /* \"#utility.yul\":17288:17289   */\n      dup3\n        /* \"#utility.yul\":17284:17293   */\n      div\n        /* \"#utility.yul\":17279:17293   */\n      swap1\n      pop\n        /* \"#utility.yul\":17114:17299   */\n      swap3\n      swap2\n      pop\n      pop\n      jump\t// out\n        /* \"#utility.yul\":17305:17496   */\n    tag_127:\n        /* \"#utility.yul\":17345:17348   */\n      0x00\n        /* \"#utility.yul\":17364:17384   */\n      tag_527\n        /* \"#utility.yul\":17382:17383   */\n      dup3\n        /* \"#utility.yul\":17364:17384   */\n      tag_298\n      jump\t// in\n    tag_527:\n        /* \"#utility.yul\":17359:17384   */\n      swap2\n      pop\n        /* \"#utility.yul\":17398:17418   */\n      tag_528\n        /* \"#utility.yul\":17416:17417   */\n      dup4\n        /* \"#utility.yul\":17398:17418   */\n      tag_298\n      jump\t// in\n    tag_528:\n        /* \"#utility.yul\":17393:17418   */\n      swap3\n      pop\n        /* \"#utility.yul\":17441:17442   */\n      dup3\n        /* \"#utility.yul\":17438:17439   */\n      dup3\n        /* \"#utility.yul\":17434:17443   */\n      add\n        /* \"#utility.yul\":17427:17443   */\n      swap1\n      pop\n        /* \"#utility.yul\":17462:17465   */\n      dup1\n        /* \"#utility.yul\":17459:17460   */\n      dup3\n        /* \"#utility.yul\":17456:17466   */\n      gt\n        /* \"#utility.yul\":17453:17489   */\n      iszero\n      tag_529\n      jumpi\n        /* \"#utility.yul\":17469:17487   */\n      tag_530\n      tag_323\n      jump\t// in\n    tag_530:\n        /* \"#utility.yul\":17453:17489   */\n    tag_529:\n        /* \"#utility.yul\":17305:17496   */\n      swap3\n      swap2\n      pop\n      pop\n      jump\t// out\n        /* \"#utility.yul\":17688:17874   */\n    tag_329:\n        /* \"#utility.yul\":17733:17744   */\n      0x00\n        /* \"#utility.yul\":17782:17785   */\n      dup2\n        /* \"#utility.yul\":17769:17786   */\n      calldataload\n        /* \"#utility.yul\":17795:17828   */\n      tag_533\n        /* \"#utility.yul\":17822:17827   */\n      dup2\n        /* \"#utility.yul\":17795:17828   */\n      tag_299\n      jump\t// in\n    tag_533:\n        /* \"#utility.yul\":17862:17867   */\n      dup1\n        /* \"#utility.yul\":17838:17867   */\n      swap2\n      pop\n        /* \"#utility.yul\":17745:17874   */\n      pop\n        /* \"#utility.yul\":17688:17874   */\n      swap2\n      swap1\n      pop\n      jump\t// out\n        /* \"#utility.yul\":17880:17972   */\n    tag_330:\n        /* \"#utility.yul\":17912:17920   */\n      0x00\n        /* \"#utility.yul\":17959:17964   */\n      dup2\n        /* \"#utility.yul\":17956:17957   */\n      0x00\n        /* \"#utility.yul\":17952:17965   */\n      shl\n        /* \"#utility.yul\":17931:17965   */\n      swap1\n      pop\n        /* \"#utility.yul\":17880:17972   */\n      swap2\n      swap1\n      pop\n      jump\t// out\n        /* \"#utility.yul\":17978:18268   */\n    tag_331:\n        /* \"#utility.yul\":18036:18042   */\n      0x00\n        /* \"#utility.yul\":18065:18131   */\n      0xffffffffffffffffffffffffffffffffffffffffffffffffffffffffffffffff\n        /* \"#utility.yul\":18152:18174   */\n      tag_536\n        /* \"#utility.yul\":18165:18173   */\n      dup5\n        /* \"#utility.yul\":18152:18174   */\n      tag_330\n      jump\t// in\n    tag_536:\n        /* \"#utility.yul\":18140:18174   */\n      swap4\n      pop\n        /* \"#utility.yul\":18207:18211   */\n      dup1\n        /* \"#utility.yul\":18203:18212   */\n      not\n        /* \"#utility.yul\":18196:18201   */\n      dup4\n        /* \"#utility.yul\":18192:18213   */\n      and\n        /* \"#utility.yul\":18183:18213   */\n      swap3\n      pop\n        /* \"#utility.yul\":18256:18260   */\n      dup1\n        /* \"#utility.yul\":18246:18254   */\n      dup5\n        /* \"#utility.yul\":18242:18261   */\n      and\n        /* \"#utility.yul\":18235:18240   */\n      dup4\n        /* \"#utility.yul\":18232:18262   */\n      or\n        /* \"#utility.yul\":18222:18262   */\n      swap2\n      pop\n        /* \"#utility.yul\":18043:18268   */\n      pop\n        /* \"#utility.yul\":17978:18268   */\n      swap3\n      swap2\n      pop\n      pop\n      jump\t// out\n        /* \"#utility.yul\":18274:18334   */\n    tag_332:\n        /* \"#utility.yul\":18302:18305   */\n      0x00\n        /* \"#utility.yul\":18323:18328   */\n      dup2\n        /* \"#utility.yul\":18316:18328   */\n      swap1\n      pop\n        /* \"#utility.yul\":18274:18334   */\n      swap2\n      swap1\n      pop\n      jump\t// out\n        /* \"#utility.yul\":18340:18482   */\n    tag_333:\n        /* \"#utility.yul\":18390:18399   */\n      0x00\n        /* \"#utility.yul\":18423:18476   */\n      tag_539\n        /* \"#utility.yul\":18441:18475   */\n      tag_540\n        /* \"#utility.yul\":18450:18474   */\n      tag_541\n        /* \"#utility.yul\":18468:18473   */\n      dup5\n        /* \"#utility.yul\":18450:18474   */\n      tag_298\n      jump\t// in\n    tag_541:\n        /* \"#utility.yul\":18441:18475   */\n      tag_332\n      jump\t// in\n    tag_540:\n        /* \"#utility.yul\":18423:18476   */\n      tag_298\n      jump\t// in\n    tag_539:\n        /* \"#utility.yul\":18410:18476   */\n      swap1\n      pop\n        /* \"#utility.yul\":18340:18482   */\n      swap2\n      swap1\n      pop\n      jump\t// out\n        /* \"#utility.yul\":18488:18563   */\n    tag_334:\n        /* \"#utility.yul\":18531:18534   */\n      0x00\n        /* \"#utility.yul\":18552:18557   */\n      dup2\n        /* \"#utility.yul\":18545:18557   */\n      swap1\n      pop\n        /* \"#utility.yul\":18488:18563   */\n      swap2\n      swap1\n      pop\n      jump\t// out\n        /* \"#utility.yul\":18569:18832   */\n    tag_335:\n        /* \"#utility.yul\":18680:18719   */\n      tag_544\n        /* \"#utility.yul\":18711:18718   */\n      dup3\n        /* \"#utility.yul\":18680:18719   */\n      tag_333\n      jump\t// in\n    tag_544:\n        /* \"#utility.yul\":18741:18825   */\n      tag_545\n        /* \"#utility.yul\":18783:18824   */\n      tag_546\n        /* \"#utility.yul\":18807:18823   */\n      dup3\n        /* \"#utility.yul\":18783:18824   */\n      tag_334\n      jump\t// in\n    tag_546:\n        /* \"#utility.yul\":18776:18780   */\n      dup4\n        /* \"#utility.yul\":18770:18781   */\n      sload\n        /* \"#utility.yul\":18741:18825   */\n      tag_331\n      jump\t// in\n    tag_545:\n        /* \"#utility.yul\":18735:18739   */\n      dup3\n        /* \"#utility.yul\":18728:18826   */\n      sstore\n        /* \"#utility.yul\":18646:18832   */\n      pop\n        /* \"#utility.yul\":18569:18832   */\n      pop\n      pop\n      jump\t// out\n        /* \"#utility.yul\":18838:20671   */\n    tag_336:\n        /* \"#utility.yul\":19022:19023   */\n      0x00\n        /* \"#utility.yul\":19016:19020   */\n      dup2\n        /* \"#utility.yul\":19012:19024   */\n      add\n        /* \"#utility.yul\":19068:19069   */\n      0x00\n        /* \"#utility.yul\":19061:19066   */\n      dup4\n        /* \"#utility.yul\":19057:19070   */\n      add\n        /* \"#utility.yul\":19118:19130   */\n      dup1\n        /* \"#utility.yul\":19161:19203   */\n      tag_548\n        /* \"#utility.yul\":19189:19202   */\n      dup2\n        /* \"#utility.yul\":19161:19203   */\n      tag_329\n      jump\t// in\n    tag_548:\n        /* \"#utility.yul\":19144:19203   */\n      swap1\n      pop\n        /* \"#utility.yul\":19217:19296   */\n      tag_549\n        /* \"#utility.yul\":19282:19295   */\n      dup2\n        /* \"#utility.yul\":19270:19280   */\n      dup5\n        /* \"#utility.yul\":19217:19296   */\n      tag_335\n      jump\t// in\n    tag_549:\n        /* \"#utility.yul\":18979:19307   */\n      pop\n      pop\n      pop\n        /* \"#utility.yul\":19360:19361   */\n      0x01\n        /* \"#utility.yul\":19354:19358   */\n      dup2\n        /* \"#utility.yul\":19350:19362   */\n      add\n        /* \"#utility.yul\":19406:19408   */\n      0x20\n        /* \"#utility.yul\":19399:19404   */\n      dup4\n        /* \"#utility.yul\":19395:19409   */\n      add\n        /* \"#utility.yul\":19457:19469   */\n      dup1\n        /* \"#utility.yul\":19500:19542   */\n      tag_550\n        /* \"#utility.yul\":19528:19541   */\n      dup2\n        /* \"#utility.yul\":19500:19542   */\n      tag_329\n      jump\t// in\n    tag_550:\n        /* \"#utility.yul\":19483:19542   */\n      swap1\n      pop\n        /* \"#utility.yul\":19556:19635   */\n      tag_551\n        /* \"#utility.yul\":19621:19634   */\n      dup2\n        /* \"#utility.yul\":19609:19619   */\n      dup5\n        /* \"#utility.yul\":19556:19635   */\n      tag_335\n      jump\t// in\n    tag_551:\n        /* \"#utility.yul\":19317:19646   */\n      pop\n      pop\n      pop\n        /* \"#utility.yul\":19699:19700   */\n      0x02\n        /* \"#utility.yul\":19693:19697   */\n      dup2\n        /* \"#utility.yul\":19689:19701   */\n      add\n        /* \"#utility.yul\":19745:19747   */\n      0x40\n        /* \"#utility.yul\":19738:19743   */\n      dup4\n        /* \"#utility.yul\":19734:19748   */\n      add\n        /* \"#utility.yul\":19796:19808   */\n      dup1\n        /* \"#utility.yul\":19839:19881   */\n      tag_552\n        /* \"#utility.yul\":19867:19880   */\n      dup2\n        /* \"#utility.yul\":19839:19881   */\n      tag_329\n      jump\t// in\n    tag_552:\n        /* \"#utility.yul\":19822:19881   */\n      swap1\n      pop\n        /* \"#utility.yul\":19895:19974   */\n      tag_553\n        /* \"#utility.yul\":19960:19973   */\n      dup2\n        /* \"#utility.yul\":19948:19958   */\n      dup5\n        /* \"#utility.yul\":19895:19974   */\n      tag_335\n      jump\t// in\n    tag_553:\n        /* \"#utility.yul\":19656:19985   */\n      pop\n      pop\n      pop\n        /* \"#utility.yul\":20038:20039   */\n      0x03\n        /* \"#utility.yul\":20032:20036   */\n      dup2\n        /* \"#utility.yul\":20028:20040   */\n      add\n        /* \"#utility.yul\":20084:20086   */\n      0x60\n        /* \"#utility.yul\":20077:20082   */\n      dup4\n        /* \"#utility.yul\":20073:20087   */\n      add\n        /* \"#utility.yul\":20135:20147   */\n      dup1\n        /* \"#utility.yul\":20178:20220   */\n      tag_554\n        /* \"#utility.yul\":20206:20219   */\n      dup2\n        /* \"#utility.yul\":20178:20220   */\n      tag_329\n      jump\t// in\n    tag_554:\n        /* \"#utility.yul\":20161:20220   */\n      swap1\n      pop\n        /* \"#utility.yul\":20234:20313   */\n      tag_555\n        /* \"#utility.yul\":20299:20312   */\n      dup2\n        /* \"#utility.yul\":20287:20297   */\n      dup5\n        /* \"#utility.yul\":20234:20313   */\n      tag_335\n      jump\t// in\n    tag_555:\n        /* \"#utility.yul\":19995:20324   */\n      pop\n      pop\n      pop\n        /* \"#utility.yul\":20377:20378   */\n      0x04\n        /* \"#utility.yul\":20371:20375   */\n      dup2\n        /* \"#utility.yul\":20367:20379   */\n      add\n        /* \"#utility.yul\":20423:20426   */\n      0x80\n        /* \"#utility.yul\":20416:20421   */\n      dup4\n        /* \"#utility.yul\":20412:20427   */\n      add\n        /* \"#utility.yul\":20475:20487   */\n      dup1\n        /* \"#utility.yul\":20518:20560   */\n      tag_556\n        /* \"#utility.yul\":20546:20559   */\n      dup2\n        /* \"#utility.yul\":20518:20560   */\n      tag_329\n      jump\t// in\n    tag_556:\n        /* \"#utility.yul\":20501:20560   */\n      swap1\n      pop\n        /* \"#utility.yul\":20574:20653   */\n      tag_557\n        /* \"#utility.yul\":20639:20652   */\n      dup2\n        /* \"#utility.yul\":20627:20637   */\n      dup5\n        /* \"#utility.yul\":20574:20653   */\n      tag_335\n      jump\t// in\n    tag_557:\n        /* \"#utility.yul\":20334:20664   */\n      pop\n      pop\n      pop\n        /* \"#utility.yul\":18838:20671   */\n      pop\n      pop\n      jump\t// out\n        /* \"#utility.yul\":20677:20950   */\n    tag_153:\n        /* \"#utility.yul\":20822:20944   */\n      tag_559\n        /* \"#utility.yul\":20936:20943   */\n      dup3\n        /* \"#utility.yul\":20930:20934   */\n      dup3\n        /* \"#utility.yul\":20822:20944   */\n      tag_336\n      jump\t// in\n    tag_559:\n        /* \"#utility.yul\":20677:20950   */\n      pop\n      pop\n      jump\t// out\n        /* \"#utility.yul\":20956:21078   */\n    tag_337:\n        /* \"#utility.yul\":21008:21013   */\n      0x00\n        /* \"#utility.yul\":21033:21072   */\n      tag_561\n        /* \"#utility.yul\":21068:21070   */\n      0x20\n        /* \"#utility.yul\":21063:21066   */\n      dup5\n        /* \"#utility.yul\":21059:21071   */\n      add\n        /* \"#utility.yul\":21054:21057   */\n      dup5\n        /* \"#utility.yul\":21033:21072   */\n      tag_300\n      jump\t// in\n    tag_561:\n        /* \"#utility.yul\":21024:21072   */\n      swap1\n      pop\n        /* \"#utility.yul\":20956:21078   */\n      swap3\n      swap2\n      pop\n      pop\n      jump\t// out\n        /* \"#utility.yul\":21160:22397   */\n    tag_338:\n        /* \"#utility.yul\":21317:21321   */\n      0xa0\n        /* \"#utility.yul\":21312:21315   */\n      dup3\n        /* \"#utility.yul\":21308:21322   */\n      add\n        /* \"#utility.yul\":21400:21450   */\n      tag_563\n        /* \"#utility.yul\":21444:21448   */\n      0x00\n        /* \"#utility.yul\":21437:21442   */\n      dup4\n        /* \"#utility.yul\":21433:21449   */\n      add\n        /* \"#utility.yul\":21426:21431   */\n      dup4\n        /* \"#utility.yul\":21400:21450   */\n      tag_337\n      jump\t// in\n    tag_563:\n        /* \"#utility.yul\":21463:21526   */\n      tag_564\n        /* \"#utility.yul\":21520:21524   */\n      0x00\n        /* \"#utility.yul\":21515:21518   */\n      dup6\n        /* \"#utility.yul\":21511:21525   */\n      add\n        /* \"#utility.yul\":21497:21509   */\n      dup3\n        /* \"#utility.yul\":21463:21526   */\n      tag_312\n      jump\t// in\n    tag_564:\n        /* \"#utility.yul\":21332:21536   */\n      pop\n        /* \"#utility.yul\":21614:21664   */\n      tag_565\n        /* \"#utility.yul\":21658:21662   */\n      0x20\n        /* \"#utility.yul\":21651:21656   */\n      dup4\n        /* \"#utility.yul\":21647:21663   */\n      add\n        /* \"#utility.yul\":21640:21645   */\n      dup4\n        /* \"#utility.yul\":21614:21664   */\n      tag_337\n      jump\t// in\n    tag_565:\n        /* \"#utility.yul\":21677:21740   */\n      tag_566\n        /* \"#utility.yul\":21734:21738   */\n      0x20\n        /* \"#utility.yul\":21729:21732   */\n      dup6\n        /* \"#utility.yul\":21725:21739   */\n      add\n        /* \"#utility.yul\":21711:21723   */\n      dup3\n        /* \"#utility.yul\":21677:21740   */\n      tag_312\n      jump\t// in\n    tag_566:\n        /* \"#utility.yul\":21546:21750   */\n      pop\n        /* \"#utility.yul\":21830:21880   */\n      tag_567\n        /* \"#utility.yul\":21874:21878   */\n      0x40\n        /* \"#utility.yul\":21867:21872   */\n      dup4\n        /* \"#utility.yul\":21863:21879   */\n      add\n        /* \"#utility.yul\":21856:21861   */\n      dup4\n        /* \"#utility.yul\":21830:21880   */\n      tag_337\n      jump\t// in\n    tag_567:\n        /* \"#utility.yul\":21893:21956   */\n      tag_568\n        /* \"#utility.yul\":21950:21954   */\n      0x40\n        /* \"#utility.yul\":21945:21948   */\n      dup6\n        /* \"#utility.yul\":21941:21955   */\n      add\n        /* \"#utility.yul\":21927:21939   */\n      dup3\n        /* \"#utility.yul\":21893:21956   */\n      tag_312\n      jump\t// in\n    tag_568:\n        /* \"#utility.yul\":21760:21966   */\n      pop\n        /* \"#utility.yul\":22043:22093   */\n      tag_569\n        /* \"#utility.yul\":22087:22091   */\n      0x60\n        /* \"#utility.yul\":22080:22085   */\n      dup4\n        /* \"#utility.yul\":22076:22092   */\n      add\n        /* \"#utility.yul\":22069:22074   */\n      dup4\n        /* \"#utility.yul\":22043:22093   */\n      tag_337\n      jump\t// in\n    tag_569:\n        /* \"#utility.yul\":22106:22169   */\n      tag_570\n        /* \"#utility.yul\":22163:22167   */\n      0x60\n        /* \"#utility.yul\":22158:22161   */\n      dup6\n        /* \"#utility.yul\":22154:22168   */\n      add\n        /* \"#utility.yul\":22140:22152   */\n      dup3\n        /* \"#utility.yul\":22106:22169   */\n      tag_312\n      jump\t// in\n    tag_570:\n        /* \"#utility.yul\":21976:22179   */\n      pop\n        /* \"#utility.yul\":22254:22304   */\n      tag_571\n        /* \"#utility.yul\":22298:22302   */\n      0x80\n        /* \"#utility.yul\":22291:22296   */\n      dup4\n        /* \"#utility.yul\":22287:22303   */\n      add\n        /* \"#utility.yul\":22280:22285   */\n      dup4\n        /* \"#utility.yul\":22254:22304   */\n      tag_337\n      jump\t// in\n    tag_571:\n        /* \"#utility.yul\":22317:22380   */\n      tag_572\n        /* \"#utility.yul\":22374:22378   */\n      0x80\n        /* \"#utility.yul\":22369:22372   */\n      dup6\n        /* \"#utility.yul\":22365:22379   */\n      add\n        /* \"#utility.yul\":22351:22363   */\n      dup3\n        /* \"#utility.yul\":22317:22380   */\n      tag_312\n      jump\t// in\n    tag_572:\n        /* \"#utility.yul\":22189:22390   */\n      pop\n        /* \"#utility.yul\":21286:22397   */\n      pop\n        /* \"#utility.yul\":21160:22397   */\n      pop\n      pop\n      jump\t// out\n        /* \"#utility.yul\":22403:22746   */\n    tag_155:\n        /* \"#utility.yul\":22556:22560   */\n      0x00\n        /* \"#utility.yul\":22594:22597   */\n      0xa0\n        /* \"#utility.yul\":22583:22592   */\n      dup3\n        /* \"#utility.yul\":22579:22598   */\n      add\n        /* \"#utility.yul\":22571:22598   */\n      swap1\n      pop\n        /* \"#utility.yul\":22608:22739   */\n      tag_574\n        /* \"#utility.yul\":22736:22737   */\n      0x00\n        /* \"#utility.yul\":22725:22734   */\n      dup4\n        /* \"#utility.yul\":22721:22738   */\n      add\n        /* \"#utility.yul\":22712:22718   */\n      dup5\n        /* \"#utility.yul\":22608:22739   */\n      tag_338\n      jump\t// in\n    tag_574:\n        /* \"#utility.yul\":22403:22746   */\n      swap3\n      swap2\n      pop\n      pop\n      jump\t// out\n        /* \"#utility.yul\":22752:22923   */\n    tag_339:\n        /* \"#utility.yul\":22892:22915   */\n      0x4172726179206c656e677468206d69736d617463680000000000000000000000\n        /* \"#utility.yul\":22888:22889   */\n      0x00\n        /* \"#utility.yul\":22880:22886   */\n      dup3\n        /* \"#utility.yul\":22876:22890   */\n      add\n        /* \"#utility.yul\":22869:22916   */\n      mstore\n        /* \"#utility.yul\":22752:22923   */\n      pop\n      jump\t// out\n        /* \"#utility.yul\":22929:23295   */\n    tag_340:\n        /* \"#utility.yul\":23071:23074   */\n      0x00\n        /* \"#utility.yul\":23092:23159   */\n      tag_577\n        /* \"#utility.yul\":23156:23158   */\n      0x15\n        /* \"#utility.yul\":23151:23154   */\n      dup4\n        /* \"#utility.yul\":23092:23159   */\n      tag_318\n      jump\t// in\n    tag_577:\n        /* \"#utility.yul\":23085:23159   */\n      swap2\n      pop\n        /* \"#utility.yul\":23168:23261   */\n      tag_578\n        /* \"#utility.yul\":23257:23260   */\n      dup3\n        /* \"#utility.yul\":23168:23261   */\n      tag_339\n      jump\t// in\n    tag_578:\n        /* \"#utility.yul\":23286:23288   */\n      0x20\n        /* \"#utility.yul\":23281:23284   */\n      dup3\n        /* \"#utility.yul\":23277:23289   */\n      add\n        /* \"#utility.yul\":23270:23289   */\n      swap1\n      pop\n        /* \"#utility.yul\":22929:23295   */\n      swap2\n      swap1\n      pop\n      jump\t// out\n        /* \"#utility.yul\":23301:23720   */\n    tag_170:\n        /* \"#utility.yul\":23467:23471   */\n      0x00\n        /* \"#utility.yul\":23505:23507   */\n      0x20\n        /* \"#utility.yul\":23494:23503   */\n      dup3\n        /* \"#utility.yul\":23490:23508   */\n      add\n        /* \"#utility.yul\":23482:23508   */\n      swap1\n      pop\n        /* \"#utility.yul\":23554:23563   */\n      dup2\n        /* \"#utility.yul\":23548:23552   */\n      dup2\n        /* \"#utility.yul\":23544:23564   */\n      sub\n        /* \"#utility.yul\":23540:23541   */\n      0x00\n        /* \"#utility.yul\":23529:23538   */\n      dup4\n        /* \"#utility.yul\":23525:23542   */\n      add\n        /* \"#utility.yul\":23518:23565   */\n      mstore\n        /* \"#utility.yul\":23582:23713   */\n      tag_580\n        /* \"#utility.yul\":23708:23712   */\n      dup2\n        /* \"#utility.yul\":23582:23713   */\n      tag_340\n      jump\t// in\n    tag_580:\n        /* \"#utility.yul\":23574:23713   */\n      swap1\n      pop\n        /* \"#utility.yul\":23301:23720   */\n      swap2\n      swap1\n      pop\n      jump\t// out\n        /* \"#utility.yul\":23726:23906   */\n    tag_177:\n        /* \"#utility.yul\":23774:23851   */\n      0x4e487b7100000000000000000000000000000000000000000000000000000000\n        /* \"#utility.yul\":23771:23772   */\n      0x00\n        /* \"#utility.yul\":23764:23852   */\n      mstore\n        /* \"#utility.yul\":23871:23875   */\n      0x32\n        /* \"#utility.yul\":23868:23869   */\n      0x04\n        /* \"#utility.yul\":23861:23876   */\n      mstore\n        /* \"#utility.yul\":23895:23899   */\n      0x24\n        /* \"#utility.yul\":23892:23893   */\n      0x00\n        /* \"#utility.yul\":23885:23900   */\n      revert\n        /* \"#utility.yul\":23912:24029   */\n    tag_341:\n        /* \"#utility.yul\":24021:24022   */\n      0x00\n        /* \"#utility.yul\":24018:24019   */\n      0x00\n        /* \"#utility.yul\":24011:24023   */\n      revert\n        /* \"#utility.yul\":24035:24152   */\n    tag_342:\n        /* \"#utility.yul\":24144:24145   */\n      0x00\n        /* \"#utility.yul\":24141:24142   */\n      0x00\n        /* \"#utility.yul\":24134:24146   */\n      revert\n        /* \"#utility.yul\":24158:24275   */\n    tag_343:\n        /* \"#utility.yul\":24267:24268   */\n      0x00\n        /* \"#utility.yul\":24264:24265   */\n      0x00\n        /* \"#utility.yul\":24257:24269   */\n      revert\n        /* \"#utility.yul\":24281:25006   */\n    tag_184:\n        /* \"#utility.yul\":24359:24363   */\n      0x00\n        /* \"#utility.yul\":24365:24371   */\n      0x00\n        /* \"#utility.yul\":24421:24432   */\n      dup4\n        /* \"#utility.yul\":24408:24433   */\n      calldataload\n        /* \"#utility.yul\":24521:24522   */\n      0x01\n        /* \"#utility.yul\":24515:24519   */\n      0x20\n        /* \"#utility.yul\":24511:24523   */\n      sub\n        /* \"#utility.yul\":24500:24508   */\n      dup5\n        /* \"#utility.yul\":24484:24498   */\n      calldatasize\n        /* \"#utility.yul\":24480:24509   */\n      sub\n        /* \"#utility.yul\":24476:24524   */\n      sub\n        /* \"#utility.yul\":24456:24474   */\n      dup2\n        /* \"#utility.yul\":24452:24525   */\n      slt\n        /* \"#utility.yul\":24442:24610   */\n      tag_586\n      jumpi\n        /* \"#utility.yul\":24529:24608   */\n      tag_587\n      tag_341\n      jump\t// in\n    tag_587:\n        /* \"#utility.yul\":24442:24610   */\n    tag_586:\n        /* \"#utility.yul\":24641:24659   */\n      dup1\n        /* \"#utility.yul\":24631:24639   */\n      dup5\n        /* \"#utility.yul\":24627:24660   */\n      add\n        /* \"#utility.yul\":24619:24660   */\n      swap3\n      pop\n        /* \"#utility.yul\":24693:24697   */\n      dup3\n        /* \"#utility.yul\":24680:24698   */\n      calldataload\n        /* \"#utility.yul\":24670:24698   */\n      swap2\n      pop\n        /* \"#utility.yul\":24721:24739   */\n      0xffffffffffffffff\n        /* \"#utility.yul\":24713:24719   */\n      dup3\n        /* \"#utility.yul\":24710:24740   */\n      gt\n        /* \"#utility.yul\":24707:24824   */\n      iszero\n      tag_588\n      jumpi\n        /* \"#utility.yul\":24743:24822   */\n      tag_589\n      tag_342\n      jump\t// in\n    tag_589:\n        /* \"#utility.yul\":24707:24824   */\n    tag_588:\n        /* \"#utility.yul\":24851:24853   */\n      0x20\n        /* \"#utility.yul\":24845:24849   */\n      dup4\n        /* \"#utility.yul\":24841:24854   */\n      add\n        /* \"#utility.yul\":24833:24854   */\n      swap3\n      pop\n        /* \"#utility.yul\":24908:24912   */\n      0x01\n        /* \"#utility.yul\":24900:24906   */\n      dup3\n        /* \"#utility.yul\":24896:24913   */\n      mul\n        /* \"#utility.yul\":24880:24894   */\n      calldatasize\n        /* \"#utility.yul\":24876:24914   */\n      sub\n        /* \"#utility.yul\":24870:24874   */\n      dup4\n        /* \"#utility.yul\":24866:24915   */\n      sgt\n        /* \"#utility.yul\":24863:24999   */\n      iszero\n      tag_590\n      jumpi\n        /* \"#utility.yul\":24918:24997   */\n      tag_591\n      tag_343\n      jump\t// in\n    tag_591:\n        /* \"#utility.yul\":24863:24999   */\n    tag_590:\n        /* \"#utility.yul\":24372:25006   */\n      pop\n        /* \"#utility.yul\":24281:25006   */\n      swap3\n      pop\n      swap3\n      swap1\n      pop\n      jump\t// out\n        /* \"#utility.yul\":25012:25097   */\n    tag_344:\n        /* \"#utility.yul\":25057:25064   */\n      0x00\n        /* \"#utility.yul\":25086:25091   */\n      dup2\n        /* \"#utility.yul\":25075:25091   */\n      swap1\n      pop\n        /* \"#utility.yul\":25012:25097   */\n      swap2\n      swap1\n      pop\n      jump\t// out\n        /* \"#utility.yul\":25103:25204   */\n    tag_345:\n        /* \"#utility.yul\":25139:25146   */\n      0x00\n        /* \"#utility.yul\":25179:25197   */\n      0xffffffffffffffff\n        /* \"#utility.yul\":25172:25177   */\n      dup3\n        /* \"#utility.yul\":25168:25198   */\n      and\n        /* \"#utility.yul\":25157:25198   */\n      swap1\n      pop\n        /* \"#utility.yul\":25103:25204   */\n      swap2\n      swap1\n      pop\n      jump\t// out\n        /* \"#utility.yul\":25210:25366   */\n    tag_346:\n        /* \"#utility.yul\":25267:25276   */\n      0x00\n        /* \"#utility.yul\":25300:25360   */\n      tag_595\n        /* \"#utility.yul\":25317:25359   */\n      tag_596\n        /* \"#utility.yul\":25326:25358   */\n      tag_597\n        /* \"#utility.yul\":25352:25357   */\n      dup5\n        /* \"#utility.yul\":25326:25358   */\n      tag_344\n      jump\t// in\n    tag_597:\n        /* \"#utility.yul\":25317:25359   */\n      tag_332\n      jump\t// in\n    tag_596:\n        /* \"#utility.yul\":25300:25360   */\n      tag_345\n      jump\t// in\n    tag_595:\n        /* \"#utility.yul\":25287:25360   */\n      swap1\n      pop\n        /* \"#utility.yul\":25210:25366   */\n      swap2\n      swap1\n      pop\n      jump\t// out\n        /* \"#utility.yul\":25372:25517   */\n    tag_347:\n        /* \"#utility.yul\":25466:25510   */\n      tag_599\n        /* \"#utility.yul\":25504:25509   */\n      dup2\n        /* \"#utility.yul\":25466:25510   */\n      tag_346\n      jump\t// in\n    tag_599:\n        /* \"#utility.yul\":25461:25464   */\n      dup3\n        /* \"#utility.yul\":25454:25511   */\n      mstore\n        /* \"#utility.yul\":25372:25517   */\n      pop\n      pop\n      jump\t// out\n        /* \"#utility.yul\":25523:25759   */\n    tag_200:\n        /* \"#utility.yul\":25623:25627   */\n      0x00\n        /* \"#utility.yul\":25661:25663   */\n      0x20\n        /* \"#utility.yul\":25650:25659   */\n      dup3\n        /* \"#utility.yul\":25646:25664   */\n      add\n        /* \"#utility.yul\":25638:25664   */\n      swap1\n      pop\n        /* \"#utility.yul\":25674:25752   */\n      tag_601\n        /* \"#utility.yul\":25749:25750   */\n      0x00\n        /* \"#utility.yul\":25738:25747   */\n      dup4\n        /* \"#utility.yul\":25734:25751   */\n      add\n        /* \"#utility.yul\":25725:25731   */\n      dup5\n        /* \"#utility.yul\":25674:25752   */\n      tag_347\n      jump\t// in\n    tag_601:\n        /* \"#utility.yul\":25523:25759   */\n      swap3\n      swap2\n      pop\n      pop\n      jump\t// out\n        /* \"#utility.yul\":25765:25864   */\n    tag_348:\n        /* \"#utility.yul\":25817:25823   */\n      0x00\n        /* \"#utility.yul\":25851:25856   */\n      dup2\n        /* \"#utility.yul\":25845:25857   */\n      mload\n        /* \"#utility.yul\":25835:25857   */\n      swap1\n      pop\n        /* \"#utility.yul\":25765:25864   */\n      swap2\n      swap1\n      pop\n      jump\t// out\n        /* \"#utility.yul\":25870:26018   */\n    tag_349:\n        /* \"#utility.yul\":25972:25983   */\n      0x00\n        /* \"#utility.yul\":26009:26012   */\n      dup2\n        /* \"#utility.yul\":25994:26012   */\n      swap1\n      pop\n        /* \"#utility.yul\":25870:26018   */\n      swap3\n      swap2\n      pop\n      pop\n      jump\t// out\n        /* \"#utility.yul\":26024:26163   */\n    tag_350:\n        /* \"#utility.yul\":26113:26119   */\n      dup3\n        /* \"#utility.yul\":26108:26111   */\n      dup2\n        /* \"#utility.yul\":26103:26106   */\n      dup4\n        /* \"#utility.yul\":26097:26120   */\n      mcopy\n        /* \"#utility.yul\":26154:26155   */\n      0x00\n        /* \"#utility.yul\":26145:26151   */\n      dup4\n        /* \"#utility.yul\":26140:26143   */\n      dup4\n        /* \"#utility.yul\":26136:26152   */\n      add\n        /* \"#utility.yul\":26129:26156   */\n      mstore\n        /* \"#utility.yul\":26024:26163   */\n      pop\n      pop\n      pop\n      jump\t// out\n        /* \"#utility.yul\":26169:26559   */\n    tag_351:\n        /* \"#utility.yul\":26275:26278   */\n      0x00\n        /* \"#utility.yul\":26303:26342   */\n      tag_606\n        /* \"#utility.yul\":26336:26341   */\n      dup3\n        /* \"#utility.yul\":26303:26342   */\n      tag_348\n      jump\t// in\n    tag_606:\n        /* \"#utility.yul\":26358:26447   */\n      tag_607\n        /* \"#utility.yul\":26440:26446   */\n      dup2\n        /* \"#utility.yul\":26435:26438   */\n      dup6\n        /* \"#utility.yul\":26358:26447   */\n      tag_349\n      jump\t// in\n    tag_607:\n        /* \"#utility.yul\":26351:26447   */\n      swap4\n      pop\n        /* \"#utility.yul\":26456:26521   */\n      tag_608\n        /* \"#utility.yul\":26514:26520   */\n      dup2\n        /* \"#utility.yul\":26509:26512   */\n      dup6\n        /* \"#utility.yul\":26502:26506   */\n      0x20\n        /* \"#utility.yul\":26495:26500   */\n      dup7\n        /* \"#utility.yul\":26491:26507   */\n      add\n        /* \"#utility.yul\":26456:26521   */\n      tag_350\n      jump\t// in\n    tag_608:\n        /* \"#utility.yul\":26546:26552   */\n      dup1\n        /* \"#utility.yul\":26541:26544   */\n      dup5\n        /* \"#utility.yul\":26537:26553   */\n      add\n        /* \"#utility.yul\":26530:26553   */\n      swap2\n      pop\n        /* \"#utility.yul\":26279:26559   */\n      pop\n        /* \"#utility.yul\":26169:26559   */\n      swap3\n      swap2\n      pop\n      pop\n      jump\t// out\n        /* \"#utility.yul\":26565:26840   */\n    tag_247:\n        /* \"#utility.yul\":26697:26700   */\n      0x00\n        /* \"#utility.yul\":26719:26814   */\n      tag_610\n        /* \"#utility.yul\":26810:26813   */\n      dup3\n        /* \"#utility.yul\":26801:26807   */\n      dup5\n        /* \"#utility.yul\":26719:26814   */\n      tag_351\n      jump\t// in\n    tag_610:\n        /* \"#utility.yul\":26712:26814   */\n      swap2\n      pop\n        /* \"#utility.yul\":26831:26834   */\n      dup2\n        /* \"#utility.yul\":26824:26834   */\n      swap1\n      pop\n        /* \"#utility.yul\":26565:26840   */\n      swap3\n      swap2\n      pop\n      pop\n      jump\t// out\n\n    auxdata: 0xa2646970667358221220f523d0ebcdb07ee3f4a9a5a362abe7bfa14d8a079fbd4aff9190d810ddf9702564736f6c634300081e0033\n}\n",
				"bytecode": {
					"linkReferences": {},
					"object": "6080604052348015600e575f5ffd5b506126758061001c5f395ff3fe608060405234801561000f575f5ffd5b506004361061011f575f3560e01c80637bc94d98116100ab578063c56963981161006f578063c5696398146102d1578063d5b9221b146102ed578063f2fde38b1461031d578063f50ddbc714610339578063f60ccc861461036e5761011f565b80637bc94d981461023f5780638129fc1c1461025d5780638da5cb5b146102675780638e65eb1114610285578063aeefe31f146102a15761011f565b806353a64671116100f257806353a64671146101bf57806355517f56146101db578063715018a6146101f7578063794809de1461020157806379502c551461021d5761011f565b80632a42a564146101235780632c8056021461013f5780632ede8bf51461015b578063535713961461018b575b5f5ffd5b61013d60048036038101906101389190611a97565b61038a565b005b61015960048036038101906101549190611b08565b610627565b005b61017560048036038101906101709190611b58565b6107b6565b6040516101829190611b92565b60405180910390f35b6101a560048036038101906101a09190611b58565b6108bb565b6040516101b6959493929190611bab565b60405180910390f35b6101d960048036038101906101d49190611b08565b610972565b005b6101f560048036038101906101f09190611c1e565b610aff565b005b6101ff610b53565b005b61021b60048036038101906102169190611d48565b610b66565b005b610225610d5c565b604051610236959493929190611bab565b60405180910390f35b610247610d7f565b6040516102549190611b92565b60405180910390f35b610265610d85565b005b61026f610f6f565b60405161027c9190611e07565b60405180910390f35b61029f600480360381019061029a9190611b08565b610fa4565b005b6102bb60048036038101906102b69190611b58565b611133565b6040516102c89190611ea8565b60405180910390f35b6102eb60048036038101906102e69190611b58565b6111c5565b005b61030760048036038101906103029190611b58565b6113aa565b6040516103149190611edb565b60405180910390f35b61033760048036038101906103329190611b58565b6113c7565b005b610353600480360381019061034e9190611b58565b61144b565b60405161036596959493929190611ef4565b60405180910390f35b61038860048036038101906103839190611f7d565b611483565b005b60335f3373ffffffffffffffffffffffffffffffffffffffff1673ffffffffffffffffffffffffffffffffffffffff1681526020019081526020015f205f9054906101000a900460ff168061041157506103e2610f6f565b73ffffffffffffffffffffffffffffffffffffffff163373ffffffffffffffffffffffffffffffffffffffff16145b610450576040517f08c379a000000000000000000000000000000000000000000000000000000000815260040161044790612015565b60405180910390fd5b8260325f8673ffffffffffffffffffffffffffffffffffffffff1673ffffffffffffffffffffffffffffffffffffffff1681526020019081526020015f206004015410156104d3576040517f08c379a00000000000000000000000000000000000000000000000000000000081526004016104ca9061207d565b60405180910390fd5b8260325f8673ffffffffffffffffffffffffffffffffffffffff1673ffffffffffffffffffffffffffffffffffffffff1681526020019081526020015f206004015f82825461052291906120c8565b925050819055508260395f82825461053a91906120c8565b925050819055508373ffffffffffffffffffffffffffffffffffffffff167fda49bb5bf412718988a26709b7c8c5385b0af3ae2570f06613f372c2d401faf284848460405161058b93929190612145565b60405180910390a28373ffffffffffffffffffffffffffffffffffffffff167fa05f39e6d8d4e060324edb900f0f5909de621fd93f19ccf65ba74e5965c98c3660325f8773ffffffffffffffffffffffffffffffffffffffff1673ffffffffffffffffffffffffffffffffffffffff1681526020019081526020015f20600401546040516106199190611b92565b60405180910390a250505050565b60335f3373ffffffffffffffffffffffffffffffffffffffff1673ffffffffffffffffffffffffffffffffffffffff1681526020019081526020015f205f9054906101000a900460ff16806106ae575061067f610f6f565b73ffffffffffffffffffffffffffffffffffffffff163373ffffffffffffffffffffffffffffffffffffffff16145b6106ed576040517f08c379a00000000000000000000000000000000000000000000000000000000081526004016106e490612015565b60405180910390fd5b5f6201518082603460010154856107049190612175565b61070e9190612175565b61071891906121e3565b905061075a84826040518060400160405280600781526020017f6c656e64696e6700000000000000000000000000000000000000000000000000815250611531565b8060325f8673ffffffffffffffffffffffffffffffffffffffff1673ffffffffffffffffffffffffffffffffffffffff1681526020019081526020015f206001015f8282546107a99190612213565b9250508190555050505050565b5f5f60325f8473ffffffffffffffffffffffffffffffffffffffff1673ffffffffffffffffffffffffffffffffffffffff1681526020019081526020015f206040518060c00160405290815f82015481526020016001820154815260200160028201548152602001600382015481526020016004820154815260200160058201548152505090505f8160a0015103610851575f9150506108b6565b5f620151808260a001514261086691906120c8565b61087091906121e3565b90505f8103610883575f925050506108b6565b5f6034600401548211610896578161089d565b6034600401545b9050603460030154816108b09190612175565b93505050505b919050565b5f5f5f5f5f5f60325f8873ffffffffffffffffffffffffffffffffffffffff1673ffffffffffffffffffffffffffffffffffffffff1681526020019081526020015f206040518060c00160405290815f8201548152602001600182015481526020016002820154815260200160038201548152602001600482015481526020016005820154815250509050805f01518160200151826040015183606001518460800151955095509550955095505091939590929450565b60335f3373ffffffffffffffffffffffffffffffffffffffff1673ffffffffffffffffffffffffffffffffffffffff1681526020019081526020015f205f9054906101000a900460ff16806109f957506109ca610f6f565b73ffffffffffffffffffffffffffffffffffffffff163373ffffffffffffffffffffffffffffffffffffffff16145b610a38576040517f08c379a0000000000000000000000000000000000000000000000000000000008152600401610a2f90612015565b60405180910390fd5b5f620151808260345f015485610a4e9190612175565b610a589190612175565b610a6291906121e3565b9050610aa484826040518060400160405280600781526020017f7374616b696e6700000000000000000000000000000000000000000000000000815250611531565b8060325f8673ffffffffffffffffffffffffffffffffffffffff1673ffffffffffffffffffffffffffffffffffffffff1681526020019081526020015f205f015f828254610af29190612213565b9250508190555050505050565b610b07611696565b8060348181610b1691906123a4565b9050507f88258486e342f2cd0e19b64e0505c355505bea7d2e2bd3258aa5061fda88a26881604051610b489190612456565b60405180910390a150565b610b5b611696565b610b645f61171d565b565b60335f3373ffffffffffffffffffffffffffffffffffffffff1673ffffffffffffffffffffffffffffffffffffffff1681526020019081526020015f205f9054906101000a900460ff1680610bed5750610bbe610f6f565b73ffffffffffffffffffffffffffffffffffffffff163373ffffffffffffffffffffffffffffffffffffffff16145b610c2c576040517f08c379a0000000000000000000000000000000000000000000000000000000008152600401610c2390612015565b60405180910390fd5b8383905086869050148015610c4657508181905084849050145b610c85576040517f08c379a0000000000000000000000000000000000000000000000000000000008152600401610c7c906124b9565b60405180910390fd5b5f5f90505b86869050811015610d5357610d46878783818110610cab57610caa6124d7565b5b9050602002016020810190610cc09190611b58565b868684818110610cd357610cd26124d7565b5b90506020020135858585818110610ced57610cec6124d7565b5b9050602002810190610cff9190612510565b8080601f0160208091040260200160405190810160405280939291908181526020018383808284375f81840152601f19601f82011690508083019250505050505050611531565b8080600101915050610c8a565b50505050505050565b6034805f0154908060010154908060020154908060030154908060040154905085565b60395481565b5f610d8e6117ee565b90505f815f0160089054906101000a900460ff161590505f825f015f9054906101000a900467ffffffffffffffff1690505f5f8267ffffffffffffffff16148015610dd65750825b90505f60018367ffffffffffffffff16148015610e0957505f3073ffffffffffffffffffffffffffffffffffffffff163b145b905081158015610e17575080155b15610e4e576040517ff92ee8a900000000000000000000000000000000000000000000000000000000815260040160405180910390fd5b6001855f015f6101000a81548167ffffffffffffffff021916908367ffffffffffffffff1602179055508315610e9b576001855f0160086101000a81548160ff0219169083151502179055505b610ea433611801565b610eac611815565b6040518060a00160405280606481526020016032815260200160198152602001600a815260200161016d81525060345f820151815f0155602082015181600101556040820151816002015560608201518160030155608082015181600401559050508315610f68575f855f0160086101000a81548160ff0219169083151502179055507fc7f505b2f371ae2175ee4913f4499e1f2633a7b5936321eed1cdaeb6115181d26001604051610f5f91906125be565b60405180910390a15b5050505050565b5f5f610f79611827565b9050805f015f9054906101000a900473ffffffffffffffffffffffffffffffffffffffff1691505090565b60335f3373ffffffffffffffffffffffffffffffffffffffff1673ffffffffffffffffffffffffffffffffffffffff1681526020019081526020015f205f9054906101000a900460ff168061102b5750610ffc610f6f565b73ffffffffffffffffffffffffffffffffffffffff163373ffffffffffffffffffffffffffffffffffffffff16145b61106a576040517f08c379a000000000000000000000000000000000000000000000000000000000815260040161106190612015565b60405180910390fd5b5f6201518082603460020154856110819190612175565b61108b9190612175565b61109591906121e3565b90506110d784826040518060400160405280600981526020017f626f72726f77696e670000000000000000000000000000000000000000000000815250611531565b8060325f8673ffffffffffffffffffffffffffffffffffffffff1673ffffffffffffffffffffffffffffffffffffffff1681526020019081526020015f206002015f8282546111269190612213565b9250508190555050505050565b61113b611971565b60325f8373ffffffffffffffffffffffffffffffffffffffff1673ffffffffffffffffffffffffffffffffffffffff1681526020019081526020015f206040518060c00160405290815f8201548152602001600182015481526020016002820154815260200160038201548152602001600482015481526020016005820154815250509050919050565b60335f3373ffffffffffffffffffffffffffffffffffffffff1673ffffffffffffffffffffffffffffffffffffffff1681526020019081526020015f205f9054906101000a900460ff168061124c575061121d610f6f565b73ffffffffffffffffffffffffffffffffffffffff163373ffffffffffffffffffffffffffffffffffffffff16145b61128b576040517f08c379a000000000000000000000000000000000000000000000000000000000815260040161128290612015565b60405180910390fd5b5f60325f8373ffffffffffffffffffffffffffffffffffffffff1673ffffffffffffffffffffffffffffffffffffffff1681526020019081526020015f2090505f8160050154036112e557428160050181905550506113a7565b5f620151808260050154426112fa91906120c8565b61130491906121e3565b90505f8111156113a4575f60346004015482116113215781611328565b6034600401545b90505f6034600301548261133c9190612175565b905061137e85826040518060400160405280600781526020017f6c6f79616c747900000000000000000000000000000000000000000000000000815250611531565b80846003015f8282546113919190612213565b9250508190555042846005018190555050505b50505b50565b6033602052805f5260405f205f915054906101000a900460ff1681565b6113cf611696565b5f73ffffffffffffffffffffffffffffffffffffffff168173ffffffffffffffffffffffffffffffffffffffff160361143f575f6040517f1e4fbdf70000000000000000000000000000000000000000000000000000000081526004016114369190611e07565b60405180910390fd5b6114488161171d565b50565b6032602052805f5260405f205f91509050805f0154908060010154908060020154908060030154908060040154908060050154905086565b61148b611696565b8060335f8473ffffffffffffffffffffffffffffffffffffffff1673ffffffffffffffffffffffffffffffffffffffff1681526020019081526020015f205f6101000a81548160ff0219169083151502179055508173ffffffffffffffffffffffffffffffffffffffff167f3213ab8ec2ed122402f038736b41878b69ae9f61f49a7edd0666bce891d29fc9826040516115259190611edb565b60405180910390a25050565b8160325f8573ffffffffffffffffffffffffffffffffffffffff1673ffffffffffffffffffffffffffffffffffffffff1681526020019081526020015f206004015f8282546115809190612213565b925050819055508160395f8282546115989190612213565b92505081905550806040516115ad9190612629565b60405180910390208373ffffffffffffffffffffffffffffffffffffffff167fc8f1a243d5ba826edbefb066c3161d90b1f93b4e2d74d705e8b784caffcb5d37846040516115fb9190611b92565b60405180910390a38273ffffffffffffffffffffffffffffffffffffffff167fa05f39e6d8d4e060324edb900f0f5909de621fd93f19ccf65ba74e5965c98c3660325f8673ffffffffffffffffffffffffffffffffffffffff1673ffffffffffffffffffffffffffffffffffffffff1681526020019081526020015f20600401546040516116899190611b92565b60405180910390a2505050565b61169e61184e565b73ffffffffffffffffffffffffffffffffffffffff166116bc610f6f565b73ffffffffffffffffffffffffffffffffffffffff161461171b576116df61184e565b6040517f118cdaa70000000000000000000000000000000000000000000000000000000081526004016117129190611e07565b60405180910390fd5b565b5f611726611827565b90505f815f015f9054906101000a900473ffffffffffffffffffffffffffffffffffffffff16905082825f015f6101000a81548173ffffffffffffffffffffffffffffffffffffffff021916908373ffffffffffffffffffffffffffffffffffffffff1602179055508273ffffffffffffffffffffffffffffffffffffffff168173ffffffffffffffffffffffffffffffffffffffff167f8be0079c531659141344cd1fd0a4f28419497f9722a3daafe3b4186f6b6457e060405160405180910390a3505050565b5f5f6117f8611855565b90508091505090565b61180961187e565b611812816118be565b50565b61181d61187e565b611825611942565b565b5f7f9016d09d72d40fdae2fd8ceac6b6234c7706214fd39c1cd1e609a0528c199300905090565b5f33905090565b5f7ff0c57e16840df040f15088dc2f81fe391c3923bec73e23a9662efc9c229c6a005f1b905090565b611886611953565b6118bc576040517fd7e6bcf800000000000000000000000000000000000000000000000000000000815260040160405180910390fd5b565b6118c661187e565b5f73ffffffffffffffffffffffffffffffffffffffff168173ffffffffffffffffffffffffffffffffffffffff1603611936575f6040517f1e4fbdf700000000000000000000000000000000000000000000000000000000815260040161192d9190611e07565b60405180910390fd5b61193f8161171d565b50565b61194a61187e565b60015f81905550565b5f61195c6117ee565b5f0160089054906101000a900460ff16905090565b6040518060c001604052805f81526020015f81526020015f81526020015f81526020015f81526020015f81525090565b5f5ffd5b5f5ffd5b5f73ffffffffffffffffffffffffffffffffffffffff82169050919050565b5f6119d2826119a9565b9050919050565b6119e2816119c8565b81146119ec575f5ffd5b50565b5f813590506119fd816119d9565b92915050565b5f819050919050565b611a1581611a03565b8114611a1f575f5ffd5b50565b5f81359050611a3081611a0c565b92915050565b5f5ffd5b5f5ffd5b5f5ffd5b5f5f83601f840112611a5757611a56611a36565b5b8235905067ffffffffffffffff811115611a7457611a73611a3a565b5b602083019150836001820283011115611a9057611a8f611a3e565b5b9250929050565b5f5f5f5f60608587031215611aaf57611aae6119a1565b5b5f611abc878288016119ef565b9450506020611acd87828801611a22565b935050604085013567ffffffffffffffff811115611aee57611aed6119a5565b5b611afa87828801611a42565b925092505092959194509250565b5f5f5f60608486031215611b1f57611b1e6119a1565b5b5f611b2c868287016119ef565b9350506020611b3d86828701611a22565b9250506040611b4e86828701611a22565b9150509250925092565b5f60208284031215611b6d57611b6c6119a1565b5b5f611b7a848285016119ef565b91505092915050565b611b8c81611a03565b82525050565b5f602082019050611ba55f830184611b83565b92915050565b5f60a082019050611bbe5f830188611b83565b611bcb6020830187611b83565b611bd86040830186611b83565b611be56060830185611b83565b611bf26080830184611b83565b9695505050505050565b5f5ffd5b5f60a08284031215611c1557611c14611bfc565b5b81905092915050565b5f60a08284031215611c3357611c326119a1565b5b5f611c4084828501611c00565b91505092915050565b5f5f83601f840112611c5e57611c5d611a36565b5b8235905067ffffffffffffffff811115611c7b57611c7a611a3a565b5b602083019150836020820283011115611c9757611c96611a3e565b5b9250929050565b5f5f83601f840112611cb357611cb2611a36565b5b8235905067ffffffffffffffff811115611cd057611ccf611a3a565b5b602083019150836020820283011115611cec57611ceb611a3e565b5b9250929050565b5f5f83601f840112611d0857611d07611a36565b5b8235905067ffffffffffffffff811115611d2557611d24611a3a565b5b602083019150836020820283011115611d4157611d40611a3e565b5b9250929050565b5f5f5f5f5f5f60608789031215611d6257611d616119a1565b5b5f87013567ffffffffffffffff811115611d7f57611d7e6119a5565b5b611d8b89828a01611c49565b9650965050602087013567ffffffffffffffff811115611dae57611dad6119a5565b5b611dba89828a01611c9e565b9450945050604087013567ffffffffffffffff811115611ddd57611ddc6119a5565b5b611de989828a01611cf3565b92509250509295509295509295565b611e01816119c8565b82525050565b5f602082019050611e1a5f830184611df8565b92915050565b611e2981611a03565b82525050565b60c082015f820151611e435f850182611e20565b506020820151611e566020850182611e20565b506040820151611e696040850182611e20565b506060820151611e7c6060850182611e20565b506080820151611e8f6080850182611e20565b5060a0820151611ea260a0850182611e20565b50505050565b5f60c082019050611ebb5f830184611e2f565b92915050565b5f8115159050919050565b611ed581611ec1565b82525050565b5f602082019050611eee5f830184611ecc565b92915050565b5f60c082019050611f075f830189611b83565b611f146020830188611b83565b611f216040830187611b83565b611f2e6060830186611b83565b611f3b6080830185611b83565b611f4860a0830184611b83565b979650505050505050565b611f5c81611ec1565b8114611f66575f5ffd5b50565b5f81359050611f7781611f53565b92915050565b5f5f60408385031215611f9357611f926119a1565b5b5f611fa0858286016119ef565b9250506020611fb185828601611f69565b9150509250929050565b5f82825260208201905092915050565b7f4e6f7420617574686f72697a65640000000000000000000000000000000000005f82015250565b5f611fff600e83611fbb565b915061200a82611fcb565b602082019050919050565b5f6020820190508181035f83015261202c81611ff3565b9050919050565b7f496e73756666696369656e7420706f696e7473000000000000000000000000005f82015250565b5f612067601383611fbb565b915061207282612033565b602082019050919050565b5f6020820190508181035f8301526120948161205b565b9050919050565b7f4e487b71000000000000000000000000000000000000000000000000000000005f52601160045260245ffd5b5f6120d282611a03565b91506120dd83611a03565b92508282039050818111156120f5576120f461209b565b5b92915050565b828183375f83830152505050565b5f601f19601f8301169050919050565b5f6121248385611fbb565b93506121318385846120fb565b61213a83612109565b840190509392505050565b5f6040820190506121585f830186611b83565b818103602083015261216b818486612119565b9050949350505050565b5f61217f82611a03565b915061218a83611a03565b925082820261219881611a03565b915082820484148315176121af576121ae61209b565b5b5092915050565b7f4e487b71000000000000000000000000000000000000000000000000000000005f52601260045260245ffd5b5f6121ed82611a03565b91506121f883611a03565b925082612208576122076121b6565b5b828204905092915050565b5f61221d82611a03565b915061222883611a03565b92508282019050808211156122405761223f61209b565b5b92915050565b5f813561225281611a0c565b80915050919050565b5f815f1b9050919050565b5f7fffffffffffffffffffffffffffffffffffffffffffffffffffffffffffffffff6122918461225b565b9350801983169250808416831791505092915050565b5f819050919050565b5f6122ca6122c56122c084611a03565b6122a7565b611a03565b9050919050565b5f819050919050565b6122e3826122b0565b6122f66122ef826122d1565b8354612266565b8255505050565b5f81015f83018061230d81612246565b905061231981846122da565b50505060018101602083018061232e81612246565b905061233a81846122da565b50505060028101604083018061234f81612246565b905061235b81846122da565b50505060038101606083018061237081612246565b905061237c81846122da565b50505060048101608083018061239181612246565b905061239d81846122da565b5050505050565b6123ae82826122fd565b5050565b5f6123c06020840184611a22565b905092915050565b60a082016123d85f8301836123b2565b6123e45f850182611e20565b506123f260208301836123b2565b6123ff6020850182611e20565b5061240d60408301836123b2565b61241a6040850182611e20565b5061242860608301836123b2565b6124356060850182611e20565b5061244360808301836123b2565b6124506080850182611e20565b50505050565b5f60a0820190506124695f8301846123c8565b92915050565b7f4172726179206c656e677468206d69736d6174636800000000000000000000005f82015250565b5f6124a3601583611fbb565b91506124ae8261246f565b602082019050919050565b5f6020820190508181035f8301526124d081612497565b9050919050565b7f4e487b71000000000000000000000000000000000000000000000000000000005f52603260045260245ffd5b5f5ffd5b5f5ffd5b5f5ffd5b5f5f8335600160200384360303811261252c5761252b612504565b5b80840192508235915067ffffffffffffffff82111561254e5761254d612508565b5b60208301925060018202360383131561256a5761256961250c565b5b509250929050565b5f819050919050565b5f67ffffffffffffffff82169050919050565b5f6125a86125a361259e84612572565b6122a7565b61257b565b9050919050565b6125b88161258e565b82525050565b5f6020820190506125d15f8301846125af565b92915050565b5f81519050919050565b5f81905092915050565b8281835e5f83830152505050565b5f612603826125d7565b61260d81856125e1565b935061261d8185602086016125eb565b80840191505092915050565b5f61263482846125f9565b91508190509291505056fea2646970667358221220f523d0ebcdb07ee3f4a9a5a362abe7bfa14d8a079fbd4aff9190d810ddf9702564736f6c634300081e0033",
					"opcodes": "PUSH1 0x80 PUSH1 0x40 MSTORE CALLVALUE DUP1 ISZERO PUSH1 0xE JUMPI PUSH0 PUSH0 REVERT JUMPDEST POP PUSH2 0x2675 DUP1 PUSH2 0x1C PUSH0 CODECOPY PUSH0 RETURN INVALID PUSH1 0x80 PUSH1 0x40 MSTORE CALLVALUE DUP1 ISZERO PUSH2 0xF JUMPI PUSH0 PUSH0 REVERT JUMPDEST POP PUSH1 0x4 CALLDATASIZE LT PUSH2 0x11F JUMPI PUSH0 CALLDATALOAD PUSH1 0xE0 SHR DUP1 PUSH4 0x7BC94D98 GT PUSH2 0xAB JUMPI DUP1 PUSH4 0xC5696398 GT PUSH2 0x6F JUMPI DUP1 PUSH4 0xC5696398 EQ PUSH2 0x2D1 JUMPI DUP1 PUSH4 0xD5B9221B EQ PUSH2 0x2ED JUMPI DUP1 PUSH4 0xF2FDE38B EQ PUSH2 0x31D JUMPI DUP1 PUSH4 0xF50DDBC7 EQ PUSH2 0x339 JUMPI DUP1 PUSH4 0xF60CCC86 EQ PUSH2 0x36E JUMPI PUSH2 0x11F JUMP JUMPDEST DUP1 PUSH4 0x7BC94D98 EQ PUSH2 0x23F JUMPI DUP1 PUSH4 0x8129FC1C EQ PUSH2 0x25D JUMPI DUP1 PUSH4 0x8DA5CB5B EQ PUSH2 0x267 JUMPI DUP1 PUSH4 0x8E65EB11 EQ PUSH2 0x285 JUMPI DUP1 PUSH4 0xAEEFE31F EQ PUSH2 0x2A1 JUMPI PUSH2 0x11F JUMP JUMPDEST DUP1 PUSH4 0x53A64671 GT PUSH2 0xF2 JUMPI DUP1 PUSH4 0x53A64671 EQ PUSH2 0x1BF JUMPI DUP1 PUSH4 0x55517F56 EQ PUSH2 0x1DB JUMPI DUP1 PUSH4 0x715018A6 EQ PUSH2 0x1F7 JUMPI DUP1 PUSH4 0x794809DE EQ PUSH2 0x201 JUMPI DUP1 PUSH4 0x79502C55 EQ PUSH2 0x21D JUMPI PUSH2 0x11F JUMP JUMPDEST DUP1 PUSH4 0x2A42A564 EQ PUSH2 0x123 JUMPI DUP1 PUSH4 0x2C805602 EQ PUSH2 0x13F JUMPI DUP1 PUSH4 0x2EDE8BF5 EQ PUSH2 0x15B JUMPI DUP1 PUSH4 0x53571396 EQ PUSH2 0x18B JUMPI JUMPDEST PUSH0 PUSH0 REVERT JUMPDEST PUSH2 0x13D PUSH1 0x4 DUP1 CALLDATASIZE SUB DUP2 ADD SWAP1 PUSH2 0x138 SWAP2 SWAP1 PUSH2 0x1A97 JUMP JUMPDEST PUSH2 0x38A JUMP JUMPDEST STOP JUMPDEST PUSH2 0x159 PUSH1 0x4 DUP1 CALLDATASIZE SUB DUP2 ADD SWAP1 PUSH2 0x154 SWAP2 SWAP1 PUSH2 0x1B08 JUMP JUMPDEST PUSH2 0x627 JUMP JUMPDEST STOP JUMPDEST PUSH2 0x175 PUSH1 0x4 DUP1 CALLDATASIZE SUB DUP2 ADD SWAP1 PUSH2 0x170 SWAP2 SWAP1 PUSH2 0x1B58 JUMP JUMPDEST PUSH2 0x7B6 JUMP JUMPDEST PUSH1 0x40 MLOAD PUSH2 0x182 SWAP2 SWAP1 PUSH2 0x1B92 JUMP JUMPDEST PUSH1 0x40 MLOAD DUP1 SWAP2 SUB SWAP1 RETURN JUMPDEST PUSH2 0x1A5 PUSH1 0x4 DUP1 CALLDATASIZE SUB DUP2 ADD SWAP1 PUSH2 0x1A0 SWAP2 SWAP1 PUSH2 0x1B58 JUMP JUMPDEST PUSH2 0x8BB JUMP JUMPDEST PUSH1 0x40 MLOAD PUSH2 0x1B6 SWAP6 SWAP5 SWAP4 SWAP3 SWAP2 SWAP1 PUSH2 0x1BAB JUMP JUMPDEST PUSH1 0x40 MLOAD DUP1 SWAP2 SUB SWAP1 RETURN JUMPDEST PUSH2 0x1D9 PUSH1 0x4 DUP1 CALLDATASIZE SUB DUP2 ADD SWAP1 PUSH2 0x1D4 SWAP2 SWAP1 PUSH2 0x1B08 JUMP JUMPDEST PUSH2 0x972 JUMP JUMPDEST STOP JUMPDEST PUSH2 0x1F5 PUSH1 0x4 DUP1 CALLDATASIZE SUB DUP2 ADD SWAP1 PUSH2 0x1F0 SWAP2 SWAP1 PUSH2 0x1C1E JUMP JUMPDEST PUSH2 0xAFF JUMP JUMPDEST STOP JUMPDEST PUSH2 0x1FF PUSH2 0xB53 JUMP JUMPDEST STOP JUMPDEST PUSH2 0x21B PUSH1 0x4 DUP1 CALLDATASIZE SUB DUP2 ADD SWAP1 PUSH2 0x216 SWAP2 SWAP1 PUSH2 0x1D48 JUMP JUMPDEST PUSH2 0xB66 JUMP JUMPDEST STOP JUMPDEST PUSH2 0x225 PUSH2 0xD5C JUMP JUMPDEST PUSH1 0x40 MLOAD PUSH2 0x236 SWAP6 SWAP5 SWAP4 SWAP3 SWAP2 SWAP1 PUSH2 0x1BAB JUMP JUMPDEST PUSH1 0x40 MLOAD DUP1 SWAP2 SUB SWAP1 RETURN JUMPDEST PUSH2 0x247 PUSH2 0xD7F JUMP JUMPDEST PUSH1 0x40 MLOAD PUSH2 0x254 SWAP2 SWAP1 PUSH2 0x1B92 JUMP JUMPDEST PUSH1 0x40 MLOAD DUP1 SWAP2 SUB SWAP1 RETURN JUMPDEST PUSH2 0x265 PUSH2 0xD85 JUMP JUMPDEST STOP JUMPDEST PUSH2 0x26F PUSH2 0xF6F JUMP JUMPDEST PUSH1 0x40 MLOAD PUSH2 0x27C SWAP2 SWAP1 PUSH2 0x1E07 JUMP JUMPDEST PUSH1 0x40 MLOAD DUP1 SWAP2 SUB SWAP1 RETURN JUMPDEST PUSH2 0x29F PUSH1 0x4 DUP1 CALLDATASIZE SUB DUP2 ADD SWAP1 PUSH2 0x29A SWAP2 SWAP1 PUSH2 0x1B08 JUMP JUMPDEST PUSH2 0xFA4 JUMP JUMPDEST STOP JUMPDEST PUSH2 0x2BB PUSH1 0x4 DUP1 CALLDATASIZE SUB DUP2 ADD SWAP1 PUSH2 0x2B6 SWAP2 SWAP1 PUSH2 0x1B58 JUMP JUMPDEST PUSH2 0x1133 JUMP JUMPDEST PUSH1 0x40 MLOAD PUSH2 0x2C8 SWAP2 SWAP1 PUSH2 0x1EA8 JUMP JUMPDEST PUSH1 0x40 MLOAD DUP1 SWAP2 SUB SWAP1 RETURN JUMPDEST PUSH2 0x2EB PUSH1 0x4 DUP1 CALLDATASIZE SUB DUP2 ADD SWAP1 PUSH2 0x2E6 SWAP2 SWAP1 PUSH2 0x1B58 JUMP JUMPDEST PUSH2 0x11C5 JUMP JUMPDEST STOP JUMPDEST PUSH2 0x307 PUSH1 0x4 DUP1 CALLDATASIZE SUB DUP2 ADD SWAP1 PUSH2 0x302 SWAP2 SWAP1 PUSH2 0x1B58 JUMP JUMPDEST PUSH2 0x13AA JUMP JUMPDEST PUSH1 0x40 MLOAD PUSH2 0x314 SWAP2 SWAP1 PUSH2 0x1EDB JUMP JUMPDEST PUSH1 0x40 MLOAD DUP1 SWAP2 SUB SWAP1 RETURN JUMPDEST PUSH2 0x337 PUSH1 0x4 DUP1 CALLDATASIZE SUB DUP2 ADD SWAP1 PUSH2 0x332 SWAP2 SWAP1 PUSH2 0x1B58 JUMP JUMPDEST PUSH2 0x13C7 JUMP JUMPDEST STOP JUMPDEST PUSH2 0x353 PUSH1 0x4 DUP1 CALLDATASIZE SUB DUP2 ADD SWAP1 PUSH2 0x34E SWAP2 SWAP1 PUSH2 0x1B58 JUMP JUMPDEST PUSH2 0x144B JUMP JUMPDEST PUSH1 0x40 MLOAD PUSH2 0x365 SWAP7 SWAP6 SWAP5 SWAP4 SWAP3 SWAP2 SWAP1 PUSH2 0x1EF4 JUMP JUMPDEST PUSH1 0x40 MLOAD DUP1 SWAP2 SUB SWAP1 RETURN JUMPDEST PUSH2 0x388 PUSH1 0x4 DUP1 CALLDATASIZE SUB DUP2 ADD SWAP1 PUSH2 0x383 SWAP2 SWAP1 PUSH2 0x1F7D JUMP JUMPDEST PUSH2 0x1483 JUMP JUMPDEST STOP JUMPDEST PUSH1 0x33 PUSH0 CALLER PUSH20 0xFFFFFFFFFFFFFFFFFFFFFFFFFFFFFFFFFFFFFFFF AND PUSH20 0xFFFFFFFFFFFFFFFFFFFFFFFFFFFFFFFFFFFFFFFF AND DUP2 MSTORE PUSH1 0x20 ADD SWAP1 DUP2 MSTORE PUSH1 0x20 ADD PUSH0 KECCAK256 PUSH0 SWAP1 SLOAD SWAP1 PUSH2 0x100 EXP SWAP1 DIV PUSH1 0xFF AND DUP1 PUSH2 0x411 JUMPI POP PUSH2 0x3E2 PUSH2 0xF6F JUMP JUMPDEST PUSH20 0xFFFFFFFFFFFFFFFFFFFFFFFFFFFFFFFFFFFFFFFF AND CALLER PUSH20 0xFFFFFFFFFFFFFFFFFFFFFFFFFFFFFFFFFFFFFFFF AND EQ JUMPDEST PUSH2 0x450 JUMPI PUSH1 0x40 MLOAD PUSH32 0x8C379A000000000000000000000000000000000000000000000000000000000 DUP2 MSTORE PUSH1 0x4 ADD PUSH2 0x447 SWAP1 PUSH2 0x2015 JUMP JUMPDEST PUSH1 0x40 MLOAD DUP1 SWAP2 SUB SWAP1 REVERT JUMPDEST DUP3 PUSH1 0x32 PUSH0 DUP7 PUSH20 0xFFFFFFFFFFFFFFFFFFFFFFFFFFFFFFFFFFFFFFFF AND PUSH20 0xFFFFFFFFFFFFFFFFFFFFFFFFFFFFFFFFFFFFFFFF AND DUP2 MSTORE PUSH1 0x20 ADD SWAP1 DUP2 MSTORE PUSH1 0x20 ADD PUSH0 KECCAK256 PUSH1 0x4 ADD SLOAD LT ISZERO PUSH2 0x4D3 JUMPI PUSH1 0x40 MLOAD PUSH32 0x8C379A000000000000000000000000000000000000000000000000000000000 DUP2 MSTORE PUSH1 0x4 ADD PUSH2 0x4CA SWAP1 PUSH2 0x207D JUMP JUMPDEST PUSH1 0x40 MLOAD DUP1 SWAP2 SUB SWAP1 REVERT JUMPDEST DUP3 PUSH1 0x32 PUSH0 DUP7 PUSH20 0xFFFFFFFFFFFFFFFFFFFFFFFFFFFFFFFFFFFFFFFF AND PUSH20 0xFFFFFFFFFFFFFFFFFFFFFFFFFFFFFFFFFFFFFFFF AND DUP2 MSTORE PUSH1 0x20 ADD SWAP1 DUP2 MSTORE PUSH1 0x20 ADD PUSH0 KECCAK256 PUSH1 0x4 ADD PUSH0 DUP3 DUP3 SLOAD PUSH2 0x522 SWAP2 SWAP1 PUSH2 0x20C8 JUMP JUMPDEST SWAP3 POP POP DUP2 SWAP1 SSTORE POP DUP3 PUSH1 0x39 PUSH0 DUP3 DUP3 SLOAD PUSH2 0x53A SWAP2 SWAP1 PUSH2 0x20C8 JUMP JUMPDEST SWAP3 POP POP DUP2 SWAP1 SSTORE POP DUP4 PUSH20 0xFFFFFFFFFFFFFFFFFFFFFFFFFFFFFFFFFFFFFFFF AND PUSH32 0xDA49BB5BF412718988A26709B7C8C5385B0AF3AE2570F06613F372C2D401FAF2 DUP5 DUP5 DUP5 PUSH1 0x40 MLOAD PUSH2 0x58B SWAP4 SWAP3 SWAP2 SWAP1 PUSH2 0x2145 JUMP JUMPDEST PUSH1 0x40 MLOAD DUP1 SWAP2 SUB SWAP1 LOG2 DUP4 PUSH20 0xFFFFFFFFFFFFFFFFFFFFFFFFFFFFFFFFFFFFFFFF AND PUSH32 0xA05F39E6D8D4E060324EDB900F0F5909DE621FD93F19CCF65BA74E5965C98C36 PUSH1 0x32 PUSH0 DUP8 PUSH20 0xFFFFFFFFFFFFFFFFFFFFFFFFFFFFFFFFFFFFFFFF AND PUSH20 0xFFFFFFFFFFFFFFFFFFFFFFFFFFFFFFFFFFFFFFFF AND DUP2 MSTORE PUSH1 0x20 ADD SWAP1 DUP2 MSTORE PUSH1 0x20 ADD PUSH0 KECCAK256 PUSH1 0x4 ADD SLOAD PUSH1 0x40 MLOAD PUSH2 0x619 SWAP2 SWAP1 PUSH2 0x1B92 JUMP JUMPDEST PUSH1 0x40 MLOAD DUP1 SWAP2 SUB SWAP1 LOG2 POP POP POP POP JUMP JUMPDEST PUSH1 0x33 PUSH0 CALLER PUSH20 0xFFFFFFFFFFFFFFFFFFFFFFFFFFFFFFFFFFFFFFFF AND PUSH20 0xFFFFFFFFFFFFFFFFFFFFFFFFFFFFFFFFFFFFFFFF AND DUP2 MSTORE PUSH1 0x20 ADD SWAP1 DUP2 MSTORE PUSH1 0x20 ADD PUSH0 KECCAK256 PUSH0 SWAP1 SLOAD SWAP1 PUSH2 0x100 EXP SWAP1 DIV PUSH1 0xFF AND DUP1 PUSH2 0x6AE JUMPI POP PUSH2 0x67F PUSH2 0xF6F JUMP JUMPDEST PUSH20 0xFFFFFFFFFFFFFFFFFFFFFFFFFFFFFFFFFFFFFFFF AND CALLER PUSH20 0xFFFFFFFFFFFFFFFFFFFFFFFFFFFFFFFFFFFFFFFF AND EQ JUMPDEST PUSH2 0x6ED JUMPI PUSH1 0x40 MLOAD PUSH32 0x8C379A000000000000000000000000000000000000000000000000000000000 DUP2 MSTORE PUSH1 0x4 ADD PUSH2 0x6E4 SWAP1 PUSH2 0x2015 JUMP JUMPDEST PUSH1 0x40 MLOAD DUP1 SWAP2 SUB SWAP1 REVERT JUMPDEST PUSH0 PUSH3 0x15180 DUP3 PUSH1 0x34 PUSH1 0x1 ADD SLOAD DUP6 PUSH2 0x704 SWAP2 SWAP1 PUSH2 0x2175 JUMP JUMPDEST PUSH2 0x70E SWAP2 SWAP1 PUSH2 0x2175 JUMP JUMPDEST PUSH2 0x718 SWAP2 SWAP1 PUSH2 0x21E3 JUMP JUMPDEST SWAP1 POP PUSH2 0x75A DUP5 DUP3 PUSH1 0x40 MLOAD DUP1 PUSH1 0x40 ADD PUSH1 0x40 MSTORE DUP1 PUSH1 0x7 DUP2 MSTORE PUSH1 0x20 ADD PUSH32 0x6C656E64696E6700000000000000000000000000000000000000000000000000 DUP2 MSTORE POP PUSH2 0x1531 JUMP JUMPDEST DUP1 PUSH1 0x32 PUSH0 DUP7 PUSH20 0xFFFFFFFFFFFFFFFFFFFFFFFFFFFFFFFFFFFFFFFF AND PUSH20 0xFFFFFFFFFFFFFFFFFFFFFFFFFFFFFFFFFFFFFFFF AND DUP2 MSTORE PUSH1 0x20 ADD SWAP1 DUP2 MSTORE PUSH1 0x20 ADD PUSH0 KECCAK256 PUSH1 0x1 ADD PUSH0 DUP3 DUP3 SLOAD PUSH2 0x7A9 SWAP2 SWAP1 PUSH2 0x2213 JUMP JUMPDEST SWAP3 POP POP DUP2 SWAP1 SSTORE POP POP POP POP POP JUMP JUMPDEST PUSH0 PUSH0 PUSH1 0x32 PUSH0 DUP5 PUSH20 0xFFFFFFFFFFFFFFFFFFFFFFFFFFFFFFFFFFFFFFFF AND PUSH20 0xFFFFFFFFFFFFFFFFFFFFFFFFFFFFFFFFFFFFFFFF AND DUP2 MSTORE PUSH1 0x20 ADD SWAP1 DUP2 MSTORE PUSH1 0x20 ADD PUSH0 KECCAK256 PUSH1 0x40 MLOAD DUP1 PUSH1 0xC0 ADD PUSH1 0x40 MSTORE SWAP1 DUP2 PUSH0 DUP3 ADD SLOAD DUP2 MSTORE PUSH1 0x20 ADD PUSH1 0x1 DUP3 ADD SLOAD DUP2 MSTORE PUSH1 0x20 ADD PUSH1 0x2 DUP3 ADD SLOAD DUP2 MSTORE PUSH1 0x20 ADD PUSH1 0x3 DUP3 ADD SLOAD DUP2 MSTORE PUSH1 0x20 ADD PUSH1 0x4 DUP3 ADD SLOAD DUP2 MSTORE PUSH1 0x20 ADD PUSH1 0x5 DUP3 ADD SLOAD DUP2 MSTORE POP POP SWAP1 POP PUSH0 DUP2 PUSH1 0xA0 ADD MLOAD SUB PUSH2 0x851 JUMPI PUSH0 SWAP2 POP POP PUSH2 0x8B6 JUMP JUMPDEST PUSH0 PUSH3 0x15180 DUP3 PUSH1 0xA0 ADD MLOAD TIMESTAMP PUSH2 0x866 SWAP2 SWAP1 PUSH2 0x20C8 JUMP JUMPDEST PUSH2 0x870 SWAP2 SWAP1 PUSH2 0x21E3 JUMP JUMPDEST SWAP1 POP PUSH0 DUP2 SUB PUSH2 0x883 JUMPI PUSH0 SWAP3 POP POP POP PUSH2 0x8B6 JUMP JUMPDEST PUSH0 PUSH1 0x34 PUSH1 0x4 ADD SLOAD DUP3 GT PUSH2 0x896 JUMPI DUP2 PUSH2 0x89D JUMP JUMPDEST PUSH1 0x34 PUSH1 0x4 ADD SLOAD JUMPDEST SWAP1 POP PUSH1 0x34 PUSH1 0x3 ADD SLOAD DUP2 PUSH2 0x8B0 SWAP2 SWAP1 PUSH2 0x2175 JUMP JUMPDEST SWAP4 POP POP POP POP JUMPDEST SWAP2 SWAP1 POP JUMP JUMPDEST PUSH0 PUSH0 PUSH0 PUSH0 PUSH0 PUSH0 PUSH1 0x32 PUSH0 DUP9 PUSH20 0xFFFFFFFFFFFFFFFFFFFFFFFFFFFFFFFFFFFFFFFF AND PUSH20 0xFFFFFFFFFFFFFFFFFFFFFFFFFFFFFFFFFFFFFFFF AND DUP2 MSTORE PUSH1 0x20 ADD SWAP1 DUP2 MSTORE PUSH1 0x20 ADD PUSH0 KECCAK256 PUSH1 0x40 MLOAD DUP1 PUSH1 0xC0 ADD PUSH1 0x40 MSTORE SWAP1 DUP2 PUSH0 DUP3 ADD SLOAD DUP2 MSTORE PUSH1 0x20 ADD PUSH1 0x1 DUP3 ADD SLOAD DUP2 MSTORE PUSH1 0x20 ADD PUSH1 0x2 DUP3 ADD SLOAD DUP2 MSTORE PUSH1 0x20 ADD PUSH1 0x3 DUP3 ADD SLOAD DUP2 MSTORE PUSH1 0x20 ADD PUSH1 0x4 DUP3 ADD SLOAD DUP2 MSTORE PUSH1 0x20 ADD PUSH1 0x5 DUP3 ADD SLOAD DUP2 MSTORE POP POP SWAP1 POP DUP1 PUSH0 ADD MLOAD DUP2 PUSH1 0x20 ADD MLOAD DUP3 PUSH1 0x40 ADD MLOAD DUP4 PUSH1 0x60 ADD MLOAD DUP5 PUSH1 0x80 ADD MLOAD SWAP6 POP SWAP6 POP SWAP6 POP SWAP6 POP SWAP6 POP POP SWAP2 SWAP4 SWAP6 SWAP1 SWAP3 SWAP5 POP JUMP JUMPDEST PUSH1 0x33 PUSH0 CALLER PUSH20 0xFFFFFFFFFFFFFFFFFFFFFFFFFFFFFFFFFFFFFFFF AND PUSH20 0xFFFFFFFFFFFFFFFFFFFFFFFFFFFFFFFFFFFFFFFF AND DUP2 MSTORE PUSH1 0x20 ADD SWAP1 DUP2 MSTORE PUSH1 0x20 ADD PUSH0 KECCAK256 PUSH0 SWAP1 SLOAD SWAP1 PUSH2 0x100 EXP SWAP1 DIV PUSH1 0xFF AND DUP1 PUSH2 0x9F9 JUMPI POP PUSH2 0x9CA PUSH2 0xF6F JUMP JUMPDEST PUSH20 0xFFFFFFFFFFFFFFFFFFFFFFFFFFFFFFFFFFFFFFFF AND CALLER PUSH20 0xFFFFFFFFFFFFFFFFFFFFFFFFFFFFFFFFFFFFFFFF AND EQ JUMPDEST PUSH2 0xA38 JUMPI PUSH1 0x40 MLOAD PUSH32 0x8C379A000000000000000000000000000000000000000000000000000000000 DUP2 MSTORE PUSH1 0x4 ADD PUSH2 0xA2F SWAP1 PUSH2 0x2015 JUMP JUMPDEST PUSH1 0x40 MLOAD DUP1 SWAP2 SUB SWAP1 REVERT JUMPDEST PUSH0 PUSH3 0x15180 DUP3 PUSH1 0x34 PUSH0 ADD SLOAD DUP6 PUSH2 0xA4E SWAP2 SWAP1 PUSH2 0x2175 JUMP JUMPDEST PUSH2 0xA58 SWAP2 SWAP1 PUSH2 0x2175 JUMP JUMPDEST PUSH2 0xA62 SWAP2 SWAP1 PUSH2 0x21E3 JUMP JUMPDEST SWAP1 POP PUSH2 0xAA4 DUP5 DUP3 PUSH1 0x40 MLOAD DUP1 PUSH1 0x40 ADD PUSH1 0x40 MSTORE DUP1 PUSH1 0x7 DUP2 MSTORE PUSH1 0x20 ADD PUSH32 0x7374616B696E6700000000000000000000000000000000000000000000000000 DUP2 MSTORE POP PUSH2 0x1531 JUMP JUMPDEST DUP1 PUSH1 0x32 PUSH0 DUP7 PUSH20 0xFFFFFFFFFFFFFFFFFFFFFFFFFFFFFFFFFFFFFFFF AND PUSH20 0xFFFFFFFFFFFFFFFFFFFFFFFFFFFFFFFFFFFFFFFF AND DUP2 MSTORE PUSH1 0x20 ADD SWAP1 DUP2 MSTORE PUSH1 0x20 ADD PUSH0 KECCAK256 PUSH0 ADD PUSH0 DUP3 DUP3 SLOAD PUSH2 0xAF2 SWAP2 SWAP1 PUSH2 0x2213 JUMP JUMPDEST SWAP3 POP POP DUP2 SWAP1 SSTORE POP POP POP POP POP JUMP JUMPDEST PUSH2 0xB07 PUSH2 0x1696 JUMP JUMPDEST DUP1 PUSH1 0x34 DUP2 DUP2 PUSH2 0xB16 SWAP2 SWAP1 PUSH2 0x23A4 JUMP JUMPDEST SWAP1 POP POP PUSH32 0x88258486E342F2CD0E19B64E0505C355505BEA7D2E2BD3258AA5061FDA88A268 DUP2 PUSH1 0x40 MLOAD PUSH2 0xB48 SWAP2 SWAP1 PUSH2 0x2456 JUMP JUMPDEST PUSH1 0x40 MLOAD DUP1 SWAP2 SUB SWAP1 LOG1 POP JUMP JUMPDEST PUSH2 0xB5B PUSH2 0x1696 JUMP JUMPDEST PUSH2 0xB64 PUSH0 PUSH2 0x171D JUMP JUMPDEST JUMP JUMPDEST PUSH1 0x33 PUSH0 CALLER PUSH20 0xFFFFFFFFFFFFFFFFFFFFFFFFFFFFFFFFFFFFFFFF AND PUSH20 0xFFFFFFFFFFFFFFFFFFFFFFFFFFFFFFFFFFFFFFFF AND DUP2 MSTORE PUSH1 0x20 ADD SWAP1 DUP2 MSTORE PUSH1 0x20 ADD PUSH0 KECCAK256 PUSH0 SWAP1 SLOAD SWAP1 PUSH2 0x100 EXP SWAP1 DIV PUSH1 0xFF AND DUP1 PUSH2 0xBED JUMPI POP PUSH2 0xBBE PUSH2 0xF6F JUMP JUMPDEST PUSH20 0xFFFFFFFFFFFFFFFFFFFFFFFFFFFFFFFFFFFFFFFF AND CALLER PUSH20 0xFFFFFFFFFFFFFFFFFFFFFFFFFFFFFFFFFFFFFFFF AND EQ JUMPDEST PUSH2 0xC2C JUMPI PUSH1 0x40 MLOAD PUSH32 0x8C379A000000000000000000000000000000000000000000000000000000000 DUP2 MSTORE PUSH1 0x4 ADD PUSH2 0xC23 SWAP1 PUSH2 0x2015 JUMP JUMPDEST PUSH1 0x40 MLOAD DUP1 SWAP2 SUB SWAP1 REVERT JUMPDEST DUP4 DUP4 SWAP1 POP DUP7 DUP7 SWAP1 POP EQ DUP1 ISZERO PUSH2 0xC46 JUMPI POP DUP2 DUP2 SWAP1 POP DUP5 DUP5 SWAP1 POP EQ JUMPDEST PUSH2 0xC85 JUMPI PUSH1 0x40 MLOAD PUSH32 0x8C379A000000000000000000000000000000000000000000000000000000000 DUP2 MSTORE PUSH1 0x4 ADD PUSH2 0xC7C SWAP1 PUSH2 0x24B9 JUMP JUMPDEST PUSH1 0x40 MLOAD DUP1 SWAP2 SUB SWAP1 REVERT JUMPDEST PUSH0 PUSH0 SWAP1 POP JUMPDEST DUP7 DUP7 SWAP1 POP DUP2 LT ISZERO PUSH2 0xD53 JUMPI PUSH2 0xD46 DUP8 DUP8 DUP4 DUP2 DUP2 LT PUSH2 0xCAB JUMPI PUSH2 0xCAA PUSH2 0x24D7 JUMP JUMPDEST JUMPDEST SWAP1 POP PUSH1 0x20 MUL ADD PUSH1 0x20 DUP2 ADD SWAP1 PUSH2 0xCC0 SWAP2 SWAP1 PUSH2 0x1B58 JUMP JUMPDEST DUP7 DUP7 DUP5 DUP2 DUP2 LT PUSH2 0xCD3 JUMPI PUSH2 0xCD2 PUSH2 0x24D7 JUMP JUMPDEST JUMPDEST SWAP1 POP PUSH1 0x20 MUL ADD CALLDATALOAD DUP6 DUP6 DUP6 DUP2 DUP2 LT PUSH2 0xCED JUMPI PUSH2 0xCEC PUSH2 0x24D7 JUMP JUMPDEST JUMPDEST SWAP1 POP PUSH1 0x20 MUL DUP2 ADD SWAP1 PUSH2 0xCFF SWAP2 SWAP1 PUSH2 0x2510 JUMP JUMPDEST DUP1 DUP1 PUSH1 0x1F ADD PUSH1 0x20 DUP1 SWAP2 DIV MUL PUSH1 0x20 ADD PUSH1 0x40 MLOAD SWAP1 DUP2 ADD PUSH1 0x40 MSTORE DUP1 SWAP4 SWAP3 SWAP2 SWAP1 DUP2 DUP2 MSTORE PUSH1 0x20 ADD DUP4 DUP4 DUP1 DUP3 DUP5 CALLDATACOPY PUSH0 DUP2 DUP5 ADD MSTORE PUSH1 0x1F NOT PUSH1 0x1F DUP3 ADD AND SWAP1 POP DUP1 DUP4 ADD SWAP3 POP POP POP POP POP POP POP PUSH2 0x1531 JUMP JUMPDEST DUP1 DUP1 PUSH1 0x1 ADD SWAP2 POP POP PUSH2 0xC8A JUMP JUMPDEST POP POP POP POP POP POP POP JUMP JUMPDEST PUSH1 0x34 DUP1 PUSH0 ADD SLOAD SWAP1 DUP1 PUSH1 0x1 ADD SLOAD SWAP1 DUP1 PUSH1 0x2 ADD SLOAD SWAP1 DUP1 PUSH1 0x3 ADD SLOAD SWAP1 DUP1 PUSH1 0x4 ADD SLOAD SWAP1 POP DUP6 JUMP JUMPDEST PUSH1 0x39 SLOAD DUP2 JUMP JUMPDEST PUSH0 PUSH2 0xD8E PUSH2 0x17EE JUMP JUMPDEST SWAP1 POP PUSH0 DUP2 PUSH0 ADD PUSH1 0x8 SWAP1 SLOAD SWAP1 PUSH2 0x100 EXP SWAP1 DIV PUSH1 0xFF AND ISZERO SWAP1 POP PUSH0 DUP3 PUSH0 ADD PUSH0 SWAP1 SLOAD SWAP1 PUSH2 0x100 EXP SWAP1 DIV PUSH8 0xFFFFFFFFFFFFFFFF AND SWAP1 POP PUSH0 PUSH0 DUP3 PUSH8 0xFFFFFFFFFFFFFFFF AND EQ DUP1 ISZERO PUSH2 0xDD6 JUMPI POP DUP3 JUMPDEST SWAP1 POP PUSH0 PUSH1 0x1 DUP4 PUSH8 0xFFFFFFFFFFFFFFFF AND EQ DUP1 ISZERO PUSH2 0xE09 JUMPI POP PUSH0 ADDRESS PUSH20 0xFFFFFFFFFFFFFFFFFFFFFFFFFFFFFFFFFFFFFFFF AND EXTCODESIZE EQ JUMPDEST SWAP1 POP DUP2 ISZERO DUP1 ISZERO PUSH2 0xE17 JUMPI POP DUP1 ISZERO JUMPDEST ISZERO PUSH2 0xE4E JUMPI PUSH1 0x40 MLOAD PUSH32 0xF92EE8A900000000000000000000000000000000000000000000000000000000 DUP2 MSTORE PUSH1 0x4 ADD PUSH1 0x40 MLOAD DUP1 SWAP2 SUB SWAP1 REVERT JUMPDEST PUSH1 0x1 DUP6 PUSH0 ADD PUSH0 PUSH2 0x100 EXP DUP2 SLOAD DUP2 PUSH8 0xFFFFFFFFFFFFFFFF MUL NOT AND SWAP1 DUP4 PUSH8 0xFFFFFFFFFFFFFFFF AND MUL OR SWAP1 SSTORE POP DUP4 ISZERO PUSH2 0xE9B JUMPI PUSH1 0x1 DUP6 PUSH0 ADD PUSH1 0x8 PUSH2 0x100 EXP DUP2 SLOAD DUP2 PUSH1 0xFF MUL NOT AND SWAP1 DUP4 ISZERO ISZERO MUL OR SWAP1 SSTORE POP JUMPDEST PUSH2 0xEA4 CALLER PUSH2 0x1801 JUMP JUMPDEST PUSH2 0xEAC PUSH2 0x1815 JUMP JUMPDEST PUSH1 0x40 MLOAD DUP1 PUSH1 0xA0 ADD PUSH1 0x40 MSTORE DUP1 PUSH1 0x64 DUP2 MSTORE PUSH1 0x20 ADD PUSH1 0x32 DUP2 MSTORE PUSH1 0x20 ADD PUSH1 0x19 DUP2 MSTORE PUSH1 0x20 ADD PUSH1 0xA DUP2 MSTORE PUSH1 0x20 ADD PUSH2 0x16D DUP2 MSTORE POP PUSH1 0x34 PUSH0 DUP3 ADD MLOAD DUP2 PUSH0 ADD SSTORE PUSH1 0x20 DUP3 ADD MLOAD DUP2 PUSH1 0x1 ADD SSTORE PUSH1 0x40 DUP3 ADD MLOAD DUP2 PUSH1 0x2 ADD SSTORE PUSH1 0x60 DUP3 ADD MLOAD DUP2 PUSH1 0x3 ADD SSTORE PUSH1 0x80 DUP3 ADD MLOAD DUP2 PUSH1 0x4 ADD SSTORE SWAP1 POP POP DUP4 ISZERO PUSH2 0xF68 JUMPI PUSH0 DUP6 PUSH0 ADD PUSH1 0x8 PUSH2 0x100 EXP DUP2 SLOAD DUP2 PUSH1 0xFF MUL NOT AND SWAP1 DUP4 ISZERO ISZERO MUL OR SWAP1 SSTORE POP PUSH32 0xC7F505B2F371AE2175EE4913F4499E1F2633A7B5936321EED1CDAEB6115181D2 PUSH1 0x1 PUSH1 0x40 MLOAD PUSH2 0xF5F SWAP2 SWAP1 PUSH2 0x25BE JUMP JUMPDEST PUSH1 0x40 MLOAD DUP1 SWAP2 SUB SWAP1 LOG1 JUMPDEST POP POP POP POP POP JUMP JUMPDEST PUSH0 PUSH0 PUSH2 0xF79 PUSH2 0x1827 JUMP JUMPDEST SWAP1 POP DUP1 PUSH0 ADD PUSH0 SWAP1 SLOAD SWAP1 PUSH2 0x100 EXP SWAP1 DIV PUSH20 0xFFFFFFFFFFFFFFFFFFFFFFFFFFFFFFFFFFFFFFFF AND SWAP2 POP POP SWAP1 JUMP JUMPDEST PUSH1 0x33 PUSH0 CALLER PUSH20 0xFFFFFFFFFFFFFFFFFFFFFFFFFFFFFFFFFFFFFFFF AND PUSH20 0xFFFFFFFFFFFFFFFFFFFFFFFFFFFFFFFFFFFFFFFF AND DUP2 MSTORE PUSH1 0x20 ADD SWAP1 DUP2 MSTORE PUSH1 0x20 ADD PUSH0 KECCAK256 PUSH0 SWAP1 SLOAD SWAP1 PUSH2 0x100 EXP SWAP1 DIV PUSH1 0xFF AND DUP1 PUSH2 0x102B JUMPI POP PUSH2 0xFFC PUSH2 0xF6F JUMP JUMPDEST PUSH20 0xFFFFFFFFFFFFFFFFFFFFFFFFFFFFFFFFFFFFFFFF AND CALLER PUSH20 0xFFFFFFFFFFFFFFFFFFFFFFFFFFFFFFFFFFFFFFFF AND EQ JUMPDEST PUSH2 0x106A JUMPI PUSH1 0x40 MLOAD PUSH32 0x8C379A000000000000000000000000000000000000000000000000000000000 DUP2 MSTORE PUSH1 0x4 ADD PUSH2 0x1061 SWAP1 PUSH2 0x2015 JUMP JUMPDEST PUSH1 0x40 MLOAD DUP1 SWAP2 SUB SWAP1 REVERT JUMPDEST PUSH0 PUSH3 0x15180 DUP3 PUSH1 0x34 PUSH1 0x2 ADD SLOAD DUP6 PUSH2 0x1081 SWAP2 SWAP1 PUSH2 0x2175 JUMP JUMPDEST PUSH2 0x108B SWAP2 SWAP1 PUSH2 0x2175 JUMP JUMPDEST PUSH2 0x1095 SWAP2 SWAP1 PUSH2 0x21E3 JUMP JUMPDEST SWAP1 POP PUSH2 0x10D7 DUP5 DUP3 PUSH1 0x40 MLOAD DUP1 PUSH1 0x40 ADD PUSH1 0x40 MSTORE DUP1 PUSH1 0x9 DUP2 MSTORE PUSH1 0x20 ADD PUSH32 0x626F72726F77696E670000000000000000000000000000000000000000000000 DUP2 MSTORE POP PUSH2 0x1531 JUMP JUMPDEST DUP1 PUSH1 0x32 PUSH0 DUP7 PUSH20 0xFFFFFFFFFFFFFFFFFFFFFFFFFFFFFFFFFFFFFFFF AND PUSH20 0xFFFFFFFFFFFFFFFFFFFFFFFFFFFFFFFFFFFFFFFF AND DUP2 MSTORE PUSH1 0x20 ADD SWAP1 DUP2 MSTORE PUSH1 0x20 ADD PUSH0 KECCAK256 PUSH1 0x2 ADD PUSH0 DUP3 DUP3 SLOAD PUSH2 0x1126 SWAP2 SWAP1 PUSH2 0x2213 JUMP JUMPDEST SWAP3 POP POP DUP2 SWAP1 SSTORE POP POP POP POP POP JUMP JUMPDEST PUSH2 0x113B PUSH2 0x1971 JUMP JUMPDEST PUSH1 0x32 PUSH0 DUP4 PUSH20 0xFFFFFFFFFFFFFFFFFFFFFFFFFFFFFFFFFFFFFFFF AND PUSH20 0xFFFFFFFFFFFFFFFFFFFFFFFFFFFFFFFFFFFFFFFF AND DUP2 MSTORE PUSH1 0x20 ADD SWAP1 DUP2 MSTORE PUSH1 0x20 ADD PUSH0 KECCAK256 PUSH1 0x40 MLOAD DUP1 PUSH1 0xC0 ADD PUSH1 0x40 MSTORE SWAP1 DUP2 PUSH0 DUP3 ADD SLOAD DUP2 MSTORE PUSH1 0x20 ADD PUSH1 0x1 DUP3 ADD SLOAD DUP2 MSTORE PUSH1 0x20 ADD PUSH1 0x2 DUP3 ADD SLOAD DUP2 MSTORE PUSH1 0x20 ADD PUSH1 0x3 DUP3 ADD SLOAD DUP2 MSTORE PUSH1 0x20 ADD PUSH1 0x4 DUP3 ADD SLOAD DUP2 MSTORE PUSH1 0x20 ADD PUSH1 0x5 DUP3 ADD SLOAD DUP2 MSTORE POP POP SWAP1 POP SWAP2 SWAP1 POP JUMP JUMPDEST PUSH1 0x33 PUSH0 CALLER PUSH20 0xFFFFFFFFFFFFFFFFFFFFFFFFFFFFFFFFFFFFFFFF AND PUSH20 0xFFFFFFFFFFFFFFFFFFFFFFFFFFFFFFFFFFFFFFFF AND DUP2 MSTORE PUSH1 0x20 ADD SWAP1 DUP2 MSTORE PUSH1 0x20 ADD PUSH0 KECCAK256 PUSH0 SWAP1 SLOAD SWAP1 PUSH2 0x100 EXP SWAP1 DIV PUSH1 0xFF AND DUP1 PUSH2 0x124C JUMPI POP PUSH2 0x121D PUSH2 0xF6F JUMP JUMPDEST PUSH20 0xFFFFFFFFFFFFFFFFFFFFFFFFFFFFFFFFFFFFFFFF AND CALLER PUSH20 0xFFFFFFFFFFFFFFFFFFFFFFFFFFFFFFFFFFFFFFFF AND EQ JUMPDEST PUSH2 0x128B JUMPI PUSH1 0x40 MLOAD PUSH32 0x8C379A000000000000000000000000000000000000000000000000000000000 DUP2 MSTORE PUSH1 0x4 ADD PUSH2 0x1282 SWAP1 PUSH2 0x2015 JUMP JUMPDEST PUSH1 0x40 MLOAD DUP1 SWAP2 SUB SWAP1 REVERT JUMPDEST PUSH0 PUSH1 0x32 PUSH0 DUP4 PUSH20 0xFFFFFFFFFFFFFFFFFFFFFFFFFFFFFFFFFFFFFFFF AND PUSH20 0xFFFFFFFFFFFFFFFFFFFFFFFFFFFFFFFFFFFFFFFF AND DUP2 MSTORE PUSH1 0x20 ADD SWAP1 DUP2 MSTORE PUSH1 0x20 ADD PUSH0 KECCAK256 SWAP1 POP PUSH0 DUP2 PUSH1 0x5 ADD SLOAD SUB PUSH2 0x12E5 JUMPI TIMESTAMP DUP2 PUSH1 0x5 ADD DUP2 SWAP1 SSTORE POP POP PUSH2 0x13A7 JUMP JUMPDEST PUSH0 PUSH3 0x15180 DUP3 PUSH1 0x5 ADD SLOAD TIMESTAMP PUSH2 0x12FA SWAP2 SWAP1 PUSH2 0x20C8 JUMP JUMPDEST PUSH2 0x1304 SWAP2 SWAP1 PUSH2 0x21E3 JUMP JUMPDEST SWAP1 POP PUSH0 DUP2 GT ISZERO PUSH2 0x13A4 JUMPI PUSH0 PUSH1 0x34 PUSH1 0x4 ADD SLOAD DUP3 GT PUSH2 0x1321 JUMPI DUP2 PUSH2 0x1328 JUMP JUMPDEST PUSH1 0x34 PUSH1 0x4 ADD SLOAD JUMPDEST SWAP1 POP PUSH0 PUSH1 0x34 PUSH1 0x3 ADD SLOAD DUP3 PUSH2 0x133C SWAP2 SWAP1 PUSH2 0x2175 JUMP JUMPDEST SWAP1 POP PUSH2 0x137E DUP6 DUP3 PUSH1 0x40 MLOAD DUP1 PUSH1 0x40 ADD PUSH1 0x40 MSTORE DUP1 PUSH1 0x7 DUP2 MSTORE PUSH1 0x20 ADD PUSH32 0x6C6F79616C747900000000000000000000000000000000000000000000000000 DUP2 MSTORE POP PUSH2 0x1531 JUMP JUMPDEST DUP1 DUP5 PUSH1 0x3 ADD PUSH0 DUP3 DUP3 SLOAD PUSH2 0x1391 SWAP2 SWAP1 PUSH2 0x2213 JUMP JUMPDEST SWAP3 POP POP DUP2 SWAP1 SSTORE POP TIMESTAMP DUP5 PUSH1 0x5 ADD DUP2 SWAP1 SSTORE POP POP POP JUMPDEST POP POP JUMPDEST POP JUMP JUMPDEST PUSH1 0x33 PUSH1 0x20 MSTORE DUP1 PUSH0 MSTORE PUSH1 0x40 PUSH0 KECCAK256 PUSH0 SWAP2 POP SLOAD SWAP1 PUSH2 0x100 EXP SWAP1 DIV PUSH1 0xFF AND DUP2 JUMP JUMPDEST PUSH2 0x13CF PUSH2 0x1696 JUMP JUMPDEST PUSH0 PUSH20 0xFFFFFFFFFFFFFFFFFFFFFFFFFFFFFFFFFFFFFFFF AND DUP2 PUSH20 0xFFFFFFFFFFFFFFFFFFFFFFFFFFFFFFFFFFFFFFFF AND SUB PUSH2 0x143F JUMPI PUSH0 PUSH1 0x40 MLOAD PUSH32 0x1E4FBDF700000000000000000000000000000000000000000000000000000000 DUP2 MSTORE PUSH1 0x4 ADD PUSH2 0x1436 SWAP2 SWAP1 PUSH2 0x1E07 JUMP JUMPDEST PUSH1 0x40 MLOAD DUP1 SWAP2 SUB SWAP1 REVERT JUMPDEST PUSH2 0x1448 DUP2 PUSH2 0x171D JUMP JUMPDEST POP JUMP JUMPDEST PUSH1 0x32 PUSH1 0x20 MSTORE DUP1 PUSH0 MSTORE PUSH1 0x40 PUSH0 KECCAK256 PUSH0 SWAP2 POP SWAP1 POP DUP1 PUSH0 ADD SLOAD SWAP1 DUP1 PUSH1 0x1 ADD SLOAD SWAP1 DUP1 PUSH1 0x2 ADD SLOAD SWAP1 DUP1 PUSH1 0x3 ADD SLOAD SWAP1 DUP1 PUSH1 0x4 ADD SLOAD SWAP1 DUP1 PUSH1 0x5 ADD SLOAD SWAP1 POP DUP7 JUMP JUMPDEST PUSH2 0x148B PUSH2 0x1696 JUMP JUMPDEST DUP1 PUSH1 0x33 PUSH0 DUP5 PUSH20 0xFFFFFFFFFFFFFFFFFFFFFFFFFFFFFFFFFFFFFFFF AND PUSH20 0xFFFFFFFFFFFFFFFFFFFFFFFFFFFFFFFFFFFFFFFF AND DUP2 MSTORE PUSH1 0x20 ADD SWAP1 DUP2 MSTORE PUSH1 0x20 ADD PUSH0 KECCAK256 PUSH0 PUSH2 0x100 EXP DUP2 SLOAD DUP2 PUSH1 0xFF MUL NOT AND SWAP1 DUP4 ISZERO ISZERO MUL OR SWAP1 SSTORE POP DUP2 PUSH20 0xFFFFFFFFFFFFFFFFFFFFFFFFFFFFFFFFFFFFFFFF AND PUSH32 0x3213AB8EC2ED122402F038736B41878B69AE9F61F49A7EDD0666BCE891D29FC9 DUP3 PUSH1 0x40 MLOAD PUSH2 0x1525 SWAP2 SWAP1 PUSH2 0x1EDB JUMP JUMPDEST PUSH1 0x40 MLOAD DUP1 SWAP2 SUB SWAP1 LOG2 POP POP JUMP JUMPDEST DUP2 PUSH1 0x32 PUSH0 DUP6 PUSH20 0xFFFFFFFFFFFFFFFFFFFFFFFFFFFFFFFFFFFFFFFF AND PUSH20 0xFFFFFFFFFFFFFFFFFFFFFFFFFFFFFFFFFFFFFFFF AND DUP2 MSTORE PUSH1 0x20 ADD SWAP1 DUP2 MSTORE PUSH1 0x20 ADD PUSH0 KECCAK256 PUSH1 0x4 ADD PUSH0 DUP3 DUP3 SLOAD PUSH2 0x1580 SWAP2 SWAP1 PUSH2 0x2213 JUMP JUMPDEST SWAP3 POP POP DUP2 SWAP1 SSTORE POP DUP2 PUSH1 0x39 PUSH0 DUP3 DUP3 SLOAD PUSH2 0x1598 SWAP2 SWAP1 PUSH2 0x2213 JUMP JUMPDEST SWAP3 POP POP DUP2 SWAP1 SSTORE POP DUP1 PUSH1 0x40 MLOAD PUSH2 0x15AD SWAP2 SWAP1 PUSH2 0x2629 JUMP JUMPDEST PUSH1 0x40 MLOAD DUP1 SWAP2 SUB SWAP1 KECCAK256 DUP4 PUSH20 0xFFFFFFFFFFFFFFFFFFFFFFFFFFFFFFFFFFFFFFFF AND PUSH32 0xC8F1A243D5BA826EDBEFB066C3161D90B1F93B4E2D74D705E8B784CAFFCB5D37 DUP5 PUSH1 0x40 MLOAD PUSH2 0x15FB SWAP2 SWAP1 PUSH2 0x1B92 JUMP JUMPDEST PUSH1 0x40 MLOAD DUP1 SWAP2 SUB SWAP1 LOG3 DUP3 PUSH20 0xFFFFFFFFFFFFFFFFFFFFFFFFFFFFFFFFFFFFFFFF AND PUSH32 0xA05F39E6D8D4E060324EDB900F0F5909DE621FD93F19CCF65BA74E5965C98C36 PUSH1 0x32 PUSH0 DUP7 PUSH20 0xFFFFFFFFFFFFFFFFFFFFFFFFFFFFFFFFFFFFFFFF AND PUSH20 0xFFFFFFFFFFFFFFFFFFFFFFFFFFFFFFFFFFFFFFFF AND DUP2 MSTORE PUSH1 0x20 ADD SWAP1 DUP2 MSTORE PUSH1 0x20 ADD PUSH0 KECCAK256 PUSH1 0x4 ADD SLOAD PUSH1 0x40 MLOAD PUSH2 0x1689 SWAP2 SWAP1 PUSH2 0x1B92 JUMP JUMPDEST PUSH1 0x40 MLOAD DUP1 SWAP2 SUB SWAP1 LOG2 POP POP POP JUMP JUMPDEST PUSH2 0x169E PUSH2 0x184E JUMP JUMPDEST PUSH20 0xFFFFFFFFFFFFFFFFFFFFFFFFFFFFFFFFFFFFFFFF AND PUSH2 0x16BC PUSH2 0xF6F JUMP JUMPDEST PUSH20 0xFFFFFFFFFFFFFFFFFFFFFFFFFFFFFFFFFFFFFFFF AND EQ PUSH2 0x171B JUMPI PUSH2 0x16DF PUSH2 0x184E JUMP JUMPDEST PUSH1 0x40 MLOAD PUSH32 0x118CDAA700000000000000000000000000000000000000000000000000000000 DUP2 MSTORE PUSH1 0x4 ADD PUSH2 0x1712 SWAP2 SWAP1 PUSH2 0x1E07 JUMP JUMPDEST PUSH1 0x40 MLOAD DUP1 SWAP2 SUB SWAP1 REVERT JUMPDEST JUMP JUMPDEST PUSH0 PUSH2 0x1726 PUSH2 0x1827 JUMP JUMPDEST SWAP1 POP PUSH0 DUP2 PUSH0 ADD PUSH0 SWAP1 SLOAD SWAP1 PUSH2 0x100 EXP SWAP1 DIV PUSH20 0xFFFFFFFFFFFFFFFFFFFFFFFFFFFFFFFFFFFFFFFF AND SWAP1 POP DUP3 DUP3 PUSH0 ADD PUSH0 PUSH2 0x100 EXP DUP2 SLOAD DUP2 PUSH20 0xFFFFFFFFFFFFFFFFFFFFFFFFFFFFFFFFFFFFFFFF MUL NOT AND SWAP1 DUP4 PUSH20 0xFFFFFFFFFFFFFFFFFFFFFFFFFFFFFFFFFFFFFFFF AND MUL OR SWAP1 SSTORE POP DUP3 PUSH20 0xFFFFFFFFFFFFFFFFFFFFFFFFFFFFFFFFFFFFFFFF AND DUP2 PUSH20 0xFFFFFFFFFFFFFFFFFFFFFFFFFFFFFFFFFFFFFFFF AND PUSH32 0x8BE0079C531659141344CD1FD0A4F28419497F9722A3DAAFE3B4186F6B6457E0 PUSH1 0x40 MLOAD PUSH1 0x40 MLOAD DUP1 SWAP2 SUB SWAP1 LOG3 POP POP POP JUMP JUMPDEST PUSH0 PUSH0 PUSH2 0x17F8 PUSH2 0x1855 JUMP JUMPDEST SWAP1 POP DUP1 SWAP2 POP POP SWAP1 JUMP JUMPDEST PUSH2 0x1809 PUSH2 0x187E JUMP JUMPDEST PUSH2 0x1812 DUP2 PUSH2 0x18BE JUMP JUMPDEST POP JUMP JUMPDEST PUSH2 0x181D PUSH2 0x187E JUMP JUMPDEST PUSH2 0x1825 PUSH2 0x1942 JUMP JUMPDEST JUMP JUMPDEST PUSH0 PUSH32 0x9016D09D72D40FDAE2FD8CEAC6B6234C7706214FD39C1CD1E609A0528C199300 SWAP1 POP SWAP1 JUMP JUMPDEST PUSH0 CALLER SWAP1 POP SWAP1 JUMP JUMPDEST PUSH0 PUSH32 0xF0C57E16840DF040F15088DC2F81FE391C3923BEC73E23A9662EFC9C229C6A00 PUSH0 SHL SWAP1 POP SWAP1 JUMP JUMPDEST PUSH2 0x1886 PUSH2 0x1953 JUMP JUMPDEST PUSH2 0x18BC JUMPI PUSH1 0x40 MLOAD PUSH32 0xD7E6BCF800000000000000000000000000000000000000000000000000000000 DUP2 MSTORE PUSH1 0x4 ADD PUSH1 0x40 MLOAD DUP1 SWAP2 SUB SWAP1 REVERT JUMPDEST JUMP JUMPDEST PUSH2 0x18C6 PUSH2 0x187E JUMP JUMPDEST PUSH0 PUSH20 0xFFFFFFFFFFFFFFFFFFFFFFFFFFFFFFFFFFFFFFFF AND DUP2 PUSH20 0xFFFFFFFFFFFFFFFFFFFFFFFFFFFFFFFFFFFFFFFF AND SUB PUSH2 0x1936 JUMPI PUSH0 PUSH1 0x40 MLOAD PUSH32 0x1E4FBDF700000000000000000000000000000000000000000000000000000000 DUP2 MSTORE PUSH1 0x4 ADD PUSH2 0x192D SWAP2 SWAP1 PUSH2 0x1E07 JUMP JUMPDEST PUSH1 0x40 MLOAD DUP1 SWAP2 SUB SWAP1 REVERT JUMPDEST PUSH2 0x193F DUP2 PUSH2 0x171D JUMP JUMPDEST POP JUMP JUMPDEST PUSH2 0x194A PUSH2 0x187E JUMP JUMPDEST PUSH1 0x1 PUSH0 DUP2 SWAP1 SSTORE POP JUMP JUMPDEST PUSH0 PUSH2 0x195C PUSH2 0x17EE JUMP JUMPDEST PUSH0 ADD PUSH1 0x8 SWAP1 SLOAD SWAP1 PUSH2 0x100 EXP SWAP1 DIV PUSH1 0xFF AND SWAP1 POP SWAP1 JUMP JUMPDEST PUSH1 0x40 MLOAD DUP1 PUSH1 0xC0 ADD PUSH1 0x40 MSTORE DUP1 PUSH0 DUP2 MSTORE PUSH1 0x20 ADD PUSH0 DUP2 MSTORE PUSH1 0x20 ADD PUSH0 DUP2 MSTORE PUSH1 0x20 ADD PUSH0 DUP2 MSTORE PUSH1 0x20 ADD PUSH0 DUP2 MSTORE PUSH1 0x20 ADD PUSH0 DUP2 MSTORE POP SWAP1 JUMP JUMPDEST PUSH0 PUSH0 REVERT JUMPDEST PUSH0 PUSH0 REVERT JUMPDEST PUSH0 PUSH20 0xFFFFFFFFFFFFFFFFFFFFFFFFFFFFFFFFFFFFFFFF DUP3 AND SWAP1 POP SWAP2 SWAP1 POP JUMP JUMPDEST PUSH0 PUSH2 0x19D2 DUP3 PUSH2 0x19A9 JUMP JUMPDEST SWAP1 POP SWAP2 SWAP1 POP JUMP JUMPDEST PUSH2 0x19E2 DUP2 PUSH2 0x19C8 JUMP JUMPDEST DUP2 EQ PUSH2 0x19EC JUMPI PUSH0 PUSH0 REVERT JUMPDEST POP JUMP JUMPDEST PUSH0 DUP2 CALLDATALOAD SWAP1 POP PUSH2 0x19FD DUP2 PUSH2 0x19D9 JUMP JUMPDEST SWAP3 SWAP2 POP POP JUMP JUMPDEST PUSH0 DUP2 SWAP1 POP SWAP2 SWAP1 POP JUMP JUMPDEST PUSH2 0x1A15 DUP2 PUSH2 0x1A03 JUMP JUMPDEST DUP2 EQ PUSH2 0x1A1F JUMPI PUSH0 PUSH0 REVERT JUMPDEST POP JUMP JUMPDEST PUSH0 DUP2 CALLDATALOAD SWAP1 POP PUSH2 0x1A30 DUP2 PUSH2 0x1A0C JUMP JUMPDEST SWAP3 SWAP2 POP POP JUMP JUMPDEST PUSH0 PUSH0 REVERT JUMPDEST PUSH0 PUSH0 REVERT JUMPDEST PUSH0 PUSH0 REVERT JUMPDEST PUSH0 PUSH0 DUP4 PUSH1 0x1F DUP5 ADD SLT PUSH2 0x1A57 JUMPI PUSH2 0x1A56 PUSH2 0x1A36 JUMP JUMPDEST JUMPDEST DUP3 CALLDATALOAD SWAP1 POP PUSH8 0xFFFFFFFFFFFFFFFF DUP2 GT ISZERO PUSH2 0x1A74 JUMPI PUSH2 0x1A73 PUSH2 0x1A3A JUMP JUMPDEST JUMPDEST PUSH1 0x20 DUP4 ADD SWAP2 POP DUP4 PUSH1 0x1 DUP3 MUL DUP4 ADD GT ISZERO PUSH2 0x1A90 JUMPI PUSH2 0x1A8F PUSH2 0x1A3E JUMP JUMPDEST JUMPDEST SWAP3 POP SWAP3 SWAP1 POP JUMP JUMPDEST PUSH0 PUSH0 PUSH0 PUSH0 PUSH1 0x60 DUP6 DUP8 SUB SLT ISZERO PUSH2 0x1AAF JUMPI PUSH2 0x1AAE PUSH2 0x19A1 JUMP JUMPDEST JUMPDEST PUSH0 PUSH2 0x1ABC DUP8 DUP3 DUP9 ADD PUSH2 0x19EF JUMP JUMPDEST SWAP5 POP POP PUSH1 0x20 PUSH2 0x1ACD DUP8 DUP3 DUP9 ADD PUSH2 0x1A22 JUMP JUMPDEST SWAP4 POP POP PUSH1 0x40 DUP6 ADD CALLDATALOAD PUSH8 0xFFFFFFFFFFFFFFFF DUP2 GT ISZERO PUSH2 0x1AEE JUMPI PUSH2 0x1AED PUSH2 0x19A5 JUMP JUMPDEST JUMPDEST PUSH2 0x1AFA DUP8 DUP3 DUP9 ADD PUSH2 0x1A42 JUMP JUMPDEST SWAP3 POP SWAP3 POP POP SWAP3 SWAP6 SWAP2 SWAP5 POP SWAP3 POP JUMP JUMPDEST PUSH0 PUSH0 PUSH0 PUSH1 0x60 DUP5 DUP7 SUB SLT ISZERO PUSH2 0x1B1F JUMPI PUSH2 0x1B1E PUSH2 0x19A1 JUMP JUMPDEST JUMPDEST PUSH0 PUSH2 0x1B2C DUP7 DUP3 DUP8 ADD PUSH2 0x19EF JUMP JUMPDEST SWAP4 POP POP PUSH1 0x20 PUSH2 0x1B3D DUP7 DUP3 DUP8 ADD PUSH2 0x1A22 JUMP JUMPDEST SWAP3 POP POP PUSH1 0x40 PUSH2 0x1B4E DUP7 DUP3 DUP8 ADD PUSH2 0x1A22 JUMP JUMPDEST SWAP2 POP POP SWAP3 POP SWAP3 POP SWAP3 JUMP JUMPDEST PUSH0 PUSH1 0x20 DUP3 DUP5 SUB SLT ISZERO PUSH2 0x1B6D JUMPI PUSH2 0x1B6C PUSH2 0x19A1 JUMP JUMPDEST JUMPDEST PUSH0 PUSH2 0x1B7A DUP5 DUP3 DUP6 ADD PUSH2 0x19EF JUMP JUMPDEST SWAP2 POP POP SWAP3 SWAP2 POP POP JUMP JUMPDEST PUSH2 0x1B8C DUP2 PUSH2 0x1A03 JUMP JUMPDEST DUP3 MSTORE POP POP JUMP JUMPDEST PUSH0 PUSH1 0x20 DUP3 ADD SWAP1 POP PUSH2 0x1BA5 PUSH0 DUP4 ADD DUP5 PUSH2 0x1B83 JUMP JUMPDEST SWAP3 SWAP2 POP POP JUMP JUMPDEST PUSH0 PUSH1 0xA0 DUP3 ADD SWAP1 POP PUSH2 0x1BBE PUSH0 DUP4 ADD DUP9 PUSH2 0x1B83 JUMP JUMPDEST PUSH2 0x1BCB PUSH1 0x20 DUP4 ADD DUP8 PUSH2 0x1B83 JUMP JUMPDEST PUSH2 0x1BD8 PUSH1 0x40 DUP4 ADD DUP7 PUSH2 0x1B83 JUMP JUMPDEST PUSH2 0x1BE5 PUSH1 0x60 DUP4 ADD DUP6 PUSH2 0x1B83 JUMP JUMPDEST PUSH2 0x1BF2 PUSH1 0x80 DUP4 ADD DUP5 PUSH2 0x1B83 JUMP JUMPDEST SWAP7 SWAP6 POP POP POP POP POP POP JUMP JUMPDEST PUSH0 PUSH0 REVERT JUMPDEST PUSH0 PUSH1 0xA0 DUP3 DUP5 SUB SLT ISZERO PUSH2 0x1C15 JUMPI PUSH2 0x1C14 PUSH2 0x1BFC JUMP JUMPDEST JUMPDEST DUP2 SWAP1 POP SWAP3 SWAP2 POP POP JUMP JUMPDEST PUSH0 PUSH1 0xA0 DUP3 DUP5 SUB SLT ISZERO PUSH2 0x1C33 JUMPI PUSH2 0x1C32 PUSH2 0x19A1 JUMP JUMPDEST JUMPDEST PUSH0 PUSH2 0x1C40 DUP5 DUP3 DUP6 ADD PUSH2 0x1C00 JUMP JUMPDEST SWAP2 POP POP SWAP3 SWAP2 POP POP JUMP JUMPDEST PUSH0 PUSH0 DUP4 PUSH1 0x1F DUP5 ADD SLT PUSH2 0x1C5E JUMPI PUSH2 0x1C5D PUSH2 0x1A36 JUMP JUMPDEST JUMPDEST DUP3 CALLDATALOAD SWAP1 POP PUSH8 0xFFFFFFFFFFFFFFFF DUP2 GT ISZERO PUSH2 0x1C7B JUMPI PUSH2 0x1C7A PUSH2 0x1A3A JUMP JUMPDEST JUMPDEST PUSH1 0x20 DUP4 ADD SWAP2 POP DUP4 PUSH1 0x20 DUP3 MUL DUP4 ADD GT ISZERO PUSH2 0x1C97 JUMPI PUSH2 0x1C96 PUSH2 0x1A3E JUMP JUMPDEST JUMPDEST SWAP3 POP SWAP3 SWAP1 POP JUMP JUMPDEST PUSH0 PUSH0 DUP4 PUSH1 0x1F DUP5 ADD SLT PUSH2 0x1CB3 JUMPI PUSH2 0x1CB2 PUSH2 0x1A36 JUMP JUMPDEST JUMPDEST DUP3 CALLDATALOAD SWAP1 POP PUSH8 0xFFFFFFFFFFFFFFFF DUP2 GT ISZERO PUSH2 0x1CD0 JUMPI PUSH2 0x1CCF PUSH2 0x1A3A JUMP JUMPDEST JUMPDEST PUSH1 0x20 DUP4 ADD SWAP2 POP DUP4 PUSH1 0x20 DUP3 MUL DUP4 ADD GT ISZERO PUSH2 0x1CEC JUMPI PUSH2 0x1CEB PUSH2 0x1A3E JUMP JUMPDEST JUMPDEST SWAP3 POP SWAP3 SWAP1 POP JUMP JUMPDEST PUSH0 PUSH0 DUP4 PUSH1 0x1F DUP5 ADD SLT PUSH2 0x1D08 JUMPI PUSH2 0x1D07 PUSH2 0x1A36 JUMP JUMPDEST JUMPDEST DUP3 CALLDATALOAD SWAP1 POP PUSH8 0xFFFFFFFFFFFFFFFF DUP2 GT ISZERO PUSH2 0x1D25 JUMPI PUSH2 0x1D24 PUSH2 0x1A3A JUMP JUMPDEST JUMPDEST PUSH1 0x20 DUP4 ADD SWAP2 POP DUP4 PUSH1 0x20 DUP3 MUL DUP4 ADD GT ISZERO PUSH2 0x1D41 JUMPI PUSH2 0x1D40 PUSH2 0x1A3E JUMP JUMPDEST JUMPDEST SWAP3 POP SWAP3 SWAP1 POP JUMP JUMPDEST PUSH0 PUSH0 PUSH0 PUSH0 PUSH0 PUSH0 PUSH1 0x60 DUP8 DUP10 SUB SLT ISZERO PUSH2 0x1D62 JUMPI PUSH2 0x1D61 PUSH2 0x19A1 JUMP JUMPDEST JUMPDEST PUSH0 DUP8 ADD CALLDATALOAD PUSH8 0xFFFFFFFFFFFFFFFF DUP2 GT ISZERO PUSH2 0x1D7F JUMPI PUSH2 0x1D7E PUSH2 0x19A5 JUMP JUMPDEST JUMPDEST PUSH2 0x1D8B DUP10 DUP3 DUP11 ADD PUSH2 0x1C49 JUMP JUMPDEST SWAP7 POP SWAP7 POP POP PUSH1 0x20 DUP8 ADD CALLDATALOAD PUSH8 0xFFFFFFFFFFFFFFFF DUP2 GT ISZERO PUSH2 0x1DAE JUMPI PUSH2 0x1DAD PUSH2 0x19A5 JUMP JUMPDEST JUMPDEST PUSH2 0x1DBA DUP10 DUP3 DUP11 ADD PUSH2 0x1C9E JUMP JUMPDEST SWAP5 POP SWAP5 POP POP PUSH1 0x40 DUP8 ADD CALLDATALOAD PUSH8 0xFFFFFFFFFFFFFFFF DUP2 GT ISZERO PUSH2 0x1DDD JUMPI PUSH2 0x1DDC PUSH2 0x19A5 JUMP JUMPDEST JUMPDEST PUSH2 0x1DE9 DUP10 DUP3 DUP11 ADD PUSH2 0x1CF3 JUMP JUMPDEST SWAP3 POP SWAP3 POP POP SWAP3 SWAP6 POP SWAP3 SWAP6 POP SWAP3 SWAP6 JUMP JUMPDEST PUSH2 0x1E01 DUP2 PUSH2 0x19C8 JUMP JUMPDEST DUP3 MSTORE POP POP JUMP JUMPDEST PUSH0 PUSH1 0x20 DUP3 ADD SWAP1 POP PUSH2 0x1E1A PUSH0 DUP4 ADD DUP5 PUSH2 0x1DF8 JUMP JUMPDEST SWAP3 SWAP2 POP POP JUMP JUMPDEST PUSH2 0x1E29 DUP2 PUSH2 0x1A03 JUMP JUMPDEST DUP3 MSTORE POP POP JUMP JUMPDEST PUSH1 0xC0 DUP3 ADD PUSH0 DUP3 ADD MLOAD PUSH2 0x1E43 PUSH0 DUP6 ADD DUP3 PUSH2 0x1E20 JUMP JUMPDEST POP PUSH1 0x20 DUP3 ADD MLOAD PUSH2 0x1E56 PUSH1 0x20 DUP6 ADD DUP3 PUSH2 0x1E20 JUMP JUMPDEST POP PUSH1 0x40 DUP3 ADD MLOAD PUSH2 0x1E69 PUSH1 0x40 DUP6 ADD DUP3 PUSH2 0x1E20 JUMP JUMPDEST POP PUSH1 0x60 DUP3 ADD MLOAD PUSH2 0x1E7C PUSH1 0x60 DUP6 ADD DUP3 PUSH2 0x1E20 JUMP JUMPDEST POP PUSH1 0x80 DUP3 ADD MLOAD PUSH2 0x1E8F PUSH1 0x80 DUP6 ADD DUP3 PUSH2 0x1E20 JUMP JUMPDEST POP PUSH1 0xA0 DUP3 ADD MLOAD PUSH2 0x1EA2 PUSH1 0xA0 DUP6 ADD DUP3 PUSH2 0x1E20 JUMP JUMPDEST POP POP POP POP JUMP JUMPDEST PUSH0 PUSH1 0xC0 DUP3 ADD SWAP1 POP PUSH2 0x1EBB PUSH0 DUP4 ADD DUP5 PUSH2 0x1E2F JUMP JUMPDEST SWAP3 SWAP2 POP POP JUMP JUMPDEST PUSH0 DUP2 ISZERO ISZERO SWAP1 POP SWAP2 SWAP1 POP JUMP JUMPDEST PUSH2 0x1ED5 DUP2 PUSH2 0x1EC1 JUMP JUMPDEST DUP3 MSTORE POP POP JUMP JUMPDEST PUSH0 PUSH1 0x20 DUP3 ADD SWAP1 POP PUSH2 0x1EEE PUSH0 DUP4 ADD DUP5 PUSH2 0x1ECC JUMP JUMPDEST SWAP3 SWAP2 POP POP JUMP JUMPDEST PUSH0 PUSH1 0xC0 DUP3 ADD SWAP1 POP PUSH2 0x1F07 PUSH0 DUP4 ADD DUP10 PUSH2 0x1B83 JUMP JUMPDEST PUSH2 0x1F14 PUSH1 0x20 DUP4 ADD DUP9 PUSH2 0x1B83 JUMP JUMPDEST PUSH2 0x1F21 PUSH1 0x40 DUP4 ADD DUP8 PUSH2 0x1B83 JUMP JUMPDEST PUSH2 0x1F2E PUSH1 0x60 DUP4 ADD DUP7 PUSH2 0x1B83 JUMP JUMPDEST PUSH2 0x1F3B PUSH1 0x80 DUP4 ADD DUP6 PUSH2 0x1B83 JUMP JUMPDEST PUSH2 0x1F48 PUSH1 0xA0 DUP4 ADD DUP5 PUSH2 0x1B83 JUMP JUMPDEST SWAP8 SWAP7 POP POP POP POP POP POP POP JUMP JUMPDEST PUSH2 0x1F5C DUP2 PUSH2 0x1EC1 JUMP JUMPDEST DUP2 EQ PUSH2 0x1F66 JUMPI PUSH0 PUSH0 REVERT JUMPDEST POP JUMP JUMPDEST PUSH0 DUP2 CALLDATALOAD SWAP1 POP PUSH2 0x1F77 DUP2 PUSH2 0x1F53 JUMP JUMPDEST SWAP3 SWAP2 POP POP JUMP JUMPDEST PUSH0 PUSH0 PUSH1 0x40 DUP4 DUP6 SUB SLT ISZERO PUSH2 0x1F93 JUMPI PUSH2 0x1F92 PUSH2 0x19A1 JUMP JUMPDEST JUMPDEST PUSH0 PUSH2 0x1FA0 DUP6 DUP3 DUP7 ADD PUSH2 0x19EF JUMP JUMPDEST SWAP3 POP POP PUSH1 0x20 PUSH2 0x1FB1 DUP6 DUP3 DUP7 ADD PUSH2 0x1F69 JUMP JUMPDEST SWAP2 POP POP SWAP3 POP SWAP3 SWAP1 POP JUMP JUMPDEST PUSH0 DUP3 DUP3 MSTORE PUSH1 0x20 DUP3 ADD SWAP1 POP SWAP3 SWAP2 POP POP JUMP JUMPDEST PUSH32 0x4E6F7420617574686F72697A6564000000000000000000000000000000000000 PUSH0 DUP3 ADD MSTORE POP JUMP JUMPDEST PUSH0 PUSH2 0x1FFF PUSH1 0xE DUP4 PUSH2 0x1FBB JUMP JUMPDEST SWAP2 POP PUSH2 0x200A DUP3 PUSH2 0x1FCB JUMP JUMPDEST PUSH1 0x20 DUP3 ADD SWAP1 POP SWAP2 SWAP1 POP JUMP JUMPDEST PUSH0 PUSH1 0x20 DUP3 ADD SWAP1 POP DUP2 DUP2 SUB PUSH0 DUP4 ADD MSTORE PUSH2 0x202C DUP2 PUSH2 0x1FF3 JUMP JUMPDEST SWAP1 POP SWAP2 SWAP1 POP JUMP JUMPDEST PUSH32 0x496E73756666696369656E7420706F696E747300000000000000000000000000 PUSH0 DUP3 ADD MSTORE POP JUMP JUMPDEST PUSH0 PUSH2 0x2067 PUSH1 0x13 DUP4 PUSH2 0x1FBB JUMP JUMPDEST SWAP2 POP PUSH2 0x2072 DUP3 PUSH2 0x2033 JUMP JUMPDEST PUSH1 0x20 DUP3 ADD SWAP1 POP SWAP2 SWAP1 POP JUMP JUMPDEST PUSH0 PUSH1 0x20 DUP3 ADD SWAP1 POP DUP2 DUP2 SUB PUSH0 DUP4 ADD MSTORE PUSH2 0x2094 DUP2 PUSH2 0x205B JUMP JUMPDEST SWAP1 POP SWAP2 SWAP1 POP JUMP JUMPDEST PUSH32 0x4E487B7100000000000000000000000000000000000000000000000000000000 PUSH0 MSTORE PUSH1 0x11 PUSH1 0x4 MSTORE PUSH1 0x24 PUSH0 REVERT JUMPDEST PUSH0 PUSH2 0x20D2 DUP3 PUSH2 0x1A03 JUMP JUMPDEST SWAP2 POP PUSH2 0x20DD DUP4 PUSH2 0x1A03 JUMP JUMPDEST SWAP3 POP DUP3 DUP3 SUB SWAP1 POP DUP2 DUP2 GT ISZERO PUSH2 0x20F5 JUMPI PUSH2 0x20F4 PUSH2 0x209B JUMP JUMPDEST JUMPDEST SWAP3 SWAP2 POP POP JUMP JUMPDEST DUP3 DUP2 DUP4 CALLDATACOPY PUSH0 DUP4 DUP4 ADD MSTORE POP POP POP JUMP JUMPDEST PUSH0 PUSH1 0x1F NOT PUSH1 0x1F DUP4 ADD AND SWAP1 POP SWAP2 SWAP1 POP JUMP JUMPDEST PUSH0 PUSH2 0x2124 DUP4 DUP6 PUSH2 0x1FBB JUMP JUMPDEST SWAP4 POP PUSH2 0x2131 DUP4 DUP6 DUP5 PUSH2 0x20FB JUMP JUMPDEST PUSH2 0x213A DUP4 PUSH2 0x2109 JUMP JUMPDEST DUP5 ADD SWAP1 POP SWAP4 SWAP3 POP POP POP JUMP JUMPDEST PUSH0 PUSH1 0x40 DUP3 ADD SWAP1 POP PUSH2 0x2158 PUSH0 DUP4 ADD DUP7 PUSH2 0x1B83 JUMP JUMPDEST DUP2 DUP2 SUB PUSH1 0x20 DUP4 ADD MSTORE PUSH2 0x216B DUP2 DUP5 DUP7 PUSH2 0x2119 JUMP JUMPDEST SWAP1 POP SWAP5 SWAP4 POP POP POP POP JUMP JUMPDEST PUSH0 PUSH2 0x217F DUP3 PUSH2 0x1A03 JUMP JUMPDEST SWAP2 POP PUSH2 0x218A DUP4 PUSH2 0x1A03 JUMP JUMPDEST SWAP3 POP DUP3 DUP3 MUL PUSH2 0x2198 DUP2 PUSH2 0x1A03 JUMP JUMPDEST SWAP2 POP DUP3 DUP3 DIV DUP5 EQ DUP4 ISZERO OR PUSH2 0x21AF JUMPI PUSH2 0x21AE PUSH2 0x209B JUMP JUMPDEST JUMPDEST POP SWAP3 SWAP2 POP POP JUMP JUMPDEST PUSH32 0x4E487B7100000000000000000000000000000000000000000000000000000000 PUSH0 MSTORE PUSH1 0x12 PUSH1 0x4 MSTORE PUSH1 0x24 PUSH0 REVERT JUMPDEST PUSH0 PUSH2 0x21ED DUP3 PUSH2 0x1A03 JUMP JUMPDEST SWAP2 POP PUSH2 0x21F8 DUP4 PUSH2 0x1A03 JUMP JUMPDEST SWAP3 POP DUP3 PUSH2 0x2208 JUMPI PUSH2 0x2207 PUSH2 0x21B6 JUMP JUMPDEST JUMPDEST DUP3 DUP3 DIV SWAP1 POP SWAP3 SWAP2 POP POP JUMP JUMPDEST PUSH0 PUSH2 0x221D DUP3 PUSH2 0x1A03 JUMP JUMPDEST SWAP2 POP PUSH2 0x2228 DUP4 PUSH2 0x1A03 JUMP JUMPDEST SWAP3 POP DUP3 DUP3 ADD SWAP1 POP DUP1 DUP3 GT ISZERO PUSH2 0x2240 JUMPI PUSH2 0x223F PUSH2 0x209B JUMP JUMPDEST JUMPDEST SWAP3 SWAP2 POP POP JUMP JUMPDEST PUSH0 DUP2 CALLDATALOAD PUSH2 0x2252 DUP2 PUSH2 0x1A0C JUMP JUMPDEST DUP1 SWAP2 POP POP SWAP2 SWAP1 POP JUMP JUMPDEST PUSH0 DUP2 PUSH0 SHL SWAP1 POP SWAP2 SWAP1 POP JUMP JUMPDEST PUSH0 PUSH32 0xFFFFFFFFFFFFFFFFFFFFFFFFFFFFFFFFFFFFFFFFFFFFFFFFFFFFFFFFFFFFFFFF PUSH2 0x2291 DUP5 PUSH2 0x225B JUMP JUMPDEST SWAP4 POP DUP1 NOT DUP4 AND SWAP3 POP DUP1 DUP5 AND DUP4 OR SWAP2 POP POP SWAP3 SWAP2 POP POP JUMP JUMPDEST PUSH0 DUP2 SWAP1 POP SWAP2 SWAP1 POP JUMP JUMPDEST PUSH0 PUSH2 0x22CA PUSH2 0x22C5 PUSH2 0x22C0 DUP5 PUSH2 0x1A03 JUMP JUMPDEST PUSH2 0x22A7 JUMP JUMPDEST PUSH2 0x1A03 JUMP JUMPDEST SWAP1 POP SWAP2 SWAP1 POP JUMP JUMPDEST PUSH0 DUP2 SWAP1 POP SWAP2 SWAP1 POP JUMP JUMPDEST PUSH2 0x22E3 DUP3 PUSH2 0x22B0 JUMP JUMPDEST PUSH2 0x22F6 PUSH2 0x22EF DUP3 PUSH2 0x22D1 JUMP JUMPDEST DUP4 SLOAD PUSH2 0x2266 JUMP JUMPDEST DUP3 SSTORE POP POP POP JUMP JUMPDEST PUSH0 DUP2 ADD PUSH0 DUP4 ADD DUP1 PUSH2 0x230D DUP2 PUSH2 0x2246 JUMP JUMPDEST SWAP1 POP PUSH2 0x2319 DUP2 DUP5 PUSH2 0x22DA JUMP JUMPDEST POP POP POP PUSH1 0x1 DUP2 ADD PUSH1 0x20 DUP4 ADD DUP1 PUSH2 0x232E DUP2 PUSH2 0x2246 JUMP JUMPDEST SWAP1 POP PUSH2 0x233A DUP2 DUP5 PUSH2 0x22DA JUMP JUMPDEST POP POP POP PUSH1 0x2 DUP2 ADD PUSH1 0x40 DUP4 ADD DUP1 PUSH2 0x234F DUP2 PUSH2 0x2246 JUMP JUMPDEST SWAP1 POP PUSH2 0x235B DUP2 DUP5 PUSH2 0x22DA JUMP JUMPDEST POP POP POP PUSH1 0x3 DUP2 ADD PUSH1 0x60 DUP4 ADD DUP1 PUSH2 0x2370 DUP2 PUSH2 0x2246 JUMP JUMPDEST SWAP1 POP PUSH2 0x237C DUP2 DUP5 PUSH2 0x22DA JUMP JUMPDEST POP POP POP PUSH1 0x4 DUP2 ADD PUSH1 0x80 DUP4 ADD DUP1 PUSH2 0x2391 DUP2 PUSH2 0x2246 JUMP JUMPDEST SWAP1 POP PUSH2 0x239D DUP2 DUP5 PUSH2 0x22DA JUMP JUMPDEST POP POP POP POP POP JUMP JUMPDEST PUSH2 0x23AE DUP3 DUP3 PUSH2 0x22FD JUMP JUMPDEST POP POP JUMP JUMPDEST PUSH0 PUSH2 0x23C0 PUSH1 0x20 DUP5 ADD DUP5 PUSH2 0x1A22 JUMP JUMPDEST SWAP1 POP SWAP3 SWAP2 POP POP JUMP JUMPDEST PUSH1 0xA0 DUP3 ADD PUSH2 0x23D8 PUSH0 DUP4 ADD DUP4 PUSH2 0x23B2 JUMP JUMPDEST PUSH2 0x23E4 PUSH0 DUP6 ADD DUP3 PUSH2 0x1E20 JUMP JUMPDEST POP PUSH2 0x23F2 PUSH1 0x20 DUP4 ADD DUP4 PUSH2 0x23B2 JUMP JUMPDEST PUSH2 0x23FF PUSH1 0x20 DUP6 ADD DUP3 PUSH2 0x1E20 JUMP JUMPDEST POP PUSH2 0x240D PUSH1 0x40 DUP4 ADD DUP4 PUSH2 0x23B2 JUMP JUMPDEST PUSH2 0x241A PUSH1 0x40 DUP6 ADD DUP3 PUSH2 0x1E20 JUMP JUMPDEST POP PUSH2 0x2428 PUSH1 0x60 DUP4 ADD DUP4 PUSH2 0x23B2 JUMP JUMPDEST PUSH2 0x2435 PUSH1 0x60 DUP6 ADD DUP3 PUSH2 0x1E20 JUMP JUMPDEST POP PUSH2 0x2443 PUSH1 0x80 DUP4 ADD DUP4 PUSH2 0x23B2 JUMP JUMPDEST PUSH2 0x2450 PUSH1 0x80 DUP6 ADD DUP3 PUSH2 0x1E20 JUMP JUMPDEST POP POP POP POP JUMP JUMPDEST PUSH0 PUSH1 0xA0 DUP3 ADD SWAP1 POP PUSH2 0x2469 PUSH0 DUP4 ADD DUP5 PUSH2 0x23C8 JUMP JUMPDEST SWAP3 SWAP2 POP POP JUMP JUMPDEST PUSH32 0x4172726179206C656E677468206D69736D617463680000000000000000000000 PUSH0 DUP3 ADD MSTORE POP JUMP JUMPDEST PUSH0 PUSH2 0x24A3 PUSH1 0x15 DUP4 PUSH2 0x1FBB JUMP JUMPDEST SWAP2 POP PUSH2 0x24AE DUP3 PUSH2 0x246F JUMP JUMPDEST PUSH1 0x20 DUP3 ADD SWAP1 POP SWAP2 SWAP1 POP JUMP JUMPDEST PUSH0 PUSH1 0x20 DUP3 ADD SWAP1 POP DUP2 DUP2 SUB PUSH0 DUP4 ADD MSTORE PUSH2 0x24D0 DUP2 PUSH2 0x2497 JUMP JUMPDEST SWAP1 POP SWAP2 SWAP1 POP JUMP JUMPDEST PUSH32 0x4E487B7100000000000000000000000000000000000000000000000000000000 PUSH0 MSTORE PUSH1 0x32 PUSH1 0x4 MSTORE PUSH1 0x24 PUSH0 REVERT JUMPDEST PUSH0 PUSH0 REVERT JUMPDEST PUSH0 PUSH0 REVERT JUMPDEST PUSH0 PUSH0 REVERT JUMPDEST PUSH0 PUSH0 DUP4 CALLDATALOAD PUSH1 0x1 PUSH1 0x20 SUB DUP5 CALLDATASIZE SUB SUB DUP2 SLT PUSH2 0x252C JUMPI PUSH2 0x252B PUSH2 0x2504 JUMP JUMPDEST JUMPDEST DUP1 DUP5 ADD SWAP3 POP DUP3 CALLDATALOAD SWAP2 POP PUSH8 0xFFFFFFFFFFFFFFFF DUP3 GT ISZERO PUSH2 0x254E JUMPI PUSH2 0x254D PUSH2 0x2508 JUMP JUMPDEST JUMPDEST PUSH1 0x20 DUP4 ADD SWAP3 POP PUSH1 0x1 DUP3 MUL CALLDATASIZE SUB DUP4 SGT ISZERO PUSH2 0x256A JUMPI PUSH2 0x2569 PUSH2 0x250C JUMP JUMPDEST JUMPDEST POP SWAP3 POP SWAP3 SWAP1 POP JUMP JUMPDEST PUSH0 DUP2 SWAP1 POP SWAP2 SWAP1 POP JUMP JUMPDEST PUSH0 PUSH8 0xFFFFFFFFFFFFFFFF DUP3 AND SWAP1 POP SWAP2 SWAP1 POP JUMP JUMPDEST PUSH0 PUSH2 0x25A8 PUSH2 0x25A3 PUSH2 0x259E DUP5 PUSH2 0x2572 JUMP JUMPDEST PUSH2 0x22A7 JUMP JUMPDEST PUSH2 0x257B JUMP JUMPDEST SWAP1 POP SWAP2 SWAP1 POP JUMP JUMPDEST PUSH2 0x25B8 DUP2 PUSH2 0x258E JUMP JUMPDEST DUP3 MSTORE POP POP JUMP JUMPDEST PUSH0 PUSH1 0x20 DUP3 ADD SWAP1 POP PUSH2 0x25D1 PUSH0 DUP4 ADD DUP5 PUSH2 0x25AF JUMP JUMPDEST SWAP3 SWAP2 POP POP JUMP JUMPDEST PUSH0 DUP2 MLOAD SWAP1 POP SWAP2 SWAP1 POP JUMP JUMPDEST PUSH0 DUP2 SWAP1 POP SWAP3 SWAP2 POP POP JUMP JUMPDEST DUP3 DUP2 DUP4 MCOPY PUSH0 DUP4 DUP4 ADD MSTORE POP POP POP JUMP JUMPDEST PUSH0 PUSH2 0x2603 DUP3 PUSH2 0x25D7 JUMP JUMPDEST PUSH2 0x260D DUP2 DUP6 PUSH2 0x25E1 JUMP JUMPDEST SWAP4 POP PUSH2 0x261D DUP2 DUP6 PUSH1 0x20 DUP7 ADD PUSH2 0x25EB JUMP JUMPDEST DUP1 DUP5 ADD SWAP2 POP POP SWAP3 SWAP2 POP POP JUMP JUMPDEST PUSH0 PUSH2 0x2634 DUP3 DUP5 PUSH2 0x25F9 JUMP JUMPDEST SWAP2 POP DUP2 SWAP1 POP SWAP3 SWAP2 POP POP JUMP INVALID LOG2 PUSH5 0x6970667358 0x22 SLT KECCAK256 CREATE2 0x23 0xD0 0xEB 0xCD 0xB0 PUSH31 0xE3F4A9A5A362ABE7BFA14D8A079FBD4AFF9190D810DDF9702564736F6C6343 STOP ADDMOD 0x1E STOP CALLER "
				},
				"gasEstimates": {
					"creation": {
						"codeDepositCost": "1969000",
						"executionCost": "2082",
						"totalCost": "1971082"
					},
					"external": {
						"authorizedContracts(address)": "2877",
						"batchUpdatePoints(address[],uint256[],string[])": "infinite",
						"calculatePendingLoyaltyPoints(address)": "infinite",
						"config()": "infinite",
						"getPointsBreakdown(address)": "infinite",
						"getUserPoints(address)": "infinite",
						"initialize()": "infinite",
						"owner()": "2633",
						"redeemPoints(address,uint256,string)": "infinite",
						"renounceOwnership()": "infinite",
						"setContractAuthorization(address,bool)": "infinite",
						"totalPointsDistributed()": "2448",
						"transferOwnership(address)": "infinite",
						"updateBorrowingPoints(address,uint256,uint256)": "infinite",
						"updateConfig((uint256,uint256,uint256,uint256,uint256))": "infinite",
						"updateLendingPoints(address,uint256,uint256)": "infinite",
						"updateLoyaltyPoints(address)": "infinite",
						"updateStakingPoints(address,uint256,uint256)": "infinite",
						"userPoints(address)": "infinite"
					},
					"internal": {
						"_addPoints(address,uint256,string memory)": "infinite"
					}
				},
				"methodIdentifiers": {
					"authorizedContracts(address)": "d5b9221b",
					"batchUpdatePoints(address[],uint256[],string[])": "794809de",
					"calculatePendingLoyaltyPoints(address)": "2ede8bf5",
					"config()": "79502c55",
					"getPointsBreakdown(address)": "53571396",
					"getUserPoints(address)": "aeefe31f",
					"initialize()": "8129fc1c",
					"owner()": "8da5cb5b",
					"redeemPoints(address,uint256,string)": "2a42a564",
					"renounceOwnership()": "715018a6",
					"setContractAuthorization(address,bool)": "f60ccc86",
					"totalPointsDistributed()": "7bc94d98",
					"transferOwnership(address)": "f2fde38b",
					"updateBorrowingPoints(address,uint256,uint256)": "8e65eb11",
					"updateConfig((uint256,uint256,uint256,uint256,uint256))": "55517f56",
					"updateLendingPoints(address,uint256,uint256)": "2c805602",
					"updateLoyaltyPoints(address)": "c5696398",
					"updateStakingPoints(address,uint256,uint256)": "53a64671",
					"userPoints(address)": "f50ddbc7"
				}
			},
			"storageLayout": {
				"storage": [
					{
						"astId": 477,
						"contract": "contracts/ValoraPoints.sol:ValoraPoints",
						"label": "_status",
						"offset": 0,
						"slot": "0",
						"type": "t_uint256"
					},
					{
						"astId": 546,
						"contract": "contracts/ValoraPoints.sol:ValoraPoints",
						"label": "__gap",
						"offset": 0,
						"slot": "1",
						"type": "t_array(t_uint256)49_storage"
					},
					{
						"astId": 630,
						"contract": "contracts/ValoraPoints.sol:ValoraPoints",
						"label": "userPoints",
						"offset": 0,
						"slot": "50",
						"type": "t_mapping(t_address,t_struct(UserPoints)614_storage)"
					},
					{
						"astId": 634,
						"contract": "contracts/ValoraPoints.sol:ValoraPoints",
						"label": "authorizedContracts",
						"offset": 0,
						"slot": "51",
						"type": "t_mapping(t_address,t_bool)"
					},
					{
						"astId": 637,
						"contract": "contracts/ValoraPoints.sol:ValoraPoints",
						"label": "config",
						"offset": 0,
						"slot": "52",
						"type": "t_struct(PointsConfig)625_storage"
					},
					{
						"astId": 639,
						"contract": "contracts/ValoraPoints.sol:ValoraPoints",
						"label": "totalPointsDistributed",
						"offset": 0,
						"slot": "57",
						"type": "t_uint256"
					}
				],
				"types": {
					"t_address": {
						"encoding": "inplace",
						"label": "address",
						"numberOfBytes": "20"
					},
					"t_array(t_uint256)49_storage": {
						"base": "t_uint256",
						"encoding": "inplace",
						"label": "uint256[49]",
						"numberOfBytes": "1568"
					},
					"t_bool": {
						"encoding": "inplace",
						"label": "bool",
						"numberOfBytes": "1"
					},
					"t_mapping(t_address,t_bool)": {
						"encoding": "mapping",
						"key": "t_address",
						"label": "mapping(address => bool)",
						"numberOfBytes": "32",
						"value": "t_bool"
					},
					"t_mapping(t_address,t_struct(UserPoints)614_storage)": {
						"encoding": "mapping",
						"key": "t_address",
						"label": "mapping(address => struct ValoraPoints.UserPoints)",
						"numberOfBytes": "32",
						"value": "t_struct(UserPoints)614_storage"
					},
					"t_struct(PointsConfig)625_storage": {
						"encoding": "inplace",
						"label": "struct ValoraPoints.PointsConfig",
						"members": [
							{
								"astId": 616,
								"contract": "contracts/ValoraPoints.sol:ValoraPoints",
								"label": "stakingMultiplier",
								"offset": 0,
								"slot": "0",
								"type": "t_uint256"
							},
							{
								"astId": 618,
								"contract": "contracts/ValoraPoints.sol:ValoraPoints",
								"label": "lendingMultiplier",
								"offset": 0,
								"slot": "1",
								"type": "t_uint256"
							},
							{
								"astId": 620,
								"contract": "contracts/ValoraPoints.sol:ValoraPoints",
								"label": "borrowingMultiplier",
								"offset": 0,
								"slot": "2",
								"type": "t_uint256"
							},
							{
								"astId": 622,
								"contract": "contracts/ValoraPoints.sol:ValoraPoints",
								"label": "loyaltyBonusRate",
								"offset": 0,
								"slot": "3",
								"type": "t_uint256"
							},
							{
								"astId": 624,
								"contract": "contracts/ValoraPoints.sol:ValoraPoints",
								"label": "maxLoyaltyDays",
								"offset": 0,
								"slot": "4",
								"type": "t_uint256"
							}
						],
						"numberOfBytes": "160"
					},
					"t_struct(UserPoints)614_storage": {
						"encoding": "inplace",
						"label": "struct ValoraPoints.UserPoints",
						"members": [
							{
								"astId": 603,
								"contract": "contracts/ValoraPoints.sol:ValoraPoints",
								"label": "stakingPoints",
								"offset": 0,
								"slot": "0",
								"type": "t_uint256"
							},
							{
								"astId": 605,
								"contract": "contracts/ValoraPoints.sol:ValoraPoints",
								"label": "lendingPoints",
								"offset": 0,
								"slot": "1",
								"type": "t_uint256"
							},
							{
								"astId": 607,
								"contract": "contracts/ValoraPoints.sol:ValoraPoints",
								"label": "borrowingPoints",
								"offset": 0,
								"slot": "2",
								"type": "t_uint256"
							},
							{
								"astId": 609,
								"contract": "contracts/ValoraPoints.sol:ValoraPoints",
								"label": "loyaltyPoints",
								"offset": 0,
								"slot": "3",
								"type": "t_uint256"
							},
							{
								"astId": 611,
								"contract": "contracts/ValoraPoints.sol:ValoraPoints",
								"label": "totalPoints",
								"offset": 0,
								"slot": "4",
								"type": "t_uint256"
							},
							{
								"astId": 613,
								"contract": "contracts/ValoraPoints.sol:ValoraPoints",
								"label": "lastUpdate",
								"offset": 0,
								"slot": "5",
								"type": "t_uint256"
							}
						],
						"numberOfBytes": "192"
					},
					"t_uint256": {
						"encoding": "inplace",
						"label": "uint256",
						"numberOfBytes": "32"
					}
				}
			},
			"userdoc": {
				"kind": "user",
				"methods": {},
				"version": 1
			}
		}
	}
}