{
  "_format": "hh-sol-artifact-1",
  "contractName": "ValoraCore",
  "sourceName": "contracts/ValoraCore.sol",
  "abi": [
    {
      "inputs": [
        {
          "internalType": "address",
          "name": "target",
          "type": "address"
        }
      ],
      "name": "AddressEmptyCode",
      "type": "error"
    },
    {
      "inputs": [
        {
          "internalType": "address",
          "name": "implementation",
          "type": "address"
        }
      ],
      "name": "ERC1967InvalidImplementation",
      "type": "error"
    },
    {
      "inputs": [],
      "name": "ERC1967NonPayable",
      "type": "error"
    },
    {
      "inputs": [],
      "name": "FailedCall",
      "type": "error"
    },
    {
      "inputs": [],
      "name": "InvalidInitialization",
      "type": "error"
    },
    {
      "inputs": [],
      "name": "NotInitializing",
      "type": "error"
    },
    {
      "inputs": [
        {
          "internalType": "address",
          "name": "owner",
          "type": "address"
        }
      ],
      "name": "OwnableInvalidOwner",
      "type": "error"
    },
    {
      "inputs": [
        {
          "internalType": "address",
          "name": "account",
          "type": "address"
        }
      ],
      "name": "OwnableUnauthorizedAccount",
      "type": "error"
    },
    {
      "inputs": [],
      "name": "ReentrancyGuardReentrantCall",
      "type": "error"
    },
    {
      "inputs": [],
      "name": "UUPSUnauthorizedCallContext",
      "type": "error"
    },
    {
      "inputs": [
        {
          "internalType": "bytes32",
          "name": "slot",
          "type": "bytes32"
        }
      ],
      "name": "UUPSUnsupportedProxiableUUID",
      "type": "error"
    },
    {
      "anonymous": false,
      "inputs": [
        {
          "indexed": true,
          "internalType": "address",
          "name": "oldBridge",
          "type": "address"
        },
        {
          "indexed": true,
          "internalType": "address",
          "name": "newBridge",
          "type": "address"
        }
      ],
      "name": "BridgeUpdated",
      "type": "event"
    },
    {
      "anonymous": false,
      "inputs": [
        {
          "indexed": false,
          "internalType": "uint64",
          "name": "version",
          "type": "uint64"
        }
      ],
      "name": "Initialized",
      "type": "event"
    },
    {
      "anonymous": false,
      "inputs": [
        {
          "indexed": true,
          "internalType": "address",
          "name": "oldOracle",
          "type": "address"
        },
        {
          "indexed": true,
          "internalType": "address",
          "name": "newOracle",
          "type": "address"
        }
      ],
      "name": "OracleUpdated",
      "type": "event"
    },
    {
      "anonymous": false,
      "inputs": [
        {
          "indexed": true,
          "internalType": "address",
          "name": "previousOwner",
          "type": "address"
        },
        {
          "indexed": true,
          "internalType": "address",
          "name": "newOwner",
          "type": "address"
        }
      ],
      "name": "OwnershipTransferred",
      "type": "event"
    },
    {
      "anonymous": false,
      "inputs": [],
      "name": "Paused",
      "type": "event"
    },
    {
      "anonymous": false,
      "inputs": [
        {
          "indexed": false,
          "internalType": "uint256",
          "name": "totalShares",
          "type": "uint256"
        },
        {
          "indexed": false,
          "internalType": "uint256",
          "name": "totalAssets",
          "type": "uint256"
        }
      ],
      "name": "Rebased",
      "type": "event"
    },
    {
      "anonymous": false,
      "inputs": [
        {
          "indexed": true,
          "internalType": "address",
          "name": "user",
          "type": "address"
        },
        {
          "indexed": false,
          "internalType": "uint256",
          "name": "amount",
          "type": "uint256"
        }
      ],
      "name": "Staked",
      "type": "event"
    },
    {
      "anonymous": false,
      "inputs": [
        {
          "indexed": true,
          "internalType": "address",
          "name": "user",
          "type": "address"
        },
        {
          "indexed": false,
          "internalType": "uint256",
          "name": "amount",
          "type": "uint256"
        },
        {
          "indexed": false,
          "internalType": "bytes3",
          "name": "destination",
          "type": "bytes3"
        },
        {
          "indexed": false,
          "internalType": "bytes",
          "name": "validatorAddress",
          "type": "bytes"
        }
      ],
      "name": "TokensBridgedToValidator",
      "type": "event"
    },
    {
      "anonymous": false,
      "inputs": [],
      "name": "Unpaused",
      "type": "event"
    },
    {
      "anonymous": false,
      "inputs": [
        {
          "indexed": true,
          "internalType": "address",
          "name": "implementation",
          "type": "address"
        }
      ],
      "name": "Upgraded",
      "type": "event"
    },
    {
      "anonymous": false,
      "inputs": [
        {
          "indexed": false,
          "internalType": "bytes3",
          "name": "chainId",
          "type": "bytes3"
        },
        {
          "indexed": false,
          "internalType": "bytes",
          "name": "validatorAddress",
          "type": "bytes"
        }
      ],
      "name": "ValidatorAddressUpdated",
      "type": "event"
    },
    {
      "anonymous": false,
      "inputs": [
        {
          "indexed": true,
          "internalType": "address",
          "name": "user",
          "type": "address"
        },
        {
          "indexed": false,
          "internalType": "uint256",
          "name": "amount",
          "type": "uint256"
        }
      ],
      "name": "WithdrawCompleted",
      "type": "event"
    },
    {
      "anonymous": false,
      "inputs": [
        {
          "indexed": true,
          "internalType": "address",
          "name": "user",
          "type": "address"
        },
        {
          "indexed": false,
          "internalType": "uint256",
          "name": "shares",
          "type": "uint256"
        },
        {
          "indexed": false,
          "internalType": "uint256",
          "name": "unlockTime",
          "type": "uint256"
        }
      ],
      "name": "WithdrawRequested",
      "type": "event"
    },
    {
      "anonymous": false,
      "inputs": [
        {
          "indexed": false,
          "internalType": "uint256",
          "name": "oldDelay",
          "type": "uint256"
        },
        {
          "indexed": false,
          "internalType": "uint256",
          "name": "newDelay",
          "type": "uint256"
        }
      ],
      "name": "WithdrawalDelayUpdated",
      "type": "event"
    },
    {
      "anonymous": false,
      "inputs": [],
      "name": "WithdrawalsEnabled",
      "type": "event"
    },
    {
      "inputs": [],
      "name": "MIN_DEPOSIT",
      "outputs": [
        {
          "internalType": "uint256",
          "name": "",
          "type": "uint256"
        }
      ],
      "stateMutability": "view",
      "type": "function"
    },
    {
      "inputs": [],
      "name": "UPGRADE_INTERFACE_VERSION",
      "outputs": [
        {
          "internalType": "string",
          "name": "",
          "type": "string"
        }
      ],
      "stateMutability": "view",
      "type": "function"
    },
    {
      "inputs": [],
      "name": "bridge",
      "outputs": [
        {
          "internalType": "contract IBridge",
          "name": "",
          "type": "address"
        }
      ],
      "stateMutability": "view",
      "type": "function"
    },
    {
      "inputs": [],
      "name": "cellToken",
      "outputs": [
        {
          "internalType": "contract IERC20",
          "name": "",
          "type": "address"
        }
      ],
      "stateMutability": "view",
      "type": "function"
    },
    {
      "inputs": [],
      "name": "completeWithdrawal",
      "outputs": [],
      "stateMutability": "nonpayable",
      "type": "function"
    },
    {
      "inputs": [
        {
          "internalType": "uint256",
          "name": "amount",
          "type": "uint256"
        }
      ],
      "name": "deposit",
      "outputs": [],
      "stateMutability": "nonpayable",
      "type": "function"
    },
    {
      "inputs": [],
      "name": "enableWithdrawals",
      "outputs": [],
      "stateMutability": "nonpayable",
      "type": "function"
    },
    {
      "inputs": [],
      "name": "exchangeRate",
      "outputs": [
        {
          "internalType": "uint256",
          "name": "",
          "type": "uint256"
        }
      ],
      "stateMutability": "view",
      "type": "function"
    },
    {
      "inputs": [],
      "name": "getAdminConfig",
      "outputs": [
        {
          "internalType": "address",
          "name": "oracul_",
          "type": "address"
        },
        {
          "internalType": "bool",
          "name": "paused_",
          "type": "bool"
        },
        {
          "internalType": "uint256",
          "name": "withdrawalDelay_",
          "type": "uint256"
        }
      ],
      "stateMutability": "view",
      "type": "function"
    },
    {
      "inputs": [],
      "name": "getBridgeConfig",
      "outputs": [
        {
          "internalType": "address",
          "name": "bridge_",
          "type": "address"
        },
        {
          "internalType": "bytes3",
          "name": "nativeChainId_",
          "type": "bytes3"
        },
        {
          "internalType": "bytes",
          "name": "validatorAddress_",
          "type": "bytes"
        }
      ],
      "stateMutability": "view",
      "type": "function"
    },
    {
      "inputs": [],
      "name": "getTotalAssets",
      "outputs": [
        {
          "internalType": "uint256",
          "name": "",
          "type": "uint256"
        }
      ],
      "stateMutability": "view",
      "type": "function"
    },
    {
      "inputs": [
        {
          "internalType": "address",
          "name": "user",
          "type": "address"
        }
      ],
      "name": "getWithdrawalRequest",
      "outputs": [
        {
          "components": [
            {
              "internalType": "uint256",
              "name": "shares",
              "type": "uint256"
            },
            {
              "internalType": "uint256",
              "name": "unlockTime",
              "type": "uint256"
            }
          ],
          "internalType": "struct ValoraCore.WithdrawalRequest",
          "name": "",
          "type": "tuple"
        }
      ],
      "stateMutability": "view",
      "type": "function"
    },
    {
      "inputs": [
        {
          "internalType": "address",
          "name": "_cellToken",
          "type": "address"
        },
        {
          "internalType": "address",
          "name": "_sCellToken",
          "type": "address"
        },
        {
          "internalType": "address",
          "name": "_oracul",
          "type": "address"
        },
        {
          "internalType": "address",
          "name": "_bridge",
          "type": "address"
        },
        {
          "internalType": "bytes3",
          "name": "_nativeChainId",
          "type": "bytes3"
        },
        {
          "internalType": "bytes",
          "name": "_validatorAddress",
          "type": "bytes"
        }
      ],
      "name": "initialize",
      "outputs": [],
      "stateMutability": "nonpayable",
      "type": "function"
    },
    {
      "inputs": [],
      "name": "isBridgeConfigured",
      "outputs": [
        {
          "internalType": "bool",
          "name": "configured",
          "type": "bool"
        }
      ],
      "stateMutability": "view",
      "type": "function"
    },
    {
      "inputs": [],
      "name": "isOperational",
      "outputs": [
        {
          "internalType": "bool",
          "name": "operational",
          "type": "bool"
        }
      ],
      "stateMutability": "view",
      "type": "function"
    },
    {
      "inputs": [],
      "name": "nativeChainId",
      "outputs": [
        {
          "internalType": "bytes3",
          "name": "",
          "type": "bytes3"
        }
      ],
      "stateMutability": "view",
      "type": "function"
    },
    {
      "inputs": [],
      "name": "oracul",
      "outputs": [
        {
          "internalType": "address",
          "name": "",
          "type": "address"
        }
      ],
      "stateMutability": "view",
      "type": "function"
    },
    {
      "inputs": [],
      "name": "owner",
      "outputs": [
        {
          "internalType": "address",
          "name": "",
          "type": "address"
        }
      ],
      "stateMutability": "view",
      "type": "function"
    },
    {
      "inputs": [],
      "name": "pause",
      "outputs": [],
      "stateMutability": "nonpayable",
      "type": "function"
    },
    {
      "inputs": [],
      "name": "paused",
      "outputs": [
        {
          "internalType": "bool",
          "name": "",
          "type": "bool"
        }
      ],
      "stateMutability": "view",
      "type": "function"
    },
    {
      "inputs": [],
      "name": "proxiableUUID",
      "outputs": [
        {
          "internalType": "bytes32",
          "name": "",
          "type": "bytes32"
        }
      ],
      "stateMutability": "view",
      "type": "function"
    },
    {
      "inputs": [
        {
          "internalType": "uint256",
          "name": "amount",
          "type": "uint256"
        }
      ],
      "name": "rebase",
      "outputs": [],
      "stateMutability": "nonpayable",
      "type": "function"
    },
    {
      "inputs": [],
      "name": "renounceOwnership",
      "outputs": [],
      "stateMutability": "nonpayable",
      "type": "function"
    },
    {
      "inputs": [
        {
          "internalType": "uint256",
          "name": "shares",
          "type": "uint256"
        }
      ],
      "name": "requestWithdrawal",
      "outputs": [],
      "stateMutability": "nonpayable",
      "type": "function"
    },
    {
      "inputs": [],
      "name": "sCellToken",
      "outputs": [
        {
          "internalType": "contract ValoraStakedCell",
          "name": "",
          "type": "address"
        }
      ],
      "stateMutability": "view",
      "type": "function"
    },
    {
      "inputs": [
        {
          "internalType": "address",
          "name": "_bridge",
          "type": "address"
        }
      ],
      "name": "setBridge",
      "outputs": [],
      "stateMutability": "nonpayable",
      "type": "function"
    },
    {
      "inputs": [
        {
          "internalType": "address",
          "name": "_oracul",
          "type": "address"
        }
      ],
      "name": "setOracul",
      "outputs": [],
      "stateMutability": "nonpayable",
      "type": "function"
    },
    {
      "inputs": [
        {
          "internalType": "bytes3",
          "name": "_chainId",
          "type": "bytes3"
        },
        {
          "internalType": "bytes",
          "name": "_validatorAddress",
          "type": "bytes"
        }
      ],
      "name": "setValidatorAddress",
      "outputs": [],
      "stateMutability": "nonpayable",
      "type": "function"
    },
    {
      "inputs": [
        {
          "internalType": "uint256",
          "name": "_delay",
          "type": "uint256"
        }
      ],
      "name": "setWithdrawalDelay",
      "outputs": [],
      "stateMutability": "nonpayable",
      "type": "function"
    },
    {
      "inputs": [
        {
          "internalType": "address",
          "name": "newOwner",
          "type": "address"
        }
      ],
      "name": "transferOwnership",
      "outputs": [],
      "stateMutability": "nonpayable",
      "type": "function"
    },
    {
      "inputs": [],
      "name": "unpause",
      "outputs": [],
      "stateMutability": "nonpayable",
      "type": "function"
    },
    {
      "inputs": [
        {
          "internalType": "address",
          "name": "newImplementation",
          "type": "address"
        },
        {
          "internalType": "bytes",
          "name": "data",
          "type": "bytes"
        }
      ],
      "name": "upgradeToAndCall",
      "outputs": [],
      "stateMutability": "payable",
      "type": "function"
    },
    {
      "inputs": [],
      "name": "validatorAddress",
      "outputs": [
        {
          "internalType": "bytes",
          "name": "",
          "type": "bytes"
        }
      ],
      "stateMutability": "view",
      "type": "function"
    },
    {
      "inputs": [],
      "name": "withdrawalDelay",
      "outputs": [
        {
          "internalType": "uint256",
          "name": "",
          "type": "uint256"
        }
      ],
      "stateMutability": "view",
      "type": "function"
    },
    {
      "inputs": [
        {
          "internalType": "address",
          "name": "",
          "type": "address"
        }
      ],
      "name": "withdrawalRequests",
      "outputs": [
        {
          "internalType": "uint256",
          "name": "shares",
          "type": "uint256"
        },
        {
          "internalType": "uint256",
          "name": "unlockTime",
          "type": "uint256"
        }
      ],
      "stateMutability": "view",
      "type": "function"
    },
    {
      "inputs": [],
      "name": "withdrawalsEnabled",
      "outputs": [
        {
          "internalType": "bool",
          "name": "",
          "type": "bool"
        }
      ],
      "stateMutability": "view",
      "type": "function"
    }
  ],
  "bytecode": "0x60a06040523060805234801561001457600080fd5b50608051612b6b61003e600039600081816119d2015281816119fb0152611b410152612b6b6000f3fe60806040526004361061020f5760003560e01c8063a7ab696111610118578063d2c13da5116100a0578063e779e2261161006f578063e779e226146106b8578063e78cea92146106dc578063e8bac93b146106fc578063f0261af614610711578063f2fde38b1461072657600080fd5b8063d2c13da51461064a578063dbf1c69d1461066a578063e03ff7cb1461068a578063e1e158a51461069f57600080fd5b8063c1a68b38116100e7578063c1a68b381461058f578063c534f35b146105c9578063cd905dff146105e9578063cf5a50f514610609578063d0dbcd241461062957600080fd5b8063a7ab696114610508578063ad3cb1cc1461051e578063b6b55f251461054f578063bc4f2d6d1461056f57600080fd5b806352d1902d1161019b5780638456cb591161016a5780638456cb59146103f95780638c661b5d1461040e5780638da5cb5b1461048b5780638dd14802146104c85780639ee679e8146104e857600080fd5b806352d1902d146103895780635c975abb1461039e5780636e07302b146103cf578063715018a6146103e457600080fd5b80633de80302116101e25780633de80302146102dd5780633f4ba83a146102fd5780633fe4676e1461031457806346e4c41c146103365780634f1ef2861461037657600080fd5b80631185718f14610214578063157a093d1461025157806327b380f3146102715780633ba0b9a9146102ba575b600080fd5b34801561022057600080fd5b50600054610234906001600160a01b031681565b6040516001600160a01b0390911681526020015b60405180910390f35b34801561025d57600080fd5b50600554610234906001600160a01b031681565b34801561027d57600080fd5b506102a561028c366004612475565b6007602052600090815260409020805460019091015482565b60408051928352602083019190915201610248565b3480156102c657600080fd5b506102cf610746565b604051908152602001610248565b3480156102e957600080fd5b50600454610234906001600160a01b031681565b34801561030957600080fd5b50610312610800565b005b34801561032057600080fd5b5061032961083e565b60405161024891906124e0565b34801561034257600080fd5b50600054600154604080516001600160a01b0384168152600160a01b90930460ff1615156020840152820152606001610248565b610312610384366004612509565b6108cc565b34801561039557600080fd5b506102cf6108eb565b3480156103aa57600080fd5b506000546103bf90600160a01b900460ff1681565b6040519015158152602001610248565b3480156103db57600080fd5b506006546102cf565b3480156103f057600080fd5b50610312610908565b34801561040557600080fd5b5061031261091c565b34801561041a57600080fd5b50610470610429366004612475565b6040805180820190915260008082526020820152506001600160a01b0316600090815260076020908152604091829020825180840190935280548352600101549082015290565b60408051825181526020928301519281019290925201610248565b34801561049757600080fd5b507f9016d09d72d40fdae2fd8ceac6b6234c7706214fd39c1cd1e609a0528c199300546001600160a01b0316610234565b3480156104d457600080fd5b506103126104e3366004612475565b610960565b3480156104f457600080fd5b506103126105033660046125cb565b610a0e565b34801561051457600080fd5b506102cf60015481565b34801561052a57600080fd5b50610329604051806040016040528060058152602001640352e302e360dc1b81525081565b34801561055b57600080fd5b5061031261056a3660046125cb565b610d23565b34801561057b57600080fd5b5061031261058a3660046125cb565b610f2c565b34801561059b57600080fd5b506002546105b090600160a01b900460e81b81565b6040516001600160e81b03199091168152602001610248565b3480156105d557600080fd5b506103126105e4366004612645565b611141565b3480156105f557600080fd5b50600054600160a01b900460ff16156103bf565b34801561061557600080fd5b50610312610624366004612475565b611245565b34801561063557600080fd5b506000546103bf90600160a81b900460ff1681565b34801561065657600080fd5b506103126106653660046125cb565b6112ec565b34801561067657600080fd5b50610312610685366004612698565b611376565b34801561069657600080fd5b506103126114cd565b3480156106ab57600080fd5b506102cf64e8d4a5100081565b3480156106c457600080fd5b506106cd611786565b6040516102489392919061272f565b3480156106e857600080fd5b50600254610234906001600160a01b031681565b34801561070857600080fd5b50610312611842565b34801561071d57600080fd5b506103bf6118e0565b34801561073257600080fd5b50610312610741366004612475565b611931565b600080600560009054906101000a90046001600160a01b03166001600160a01b03166318160ddd6040518163ffffffff1660e01b8152600401602060405180830381865afa15801561079c573d6000803e3d6000fd5b505050506040513d601f19601f820116820180604052508101906107c09190612763565b9050806000036107d957670de0b6b3a764000091505090565b80600654670de0b6b3a76400006107f09190612792565b6107fa91906127a9565b91505090565b61080861196c565b6000805460ff60a01b191681556040517fa45f47fdea8a1efdd9029a5691c7f759c32b7c698632b563573e155625d169339190a1565b6003805461084b906127cb565b80601f0160208091040260200160405190810160405280929190818152602001828054610877906127cb565b80156108c45780601f10610899576101008083540402835291602001916108c4565b820191906000526020600020905b8154815290600101906020018083116108a757829003601f168201915b505050505081565b6108d46119c7565b6108dd82611a6c565b6108e78282611a74565b5050565b60006108f5611b36565b50600080516020612af683398151915290565b61091061196c565b61091a6000611b7f565b565b61092461196c565b6000805460ff60a01b1916600160a01b1781556040517f9e87fac88ff661f02d44f95383c817fece4bce600a3dab7a54406878b965e7529190a1565b61096861196c565b6001600160a01b0381166109bc5760405162461bcd60e51b8152602060048201526016602482015275496e76616c696420627269646765206164647265737360501b60448201526064015b60405180910390fd5b600280546001600160a01b038381166001600160a01b0319831681179093556040519116919082907faae9beddccf584528e87b66c6ff2563825c8a1433305b8a656e9b5f9bf39049990600090a35050565b600054600160a01b900460ff1615610a385760405162461bcd60e51b81526004016109b390612805565b600054600160a81b900460ff16610a915760405162461bcd60e51b815260206004820152601b60248201527f5769746864726177616c73206e6f7420656e61626c656420796574000000000060448201526064016109b3565b610a99611bf0565b60008111610ae95760405162461bcd60e51b815260206004820152601d60248201527f536861726573206d7573742062652067726561746572207468616e203000000060448201526064016109b3565b6005546040516370a0823160e01b815233600482015282916001600160a01b0316906370a0823190602401602060405180830381865afa158015610b31573d6000803e3d6000fd5b505050506040513d601f19601f82011682018060405250810190610b559190612763565b1015610b995760405162461bcd60e51b8152602060048201526013602482015272496e73756666696369656e742073686172657360681b60448201526064016109b3565b6005546040516323b872dd60e01b8152336004820152306024820152604481018390526001600160a01b03909116906323b872dd906064016020604051808303816000875af1158015610bf0573d6000803e3d6000fd5b505050506040513d601f19601f82011682018060405250810190610c149190612831565b610c305760405162461bcd60e51b81526004016109b390612853565b600554604051630852cd8d60e31b8152600481018390526001600160a01b03909116906342966c6890602401600060405180830381600087803b158015610c7657600080fd5b505af1158015610c8a573d6000803e3d6000fd5b50505050600060015442610c9e919061287c565b6040805180820182528481526020808201848152336000818152600784528590209351845590516001909301929092558251868152908101849052929350917fd72eb5d043f24a0168ae744d5c44f9596fd673a26bf74d9646bff4b844882d14910160405180910390a250610d206001600080516020612b1683398151915255565b50565b600054600160a01b900460ff1615610d4d5760405162461bcd60e51b81526004016109b390612805565b610d55611bf0565b64e8d4a51000811015610d9d5760405162461bcd60e51b815260206004820152601060248201526f105b5bdd5b9d081d1bdbc81cdb585b1b60821b60448201526064016109b3565b600480546040516323b872dd60e01b81523392810192909252306024830152604482018390526001600160a01b0316906323b872dd906064016020604051808303816000875af1158015610df5573d6000803e3d6000fd5b505050506040513d601f19601f82011682018060405250810190610e199190612831565b610e355760405162461bcd60e51b81526004016109b390612853565b6004805460025460405163095ea7b360e01b81526001600160a01b039182169381019390935260248301849052169063095ea7b3906044016020604051808303816000875af1158015610e8c573d6000803e3d6000fd5b505050506040513d601f19601f82011682018060405250810190610eb09190612831565b610ef55760405162461bcd60e51b8152602060048201526016602482015275109c9a5919d948185c1c1c9bdd985b0819985a5b195960521b60448201526064016109b3565b600454610f0c906001600160a01b03168233611c3c565b610f1581611e18565b610d206001600080516020612b1683398151915255565b6000546001600160a01b03163314610f765760405162461bcd60e51b815260206004820152600d60248201526c1b9bdd08185b881bdc9858dd5b609a1b60448201526064016109b3565b60008111610fc65760405162461bcd60e51b815260206004820152601d60248201527f416d6f756e74206d7573742062652067726561746572207468616e203000000060448201526064016109b3565b600654801561108f57610fda6002826127a9565b8210156110295760405162461bcd60e51b815260206004820152601960248201527f52656261736520646563726561736520746f6f206c617267650000000000000060448201526064016109b3565b6002611036826003612792565b61104091906127a9565b82111561108f5760405162461bcd60e51b815260206004820152601960248201527f52656261736520696e63726561736520746f6f206c617267650000000000000060448201526064016109b3565b6006829055600554604080516318160ddd60e01b815290517f8d01b778e641f65fc8a5cae34cc83e082ab8b2149b3c1bb3925913116fe4633f926001600160a01b0316916318160ddd9160048083019260209291908290030181865afa1580156110fd573d6000803e3d6000fd5b505050506040513d601f19601f820116820180604052508101906111219190612763565b600654604080519283526020830191909152015b60405180910390a15050565b61114961196c565b6001600160e81b031983166111935760405162461bcd60e51b815260206004820152601060248201526f125b9d985b1a590818da185a5b88125160821b60448201526064016109b3565b806111dc5760405162461bcd60e51b8152602060048201526019602482015278496e76616c69642076616c696461746f72206164647265737360381b60448201526064016109b3565b6002805462ffffff60a01b1916600160a01b60e886901c0217905560036112048284836128df565b507ff878121458ba068d742020c1a2b7aa3506c6ca75b5138be1b53cbd88117dc95a8383836040516112389392919061299f565b60405180910390a1505050565b61124d61196c565b6001600160a01b03811661129c5760405162461bcd60e51b8152602060048201526016602482015275496e76616c6964206f7261636c65206164647265737360501b60448201526064016109b3565b600080546001600160a01b038381166001600160a01b0319831681178455604051919092169283917f078c3b417dadf69374a59793b829c52001247130433427049317bde56607b1b79190a35050565b6112f461196c565b62278d008111156113385760405162461bcd60e51b815260206004820152600e60248201526d44656c617920746f6f206c6f6e6760901b60448201526064016109b3565b600180549082905560408051828152602081018490527f9c3f1b54b1487e018f1d0593ff5cf7fb625b2df6332c974a6cc56bb3588798419101611135565b6000611380611fd6565b805490915060ff600160401b820416159067ffffffffffffffff166000811580156113a85750825b905060008267ffffffffffffffff1660011480156113c55750303b155b9050811580156113d3575080155b156113f15760405163f92ee8a960e01b815260040160405180910390fd5b845467ffffffffffffffff19166001178555831561141b57845460ff60401b1916600160401b1785555b611423612001565b61142b612011565b61143433612019565b61143d8a61202a565b611449898989896120a9565b600480546001600160a01b03808f166001600160a01b03199283161790925560058054928e169290911691909117905583156114bf57845460ff60401b19168555604051600181527fc7f505b2f371ae2175ee4913f4499e1f2633a7b5936321eed1cdaeb6115181d29060200160405180910390a15b505050505050505050505050565b600054600160a01b900460ff16156114f75760405162461bcd60e51b81526004016109b390612805565b600054600160a81b900460ff166115505760405162461bcd60e51b815260206004820152601b60248201527f5769746864726177616c73206e6f7420656e61626c656420796574000000000060448201526064016109b3565b611558611bf0565b3360009081526007602090815260409182902082518084019093528054808452600190910154918301919091526115c95760405162461bcd60e51b8152602060048201526015602482015274139bc81c195b991a5b99c81dda5d1a191c985dd85b605a1b60448201526064016109b3565b806020015142101561160c5760405162461bcd60e51b815260206004820152600c60248201526b14dd1a5b1b081b1bd8dad95960a21b60448201526064016109b3565b6000670de0b6b3a764000061161f610746565b835161162b9190612792565b61163591906127a9565b9050600081116116875760405162461bcd60e51b815260206004820152601b60248201527f5769746864726177616c20616d6f756e7420746f6f20736d616c6c000000000060448201526064016109b3565b336000908152600760205260408120818155600101556116a6816121d0565b6004805460405163a9059cbb60e01b81523392810192909252602482018390526001600160a01b03169063a9059cbb906044016020604051808303816000875af11580156116f8573d6000803e3d6000fd5b505050506040513d601f19601f8201168201806040525081019061171c9190612831565b6117385760405162461bcd60e51b81526004016109b390612853565b60405181815233907f60188009b974c2fa66ee3b916d93f64d6534ea2204e0c466f9784ace689e8e499060200160405180910390a2505061091a6001600080516020612b1683398151915255565b6002546003805460009283926060926001600160a01b03831692600160a01b900460e81b919081906117b7906127cb565b80601f01602080910402602001604051908101604052809291908181526020018280546117e3906127cb565b80156118305780601f1061180557610100808354040283529160200191611830565b820191906000526020600020905b81548152906001019060200180831161181357829003601f168201915b50505050509050925092509250909192565b61184a61196c565b600054600160a81b900460ff16156118a45760405162461bcd60e51b815260206004820152601b60248201527f5769746864726177616c7320616c726561647920656e61626c6564000000000060448201526064016109b3565b6000805460ff60a81b1916600160a81b1781556040517fab2bf4ab08d6736c3ec6c77bb2b0eef4a5c46863d8df631be31ea5b59dc618de9190a1565b6002546000906001600160a01b0316158015906119125750600254600160a01b900460e81b6001600160e81b03191615155b801561192c5750600060038054611928906127cb565b9050115b905090565b61193961196c565b6001600160a01b03811661196357604051631e4fbdf760e01b8152600060048201526024016109b3565b610d2081611b7f565b3361199e7f9016d09d72d40fdae2fd8ceac6b6234c7706214fd39c1cd1e609a0528c199300546001600160a01b031690565b6001600160a01b03161461091a5760405163118cdaa760e01b81523360048201526024016109b3565b306001600160a01b037f0000000000000000000000000000000000000000000000000000000000000000161480611a4e57507f00000000000000000000000000000000000000000000000000000000000000006001600160a01b0316611a42600080516020612af6833981519152546001600160a01b031690565b6001600160a01b031614155b1561091a5760405163703e46dd60e11b815260040160405180910390fd5b610d2061196c565b816001600160a01b03166352d1902d6040518163ffffffff1660e01b8152600401602060405180830381865afa925050508015611ace575060408051601f3d908101601f19168201909252611acb91810190612763565b60015b611af657604051634c9c8ce360e01b81526001600160a01b03831660048201526024016109b3565b600080516020612af68339815191528114611b2757604051632a87526960e21b8152600481018290526024016109b3565b611b318383612232565b505050565b306001600160a01b037f0000000000000000000000000000000000000000000000000000000000000000161461091a5760405163703e46dd60e11b815260040160405180910390fd5b7f9016d09d72d40fdae2fd8ceac6b6234c7706214fd39c1cd1e609a0528c19930080546001600160a01b031981166001600160a01b03848116918217845560405192169182907f8be0079c531659141344cd1fd0a4f28419497f9722a3daafe3b4186f6b6457e090600090a3505050565b600080516020612b16833981519152805460011901611c2257604051633ee5aeb560e01b815260040160405180910390fd5b60029055565b6001600080516020612b1683398151915255565b6002546001600160a01b0316611c8c5760405162461bcd60e51b8152602060048201526015602482015274109c9a5919d9481b9bdd0818dbdb999a59dd5c9959605a1b60448201526064016109b3565b600254600160a01b900460e81b6001600160e81b031916611cef5760405162461bcd60e51b815260206004820152601b60248201527f4e617469766520636861696e206e6f7420636f6e66696775726564000000000060448201526064016109b3565b600060038054611cfe906127cb565b905011611d4d5760405162461bcd60e51b815260206004820181905260248201527f56616c696461746f722061646472657373206e6f7420636f6e6669677572656460448201526064016109b3565b600254604051630f8b653f60e31b81526001600160a01b03821691637c5b29f891611d8c9187918791600160a01b900460e81b90600390600401612a5a565b600060405180830381600087803b158015611da657600080fd5b505af1158015611dba573d6000803e3d6000fd5b50506002546040516001600160a01b03851693507ff53d586108e9b715479241030bdf8c2fc6f28b68221d23c24ac29c8b2084abef9250611e0b918691600160a01b90910460e81b90600390612a9f565b60405180910390a2505050565b600554604080516318160ddd60e01b815290516000926001600160a01b0316916318160ddd9160048083019260209291908290030181865afa158015611e62573d6000803e3d6000fd5b505050506040513d601f19601f82011682018060405250810190611e869190612763565b6006549091506000821580611e99575081155b15611ea5575082611f20565b81611eb08486612792565b611eba91906127a9565b905060008111611f205760405162461bcd60e51b815260206004820152602b60248201527f4465706f73697420746f6f20736d616c6c2c20776f756c6420726573756c742060448201526a696e20302073686172657360a81b60648201526084016109b3565b6005546040516340c10f1960e01b8152336004820152602481018390526001600160a01b03909116906340c10f1990604401600060405180830381600087803b158015611f6c57600080fd5b505af1158015611f80573d6000803e3d6000fd5b505050508360066000828254611f96919061287c565b909155505060405184815233907f9e71bc8eea02a63969f509818f2dafb9254532904319f9dbda79b67bd34a5f3d9060200160405180910390a250505050565b6000807ff0c57e16840df040f15088dc2f81fe391c3923bec73e23a9662efc9c229c6a005b92915050565b612009612288565b61091a6122ad565b61091a612288565b612021612288565b610d20816122b5565b612032612288565b6001600160a01b0381166120815760405162461bcd60e51b8152602060048201526016602482015275496e76616c6964206f7261636c65206164647265737360501b60448201526064016109b3565b600080546001600160b01b0319166001600160a01b0390921691909117905562093a80600155565b6120b1612288565b6001600160a01b0384166121005760405162461bcd60e51b8152602060048201526016602482015275496e76616c696420627269646765206164647265737360501b60448201526064016109b3565b6001600160e81b0319831661214a5760405162461bcd60e51b815260206004820152601060248201526f125b9d985b1a590818da185a5b88125160821b60448201526064016109b3565b806121935760405162461bcd60e51b8152602060048201526019602482015278496e76616c69642076616c696461746f72206164647265737360381b60448201526064016109b3565b6002805460e885901c600160a01b026001600160b81b03199091166001600160a01b0387161717905560036121c98284836128df565b5050505050565b8060065410156122185760405162461bcd60e51b8152602060048201526013602482015272496e73756666696369656e742061737365747360681b60448201526064016109b3565b806006600082825461222a9190612ac6565b909155505050565b61223b826122bd565b6040516001600160a01b038316907fbc7cd75a20ee27fd9adebab32041f755214dbc6bffa90cc0225b39da2e5c2d3b90600090a280511561228057611b318282612322565b6108e7612398565b6122906123b7565b61091a57604051631afcd79f60e31b815260040160405180910390fd5b611c28612288565b611939612288565b806001600160a01b03163b6000036122f357604051634c9c8ce360e01b81526001600160a01b03821660048201526024016109b3565b600080516020612af683398151915280546001600160a01b0319166001600160a01b0392909216919091179055565b6060600080846001600160a01b03168460405161233f9190612ad9565b600060405180830381855af49150503d806000811461237a576040519150601f19603f3d011682016040523d82523d6000602084013e61237f565b606091505b509150915061238f8583836123d1565b95945050505050565b341561091a5760405163b398979f60e01b815260040160405180910390fd5b60006123c1611fd6565b54600160401b900460ff16919050565b6060826123e6576123e182612430565b612429565b81511580156123fd57506001600160a01b0384163b155b1561242657604051639996b31560e01b81526001600160a01b03851660048201526024016109b3565b50805b9392505050565b8051156124405780518082602001fd5b60405163d6bda27560e01b815260040160405180910390fd5b80356001600160a01b038116811461247057600080fd5b919050565b60006020828403121561248757600080fd5b61242982612459565b60005b838110156124ab578181015183820152602001612493565b50506000910152565b600081518084526124cc816020860160208601612490565b601f01601f19169290920160200192915050565b60208152600061242960208301846124b4565b634e487b7160e01b600052604160045260246000fd5b6000806040838503121561251c57600080fd5b61252583612459565b9150602083013567ffffffffffffffff8082111561254257600080fd5b818501915085601f83011261255657600080fd5b813581811115612568576125686124f3565b604051601f8201601f19908116603f01168101908382118183101715612590576125906124f3565b816040528281528860208487010111156125a957600080fd5b8260208601602083013760006020848301015280955050505050509250929050565b6000602082840312156125dd57600080fd5b5035919050565b80356001600160e81b03198116811461247057600080fd5b60008083601f84011261260e57600080fd5b50813567ffffffffffffffff81111561262657600080fd5b60208301915083602082850101111561263e57600080fd5b9250929050565b60008060006040848603121561265a57600080fd5b612663846125e4565b9250602084013567ffffffffffffffff81111561267f57600080fd5b61268b868287016125fc565b9497909650939450505050565b600080600080600080600060c0888a0312156126b357600080fd5b6126bc88612459565b96506126ca60208901612459565b95506126d860408901612459565b94506126e660608901612459565b93506126f4608089016125e4565b925060a088013567ffffffffffffffff81111561271057600080fd5b61271c8a828b016125fc565b989b979a50959850939692959293505050565b6001600160a01b03841681526001600160e81b03198316602082015260606040820181905260009061238f908301846124b4565b60006020828403121561277557600080fd5b5051919050565b634e487b7160e01b600052601160045260246000fd5b8082028115828204841417611ffb57611ffb61277c565b6000826127c657634e487b7160e01b600052601260045260246000fd5b500490565b600181811c908216806127df57607f821691505b6020821081036127ff57634e487b7160e01b600052602260045260246000fd5b50919050565b60208082526012908201527110dbdb9d1c9858dd081a5cc81c185d5cd95960721b604082015260600190565b60006020828403121561284357600080fd5b8151801515811461242957600080fd5b6020808252600f908201526e151c985b9cd9995c8819985a5b1959608a1b604082015260600190565b80820180821115611ffb57611ffb61277c565b601f821115611b31576000816000526020600020601f850160051c810160208610156128b85750805b601f850160051c820191505b818110156128d7578281556001016128c4565b505050505050565b67ffffffffffffffff8311156128f7576128f76124f3565b61290b8361290583546127cb565b8361288f565b6000601f84116001811461293f57600085156129275750838201355b600019600387901b1c1916600186901b1783556121c9565b600083815260209020601f19861690835b828110156129705786850135825560209485019460019092019101612950565b508682101561298d5760001960f88860031b161c19848701351681555b505060018560011b0183555050505050565b62ffffff60e81b8416815260406020820152816040820152818360608301376000818301606090810191909152601f909201601f1916010192915050565b600081546129ea816127cb565b808552602060018381168015612a075760018114612a2157612a4f565b60ff1985168884015283151560051b880183019550612a4f565b866000528260002060005b85811015612a475781548a8201860152908301908401612a2c565b890184019650505b505050505092915050565b6001600160a01b0385168152602081018490526001600160e81b031983166040820152608060608201819052600090612a95908301846129dd565b9695505050505050565b83815262ffffff60e81b8316602082015260606040820152600061238f60608301846129dd565b81810381811115611ffb57611ffb61277c565b60008251612aeb818460208701612490565b919091019291505056fe360894a13ba1a3210667c828492db98dca3e2076cc3735a920a3ca505d382bbc9b779b17422d0df92223018b32b4d1fa46e071723d6817e2486d003becc55f00a26469706673582212207ef68c9a49caaf3937ce64cda7201455f23092cb6be7f2ed18fe36ac6489924264736f6c63430008180033",
  "linkReferences": {},
  "deployedLinkReferences": {}
}