{
  "_format": "hh-sol-artifact-1",
  "contractName": "ValoraStakedCell",
  "sourceName": "contracts/ValoraStakedCell.sol",
  "abi": [
    {
      "inputs": [],
      "stateMutability": "nonpayable",
      "type": "constructor"
    },
    {
      "inputs": [
        {
          "internalType": "address",
          "name": "spender",
          "type": "address"
        },
        {
          "internalType": "uint256",
          "name": "allowance",
          "type": "uint256"
        },
        {
          "internalType": "uint256",
          "name": "needed",
          "type": "uint256"
        }
      ],
      "name": "ERC20InsufficientAllowance",
      "type": "error"
    },
    {
      "inputs": [
        {
          "internalType": "address",
          "name": "sender",
          "type": "address"
        },
        {
          "internalType": "uint256",
          "name": "balance",
          "type": "uint256"
        },
        {
          "internalType": "uint256",
          "name": "needed",
          "type": "uint256"
        }
      ],
      "name": "ERC20InsufficientBalance",
      "type": "error"
    },
    {
      "inputs": [
        {
          "internalType": "address",
          "name": "approver",
          "type": "address"
        }
      ],
      "name": "ERC20InvalidApprover",
      "type": "error"
    },
    {
      "inputs": [
        {
          "internalType": "address",
          "name": "receiver",
          "type": "address"
        }
      ],
      "name": "ERC20InvalidReceiver",
      "type": "error"
    },
    {
      "inputs": [
        {
          "internalType": "address",
          "name": "sender",
          "type": "address"
        }
      ],
      "name": "ERC20InvalidSender",
      "type": "error"
    },
    {
      "inputs": [
        {
          "internalType": "address",
          "name": "spender",
          "type": "address"
        }
      ],
      "name": "ERC20InvalidSpender",
      "type": "error"
    },
    {
      "inputs": [
        {
          "internalType": "address",
          "name": "owner",
          "type": "address"
        }
      ],
      "name": "OwnableInvalidOwner",
      "type": "error"
    },
    {
      "inputs": [
        {
          "internalType": "address",
          "name": "account",
          "type": "address"
        }
      ],
      "name": "OwnableUnauthorizedAccount",
      "type": "error"
    },
    {
      "anonymous": false,
      "inputs": [
        {
          "indexed": true,
          "internalType": "address",
          "name": "owner",
          "type": "address"
        },
        {
          "indexed": true,
          "internalType": "address",
          "name": "spender",
          "type": "address"
        },
        {
          "indexed": false,
          "internalType": "uint256",
          "name": "value",
          "type": "uint256"
        }
      ],
      "name": "Approval",
      "type": "event"
    },
    {
      "anonymous": false,
      "inputs": [
        {
          "indexed": true,
          "internalType": "address",
          "name": "oldCore",
          "type": "address"
        },
        {
          "indexed": true,
          "internalType": "address",
          "name": "newCore",
          "type": "address"
        }
      ],
      "name": "CoreContractUpdated",
      "type": "event"
    },
    {
      "anonymous": false,
      "inputs": [
        {
          "indexed": true,
          "internalType": "address",
          "name": "previousOwner",
          "type": "address"
        },
        {
          "indexed": true,
          "internalType": "address",
          "name": "newOwner",
          "type": "address"
        }
      ],
      "name": "OwnershipTransferred",
      "type": "event"
    },
    {
      "anonymous": false,
      "inputs": [
        {
          "indexed": true,
          "internalType": "address",
          "name": "from",
          "type": "address"
        },
        {
          "indexed": true,
          "internalType": "address",
          "name": "to",
          "type": "address"
        },
        {
          "indexed": false,
          "internalType": "uint256",
          "name": "value",
          "type": "uint256"
        }
      ],
      "name": "Transfer",
      "type": "event"
    },
    {
      "inputs": [
        {
          "internalType": "address",
          "name": "owner",
          "type": "address"
        },
        {
          "internalType": "address",
          "name": "spender",
          "type": "address"
        }
      ],
      "name": "allowance",
      "outputs": [
        {
          "internalType": "uint256",
          "name": "",
          "type": "uint256"
        }
      ],
      "stateMutability": "view",
      "type": "function"
    },
    {
      "inputs": [
        {
          "internalType": "address",
          "name": "spender",
          "type": "address"
        },
        {
          "internalType": "uint256",
          "name": "value",
          "type": "uint256"
        }
      ],
      "name": "approve",
      "outputs": [
        {
          "internalType": "bool",
          "name": "",
          "type": "bool"
        }
      ],
      "stateMutability": "nonpayable",
      "type": "function"
    },
    {
      "inputs": [
        {
          "internalType": "address",
          "name": "account",
          "type": "address"
        }
      ],
      "name": "balanceOf",
      "outputs": [
        {
          "internalType": "uint256",
          "name": "",
          "type": "uint256"
        }
      ],
      "stateMutability": "view",
      "type": "function"
    },
    {
      "inputs": [
        {
          "internalType": "uint256",
          "name": "amount",
          "type": "uint256"
        }
      ],
      "name": "burn",
      "outputs": [],
      "stateMutability": "nonpayable",
      "type": "function"
    },
    {
      "inputs": [],
      "name": "coreContract",
      "outputs": [
        {
          "internalType": "address",
          "name": "",
          "type": "address"
        }
      ],
      "stateMutability": "view",
      "type": "function"
    },
    {
      "inputs": [],
      "name": "decimals",
      "outputs": [
        {
          "internalType": "uint8",
          "name": "",
          "type": "uint8"
        }
      ],
      "stateMutability": "view",
      "type": "function"
    },
    {
      "inputs": [
        {
          "internalType": "address",
          "name": "to",
          "type": "address"
        },
        {
          "internalType": "uint256",
          "name": "amount",
          "type": "uint256"
        }
      ],
      "name": "mint",
      "outputs": [],
      "stateMutability": "nonpayable",
      "type": "function"
    },
    {
      "inputs": [],
      "name": "name",
      "outputs": [
        {
          "internalType": "string",
          "name": "",
          "type": "string"
        }
      ],
      "stateMutability": "view",
      "type": "function"
    },
    {
      "inputs": [],
      "name": "owner",
      "outputs": [
        {
          "internalType": "address",
          "name": "",
          "type": "address"
        }
      ],
      "stateMutability": "view",
      "type": "function"
    },
    {
      "inputs": [],
      "name": "renounceOwnership",
      "outputs": [],
      "stateMutability": "nonpayable",
      "type": "function"
    },
    {
      "inputs": [
        {
          "internalType": "address",
          "name": "_core",
          "type": "address"
        }
      ],
      "name": "setCoreContract",
      "outputs": [],
      "stateMutability": "nonpayable",
      "type": "function"
    },
    {
      "inputs": [],
      "name": "symbol",
      "outputs": [
        {
          "internalType": "string",
          "name": "",
          "type": "string"
        }
      ],
      "stateMutability": "view",
      "type": "function"
    },
    {
      "inputs": [],
      "name": "totalSupply",
      "outputs": [
        {
          "internalType": "uint256",
          "name": "",
          "type": "uint256"
        }
      ],
      "stateMutability": "view",
      "type": "function"
    },
    {
      "inputs": [
        {
          "internalType": "address",
          "name": "to",
          "type": "address"
        },
        {
          "internalType": "uint256",
          "name": "value",
          "type": "uint256"
        }
      ],
      "name": "transfer",
      "outputs": [
        {
          "internalType": "bool",
          "name": "",
          "type": "bool"
        }
      ],
      "stateMutability": "nonpayable",
      "type": "function"
    },
    {
      "inputs": [
        {
          "internalType": "address",
          "name": "from",
          "type": "address"
        },
        {
          "internalType": "address",
          "name": "to",
          "type": "address"
        },
        {
          "internalType": "uint256",
          "name": "value",
          "type": "uint256"
        }
      ],
      "name": "transferFrom",
      "outputs": [
        {
          "internalType": "bool",
          "name": "",
          "type": "bool"
        }
      ],
      "stateMutability": "nonpayable",
      "type": "function"
    },
    {
      "inputs": [
        {
          "internalType": "address",
          "name": "newOwner",
          "type": "address"
        }
      ],
      "name": "transferOwnership",
      "outputs": [],
      "stateMutability": "nonpayable",
      "type": "function"
    }
  ],
  "bytecode": "0x60806040523480156200001157600080fd5b50336040518060400160405280601281526020017115985b1bdc984814dd185ad9590810d95b1b60721b815250604051806040016040528060058152602001641cd0d1531360da1b81525081600390816200006d9190620001b9565b5060046200007c8282620001b9565b5050506001600160a01b038116620000ae57604051631e4fbdf760e01b81526000600482015260240160405180910390fd5b620000b981620000c0565b5062000285565b600580546001600160a01b038381166001600160a01b0319831681179093556040519116919082907f8be0079c531659141344cd1fd0a4f28419497f9722a3daafe3b4186f6b6457e090600090a35050565b634e487b7160e01b600052604160045260246000fd5b600181811c908216806200013d57607f821691505b6020821081036200015e57634e487b7160e01b600052602260045260246000fd5b50919050565b601f821115620001b4576000816000526020600020601f850160051c810160208610156200018f5750805b601f850160051c820191505b81811015620001b0578281556001016200019b565b5050505b505050565b81516001600160401b03811115620001d557620001d562000112565b620001ed81620001e6845462000128565b8462000164565b602080601f8311600181146200022557600084156200020c5750858301515b600019600386901b1c1916600185901b178555620001b0565b600085815260208120601f198616915b82811015620002565788860151825594840194600190910190840162000235565b5085821015620002755787850151600019600388901b60f8161c191681555b5050505050600190811b01905550565b610be580620002956000396000f3fe608060405234801561001057600080fd5b50600436106101005760003560e01c8063715018a611610097578063c626669311610066578063c626669314610213578063dd62ed3e14610226578063e80db5db1461025f578063f2fde38b1461027257600080fd5b8063715018a6146101cb5780638da5cb5b146101d357806395d89b41146101f8578063a9059cbb1461020057600080fd5b8063313ce567116100d3578063313ce5671461016b57806340c10f191461017a57806342966c681461018f57806370a08231146101a257600080fd5b806306fdde0314610105578063095ea7b31461012357806318160ddd1461014657806323b872dd14610158575b600080fd5b61010d610285565b60405161011a9190610a15565b60405180910390f35b610136610131366004610a80565b610317565b604051901515815260200161011a565b6002545b60405190815260200161011a565b610136610166366004610aaa565b610331565b6040516012815260200161011a565b61018d610188366004610a80565b610355565b005b61018d61019d366004610ae6565b610468565b61014a6101b0366004610aff565b6001600160a01b031660009081526020819052604090205490565b61018d61051f565b6005546001600160a01b03165b6040516001600160a01b03909116815260200161011a565b61010d610533565b61013661020e366004610a80565b610542565b61018d610221366004610aff565b610550565b61014a610234366004610b21565b6001600160a01b03918216600090815260016020908152604080832093909416825291909152205490565b6006546101e0906001600160a01b031681565b61018d610280366004610aff565b610600565b60606003805461029490610b54565b80601f01602080910402602001604051908101604052809291908181526020018280546102c090610b54565b801561030d5780601f106102e25761010080835404028352916020019161030d565b820191906000526020600020905b8154815290600101906020018083116102f057829003601f168201915b5050505050905090565b60003361032581858561063b565b60019150505b92915050565b60003361033f85828561064d565b61034a8585856106cc565b506001949350505050565b6006546001600160a01b031633146103b45760405162461bcd60e51b815260206004820152601a60248201527f4f6e6c7920636f726520636f6e747261637420616c6c6f77656400000000000060448201526064015b60405180910390fd5b6001600160a01b03821661040a5760405162461bcd60e51b815260206004820152601b60248201527f43616e6e6f74206d696e7420746f207a65726f2061646472657373000000000060448201526064016103ab565b6000811161045a5760405162461bcd60e51b815260206004820152601d60248201527f416d6f756e74206d7573742062652067726561746572207468616e203000000060448201526064016103ab565b610464828261072b565b5050565b6006546001600160a01b031633146104c25760405162461bcd60e51b815260206004820152601a60248201527f4f6e6c7920636f726520636f6e747261637420616c6c6f77656400000000000060448201526064016103ab565b600081116105125760405162461bcd60e51b815260206004820152601d60248201527f416d6f756e74206d7573742062652067726561746572207468616e203000000060448201526064016103ab565b61051c3082610761565b50565b610527610797565b61053160006107c4565b565b60606004805461029490610b54565b6000336103258185856106cc565b610558610797565b6001600160a01b0381166105ae5760405162461bcd60e51b815260206004820152601d60248201527f496e76616c696420636f726520636f6e7472616374206164647265737300000060448201526064016103ab565b600680546001600160a01b038381166001600160a01b0319831681179093556040519116919082907f3031b4b27765dea43fa73ae93b7d9fda4f5fa1019ac8d1f82c4f48b6189da2f290600090a35050565b610608610797565b6001600160a01b03811661063257604051631e4fbdf760e01b8152600060048201526024016103ab565b61051c816107c4565b6106488383836001610816565b505050565b6001600160a01b038381166000908152600160209081526040808320938616835292905220546000198110156106c657818110156106b757604051637dc7a0d960e11b81526001600160a01b038416600482015260248101829052604481018390526064016103ab565b6106c684848484036000610816565b50505050565b6001600160a01b0383166106f657604051634b637e8f60e11b8152600060048201526024016103ab565b6001600160a01b0382166107205760405163ec442f0560e01b8152600060048201526024016103ab565b6106488383836108eb565b6001600160a01b0382166107555760405163ec442f0560e01b8152600060048201526024016103ab565b610464600083836108eb565b6001600160a01b03821661078b57604051634b637e8f60e11b8152600060048201526024016103ab565b610464826000836108eb565b6005546001600160a01b031633146105315760405163118cdaa760e01b81523360048201526024016103ab565b600580546001600160a01b038381166001600160a01b0319831681179093556040519116919082907f8be0079c531659141344cd1fd0a4f28419497f9722a3daafe3b4186f6b6457e090600090a35050565b6001600160a01b0384166108405760405163e602df0560e01b8152600060048201526024016103ab565b6001600160a01b03831661086a57604051634a1406b160e11b8152600060048201526024016103ab565b6001600160a01b03808516600090815260016020908152604080832093871683529290522082905580156106c657826001600160a01b0316846001600160a01b03167f8c5be1e5ebec7d5bd14f71427d1e84f3dd0314c0f7b2291e5b200ac8c7c3b925846040516108dd91815260200190565b60405180910390a350505050565b6001600160a01b03831661091657806002600082825461090b9190610b8e565b909155506109889050565b6001600160a01b038316600090815260208190526040902054818110156109695760405163391434e360e21b81526001600160a01b038516600482015260248101829052604481018390526064016103ab565b6001600160a01b03841660009081526020819052604090209082900390555b6001600160a01b0382166109a4576002805482900390556109c3565b6001600160a01b03821660009081526020819052604090208054820190555b816001600160a01b0316836001600160a01b03167fddf252ad1be2c89b69c2b068fc378daa952ba7f163c4a11628f55a4df523b3ef83604051610a0891815260200190565b60405180910390a3505050565b60006020808352835180602085015260005b81811015610a4357858101830151858201604001528201610a27565b506000604082860101526040601f19601f8301168501019250505092915050565b80356001600160a01b0381168114610a7b57600080fd5b919050565b60008060408385031215610a9357600080fd5b610a9c83610a64565b946020939093013593505050565b600080600060608486031215610abf57600080fd5b610ac884610a64565b9250610ad660208501610a64565b9150604084013590509250925092565b600060208284031215610af857600080fd5b5035919050565b600060208284031215610b1157600080fd5b610b1a82610a64565b9392505050565b60008060408385031215610b3457600080fd5b610b3d83610a64565b9150610b4b60208401610a64565b90509250929050565b600181811c90821680610b6857607f821691505b602082108103610b8857634e487b7160e01b600052602260045260246000fd5b50919050565b8082018082111561032b57634e487b7160e01b600052601160045260246000fdfea26469706673582212203fd56ad6baa384fde4bc1a22392dd639e0c1b61e1e70586748cfbb6b496fd63764736f6c63430008180033",
  "linkReferences": {},
  "deployedLinkReferences": {}
}